:020000040000FA
:100000003835002001020000090200000B02000048
:100010000D0200000F0200001102000000000000AD
:1000200000000000000000000000000013020000BB
:10003000150200000902000017020000190200006A
:100040006D3100006D3200001B0200005D320000C7
:1000500079360000E13D0000CD3D0000B1220000F6
:100060001B0200001B0200001B020000154B0000D9
:100070001B0200001B0200009D1C00001B02000070
:100080001B0200001B0200001B0200001B020000FC
:100090001B0200001B0200001B0200001B020000EC
:1000A0001B0200001B020000853500003D220000FD
:1000B000713C00001B020000454700001B020000CD
:1000C0001B0200001B02000000F002F800F088F89C
:1000D0000AA090E8000C82448344AAF10107DA45A3
:1000E00001D100F07DF8AFF2090EBAE80F0013F06D
:1000F000010F18BFFB1A43F001031847A077000057
:10010000C07700000A444FF0000C10F8013B13F0D8
:10011000070408BF10F8014B1D1108BF10F8015B60
:10012000641E05D010F8016B641E01F8016BF9D153
:1001300013F0080F1EBF10F8014BAD1C0C1B09D1AA
:100140006D1E58BF01F801CBFAD505E014F8016B1C
:1001500001F8016B6D1EF9D59142D6D370470000AE
:100160000023002400250026103A28BF78C1FBD8C0
:10017000520728BF30C148BF0B607047662907F09F
:10018000FF8003681B0A28BF41F08001642900F04A
:100190002F81782900F09081F82900F09B81732944
:1001A00000F0DA86002070471FB507F0DCF89DE804
:1001B000030001F061FB01F041F804000020002180
:1001C00007F02EF8401C60600020002107F03EF888
:1001D000E06000F027FF1FBD10B500F08CFF10BDE0
:1001E00001F009FB1146FFF7DFFF06F0A7F801F069
:1001F00095FC03B4FFF7F0FF03BC01F0B7FC00006F
:100200000948804709480047FEE7FEE7FEE7FEE7AA
:10021000FEE7FEE7FEE7FEE7FEE7FEE704480549E6
:10022000054A064B70470000A1490000C9000000C4
:1002300038250020383500203831002038310020A2
:10024000004870474C12002053EA020C00F069800D
:100250002DE9F04B4FF00006002B1FBFB3FA83F5DA
:1002600003FA05F424FA05F65E4012BF1643B2FA0B
:1002700082F502FA05F4C5F120051EBF22FA05FC3D
:1002800044EA0C04203556EA044C4FEA144418BFE3
:10029000641C4FF000084FF00009904271EB030C12
:1002A00039D3002919BFB1FA81F701FA07F6B0FA7C
:1002B00080F700FA07F6C7F120071EBF20FA07FCF7
:1002C00046EA0C062037B6FBF4FCA7EB0507103F07
:1002D00007F01F0BCBF120062CFA06F60CFA0BFBED
:1002E00044BFB3460026202FA4BF5E464FF0000B4C
:1002F0005BEA060C08BF4FF0010B19EB0B0948EB4A
:100300000608ABFB027C06FB02CC0BFB03CCC01B3C
:1003100071EB0C01C1E70B46024641464846BDE879
:10032000F08B13B5084318BF4FF0FF300146AFF311
:100330000080BDE81C4070470FB4044910B503AA03
:10034000029800F00DFE10BC5DF814FBA411002013
:1003500070B5044685690068C10601D5302600E005
:100360002026C00707D070BDD4E901213046904750
:10037000206A401C20626D1EF6D570BD70B5044623
:1003800085690078C00707D170BDD4E9012120201C
:100390009047206A401C20626D1EF6D570BD70B576
:1003A0000C460546012A05D02878800600D5EA6962
:1003B000002302E0012305E05B1C934202D2E05CD3
:1003C0000028F9D1A869E618C01AA861286A18445B
:1003D00028622846FFF7BCFF04E0D5E9012114F8A4
:1003E000010B9047B442F8D32846FFF7C7FF70BD12
:1003F0002DE9F0410646002410687529314616A5FE
:1004000010D0AFF30080002802DA404213A507E0C5
:1004100031688A0701D512A502E0490704D511A564
:10042000012401E0AFF3008000210A2206F1240735
:1004300009E0B0FBF2FCB0FBF2F302FB1C00303031
:1004400078541846491C0028F3D123462A463046E2
:10045000BDE8F04100F007BB000000002D000000E7
:100460002B00000020000000F0B40D4601880905B3
:1004700002D51B4C7C4402E0194C7C440E34002114
:1004800000F1240608E002F00F071209E75D42EAD6
:1004900003721B097754491C52EA0307F3D1224621
:1004A00004780023240704D5702D02D009B102235B
:1004B0001132F0BC00F0D7BA70B504460D462146A3
:1004C0001068AFF30080024629462046BDE8704020
:1004D0000023C9E7D21D22F00703D3E90023C3E7B5
:1004E0000C6F00002DE9F0474FF0000A89460446E2
:1004F000C0F820A02046E1688847002876D025284B
:1005000006D0D4E901219047206A401C2062F1E71F
:10051000E168204600268847C4F81CA0054600274D
:10052000C4F818A02A2D09D0284606F065FE38B375
:1005300004EB8708303DC8F8185019E059F8041B3F
:10054000204604EB87029161E1688847012F054648
:1005500018D1E069002820DA26F020061DE0D8F83E
:10056000180000EB800005EB40003038C8F8180098
:100570002046E1688847054606F03EFE0028EED199
:10058000012F0AD02E2D08D12046E16888477F1C14
:100590000546022F46F02006C4DBA069002803DAD6
:1005A000404246F00106A061F00701D026F0100697
:1005B0006C2D0AD0682D08D04C2D39D06A2D35D03D
:1005C000742D35D07A2D33D016E0E1682F462046C1
:1005D0008847B84205460AD16C2F27D04FF4806077
:1005E000E168064320468847054605E027E06C2F72
:1005F0001AD04FF4807006430DB3A5F141001928BD
:1006000002D8203546F400664A4629462046266030
:100610004E46FFF7B3FD80B101280BD0F61D26F042
:10062000070000F1080965E74020E4E78020D7E7EC
:100630000020D5E706F104095CE7284661E7206A57
:10064000BDE8F0872DE9F04791460F468046044605
:10065000002614F8015B2DB100F0F0F90068405D50
:10066000C007F6D12B2D02D02D2D18D0641E4A467E
:100670003946204600F086FC27B13968A14201D1F5
:10068000C7F800804FF0020471050BD540420028E6
:1006900003DDFFF7D5FD0460A007BDE8F08746F451
:1006A0008066E4E70028F8DAFFF7CAFD04606FF01F
:1006B0000040F2E72DE9F05F93460F46804604467E
:1006C0000026FFF7BDFDD0F80090824614F8015BCC
:1006D0002DB100F0B3F90068405DC007F6D12B2DB5
:1006E00002D02D2D1AD0641E0021CAF800105A46DF
:1006F0003946204600F046FC014627B13868A04242
:1007000001D1C7F80080DAF80000022809D0CAF841
:100710000090700505D54842BDE8F09F46F480661C
:10072000E2E70846F8E7000010B5044603E006F0EB
:100730006AFD401C09D014F8010B05490028F6D1C8
:10074000BDE810400A2006F05EBD4FF0FF3010BD3E
:10075000A411002070B5C468A50713D0650211D498
:10076000B2F5807F09D0B2F5007F06D0B2F5806F78
:1007700008D1012300F1240106E05D1E6FF07F46E1
:10078000B54201D3012070BD0161C361416024F411
:1007900070611143C160002070BD401ECAB210F8E4
:1007A000011F8A4202D00029F9D10020704730B5DC
:1007B00003461D781DB10A4603E0AC4201D1181A68
:1007C00030BD12F8014B002CF7D15B1CF1E730B5BE
:1007D00003461D783DB10A4612F8014B1CB1AC42EC
:1007E000FAD15B1CF5E7181A30BD2DE9F0410E4631
:1007F0000546002400E0641C285D00F027F9074648
:10080000305D00F023F9381A02D1295D0029F2D1B8
:10081000BDE8F08110B5431C02E010F8011B71B176
:100820008107FAD14FF0013202C88C1A8C4314EAC6
:10083000C211F9D0C01A0A0603D0C01E10BDC01ADA
:1008400010BD0A0401D0801E10BD0902FCD0401E5C
:1008500010BD032A40F2308010F0030C00F0158028
:1008600011F8013BBCF1020F624498BF11F801CBB3
:1008700000F8013B38BF11F8013BA2F1040298BF18
:1008800000F801CB38BF00F8013B11F0030300F082
:100890006584083AC0F0088051F8043B083A51F8E2
:1008A00004CBA0E80810F5E7121D5CBF51F8043B2B
:1008B00040F8043BAFF30080D20724BF11F8013B9E
:1008C00011F801CB48BF11F8012B24BF00F8013B00
:1008D00000F801CB48BF00F8012B7047431A28BF2E
:1008E0009A427FF6B6AF10441144032A40F22680A4
:1008F00010F0030F1EBF11F8013D521E00F8013D1C
:1009000010F0030F7FF4F6AF11F0030300F06B84D7
:10091000083AC0F00B8051F8043D083A51F804CD74
:1009200040F8043D40F804CDFFF7F3BF121D5CBF53
:1009300051F8043D40F8043DAFF30080D20724BFD6
:1009400011F8013D11F801CD48BF11F8012C24BF69
:1009500000F8013D00F801CD48BF00F8012C7047B8
:100960004FF0000200B5134694469646203922BF48
:10097000A0E80C50A0E80C50B1F12001BFF4F7AF93
:10098000090728BFA0E80C5048BF0CC05DF804EB75
:10099000890028BF40F8042B08BF704748BF20F8E3
:1009A000022B11F0804F18BF00F8012B7047000098
:1009B00030B44FF0013C50F8042B51F8043BCCFA12
:1009C00052F4D51A20D1FCB950F8042B51F8043B4D
:1009D000CCFA52F4D51A17D1B4B950F8042B51F807
:1009E000043BCCFA52F4D51A0ED16CB950F8042B52
:1009F00051F8043BCCFA52F4D51A05D1002CDAD0C8
:100A000030BC4FF00000704729BAB1FA81F111F003
:100A10001801D1F120008440F2D1CA40CB4012F03D
:100A2000FF0213F0FF0330BCD01A704770477047C5
:100A300070470000004870474C12002010B500F0CD
:100A4000FDFB001D10BD00BFD967000010B50446B6
:100A5000FFF7F4FF0068005DC00602D504F1200036
:100A600010BD204610BD2DE9F0470D46994692462F
:100A7000044600F124080168880604D5E06921F0E5
:100A80001001216000E00120A84201DD471B00E0C9
:100A90000027A1697A1902EB0900081AA0612078E1
:100AA000C00602D42046FFF753FC002608E0D4E934
:100AB00001211AF806009047206A401C761C20622B
:100AC0004E45F4DB2078C0060AD52046FFF740FCEF
:100AD00006E0D4E9012130209047206A401C2062C2
:100AE000381EA7F10107F4DC07E0D4E9012118F86A
:100AF00005009047206A401C2062281EA5F10105D0
:100B0000F3DC2046FFF73AFC2078000602D50220ED
:100B1000BDE8F0870120FBE72DE9FF4F0C461E469C
:100B20004FF0FF378BB0D2E90001DDF860800A900A
:100B30008A46C1F30A5505B93D46002108464FF0E3
:100B40000000BAF1000F00F4400005DA00EB80006D
:100B50004FF4400101EA50004FEA9059B9F1010FFA
:100B600000DDB9460A9850EA4A000ED044F610500B
:100B7000A5F2FF3545432F14B8F1000F1ED0754282
:100B8000291E1EDDC9F100021CE0B8F1010F4FF073
:100B9000000001D0302103E0F24305E02154401C65
:100BA000B042FBDB30460022002121540B99C1F8F2
:100BB0000880C1E900200FB0BDE8F08FBD1B6D1C9F
:100BC000DEE74A4600DA694206A800F00DFC06ABF3
:100BD00093E8070003AB83E8070050460A9905F045
:100BE0002BFF8DE80700A0F500501F3800900398F8
:100BF000002D0ADD42F21F014A460844002303A9E2
:100C00000390684606F094F909E0A0F500504A46C2
:100C10001F38002303A90390684606F09EF98DE86B
:100C200007000004000C03D04FF0FF30410800E043
:100C30001046B8F1000F03D00022009215461EE0C6
:100C4000751E05D400F025FB303262556D1EF9D5B6
:100C5000B3460122084302D000227F1C04E0207822
:100C6000302801D100227F1E002A099784D01DE080
:100C7000112D07DA00F00DFB303262556D1C50EA81
:100C80000102F5D1084302D00098C8B10EE000215E
:100C9000681E05E0235C625C63542254401E491CBC
:100CA0008142F7DBAB46A81B401E0990002004F8E8
:100CB0000B000B98099AC0F80880C0E9002B7AE76E
:100CC00011264FF0000857E72DE9F04F88460446FB
:100CD000D21D22F0070191B0D1E90001CDE90A014E
:100CE00006F072FA02460B98C00F01D02D2007E0E3
:100CF0002068810701D52B2002E0202101EAC000F5
:100D0000032A099001D0072A05DB03464146204605
:100D100000F01CFB0BE12078800601D5E06900E0C3
:100D20000620B8F1650F814606D0B8F1660F18D0DD
:100D3000B8F1670F70D131E00020B9F1110F0090C8
:100D400001DB112301E009F101030AAA01A90CA8A2
:100D5000FFF7E2FEDDE90C70002609F1010583468C
:100D600047E001204B4600904FF000470AAA01A936
:100D70000CA8FFF7D1FEDDE90DB00C995D46002609
:100D800010B909F101000D18B9EB050003D4C0F149
:100D9000FF3609F10105A5EB09002BE0B9F1010FC0
:100DA00001DA4FF001090020B9F1110F0090484617
:100DB00001DD112300E003460AAA01A90CA8FFF7F0
:100DC000ABFEDDE90C704D46002683462078000717
:100DD0000AD4AB4500DA5D4601A8012D04DD4119B6
:100DE00011F8011C302907D04F4502DA17F1040F22
:100DF00004DA012082460FE06D1EEEE7002F02DCD0
:100E0000ED1B3E4403E0781CA84200DD7D1CB81BAE
:100E100000F1010A4FF000472078000703D4AA45EB
:100E200001DB4FF0FF3A0021B7F1004F0DF143080D
:100E30008DF8431024D002202B23002F01DA7F42AB
:100E40002D230A21021EA0F1010000DC5FB197FBF7
:100E5000F1FC97FBF1F201FB1C7C17460CF1300C06
:100E600008F801CDEEE7A8F101000370218809051B
:100E700001D5452100E06521A0F1010800F8011C21
:100E800009980FA9A1EB0807FF1D00B10120411926
:100E900001EBEA70A1693844081A401EA06120786D
:100EA000C00602D42046FFF753FA099828B1D4E9C6
:100EB00001219047206A401C20622078C00622D57C
:100EC0002046FFF745FA1EE0002E04DBB34502DDA5
:100ED00001A8805D00E03020D4E901219047206A1C
:100EE000401C2062761CAAF101005FEA000A0AD1C8
:100EF00000F0A4F9C0680168405CD4E90121904782
:100F0000206A401C2062281EA5F10105DCDC07E0F8
:100F1000D4E9012118F8010B9047206A401C206297
:100F2000381EA7F10107F3DC2046FFF727FA03205C
:100F300011B041E610B5436913B1AFF3008001E091
:100F4000FFF72DFA012010BD127800F124010A707C
:100F500000224A700122EDE711684FF0FF32E9E705
:100F6000074B70B50D467B4400F0DDF9044628467A
:100F700000F0ACFA10B14FF0FF3070BD204670BDEC
:100F80009D6200002DE9F05F824615468B460027E2
:100F90000AF10104B9460078302801D09DB113E070
:100FA00014F8010B0127782803D0582801D045B147
:100FB0000AE00DB1102D07D1002714F8010B102500
:100FC00002E0082500E00A250026B0460EE005FBF9
:100FD000080005FB06F101271FFA80F801EB104617
:100FE000B6F5803F00D3B94614F8010B294600F04E
:100FF000EDF90028EBDABBF1000F05D00FB1641E4C
:1010000000E05446CBF80040B9F1000F06D0FFF7DE
:1010100017F902210160C81EBDE8F09F48EA0640AA
:10102000FAE7000010B542485421FFF799FC414807
:101030005421FFF795FC40485421FFF791FC3F49AC
:101040003B483C4A3F4B08603D490A603A491960B9
:10105000531C0365481C1065012008653B48344A51
:1010600039A1784400F022FB20B9384878440A3886
:1010700000F0BAFB37482F4A35A1784400F016FB40
:1010800020B9344878440A3800F0AEFB32482A4A86
:101090002FA1784400F00AFB20B92F4878440A3881
:1010A00000F0A2FB40232248DC0000212246FFF78B
:1010B00051FB20B125487844543800F095FB1D4879
:1010C000224640230021FFF745FB20B12148784408
:1010D000543800F089FB1848224610230021FFF7FE
:1010E00039FB002806D01C487844BDE8104056382B
:1010F00000F07ABB10BD104870B5006D20F00104FF
:101100000B4800F04BFB0B4800F048FB0A4800F08E
:1011100045FB09E0206D20F00105204600F03EFB74
:10112000204600F08FF82C46002CF3D170BD000053
:1011300050110020A4110020F81100200000002010
:10114000040000200800002072000000FE63000080
:1011500077000000ED630000C663000010B5203A80
:10116000C0F00B80B1E81850A0E81850B1E8185052
:10117000A0E81850203ABFF4F5AF5FEA027C24BF24
:10118000B1E81850A0E8185044BF18C918C0BDE80D
:1011900010405FEA827C24BF51F8043B40F8043BD6
:1011A00008BF7047D20728BF31F8023B48BF11F88B
:1011B000012B28BF20F8023B48BF00F8012B7047E5
:1011C000431A28BF9A427FF6C9AF1044114410F069
:1011D000030F1EBF11F8013D521E00F8013D10F033
:1011E000030F7FF4F6AF103AC0F00A8010B531E972
:1011F000185020E91850103ABFF4F9AFBDE810407C
:10120000530724BF31E9081020E9081044BF51F802
:10121000043D40F8043D12F0030F08BF7047D207A9
:1012200028BF31F8023D48BF11F8012C28BF20F833
:10123000023D48BF00F8012C70470000004870478D
:101240006C12002070B50446051F00F0F9FA006822
:10125000002C14BF446870BD002C18BFAC423CBFCA
:1012600020466468F8D301680A18AA4218BF45608E
:1012700003D12A6805461144016028684119A1423A
:101280001CBF6C6070BD616869602168084428609B
:1012900070BD30B5B0F10A0271F100034FEA900E53
:1012A0004EEA817EB0EB0E0061EB91014FEA101E19
:1012B0004EEA017E10EB0E0041EB11114FEA102EA9
:1012C0004EEA016E10EB0E0041EB11214FEA104E79
:1012D0004EEA014E10EB0E0041EB1141401841F176
:1012E00000014FEAD00040EA41704FEAD1014FEAD5
:1012F000810444EA907410EB800544EB01046D19FD
:1013000044EB0404521BA3414FF0000348BF0A32D0
:1013100000D530BD401C41F1000130BD01694A1CBF
:1013200002610878704700B58FB0CDE90131002126
:10133000059105497944CDE9031011466846FFF748
:10134000D1F80FB000BD0000E5FFFFFF2DE9F0412F
:101350001F46044603260168072A01F4006004DBE7
:1013600008B116A505E016A503E008B115A500E033
:1013700015A521F010002060A069C01EA0610FB16A
:10138000401EA0612046FEF7E3FF4FB1D4E90121E2
:1013900038469047206A401C2062C01C206206E04C
:1013A000206AFAE7D4E9012115F8010B9047761E6F
:1013B000F8D22046FEF7E2FFBDE8F0814E414E0034
:1013C0006E616E00494E4600696E66003A2800D292
:1013D000303820F02002412A01D3A2F137008842A0
:1013E00001D34FF0FF3070472DE9F0478146164694
:1013F0008AB0354878440DC88DE80D0032487844ED
:10140000801C03AC0DC884E80D0041F69B300844F5
:10141000372190FBF1F290FBF1F5A5F1800501FB7E
:1014200012041B3C02D56442012000E00020DFF8DA
:1014300098A080460027FA44AAF1BE0A0EE0E00711
:101440000AD03246684607EB470101230AEB8101C7
:1014500005F083FD8DE8070064107F1C002CEED1A1
:10146000194F7F44AE3F19E0E80715D007EB041091
:101470000DF1180A90E80E008AE80E00C068F042EC
:1014800001D1981908903246012306A903A805F056
:1014900064FD03AB83E807006D10641C002DE3D1ED
:1014A0004FF0010332466946B8F1000F03A802D09D
:1014B00005F03EFD01E005F050FDC9E90001C9F865
:1014C00008200AB0BDE8F08730600000007B00F023
:1014D000800070472DE9F04705460C46C86820F4A7
:1014E000201040F48000C860800602D5084600F055
:1014F000F4FAE06841F282014FF0FF39014002291D
:1015000003D0204600F092FAB5E000F42041B1F596
:10151000004F0FD1C00306D56168E06A884200D849
:101520000846606006E02069E0626060606903F080
:1015300063FCA061A0680022EEB200280DDAE16829
:101540008B050AD4C043A06041F490302260E06073
:101550006068411C61600670A5E0E068904622600A
:1015600040F40050E060206968BB606903F046FC0D
:10157000012704F12405A0B1A08910F4407F08D010
:10158000E06900F0A8F9206118B1E06840F400605B
:1015900016E0E7612561E06820F4407040F4806067
:1015A0000EE0E06900F097F900282061F1D0E068D2
:1015B00040F4006010F4407FE06002D140F480709D
:1015C000E06020696060E06825696FF0010AC1058C
:1015D0001FD56168E06A884200D80846411B04D0E4
:1015E0002246284600F02CFAF0BBE068010203D541
:1015F000E562C4E9015854E0691CE1626160E16997
:1016000040F48030491EC4E9021030462E70BDE817
:10161000F087010202D500F480320AE06068411CC4
:1016200061600670E0680A2E40F48030E06006D009
:101630000022E16A6068814203D90B4602E0012280
:10164000F7E70346A7895B1B7F0503D4E7699F4241
:1016500000DDE2B1814200D80146E5620F1AC4E91B
:101660000158002B09DD00E005E022461946284616
:1016700000F0E6F908B14846C9E747B1A069E5625C
:101680006560C01BA061E06840F01000E060E068A9
:10169000000208D56168A069E562491B08446560DD
:1016A000A0615046B3E73046B1E700002DE9F041B4
:1016B0000C461646070047D0104600F06FF8207819
:1016C000611C61280AD0722802D077283CD102E040
:1016D0000125002405E00225042402E0082448F244
:1016E000020511F8010B2B2806D0622809D011F849
:1016F000010C74280AD00BE045F0030544F0020405
:10170000EFE745F0040544F00104EAE744F0100473
:101710003846214603F07AFB411C15D00021316187
:1017200071604FF40071F560F1617061200704D5BC
:1017300030460222002100F0FDF8306D40F001003B
:1017400030653046BDE8F0810020FBE72DE9F0412F
:101750000D460646104C206DC10704D0410804D048
:1017600020F00104F7E722460EE0542000F0B3F821
:1017700007000ED0206D47F0010108435421206579
:101780003846FFF7EDF83A4629463046BDE8F041C5
:101790008CE70020D6E70000501100202DE9F0472B
:1017A00004464FF000094FF0FF37C568D4E90486BE
:1017B000A80707D0204600F06DF9304603F012FB71
:1017C000002802DA3846BDE8F087280502D54046F1
:1017D000FFF738FD4C212046FFF7C2F8206D20F0BE
:1017E000010020654846EEE710B500F0A5F9BDE818
:1017F000104000F09CB97546FFF71CF9AE46050095
:101800006946534620F00700854618B020B5FEF71C
:1018100005FDBDE820404FF000064FF000074FF0F7
:1018200000084FF0000BAC46ACE8C009ACE8C009BA
:10183000ACE8C009ACE8C00921F007018D4670474B
:101840000048704754120020704770477047704737
:1018500038B504460A4600206946AFF300800028E8
:1018600008BF38BD02460099204600F08CF90120DF
:1018700038BD012000F0DBB9F8B5AFF300800546B4
:1018800000200C46102000BF0646A819A0420DD922
:10189000324669460020AFF30080070008BF00F021
:1018A000C6F90098A04218BF0546C419FFF7C8FF43
:1018B00005600746F01D20F007004619284600F095
:1018C0005BF9B44208BFF8BDA21B31463868BDE8D9
:1018D000F84000F058B970B50646FFF7B1FF05684B
:1018E00006F10B0020F00704B4429CBF002070BD3D
:1018F0002B466A68BAB11068A04210D304F10801FF
:1019000088423CBF5068586007D351681019416045
:101910001168091B016058601460101D70BD1346EA
:101920005268002AE7D121462846FFF791FF002898
:10193000DED170BD2DE9F041044616460D464769DB
:10194000007B80072ED0384603F058FA50BB3EB3D8
:10195000012E02D0022E25D104E0204600F02DF900
:1019600005441DE0384603F047FAE168002841F0DD
:101970001001E16005DA204600F058F80120BDE8CA
:10198000F081C9030BD56268E16A914200D8114623
:10199000A26911442269891A814200DD0846054482
:1019A000002D01DA0220EAE7E16A6068E26881421C
:1019B00006D29103E06203D522F4003141F0100217
:1019C000A6690027AE4213DCE16A814201D90B46C9
:1019D00000E0034603EB060C2369ACEB030CAC45BB
:1019E00006DD814201D98C4600E084469C4505D144
:1019F000A760276042F02000A5620DE0AD1BE669FC
:101A0000AE1B8142A66000D90846C01A281A206081
:101A10005819606022F0200003490840E06000206F
:101A200084F84870ABE70000BFCFD7FFC16821F44E
:101A3000001141F08001C1600021816001607047A8
:101A40002DE9F047814614460E464FF0FF383248E4
:101A5000D5685769054209D03846A16903F008FAEC
:101A6000002811DB2C48C0430540E5602B46324678
:101A70004946384603F000FAA16920F00042B21A44
:101A800011440028A16103D02046FFF7CFFF404654
:101A9000BDE8F08770B504460569C06A6168884290
:101AA00000D80846E16821F42011E160C90312D58D
:101AB000A84208D02246411B2846FFF7C1FF10B1BB
:101AC0004FF0FF3070BD0020E562C4E90150E068CE
:101AD00020F48030E060002070BD10B50446C0687E
:101AE00020F02000E060A16AA06988420DD0204665
:101AF000FFF7D0FFE06820F4405040F01000E060B5
:101B0000A06AA0612069E062606044F24001E06880
:101B10008843E06010BD00001000020010B50446CC
:101B2000AFF300802046BDE81040FEF762BB0028FE
:101B300001D000F01BB8704710B5014602A000F0BC
:101B40005DF8012010BD00005349475254524544EE
:101B50003A2052656469726563743A2063616E2746
:101B600074206F70656E3A20000000000149182053
:101B7000ABBEFEE72600020000210160C0E90110B3
:101B8000704710207047034640688C46002818BFF5
:101B900088423CBF03464068F8D31868184488421E
:101BA00007D00CF1030020F00700001D411A521A63
:101BB0000146081D0A60FFF745BB10B50146C26823
:101BC000900703D0900607D5886A0AE0FEF738FB35
:101BD00001210160881E10BD8B69486818440B699B
:101BE000C01A91F848301BB191F84910401A10BD45
:101BF0001103FCD50028FADD401E10BD70B5054666
:101C00000C460A2000E06D1C00F018F835B1287869
:101C10000028F8D102E0641C00F010F814B120781C
:101C20000028F8D1BDE870400A2000F007B810B5D0
:101C300000F00CF8BDE81040FFF779BF08B5694621
:101C40008DF800000320ABBE08BD704710B5012819
:101C500005D0002103A0FFF7D1FF012010BD09A18D
:101C6000F8E7000053494752544D454D3A204F750F
:101C700074206F662068656170206D656D6F727984
:101C8000000000003A2048656170206D656D6F723C
:101C90007920636F727275707465640080B500F0AE
:101CA000CDF841F6B441C2F20001086040F20C00E8
:101CB000C2F20000007804282FD8DFE800F00331DA
:101CC0006C81960041F2BE2CC2F2000C9CF8002000
:101CD0001AB3096841F2CC50A1F5006241F2AC217F
:101CE000C2F200010B68C2F2000040F82320581C29
:101CF00041F2C0220860C2F20002128890420CD168
:101D0000002008608CF8000041F64830C2F2000064
:101D1000007810B144A0FEF707FD04F035FD80BD4A
:101D200048F2B010C0F6E0700268C36EC2F307421A
:101D30009FED3A0A40F2200CFF2AC2F2000C25D097
:101D4000C3F30B1340F6FF7083421FD091ED001ACE
:101D500000EE103AB8EE400AB8EEC11A9FED302AF4
:101D600030EE410A20EE020A8CED000A9CED000ADA
:101D70009FED2C1A80EE010A8CED000A00EE102A6D
:101D80009CED001AB8EE400A30EE410A8CED000AD4
:101D900004F0DEFC80BD91ED000A9FED1E1AB8EE46
:101DA000C00A9FED1D2A20EE010A41F2C45020EE28
:101DB000020AC2F2000080ED000A04F091FC80BD2E
:101DC00091ED000A9FED131AB8EEC00A9FED122A9A
:101DD00020EE010A41F2B42020EE020AC2F2000015
:101DE00080ED000A04F0D0FC80BD91ED000A9FED6B
:101DF000091AB8EEC00A9FED082A20EE010A41F246
:101E0000C85020EE020AC2F2000080ED000A04F081
:101E100083FC80BD00409C4500008039339388C31B
:101E200000409C4448E1EAC55049522073616D70FE
:101E30006C696E6720646F6E652E0D0042F248007B
:101E4000C4F2000000687047F0B581B0CF780D464D
:101E500004467FB12068000614D442F20040C0F26C
:101E6000F400002100F034F94FF4FA40002100F0B2
:101E70002FF907E042F20040C0F2F400002100F028
:101E800027F907460A20A06028784FF4FE466978B3
:101E9000AA7806EA072747EA00602B7902F07F025A
:101EA000084440EA0240002B18BF40F010002060B8
:101EB0006979204600F0FAFA2068000610D5B820AB
:101EC000C0F2320000F042FC42F20000C4F2000016
:101ED000844205D148F20020C0F2040000F036FC34
:101EE000204600F069F801B0F0BD0000F0B581B007
:101EF00004460220A0600D4689782046002200F0AA
:101F000069F82A7995F801C06B791102E87841EAFD
:101F10000C6141EA0341EB7941EAC000297A002BC8
:101F200018BF40F000500029A97918BF04300029DB
:101F300018BF40F00200697AF32A40EA010E08D186
:101F4000BCF1030F05D8A978002904BF042161F36F
:101F50001B6EAB78E02695F800C0AA7AEF7A13F0F2
:101F6000800108BF5E0146EA0E06266166694BF6EF
:101F7000F870CFF6E170304003F07F03002918BFFE
:101F8000184340EA4C40002F18BF00F580406061C4
:101F90002046022100F034FA28791021F338B0FAF3
:101FA00080F0420904F1300000F02AFAE06FD4F822
:101FB0008000E06801B0F0BD4FF40061016470473B
:101FC00042F24400C4F20000016841F001010160E6
:101FD0007047000010B548F2000E42F20003CFF641
:101FE000FF7E002AC4F200031EBF4FF6FF7EC8F238
:101FF000000E1022D0F834C0984218BF10BD0CEA71
:102000000E0C06294FF0000E17D8DFE801F0042966
:10201000183A5A5A4E0048F2142EC0F6E07E5EF886
:10202000043C5EF8041C03F4FE445EF8043C01F03A
:102030000F01214403F0F00341E0812941D148F22E
:102040001421C0F6E0710B680C68096803F4FE43C4
:1020500004F00F04234401F0F00103EB010E30E023
:1020600048F21421C0F6E07151F8043C51F8044CD8
:102070004FF4FE4E0EEA1343C4F3034451F8041C1C
:102080000CE048F21421C0F6E0710B680C684FF4C4
:10209000FE4E0EEA1343C4F3034409682344F024BC
:1020A00004EA114103EB010E0BE048F21421C0F6E3
:1020B000E0714B68496803F00F0301F0F00101EB98
:1020C000030E0EFA02F141EA0C01416310BD00005B
:1020D00010B50446B0F5FA4F42F20040C0F2F400E9
:1020E00098BF4FF4FA44844228BF044631B944F201
:1020F0004010C0F2050000F029FB014660180138CD
:1021000084429ABFB0FBF4F0013800207F2828BF3A
:102110007F20C0B210BD000010B504460A20A060A8
:102120004FF60070C0F2FF00206100204FF4F8115C
:102130006061A061E061216040F60071C0F203318E
:102140006064216420632062606243F6E410A06250
:10215000D4F88C00002140F00100C4F88C00D4F8C1
:102160009000002240F00100C4F890002046FFF7E4
:1021700031FF204600210122FFF72CFF10BD000097
:1021800042F20800C4F20000012101607047000023
:1021900058B980B544F24010C0F2050000F0D6FAFC
:1021A000002808BF0120BDE8804044F23F21C0F272
:1021B0000F0108444DF68361C4F21B31A0FB0101FD
:1021C0004FF0FF3000EB9140C0B270472DE9F04373
:1021D00081B044F2040447F20808C4F20804C4F2CF
:1021E00008084FF07E4900BF01F078F92568D8F85B
:1021F0000070266801F0BAF906F0606005F06061D1
:1022000080F0007081F000710843B0FA80F0B9EB03
:10221000074F4FEA501004D10028E5D14FF47E401B
:1022200008E028B13804001400EB9060801101E050
:102230004FF47E4000B201B0BDE8F08347F23000B9
:10224000C4F208000168C268114081607047000054
:1022500047F2140047F2FE01C4F20800C0F2020186
:1022600001604FF4985141606021C8F2D111816042
:102270000021416143F63E01416342F2BC5181635A
:1022800040F20511C0F20201C16540F2131101666E
:1022900048F28041C0F26D014166704700EB40009A
:1022A00040F200514002C4F2023101220A5070474C
:1022B00041F2E000C4F208000168C2681140816088
:1022C0007047000041F2EC00C4F20800016821F4FC
:1022D000806101607047000041F22000C4F20800F4
:1022E00000686FF35F30704780B500200021002246
:1022F000002300F001F880BDF0B581B00746002052
:102300001C4615460E46FFF7C9FF3846314600F019
:102310000DF844B1C6F5807080B2A04203D32846C0
:10232000214600F003F801B0F0BD0000B0B50C4646
:10233000054601F0C7F854B141F21801681EC4F215
:10234000080100BF10F8012F013C0A60FAD101F02A
:1023500001F9B0BD80B541F2000041F2C222C4F2E1
:1023600008000221C2F2000201634263AF2242650B
:10237000016041F2C241C2F20001416042F220011B
:1023800041620021016641F2C231C2F200014166A0
:102390003E21C0F884100020FFF780FF0120FFF7E6
:1023A0007DFF0220FFF77AFFFFF78CFF80BD000062
:1023B000400100EB81004FF084414058704700001D
:1023C000400100EB81004FF084414058704700000D
:1023D00040F6B420C4F2C63000210160704700000E
:1023E000400100EB81004FF08441425070470000F3
:1023F000400100EB81004FF08441425070470000E3
:10240000400100EB81004FF08441425070470000D2
:102410004AF23C00C4F200404FF4004101607047B2
:102420004FF08062815070474FF08062815070475A
:102430004FF08061C0224250704700004FF0806230
:10244000815070474FF080628150704744F23000F5
:10245000C4F208404FF4EE61016070474AF23C005C
:10246000C4F200604FF40041016070474FF0C06259
:10247000815070474FF0C062815070474FF0C0628A
:10248000815070474FF0C062815070474FF0C0627A
:10249000815070474FF0C0628150704744F20C0089
:1024A000C4F208604FF4607101607047B0B50C462B
:1024B0000546FFF7BDFF28462146FFF7DFFFB0BD09
:1024C000B0B582B0442044F2B005C4F20E00012140
:1024D000C4F20E05016002F013FA044601A802F0EE
:1024E000EDF98E2C0FD8286849F6D07240F004011F
:1024F00029600621C4F200024FF05013013942F85E
:10250000303FFBD128608F2C06D855F8840C202151
:1025100061F3060045F8840C9DF80500012807D1F9
:1025200043F26410C4F20E00016841F0040101603E
:10253000FFF74EFF02B0B0BD40F22400C2F200002F
:1025400000687047F0B581B044F218070546C4F240
:102550000E0700F02FF8044640F22400C2F20000FB
:1025600007F59476056000BF30461921FFF720FF7C
:102570000028F9D140F60010C0F23D0085420FD08E
:1025800048F28040C0F21E0085420CD044F2402048
:10259000C0F20F00854204BF022060F35A6405E0D8
:1025A00024F0C06402E0012060F35A643C6001B092
:1025B000F0BD0000014642F2FF30C0F2F40081425B
:1025C0004FF000001EDC40F6FF02C0F23D029142D7
:1025D00037DD40F60012C0F23D0291423ED04CF68B
:1025E000C072C0F26A0291425DD045F64052C0F21C
:1025F000C602914201BF48F29020C0F6E0708069A7
:1026000070475BE04BF67F22C0F28C1291422BDDCB
:102610004BF68022C0F28C12914238D044F6000270
:10262000C0F2E812914244D04DF28052C0F24322EF
:10263000914201BF48F29020C0F6E070006B7047F5
:102640003CE044F24022C0F20F02914206D048F230
:102650008042C0F21E02914218BF704748F290209B
:10266000C0F6E0700068704742F20042C0F2F40227
:10267000914212D04EF6C022C0F22112914201BF07
:1026800048F29020C0F6E070006A704716E048F209
:102690009020C0F6E070806A704748F29020C0F643
:1026A000E070C069704748F29020C0F6E070C068E2
:1026B000704748F29020C0F6E070C06A7047000092
:1026C00080B540F60010C0F23D00FFF73BFF80BD33
:1026D00080B500F0CBF8013080BD000070B5C0F3CC
:1026E0000322531E092B88BF70BD0C4644F200051F
:1026F000C4F20E0500220021DFE803F01C052707C5
:10270000090B0F271318C03512E0C83510E0B0359B
:102710000EE0E035012201210CE0E8351021012214
:1027200008E0F0354FF48031012203E005F5A8758B
:1027300000220021C0F3043612B1084604F040F82C
:10274000284631462246FFF74BFE70BDB0B5C0F3B8
:10275000444104461F294FF0000088BFB0BDDFE8A8
:1027600001F010131B8383102532358338468354C0
:1027700083666C8372838383838383788383838379
:10278000837B02F0E1F8B0BD02F0DEF844F20811FC
:10279000C4F20E01096806E002F0D6F844F208110E
:1027A000C4F20E014968C1F3082108E002F0CCF838
:1027B00044F20811C4F20E01C968C1F304210131C9
:1027C000B0FBF1F0B0BD03F0DBF9B0BD02F082FB6D
:1027D000B0BD0520C0F2240003F0BAFC44F2081199
:1027E000C4F20E01896A01F00F01C840B0BD022099
:1027F000C0F21E0003F0ACFC44F20811C4F20E015A
:102800008969044601F00F000CE00320C0F22000AB
:1028100003F09EFC44F20811C4F20E01096A04465A
:1028200001F0030001F0D2FEB4FBF0F0B0BD0220D5
:10283000C0F21E0003F08CFCB0BD0320C0F22000EB
:1028400003F086FCB0BD0520C0F2240003F080FC3C
:10285000B0BD02F029FBB0BD02F076F80546204677
:10286000FFF736FFB5FBF0F0B0BD000080B50146C4
:10287000C0F30310421E092A4FF0000088BF80BD3C
:10288000DFE802F005450D4D42425516243544F26D
:102890000010C4F20E000068C0F3042080BD44F2B2
:1028A0000010C4F20E000068C0F3006001301AE0AE
:1028B00040F28060C0F21600814226D144F200103E
:1028C000C4F20E00006A00F00F000CE040F29070BD
:1028D000C0F21A00814218D144F20010C4F20E0076
:1028E000806A00F0030001F071FE013880BD40F6FF
:1028F000A010C0F21400814207D144F20010C4F2CB
:102900000E00006B00F00F0080BD002080BD44F27F
:102910000010C4F20E004069C0F3042080BD44F2F0
:102920000010C4F20E00C068C0F3082080BD44F25D
:102930000010C4F20E008068C0F3082080BD0000C3
:1029400000F00F00411E07294FF0000088BF7047BC
:10295000DFE801F0041421133547135244F27000EC
:10296000C4F20E00406A00F00700023803283EBFA0
:10297000C0F10400C0B270470520704744F27000F7
:10298000C4F20E00006900F007000138042824BFDB
:10299000012070471FE044F27000C4F20E0040694D
:1029A00000F007000138042824BF0120704740F2DE
:1029B0000321C0F60121C00001F5A02129E044F265
:1029C0007000C4F20E00806900F00700013804288E
:1029D00024BF0120704740F20321C000C0F601214E
:1029E00017E044F27000C4F20E000068C0074FF018
:1029F000090008BF0720704744F27000C4F20E00BF
:102A0000D0F8EC00182101EA500040F20171C0F644
:102A1000040121FA00F0C0B27047000070B500F068
:102A20000F000138072800F29B8044F27004C4F2C2
:102A30000E0404F118020025DFE800F004232692BA
:102A4000253E92110239032900F28A8004250020D4
:102A5000DFE801F06502545D032501205FE00139E4
:102A6000072988BF70BD0020DFE801F0737A7A047F
:102A70007A7A6B7202200121012200F073F8202083
:102A800067E004F110021546002DA1F1010008BF16
:102A900004F11405092863D80026DFE800F02A05B0
:102AA0001461611C6161612900200121012200F093
:102AB00059F802262E6070BD09291CD007294FD174
:102AC0000020206070BD012001210122012600F0BC
:102AD00049F82E6070BD01F037FF03F083FD04F16B
:102AE000400000210122FFF77BFC03262E6070BD11
:102AF00004262E6070BD0120206070BD44F60100E8
:102B0000C0F2E81003F06EFD0220022507E044F653
:102B10000100C0F2E81003F065FD0125032001214A
:102B2000012200F01FF803F02DF9656001F0F8FEB6
:102B3000044601F009FF03F055FD204600F074F94A
:102B400070BD04200121012200F00CF8102000E0EB
:102B50003020D4F8EC1021F030010843C4F8EC0028
:102B600070BD00002DE9F04704284CD89046064679
:102B700040B238A252F820703BA252F8205044F2E2
:102B80009004C4F20E0451B33CA151F82090022EDF
:102B900002D103F009F9C0B34FF0010A44F8309CA8
:102BA00020463946FFF704FC0028F9D0B8F1000FA1
:102BB00029D000BF20462946FFF7FAFB0028F9D0AC
:102BC000B01E18BF012050EA0A001CD154F86C0C4A
:102BD000C00723D10220002100F002F923E02CA13C
:102BE00051F8200044F8300C0120B840216801421F
:102BF000FCD1B8F1000F08BFBDE8F0870120A84064
:102C000021680142FCD1BDE8F08754F86C0CC00784
:102C100018BF03F013FD4FF0000ABFE70220202188
:102C2000012200F069F8022000F03CF8064602207C
:102C300000210122FFF796FF0220314600F070F8D4
:102C400044F8309C20462946FFF7B2FB0028F9D013
:102C5000D9E700BF080000000600000002000000E5
:102C60000000000004000000090000000700000050
:102C7000030000000100000005000000000100004A
:102C800040000000040000000100000010000000EF
:102C900000020000800000000800000002000000A8
:102CA000200000000138032884BF00207047DFE8BF
:102CB00000F0021A0A1244F21000C4F20E00006979
:102CC0006FF35F20704744F21000C4F20E000068FA
:102CD00000F07F00704744F21000C4F20E008068DC
:102CE00000F07F00704744F21000C4F20E00D0F8EC
:102CF0008C006FF3DF20704780B502280ED149B1F8
:102D000044F2640CC4F20E0C4FF48063CCF84430EF
:102D1000CCF8001012B100F063F880BD012080BD36
:102D2000B0B50138032888BFB0BD0C46DFE800F01D
:102D30000237152344F24015C4F20E0528461A2125
:102D4000FFF736FB0028F9D14FF6E060CFF6FF70B1
:102D5000295864F308012950B0BD44F24015C4F26B
:102D60000E0500BF28461821FFF722FB0028F9D1E5
:102D70004FF6D0600CE044F24015C4F20E0500BFDF
:102D800028461921FFF714FB0028F9D14FF6D86027
:102D9000CFF6FF70295864F306012950B0BD44F204
:102DA0004015C4F20E0555F8B00C4FF6E460CFF6AE
:102DB000FF702958012262F305112950C4F3C31092
:102DC00002F0FAFF4FF6F061CFF6FF716A584FF646
:102DD0000003C0F6FF731A40204310436850B0BD93
:102DE00010B50C4602F0E0FF20B1302C02D0202CB0
:102DF00011D09CB94FF4400044F29001C4F20E018E
:102E00000A6802408242FBD1400252BF0120086999
:102E1000C0F3802010BD4FF40000EDE740F2FF301A
:102E2000C0F2C170E8E70000B0B54024C4F20E045F
:102E3000256841F67131216002F08EFF002D1CBF24
:102E400000202060B0BD0000B0B543F23805C4F2E8
:102E50000E0502212960296801F00F01022949D1DC
:102E6000044602F09FFEE1884B2901D200200DE0CC
:102E7000B1F5FA7F02D24FF0805007E040F6C4125D
:102E80004FF04050914238BF4FF0005069694FF603
:102E9000FE72CCF6FF721140A2894FF6FF735A40C2
:102EA000084340EAD2306861A08841F6E821C2F2C6
:102EB0000001088002F092FE2089B4F90C1003F0A2
:102EC000F5FCA08800F07AF8A07B02F0E3FD6088B2
:102ED0000121012200F0B0F860B1A27A281D05217D
:102EE000002A18BF0122FFF783FA607800F01CF86F
:102EF0000120B0BD0020B0BDB0B543F27005C4F2F2
:102F00000E050446A5F124000021FFF759FA2868B0
:102F100020F007002043286041F6E820C2F20000BC
:102F2000008800F04BF8B0BDF0B581B043F2400628
:102F3000C4F20E0656F80C5C044600F043F900BFDC
:102F4000B06BC007FCD1306810F0030705D006F164
:102F500014000D210122FFF74BFAA74202D12CB336
:102F600001B0F0BD012C08BF002F05D141F6EE20C5
:102F7000C2F2000002210170B06BC007FCD13068C2
:102F800020F0030020433060B06BC007FCD1002C60
:102F900018BF012406F114000D212246FFF728FA7C
:102FA000012D08BF00F006F901B0F0BD06F11400D4
:102FB0000D210022FFF71CFA01B0F0BD80B543F2ED
:102FC0004C01C4F20E014A6A0B6802F00702022AA1
:102FD00006D313F0010303D0142818D203221FE0F4
:102FE0000B68012A06D813F0010303D10A2813D273
:102FF000032215E00B68012A4FF0FF3210D813F0BE
:1030000001030DD00F22282838BF072208E00F2225
:10301000282838BF072203E00F22142838BF0722D0
:103020000B68100240EA023023F47F42104308602C
:1030300002F064FD80BD00002DE9F04F85B08146AF
:10304000A0F5E1600027B0F5966F0397CDE9017711
:10305000009700F287804FF6F800CFF6FF7000F57A
:10306000167548F218304FF41676C0F6E070B9F5D0
:10307000E16F88BF4FF4966684BF4FF6F805CFF630
:10308000FF75006892468846B9F5E16F039003D951
:10309000010E0191000C02E0C0F30721019143F2FF
:1030A0005C01C0B2C4F20E01039051F8100C002272
:1030B000C0F3017B02A869465B460027B9F5E16FC2
:1030C00088BF012203F0C0F80398DDE9001205EB88
:1030D0000903151A5D43B5FBF6F5029C4019A1EBF7
:1030E000040505FB03F3B3FBF6F647F100033619BD
:1030F00038D2904236D8ABBB8E4233D8BAF1000FEB
:103100000ED043F25C03C4F20E03196847F6027254
:1031100000029143B9F5E16F88BF0230084318609F
:10312000B8F1000F1DD0002059460027B9F5E16F16
:1031300088BF012003F056F8A0B143F25C02C4F24C
:103140000E02E72E28BFE726906840F2FF11884361
:103150007100B9F5E16F88BF013108430127906024
:1031600000E00127384605B0BDE8F08F80B501F0DA
:103170005BFC80BD43F22C01C4F20E010860704775
:1031800043F23001C4F20E010A6822EA000008602E
:103190007047000043F23001C4F20E010A68104388
:1031A0000860704743F22400C4F20E00C168006852
:1031B0000840704743F23400C4F20E000021016061
:1031C0007047000043F23400C4F20E004AF6E851A2
:1031D0000160704743F29C11C4F20E01034651F89E
:1031E0000C2C002818BF0123012A4FEAC32C04BF6E
:1031F0004AF6E85341F80C3C51F8383C022823F0D9
:10320000740318BF743341F8383C0868012A40F051
:103210000800086044F23C00C4F20E00036823F486
:10322000406343EA0C030360086820F0080008606C
:1032300004BF002041F80C0C70470000A022C4F22B
:10324000080252F8203023F4407342F8203052F83C
:10325000203043EA012142F8201070476020C4F278
:1032600008000168C2681140816070476020C4F2A4
:1032700008000168C26811408160704710B54024A1
:10328000C4F208041B20E0606020606000201F2161
:1032900044F83C0C44F8380C44F8281C012144F84C
:1032A000240C44F80C1C4FF4E06144F8080C44F87A
:1032B000040C216040F6FF41A0606061A0612166BE
:1032C00040F6FF516066A166E06644F8180C4FF4C2
:1032D000847044F8140C4FF6FF7044F8100C002072
:1032E0000021FFF7ABFF01200021FFF7A7FF02201D
:1032F0000121FFF7A3FF206820F0F0002060206884
:1033000040F0A000206010BD10B544F20C04C4F2DF
:10331000080440B12068C00708BF10BD2046012145
:10332000FFF77EF810BD00F01DF840F6FC60C2F219
:103330000010016841F020010160A4F10C00FF21A0
:10334000FFF76EF82420C4F2080001210160201F5D
:103350002021FFF78BF804F17C000421FFF760F8CF
:1033600010BD000010B544F28804C4F208042068BF
:103370002068C0070AD000BF20460221FFF750F89E
:10338000022000F03FFC2068C007F5D12046022152
:10339000FFF76CF810BD0000F0B581B01E4617466F
:1033A0000C4605463AB12846214616B100F04AF8C7
:1033B00001E000F033F84AF20000C4F2000005EB2F
:1033C0004501072C00EB01100BD84168A2000F2328
:1033D0009340994307FA02F2114341607FB101B073
:1033E000F0BD6FF01F02816802EB84020F2393404F
:1033F000994307FA02F211438160002FEFD128466A
:1034000021461EB100F01EF801B0F0BD00F006F834
:1034100001B0F0BD80B5FEF7FBFF80BD80B54AF27C
:103420000C0200EB4000C4F2000202EB001001228B
:1034300002FA01F1FEF7F8FF80BD000080B5FFF74A
:103440000DF880BD80B54AF20C0200EB4000C4F2DA
:10345000000202EB0010012202FA01F1FFF70AF864
:1034600080BD0000EFF3108072B641F2B820C2F2C6
:1034700000000168013118BF01607047EFF3108050
:1034800072B641F2B820C2F200000168013118BFE3
:1034900001607047EFF3108072B641F2B820C2F2BB
:1034A00000000168013118BF01607047EFF3108020
:1034B00072B641F2B820C2F200000168013118BFB3
:1034C00001607047EFF3108072B641F2B820C2F28B
:1034D00000000168013118BF01607047EFF31080F0
:1034E00072B641F2B820C2F200000168013118BF83
:1034F0000160704741F2B820C2F20000016821B1BA
:103500000139016018BF704762B6704741F2B820B8
:10351000C2F20000016821B10139016018BF704793
:1035200062B6704741F2B820C2F20000016821B1D2
:103530000139016018BF704762B6704741F2B82088
:10354000C2F20000016821B10139016018BF704763
:1035500062B6704741F2B820C2F20000016821B1A2
:103560000139016018BF704762B6704741F2B82058
:10357000C2F20000016821B10139016018BF704733
:1035800062B6704780B500F04FF8FEF7F9FD80BDD8
:10359000012905D0002918BF70471030026070471C
:1035A000143002607047000070B50D460978064679
:1035B00039B9B068C00704D0304603F00FF80220D4
:1035C0007060A878697800284FEA013001D1E96875
:1035D00029B1E96840F40070002918BF3161EA7828
:1035E0002B7929786C79002A18BF40F48070002B61
:1035F00018BF40F04000AA79002C18BF40F08000AE
:1036000040EA8200EA792B7A40EA021018433060DF
:1036100041B1B068C00718BF70BD304602F0DEFF90
:103620000120706070BD000046F22800C4F2040062
:10363000012101607047000046F22C00C4F2040032
:10364000016841F00101016070470000012905D0C7
:10365000002918BF70471830026070471C300260A4
:103660007047000044F29400C4F20800016841F081
:10367000010101607047000046F28000C4F20800BA
:103680000168C268114081607047000010B546F2C1
:103690009804C4F20804206840F003002060FFF79B
:1036A000E1FF102044F8840C4FF0806044F8800C57
:1036B00044F20F00C0F2010044F87C0C4FF40050BB
:1036C00044F8780C00204FF0407144F8740C44F832
:1036D000701C45F6A071C0F2FF0144F86C0C44F870
:1036E000681C4FF4026144F8641C40F29031C0F24F
:1036F000230144F8481C40F60421C2F2142144F886
:103700003C1C44F23311C5F24B0144F8381C40F61E
:103710001F01C0F2202144F8340C44F8440C44F852
:10372000400C44F84C0C44F8501CF821C0F2022123
:1037300044F8601C1221C0F2140144F85C1C42F6EB
:10374000B43144F8581C44F8540C10BD0821C4F29C
:103750000E0141F671338A6B8B630B6843F00103F2
:103760000B608860012048604869400790B21AD415
:1037700002224A6046F67F12CFF667724B69013229
:1037800018BF13F00103F9D14B699B0716D40B68DE
:1037900023F001030B60E2B100284FF0000018BFD6
:1037A000886340B270470A68002822F001020A606C
:1037B0001CBF00208863FF2040B270470A680028C1
:1037C00022F001020A601CBF00208863FE2040B284
:1037D000704700281CBF00208863FD2040B270475E
:1037E00046F67F121C21CFF66772C4F20E0100BFAD
:1037F0000B68013218BF13F00103F9D1002A04BF8E
:103800006FF00200704741F80C0C012041F8100CD9
:10381000086840F380007047B0B509B31C2346F632
:103820007F1E0022C4F20E034FF0080CCFF6677E15
:103830008A4215D0046843F8044C744643F810CC0F
:103840001D68013418BF15F00105F9D15CB11C6881
:103850000132A40700F10400EAD5FE2040B2B0BD59
:10386000002040B2B0BDFD2040B2B0BD80B500F038
:1038700001F880BD2DE9F04F81B040F2080AC4F292
:103880000E0A41F671338846DAF83810CAF8383033
:10389000DAF80030834643F00100CAF80000002047
:1038A000B0EB920F1FFA81F91BD094080025464611
:1038B0000BEB85073846FFF793FF78BB6FF3DF27E5
:1038C000C7F50060671BB7EB900F28BF870830462D
:1038D0003946FFF7A1FF20B93D44AC4206EB87060D
:1038E000E6D8DBF80010D8F80020914207D05846FF
:1038F000FFF776FF18B940460121FFF78DFFDAF890
:103900000010B9F1000F21F00101CAF800101CBF2E
:103910000021CAF8381001B0BDE8F08FDAF80010C5
:10392000B9F1000F21F00101CAF80010F3D0002115
:10393000CAF8381001B0BDE8F08F000001F00702AE
:1039400061F3081240F6C471C2F200110A6000F07F
:10395000070260F308124A60704700000021C9287E
:1039600041F6CC1288BF0121C2F200021F2811606B
:103970000BD841F6D811C2F2000101220A6041F2CF
:103980002811C2F200010A6069E03E280CD841F615
:10399000D811C2F2000103220A6041F22811C2F2DA
:1039A00000010A601F385AE05D280CD841F6D81192
:1039B000C2F2000107220A6041F22811C2F200019E
:1039C0000A603E384BE07C280CD841F6D811C2F290
:1039D00000010F220A6041F22811C2F200010A60C0
:1039E0005D383CE09B280CD841F6D811C2F20001AA
:1039F0001F220A6041F22811C2F200010A607C38DD
:103A00002DE0BA280CD841F6D811C2F200013F22AD
:103A10000A6041F22811C2F200010A609B381EE0E0
:103A2000D92810D8FF2141F6D812CA2838BF7F21E3
:103A3000C2F20002116041F22811C2F200017F229D
:103A40000A60BA380BE041F6D811C2F20001FF2239
:103A50000A6041F22811C2F20001D9380A6041F22D
:103A60002C11C2F20001086070470000B0B546F2A8
:103A70006805C4F208050C466860284640F6FF71E8
:103A8000FEF7DCFC28462146FEF7FCFCB0BD00003A
:103A900046F26C00C4F208000168016850F8041C8A
:103AA0000168026850F8043CD2B201F47F41C2F1CF
:103AB0000802D14003F0F0029140026850F8040C73
:103AC000D2B200F00F00490A02FA00F001EB5010E8
:103AD0007047000041F62030C2F200008089704734
:103AE000B0B546F21801C4F2080109680446C1F3F2
:103AF0008211FE31C9B2042906D80120884010F095
:103B0000130F01D0002500E0962500F043FF44F696
:103B1000D351C1F26201A0FB010290096043B0FBE6
:103B2000F5F04001B0F57A7F01D2FF210BE0A0FB58
:103B300001018909FF2000220130B2EB510F4FEA49
:103B40005101F9D1C1B20F2928BF0F212804090260
:103B5000FFF78CFFFFF79CFF42F2107100FB01F4AE
:103B600000F018FF48F21F51C5F2EB11A0FB010154
:103B70004809B4FBF0F141F62032C2F2000288B2EB
:103B80009181B0BD80B5002808BF0120F82828BF6A
:103B90006FF00700C0B2FFF7E1FE40F6C070C2F25E
:103BA0000010016843F6FF72CEF2C002114041F6E8
:103BB000D812016041F6CC11C2F20002C2F200013B
:103BC00012680968920141F22C13C2F2000342EA22
:103BD000C10141F228121B68C2F20002126841EAD8
:103BE0000361036841EA82311943016080BD00002E
:103BF00045F274010001C4F20801085800F0010008
:103C00007047000070B545F21806C4F20806346823
:103C100000F0C6F8B169054600F08AF868B970BDD1
:103C20003168204600F018F8854298BF70BD3168B1
:103C3000204600F011F834682D1AB069B5EB500F2A
:103C400024BFB069450800BF3168204600F004F881
:103C5000A842F9D3E4E70000081A28BF704745F2EC
:103C60003001C4F2080109680844013070470000BF
:103C700045F25C00C4F208000168C268114081602E
:103C80007047000010B540F20040C0F2060001216C
:103C9000FEF724FD45F2280441F20010C4F20804A6
:103CA000C0F2010044F8280C00F04EFE00EE100AAD
:103CB000B8EE400A9FED1C1A30EE000A80EE010AB1
:103CC00041F64C30C2F20000BDEEC01A80ED000A91
:103CD00011EE100A013881B201EE101AB8EE411A45
:103CE00030EE410ABFEE001A30EE010A9FED0F1AC6
:103CF0000A0241F64631C2F2000120EE010A0880B4
:103D0000BDEEC00A41F6443110EE100AC2F20001C5
:103D1000087022602168084320604FF0FF3000F0F7
:103D20003FF80138A06010BD0024744900008043B2
:103D300045F20C00C4F20800006800F00100704772
:103D400045F20C00C4F20800006810F0060018BF2D
:103D50000120704745F21000C4F208000021016004
:103D6000416081607047000080B545F20400C4F2F4
:103D700008000121FEF78AFB01F01AF800F0C8FFE5
:103D800080BD000080B545F20400C4F208000421A3
:103D9000FEF77CFB00F0D8FF00F0BAFF80BD00000A
:103DA00000EE100A41F64C30C2F2000090ED001A0D
:103DB000B8EE400A21EE000AB6EE001A20EE010A23
:103DC000BCEEC00A10EE100A7047000044F2140066
:103DD000C4F208000168C2681140816070470000A9
:103DE00044F21400C4F208000168C2681140816006
:103DF0007047000044F23000C4F20E000068C0F3C7
:103E0000C8207047B0B5044618B3208841F6203169
:103E1000C2F200010880E088B4F9022088814A607B
:103E2000FFF75EFE44F22415C4F2080528464FF45D
:103E3000EE41FEF703FB28464FF48A41FEF722FBD2
:103E4000281F0121FEF71EFB05F134000721FEF7B4
:103E5000F5FA002C18BF01242046B0BDB0B50446C9
:103E6000FFF738FE201A00F067F940F6A875C2F295
:103E700000152860FFF72EFE201A143800F05CF9B8
:103E8000296801EB00402860B0BD000080B500F05B
:103E900053F940F6A071C2F20011086080BD000025
:103EA000B0B50446FFF716FE201A00F045F940F6BB
:103EB000A475C2F200152860FFF70CFE201A143812
:103EC00000F03AF9296801EB00402860B0BD00001D
:103ED00080B541F6A841C2F200010860043800F044
:103EE0002BF940F69C71C2F20011086080BD000001
:103EF000B0B544F20405C4F20805FEF7F5F941F245
:103F00003010C2F200002021FEF710FA00F00AFA89
:103F100018B1286810F0706FF8D1286810F0706F31
:103F20001CBF0120B0BDFFF7A9FA0320FFF760FE18
:103F300008B100241DE0FFF703FF08B1002418E0DA
:103F40000424C4F208042068400703D1FEF7C4F932
:103F50000138606140F6FC60C2F20010016821F097
:103F60002001016005F59A701021FEF77FFA012407
:103F70006C60FFF7CBFA2046B0BD00002DE9F041A0
:103F800044F20406C4F20806054630684FF00450B7
:103F9000B06701200C46F067FFF788FA4FF0045035
:103FA00029462246FCF755FCFFF7C8FA40F6C074D4
:103FB000C2F2001404F10C00D4F808806768256888
:103FC000F06540F66C70C2F200109421FCF7C8FC5A
:103FD0003C2025606760C4F8088000F0ADF84042DE
:103FE00044F8040CBDE8F081B0B582B044F29C0402
:103FF00043F2080501A8C4F20804C4F2080500F061
:104000005DFC4EF2C060C1F25310C4F8A80048F243
:10401000F670C4F89C004FF40860C4F8980042F2AF
:104020007A70C0F6007060609DF80500012805D127
:104030009DF8040001289CBF2820A8644AF63F4050
:10404000286047F22800C4F208004FF0C0710160F8
:104050000020206646F68050C0F26330206002B037
:10406000B0BD000070B5044611200521FEF7D6FC56
:10407000022000210022FEF775FD44F230054FF6C4
:104080000006C4F20E05C0F20F0628463146FEF7C0
:10409000C7F9286806EAC4210843286002200121E4
:1040A0000122FEF75FFD11200421FEF7B7FC70BD71
:1040B00080B500F041F840F6B471C2F2001108601A
:1040C00080BD000080B5043800F036F840F6B071CD
:1040D000C2F20011086080BDB0B50446FFF7FAFCDB
:1040E000201A00F029F840F6B875C2F200152860D1
:1040F000FFF7F0FC201A143800F01EF8296801EBD5
:1041000000402860B0BD0000B0B50446FFF7E2FCF7
:10411000201A00F011F840F6AC75C2F200152860C4
:10412000FFF7D8FC201A143800F006F8296801EBD4
:1041300000402860B0BD000010B5044600F004FC4B
:1041400041F20022A0FB0401C0F27A020023FCF736
:104150007BF810BD0831C9B2012202FA01F102FA5E
:1041600000F0084340F60071C2F200110A684FF6F1
:10417000FF739A43024300200A607047103040F6F4
:10418000007C1831C0B20122C2F2001CC9B202FA8E
:1041900000F0DCF8003002FA01F1084340EA0301C4
:1041A0000020CCF80010704710B541F63430C2F250
:1041B00000000078002808BF00F026F8FFF752F949
:1041C00041F6A040C2F200000168012916DB41F669
:1041D000A441C2F200010A6841F6A033C2F2000312
:1041E0009C5C0A6801320A600A68B2F5807F04BFED
:1041F00000220A6001680139016001E04FF0FF34DC
:10420000FFF778F9204610BD2DE9F04188B044F25F
:104210004010C0F2050001214FF00108FEF75EFAE0
:1042200042F20050C0F20A000121FEF757FA0320C3
:104230000E21042201230326FFF7AEF803200D21EF
:1042400002220123FFF7A8F847F24040C0F2000025
:1042500090E8BE0080690DF1040C079042F2002046
:104260008CE8BE00C0F204000121FEF737FA0024FA
:104270000020C4F201048DF8040001A9204600F0DA
:10428000B5FC6667A06F41F61F71884341F2146167
:104290000843A06700F0E2FC00F01EFD00F0E4FC23
:1042A00000F06AFD2046052100F09AFC41F2A410BE
:1042B000C2F2000000214FF480620023FCF74AFAAA
:1042C00041F63430C2F2000080F8008008B0BDE84A
:1042D000F081000070B541F63431C2F20001097876
:1042E0000446002908BFFFF78FFF002541F2BC26D6
:1042F000C4F201050A2CC2F2000605D1307818B1CB
:1043000028460D2100F0E2FC2846214600F0DEFCA4
:104310000D2C05D1307818B128460A2100F0D6FCC2
:10432000204670BDB0B5FFF7A9F80320FFF760FC89
:1043300010B9FFF705FD18B1FFF7E8F80020B0BD90
:1043400044F20405C4F208052C68FFF7DFF8296879
:104350000020B0EB917F18BFB0BDC4F303600338F9
:104360000A2824BF0120B0BD01A151F82000B0BD32
:10437000000000000100000001000000000000003B
:10438000010000000100000000000000010000002A
:10439000010000000000000041F6305CC2F2000C99
:1043A0009CF80010002908BF704741F65031C2F256
:1043B00000010A6846F21803C4F20803DA634A6887
:1043C00040F6FC701A608A68C2F200105A60CA682F
:1043D0009A630A695A624A691A638A690423C4F2B1
:1043E00008031A60CA69DA630A6A1A634A6AC3F878
:1043F0009C208A6AC3F8A020CA6AC3F8A4200A6B6A
:10440000C3F8A8204A6B5A628A6B9A62CA6BDA6256
:104410000A6C0260486C98674FF6FF70C0F20700A4
:104420005866886C986600208CF800007047000081
:1044300041F63050C2F200000178002918BF7047E1
:1044400046F21802C4F20802D36B41F65031C2F2B0
:1044500000010B6013684B6053688B60936BCB60FB
:10446000536A0B61126B4A616C22C4F2080252F863
:10447000683C8B6152F82C3CCB6152F8383C0B62A3
:10448000536B4B62936B8B62D36BCB62136C0B637E
:1044900052F8443C4B6352F8403C8B6352F83C3C2E
:1044A000CB6340F6FC73C2F200131B680B64136904
:1044B0004B6413688B640021116001210170704707
:1044C00010B540F6FC70C2F20010016846F2180404
:1044D00021F00F010160C4F208040020A06320460F
:1044E0004FF4E071FDF7AEFF20464FF48071FDF709
:1044F000D1FF0021CFF6FF712046FDF7CBFF04204E
:10450000C4F20800052140F83C1B01210124FDF7FD
:10451000C1FF44F20800C4F2080048F2F671C0F886
:104520003011046010BD000010B502F091F80420B5
:10453000C4F2080000218167052140F83C1B0121DD
:104540000124FDF7A7FF44F20800C4F2080048F276
:10455000F671C0F83011046010BD0000B0B56825D8
:10456000C4F2080544F2000428460421C4F20804F9
:10457000FDF790FF2020A060206800060ED1FEF716
:1045800089FF41F288010120C4F20801C5F8F00F4B
:10459000086010202860FEF7C5FF00BFFFF7C2FECD
:1045A00018B1606810F0706FF8D1FEF773FF40F635
:1045B000FC60C2F20010016821F020010160FEF7EA
:1045C000B1FF20460221FDF765FFB0BD012101FAD0
:1045D00000F0704780B544F20402C4F2080200BF44
:1045E000136803F07063B3F1806FF9D0136803F0C0
:1045F0007063B3F1206FF3D043F23803C4F20803C1
:10460000002918601CBF8020506000F0E3F880BDD6
:104610002DE9F04381B044F2381943F230080C46DA
:104620000746C4F20809C4F2080800F0BDF80546C0
:10463000384600F00FF9D9F80000012D20F01000E5
:1046400008BF1030C9F8000000F0A4F9064641F692
:10465000E420C2F2000007606F43F804790B324691
:104660000023FBF7F1FD48F8040C00F075F841F663
:10467000E023A5FB0021C2F200031860C80440EA51
:104680005231D00432460023FBF7DEFDD8F800306B
:104690006FF31F5003F48013C8F80030D8F80030CF
:1046A000A4FB05211843C8F8000041F6DC20C2F243
:1046B00000000460C80440EA5231D00432460023AE
:1046C000FBF7C2FDC8F80C0042F23450C2F2000001
:1046D000017821B9D8F8201001F03F01017059F894
:1046E000A41CC9061ED549F68171C1F25E61A7FB03
:1046F0000112510D43F6F412CFF6FF7240F25353FC
:1047000011FB032242F65053C0F21903007802FB5A
:10471000013149F28062C0F298025043B0FBF1F0DF
:10472000C8F8200000F056F801B0BDE8F0830000A2
:1047300044F29400C4F20800016841F004010160F1
:104740007047000043F27000C4F20800C1680268BC
:10475000114081607047000010B546F23801C4F284
:1047600008010868C0F3C2535A1E032A06D803F191
:10477000180047F29C43C0F20003185C032A88BF6C
:104780000720096801F00701CA1E022A01D2C400ED
:1047900004E0002914BF840000EB400400F0FAF8A4
:1047A000B0FBF4F010BD000043F23400C4F2080086
:1047B0000168026801F00701C2F3C202002A08BFC3
:1047C000012200685143C0F38210002808BF012075
:1047D0004843704780B541F6DC2043F2380141F68A
:1047E000E022C2F20000C4F20801C2F20002006836
:1047F0000968126801FB002041F6E421C2F20001C1
:1048000009684DF27B42084444F2A401C4F2080155
:10481000C0F201020A6000F001F880BD10B5044644
:10482000FDF714FE00F0B6F84000B4FBF0F044F2DF
:104830003003C4F20803411E0722072828BF104690
:104840001C68072944EA002038BF0A4640EA0210E3
:10485000186010BD10B50446FFF7A6FF4EF2A07118
:10486000CFF6DC7100FB041142F2C172C0F2090202
:104870000020914238BF012010BD000080B543F2F6
:104880000800C4F208004AF63F4101604FF482116B
:1048900081620321C16200218163FFF749FF4AF26F
:1048A000001048F2A061C3F2BC30C0F20101FFF772
:1048B000AFFE00F035FA00F053FA80BD4FF6E0711C
:1048C000CEF20F014A680B6802F00F02C3F38113A6
:1048D00043EA820282700A6802F03F0242708A68EC
:1048E000C96802F0F002C1F303111144017070476E
:1048F00048F20020C0F6E0700068C0B270470000C7
:1049000048F2FC10C0F6E0700068000E704700002E
:1049100048F2F011C0F6E07108684968704700007D
:1049200080B500F011F844F20811C4F20E010968D4
:10493000C1F308210131B0FBF1F040F21001C2F2E5
:104940000001086080BD000044F29400C4F20E0033
:10495000016801F0070102290DD0032911D00429B3
:1049600019BF40F21801C2F2000140F21C01C2F26C
:104970000001096807E040F21401C2F20001096871
:1049800001E04FF40041C06EC0F304200130B1FBE0
:10499000F0F0704740F21400C2F200000068704767
:1049A00040F200004EF68851C0F20000CEF2000145
:1049B00041F8800C086840F47000086043F2400041
:1049C000C4F20E00416941F400514161016821F0D7
:1049D00003010160416B21F001014163016A21F093
:1049E00080510162704700004FF4004070470000A2
:1049F00040F21C00C2F20000006870474FF2000055
:104A0000C0F24920704700004FF47A7070470000F0
:104A100080B543F22000C4F20E000068C0B201F07D
:104A20005BF840B280BD000010B5FEF7BBFBB0F1F3
:104A3000FF3F12DD400022D541F63030C2F20000C7
:104A40000068046834B10021C0E90011FFF7E0FFFD
:104A50000121A0474FF080400FE041F63830C2F20C
:104A600000000068046834B10021C0E90011FFF7BC
:104A7000CFFF0021A0474FF00040FEF77BFB01F085
:104A8000ABFE10BD80B541F2C250C2F20000012160
:104A9000017041F6D040C2F200003021FBF760FF08
:104AA00041F60050C2F200003021FBF759FF41F6F9
:104AB000303041F63C31C2F20000C2F20001016028
:104AC00041F63830C2F20000016000F009FA01F04E
:104AD000D9F801F0C9F800F013F900F061F901F01C
:104AE0007BFE002080BD000010B50446FFF720F9D2
:104AF00018B12046FFF786F810BDFFF7C3F8FFF79F
:104B000033F92046FFF77EF8FFF73CF9FFF722F96B
:104B100010BD000080B50020C4F201000169090643
:104B200028D500F0CDF841F6AC41C2F200010A6888
:104B300041F6A033C2F200039854086801300860BF
:104B400041F6A040C2F200000268013202600A6829
:104B5000B2F5807F04BF00220A600268B2F5807F50
:104B6000D8BF80BD00220A60026041F6A440C2F2B4
:104B70000000026080BD000070B51C461646054668
:104B800031B944F24010C0F20500FDF7DFFD0146E7
:104B90004FEA7410032888BF70BD0DA252F82000A0
:104BA0007043420802EB41112A68B1FBF0F022F099
:104BB00060024FF600712A60C0F27F012A6801EBA3
:104BC000C000F831084042EA04012960686170BD04
:104BD00010000000080000000600000004000000B3
:104BE0000A2222EA4102C260C1607047B0B50D4698
:104BF000044600F041F8A87C18B1206840F08040DD
:104C00002060E87C18B1297D204601F0D3FC687B48
:104C1000298AEA89084310436060D5E901122B7B99
:104C20002046FFF7A9FF687D18B1206840F4803066
:104C30002060EA7DA97D120542EA01710022C7F2D7
:104C40007002114028782B7E2166616F21F03001BF
:104C50006167616F19436167E060B0BD4820C4F2CD
:104C600001000421016070474C20C4F2010001687A
:104C700041F004010160704740F6AA62C260002260
:104C800041F20503026043604FF6F97340F20041C0
:104C9000C0F20103C4F2010182604261C264836414
:104CA00040F480638B42026642678267C26708BF36
:104CB00002658842826504BF0020C8657047000015
:104CC00001690906FCD5C069C0B270470269520685
:104CD000FCD54163704700004EF28020CEF2000008
:104CE0004FF400610160704700F01F00012101FADC
:104CF00000F04EF28021CEF2000108607047000003
:104D00004EF28020CEF200000121016070470000C9
:104D10004EF28020CEF200004FF0805101607047CB
:104D20004EF28020CEF200004FF0804101607047CB
:104D30004EF28010CEF200004FF480410160BFF3CC
:104D40004F8FBFF36F8F70474EF28010CEF200008E
:104D50004FF080510160BFF34F8FBFF36F8F7047EB
:104D60004EF28010CEF200004FF080410160BFF3A0
:104D70004F8FBFF36F8F70474EF20010CEF20000DE
:104D80004FF400610160704700F01F00012101FA3B
:104D900000F04EF20011CEF20001086070470000F2
:104DA0004EF20010CEF200000121016070470000B9
:104DB0004EF20010CEF200004FF0805101607047BB
:104DC0004EF60C50BFF34F8FCEF200000168042264
:104DD00001F4E061C0F2FA5211430160BFF34F8F5A
:104DE00000BFFDE748F20101411A0020022988BFF7
:104DF0004FF0FF30704700000020704748F201017B
:104E0000411A0020032938BF0120704710B5C8B1EE
:104E1000044600783A2815D10FA12046FBF7C8FDBB
:104E200098B10FA12046FBF7C3FD88B10EA1204623
:104E3000FBF7BEFD4FF0FF31002808BF48F2030129
:104E4000084610BD4FF0FF3010BD48F2010010BD04
:104E500048F2020010BD00BF3A535444494E0000CE
:104E60003A5354444F5554003A5354444552520017
:104E70004FF0FF3070470000B0B5144648F203020F
:104E800090420BD048F20202904209D134B14D1E3B
:104E900015F8010F01F0FEFB013CF9D10020B0BD77
:104EA0004FF0FF30B0BD000080B5B820C0F2320036
:104EB000FDF746FD042807D0082808D0072814BFAE
:104EC000002000F007F880BDFFF764FD80BD00F012
:104ED00079FF80BD40F22400C2F2000000687047F4
:104EE00048F2B010C0F6E0700168406D6FF0FE0C43
:104EF000C2B25CFAA1F35CFA80F0B3FA83F3B0FAC1
:104F000080F05B09400918434CF6CD4318BF90224E
:104F10004FEAC200CCF6CC43A0FB0303C1F3074029
:104F200018BF192000EB800102EBD10141F6D0122D
:104F3000C2F20002116041F6D41100EB9300C2F2FC
:104F4000000108607047000080B502290AD00129DD
:104F50000CD0002918BF80BD024614A01146FBF7F3
:104F6000EBF980BD04A0FBF7DFFB80BD07A00821A3
:104F7000FBF7E2F980BD00BF496E76616C69642081
:104F8000617267756D656E740D000000546F6F205F
:104F90006D616E7920617267756D656E74732C201A
:104FA0006D61782069732025640D0A00436F6D6D73
:104FB000616E64206E6F7420666F756E643A202790
:104FC0002573270D0A00000080B500210022FBF7A1
:104FD00039FB80BD80B500210022FBF76BFB80BD53
:104FE000844600284FF0010018BF002900D1704707
:104FF000CCF8001000200CF108010DC18CF8040061
:10500000704700002DE9F04F81B0804640B3D8F8DA
:10501000000028B308F108040026002717E000BFAD
:105020000846FBF7F7FB014622680B46002AA068FA
:1050300008BF33468E42D8BF1E46002A294608BF05
:105040003946AF42D8BF0F4604F1100450B1FBF708
:10505000E1FB54F8041C05460029E1D10021E3E7F7
:105060000026002726A0FBF75FFB47F2BD40C0F2F9
:105070000000FBF759FBB8F1000F3AD0D8F8002038
:10508000BAB347F6980A7D42764208F108040FF257
:10509000A0082AA70FF28809C0F2000A0FF2840BB9
:1050A0000AE000BF40461146FBF746F93846FBF7D9
:1050B0003BFBA2681034E2B120680028F2D04846D9
:1050C0002946FBF739F954F8042C2AB11078002846
:1050D00008BF524601E000BF524658463146FBF732
:1050E0002BF961680029E1D008780028DED00FA0F4
:1050F000DAE712A0FBF718FB012001B0BDE8F08F42
:105100003C636F6D6D616E643E203C617267733EFF
:10511000203C68656C7020746578743E0D0000005A
:10512000252A730020252A73000000002025730023
:10513000202D2D2D202573202D2D2D000D0000005C
:105140002DE9F04381B000284FF0FF0918BF002976
:1051500004D14FFA89F001B0BDE8F0830446D0E9EC
:10516000027015463A44824230D220682A463844BA
:10517000FBF76FFBA0684FF0000828448742A0604F
:1051800027D24FF0000900250AE020790D2818BF2A
:1051900009F101097D1C2671A068013787421BD2E5
:1051A0002068C65D0D2E01D00A2EF5D1AF4200F861
:1051B000078004D021682069294401F03FF90A2EB4
:1051C00008BFAF42E1D009F10109E3E74FF0FE0962
:1051D000BFE700254FF00009002DBAD0421B206820
:1051E000A2604119FBF77AFBB3E7000080B502A08B
:1051F000FBF79AFA80BD00BF43414C5F4354554EC4
:10520000453A204E6F7420696D706C656D656E74E3
:1052100065640D0080B502A0FBF786FA80BD00BF73
:105220004745545F4245523A204E6F7420696D7075
:105230006C656D656E7465640D00000080B541F2AB
:10524000B020C2F20000017801A0FBF775F880BD24
:105250004745545F4348414E4E454C3A2025640D26
:105260000A00000080B5FEF7C5FD014601A0FBF76E
:1052700063F880BD4745545F4354554E453A202559
:10528000640D0A0080B503A0FBF74EFA0AA0FBF7F5
:105290004BFA80BD4745545F465245514F464653F1
:1052A00045543A20556E64657220646576656C6F6E
:1052B000706D656E740D00004745545F4652455150
:1052C0004F46465345543A20300D000080B541F614
:1052D0003250C2F20000017841F6B040C2F2000044
:1052E000027802A0FBF728F880BD00BF4745545F55
:1052F00050414354554E453A2025642C25640D0AEF
:105300000000000080B503A0FBF70EFA09A0FBF730
:105310000BFA80BD4745545F504F5745523A2055D0
:105320006E64657220646576656C6F706D656E7411
:105330000D0000004745545F504F5745523A20300A
:105340002064426D0D00000080B541F2BD20C2F224
:105350000000017801A0FAF7EFFF80BD4745545FD8
:10536000504F5745524C4556454C3A2025640D0A3E
:105370000000000080B50BA0FBF7D6F9FCF726FF74
:1053800000EE100AB8EEC00AB5EE001A20EE010ACF
:1053900010EE100A01F076FF02460AA00B46FAF75B
:1053A000CBFF80BD4745545F525353493A20556E59
:1053B00064657220646576656C6F706D656E740DE2
:1053C000000000004745545F525353493A20252EB0
:1053D00032662064426D0D0A0000000080B503A013
:1053E000FBF7A2F90AA0FBF79FF980BD4745545F80
:1053F000525353494F46465345543A20556E6465BF
:105400007220646576656C6F706D656E740D00005A
:105410004745545F525353494F46465345543A20EB
:10542000302064420D00000080B502A0FBF77CF93B
:1054300080BD00BF4745545F5258434F554E543AC4
:10544000204E6F7420696D706C656D656E74656457
:105450000D00000080B503A0022103220023FAF70B
:105460006BFF80BD48573A2025642053573A2025CA
:10547000642E25640D0A000070B52DED028B84B0FA
:10548000FFF7C6FA044640F22000C2F200000068AE
:1054900001F0F8FE054641F2C450C2F20000006877
:1054A0000E4601F0EFFE41EC180B41F2B420C2F2BF
:1054B0000000006801F0E6FE41EC100B06A021465A
:1054C0002A4633468DED008B8DED020BFAF734FF43
:1054D00004B0BDEC028B70BD4745545F56543A2072
:1054E00025642C20252E31662C20252E31662C207B
:1054F000252E31660D0A000080B505A0FBF714F9D2
:10550000FFF706FA024605A00B46FAF715FF80BD25
:10551000494E464F3A204F4B0D0000004D43554930
:10552000443A203078256C6C580D0A0080B541F65D
:10553000B84041F6DC1140F22803C2F20000C2F28A
:105540000001C2F200034FF48072FFF749FD80BDF5
:1055500080B54868FFF73EFD010641F6483118BFA7
:105560000120C2F200010870000608A002A108BFD5
:105570000846FBF7D9F880BD5052494E545F4D4F55
:1055800044453A2053484F52540D00005052494E62
:10559000545F4D4F44453A2046554C4C0D00000099
:1055A00003A0FBF7C1F805A0FBF7BEF8FFF708FC66
:1055B00052455345543A204F4B0D000052657374C9
:1055C000617274206465766963652E0D00000000C9
:1055D00080B50AA0FBF7A8F800F0AEFDFEF788FC46
:1055E000FEF786FC12A10DA2002818BF114608463E
:1055F000FBF79AF800F09CFD80BD00BF53454E4478
:105600005F5041434B45543A20556E6465722064A7
:105610006576656C6F706D656E740D0053454E4414
:105620005F5041434B45543A204F4B0D0000000062
:1056300053454E445F5041434B45543A20455252E6
:105640004F520D0010B54868FFF7C4FC4FF6C0710B
:1056500041F2B024084218BF3F20C2F2000420707B
:1056600080B20021FEF7B6FF217802A0FAF764FEAF
:1056700010BD00BF5345545F4348414E4E454C3A20
:105680002025640D0A00000010B54868FFF7A2FC51
:105690000446B0F5FF7F4FF0000088BF40F2FF14D2
:1056A000FDF732FE2046FEF7DDFC02A02146FAF7A8
:1056B00043FE10BD5345545F4354554E453A202593
:1056C000640D0A0080B502A0FBF72EF880BD00BF74
:1056D0005345545F454D3A204E6F7420696D706C90
:1056E000656D656E7465640D0000000070B54868F6
:1056F0000C46FFF76FFC1F2510F0E00F18BF28467F
:1057000041F63256A168C2F2000630700846FFF733
:1057100061FC10F0E00F08BF054641F6B044307858
:10572000C2F20004E9B22570FEF708F93178227858
:1057300001A0FAF701FE70BD5345545F5041435438
:10574000554E453A2025642C25640D0A00000000C2
:1057500010B50AA00C46FAF7E7FF6068FFF734FCC3
:10576000014610F1140FD8BF6FF013010BA01429DC
:10577000A8BF1421FAF7E0FD10BD00BF5345545FE8
:10578000504F5745523A20556E64657220646576D5
:10579000656C6F706D656E740D0000005345545F4D
:1057A000504F5745523A2025642064426D0D0A003F
:1057B00070B54868FFF70EFC41F631550446C2F259
:1057C0000005002808BF01242878F82C28BFF824F9
:1057D00020B1FEF7C3FE6420FFF786F941F2BD2633
:1057E000C2F20006E0B23470FEF7CCF92878012846
:1057F00008BFFEF765FE2878022808BFFEF794FE72
:10580000317802A0FAF798FD70BD00BF5345545F90
:10581000504F5745524C4556454C3A2025640D0A89
:105820000000000010B50CA00C46FAF77DFF606880
:10583000FFF7CAFB00EE100AB8EEC00AB5EE001A78
:1058400020EE010A10EE100A01F01CFD02460BA02A
:105850000B46FAF771FD10BD5345545F525353493F
:105860004F46465345543A20556E64657220646530
:1058700076656C6F706D656E740D00005345545FF6
:10588000525353494F46465345543A20252E3266CB
:105890002064420D0A00000080B502A0FAF744FF20
:1058A00080BD00BF53544152545F4245523A204E8E
:1058B0006F7420696D706C656D656E7465640D0044
:1058C00080B502A0FAF730FF80BD00BF53544152AB
:1058D000545F5258434F554E543A204E6F742069CE
:1058E0006D706C656D656E7465640D0080B502A0A9
:1058F000FAF71AFF80BD00BF53544F505F42455224
:105900003A204E6F7420696D706C656D656E7465BC
:10591000640D000080B502A0FAF706FF80BD00BF4D
:1059200053544F505F5258434F554E543A204E6F88
:105930007420696D706C656D656E7465640D000032
:1059400010B5FEF757FA044600F038FE4FF07E60BF
:10595000FDF7FCFE41F63450A4B2C2F20000C0F8DC
:10596000004101F05DF802A02146FAF7E5FC10BD08
:1059700053544F52455F4354554E453A2025640DCC
:105980000A000000B0B500F019FE4FF07E60FDF790
:10599000DDFE41F6B04441F63255C2F20004C2F2D7
:1059A00000052078297841EA002041F63451C2F2FE
:1059B0000001C1F8040101F033F82978227802A02F
:1059C000FAF7BAFCB0BD00BF53544F52455F504187
:1059D0004354554E453A2025642C25640D0A000099
:1059E00080B54868FFF7F6FA02280CD0012817D0D6
:1059F00050BBFEF7B3FD0A20FFF776F8FEF7CCFCAC
:105A000020A0002118E00020FDF77EFC0A20FFF70F
:105A10006BF8FEF70DFDFEF787FD12A002210BE0EB
:105A20000020FDF771FC0A20FFF75EF8FEF700FD8D
:105A3000FEF746FD0FA0012141F63152C2F20002ED
:105A40001170FAF771FE80BD01A0FAF76DFE80BDFE
:105A500054585F53545245414D3A204552524F528B
:105A60000D00000054585F53545245414D3A2032C6
:105A70000D00000054585F53545245414D3A2031B7
:105A80000D00000054585F53545245414D3A2030A8
:105A90000D00000038B1012818BF704742F23710DE
:105AA000CBF2107003E044F27700C5F2207043F2AD
:105AB0005801C4F20E0108607047000041F6D01191
:105AC000C2F20001096800EB8000A1EBE00080F366
:105AD0000800C0B27047000041F6D411C2F20001C4
