:020000040000FA
:10000000D8300020F90100000102000003020000C6
:1000100005020000070200000902000000000000C5
:100020000000000000000000000000000B020000C3
:100030000D020000010200000F020000110200008A
:100040008D330000FD33000013020000F93300007F
:1000500031360000E13F0000DD3F000015240000C4
:10006000130200001302000013020000C54E00003E
:100070001302000013020000751C000013020000B0
:10008000130200001302000013020000130200001C
:10009000130200001302000013020000130200000C
:1000A0001302000013020000293500003D23000068
:1000B000153F0000130200001302000013020000AD
:1000C000794600001302000000F002F800F085F805
:1000D0000AA090E8000C82448344AAF10107DA45A3
:1000E00001D100F07AF8AFF2090EBAE80F0013F070
:1000F000010F18BFFB1A43F00103184708790000ED
:10010000287900000A444FF0000C10F8013B13F06E
:10011000070408BF10F8014B1D1108BF10F8015B60
:10012000641E05D010F8016B641E01F8016BF9D153
:1001300013F0080F1EBF10F8014BAD1C0C1B09D1AA
:100140006D1E58BF01F801CBFAD505E014F8016B1C
:1001500001F8016B6D1EF9D59142D6D370470000AE
:100160000023002400250026103A28BF78C1FBD8C0
:10017000520728BF30C148BF0B607047662907F09F
:10018000C98103681B0A28BF41F08001642900F07F
:100190002B81F82900F06481732900F0C9860020C2
:1001A00070471FB507F0A9F99DE8030001F050FB67
:1001B00001F030F804000020002107F0FBF8401C9B
:1001C00060600020002107F00BF9E06000F016FFEE
:1001D0001FBD10B500F07BFF10BD01F0F8FA11460D
:1001E000FFF7DFFF06F0E0FA01F084FC03B4FFF74D
:1001F000F0FF03BC01F0A6FC09488047094800470E
:10020000FEE7FEE7FEE7FEE7FEE7FEE7FEE7FEE7C6
:10021000FEE7FEE704480549054A064B7047000023
:10022000994B0000C9000000D8200020D8300020E1
:10023000D82C0020D82C0020004870473410002013
:1002400053EA020C00F069802DE9F04B4FF00006F4
:10025000002B1FBFB3FA83F503FA05F424FA05F661
:100260005E4012BF1643B2FA82F502FA05F4C5F1F8
:1002700020051EBF22FA05FC44EA0C04203556EA8C
:10028000044C4FEA144418BF641C4FF000084FF0B0
:100290000009904271EB030C39D3002919BFB1FA60
:1002A00081F701FA07F6B0FA80F700FA07F6C7F10E
:1002B00020071EBF20FA07FC46EA0C062037B6FBD3
:1002C000F4FCA7EB0507103F07F01F0BCBF120064E
:1002D0002CFA06F60CFA0BFB44BFB3460026202F7F
:1002E000A4BF5E464FF0000B5BEA060C08BF4FF060
:1002F000010B19EB0B0948EB0608ABFB027C06FB74
:1003000002CC0BFB03CCC01B71EB0C01C1E70B460D
:10031000024641464846BDE8F08B13B5084318BF76
:100320004FF0FF300146AFF30080BDE81C4070473E
:100330000FB4044910B503AA029800F0FDFD10BCEB
:100340005DF814FB8C0F002070B5044685690068C9
:10035000C10601D5302600E02026C00707D070BDB9
:10036000D4E9012130469047206A401C20626D1E6E
:10037000F6D570BD70B5044685690078C00707D111
:1003800070BDD4E9012120209047206A401C2062E2
:100390006D1EF6D570BD70B50C460546012A05D018
:1003A0002878800600D5EA69002302E0012305E0F1
:1003B0005B1C934202D2E05C0028F9D1A869E618E0
:1003C000C01AA861286A184428622846FFF7BCFFB3
:1003D00004E0D5E9012114F8010B9047B442F8D3A9
:1003E0002846FFF7C7FF70BD2DE9F04106460024FF
:1003F00010687529314616A510D0AFF3008000288B
:1004000002DA404213A507E031688A0701D512A538
:1004100002E0490704D511A5012401E0AFF30080F3
:1004200000210A2206F1240709E0B0FBF2FCB0FB30
:10043000F2F302FB1C00303078541846491C0028A7
:10044000F3D123462A463046BDE8F04100F0F7BA22
:10045000000000002D0000002B0000002000000024
:10046000D21DF0B40D4622F007020188D2E9003413
:10047000090502D5104A7A4402E00F4A7A440E3246
:10048000002100F1240608E003F00F071B09D75DE7
:1004900043EA047324097754491C53EA0407F3D14F
:1004A00004780023240704D5702D02D009B102235B
:1004B0001132F0BC00F0C3BA9E7000002DE9F04785
:1004C0004FF0000A89460446C0F820A02046E168A3
:1004D0008847002876D0252806D0D4E90121904706
:1004E000206A401C2062F1E7E16820460026884728
:1004F000C4F81CA005460027C4F818A02A2D09D06E
:10050000284606F043FF38B304EB8708303DC8F8AF
:10051000185019E059F8041B204604EB870291613A
:10052000E1688847012F054618D1E069002820DAE4
:1005300026F020061DE0D8F8180000EB800005EB3F
:1005400040003038C8F818002046E1688847054662
:1005500006F01CFF0028EED1012F0AD02E2D08D165
:100560002046E16888477F1C0546022F46F020069A
:10057000C4DBA069002803DA404246F00106A0610E
:10058000F00701D026F010066C2D0AD0682D08D097
:100590004C2D39D06A2D35D0742D35D07A2D33D0ED
:1005A00016E0E1682F4620468847B84205460AD142
:1005B0006C2F27D04FF48060E168064320468847BF
:1005C000054605E027E06C2F1AD04FF480700643F3
:1005D0000DB3A5F14100192802D8203546F4006674
:1005E0004A462946204626604E46FFF7C7FD80B1A1
:1005F00001280BD0F61D26F0070000F1080965E779
:100600004020E4E78020D7E70020D5E706F1040981
:100610005CE7284661E7206ABDE8F0872DE9F047EE
:1006200091460F4680460446002614F8015B2DB122
:1006300000F0F0F90068405DC007F6D12B2D02D024
:100640002D2D18D0641E4A463946204600F086FCFF
:1006500027B13968A14201D1C7F800804FF00204E8
:1006600071050BD54042002803DDFFF7E5FD04606E
:10067000A007BDE8F08746F48066E4E70028F8DAD2
:10068000FFF7DAFD04606FF00040F2E72DE9F05F5C
:1006900093460F46804604460026FFF7CDFDD0F86E
:1006A0000090824614F8015B2DB100F0B3F90068A8
:1006B000405DC007F6D12B2D02D02D2D1AD0641E1F
:1006C0000021CAF800105A463946204600F046FC80
:1006D000014627B13868A04201D1C7F80080DAF896
:1006E0000000022809D0CAF80090700505D54842DC
:1006F000BDE8F09F46F48066E2E70846F8E70000B0
:1007000010B5044603E006F048FE401C09D014F87A
:10071000010B05490028F6D1BDE810400A2006F07B
:100720003CBE4FF0FF3010BD8C0F002070B5C46888
:10073000A50713D0650211D4B2F5807F09D0B2F5B8
:10074000007F06D0B2F5806F08D1012300F12401AB
:1007500006E05D1E6FF07F46B54201D3012070BDFB
:100760000161C361416024F470611143C1600020E4
:1007700070BD401ECAB210F8011F8A4202D0002983
:10078000F9D10020704730B503461D781DB10A46E7
:1007900003E0AC4201D1181A30BD12F8014B002C15
:1007A000F7D15B1CF1E730B503461D783DB10A4631
:1007B00012F8014B1CB1AC42FAD15B1CF5E7181AD8
:1007C00030BD2DE9F0410E460546002400E0641CD2
:1007D000285D00F027F90746305D00F023F9381A4C
:1007E00002D1295D0029F2D1BDE8F08110B5431C8A
:1007F00002E010F8011B71B18107FAD14FF001320C
:1008000002C88C1A8C4314EAC211F9D0C01A0A0625
:1008100003D0C01E10BDC01A10BD0A0401D0801E36
:1008200010BD0902FCD0401E10BD032A40F23080EA
:1008300010F0030C00F0158011F8013BBCF1020F21
:10084000624498BF11F801CB00F8013B38BF11F8A2
:10085000013BA2F1040298BF00F801CB38BF00F8B9
:10086000013B11F0030300F06584083AC0F00880F2
:1008700051F8043B083A51F804CBA0E80810F5E71A
:10088000121D5CBF51F8043B40F8043BAFF30080FD
:10089000D20724BF11F8013B11F801CB48BF11F872
:1008A000012B24BF00F8013B00F801CB48BF00F842
:1008B000012B7047431A28BF9A427FF6B6AF104407
:1008C0001144032A40F2268010F0030F1EBF11F8D6
:1008D000013D521E00F8013D10F0030F7FF4F6AF0A
:1008E00011F0030300F06B84083AC0F00B8051F85C
:1008F000043D083A51F804CD40F8043D40F804CDD9
:10090000FFF7F3BF121D5CBF51F8043D40F8043DF2
:10091000AFF30080D20724BF11F8013D11F801CDDB
:1009200048BF11F8012C24BF00F8013D00F801CDAB
:1009300048BF00F8012C70474FF0000200B5134685
:1009400094469646203922BFA0E80C50A0E80C50EF
:10095000B1F12001BFF4F7AF090728BFA0E80C50A0
:1009600048BF0CC05DF804EB890028BF40F8042B99
:1009700008BF704748BF20F8022B11F0804F18BF06
:1009800000F8012B7047000030B44FF0013C50F8E4
:10099000042B51F8043BCCFA52F4D51A20D1FCB9FF
:1009A00050F8042B51F8043BCCFA52F4D51A17D165
:1009B000B4B950F8042B51F8043BCCFA52F4D51AD0
:1009C0000ED16CB950F8042B51F8043BCCFA52F418
:1009D000D51A05D1002CDAD030BC4FF0000070479A
:1009E00029BAB1FA81F111F01801D1F12000844047
:1009F000F2D1CA40CB4012F0FF0213F0FF0330BC2B
:100A0000D01A704770477047704700000048704721
:100A10003410002010B500F0FDFB001D10BD00BF1C
:100A20009569000010B50446FFF7F4FF0068005D0B
:100A3000C00602D504F1200010BD204610BD2DE9EE
:100A4000F0470D4699469246044600F12408016895
:100A5000880604D5E06921F01001216000E0012042
:100A6000A84201DD471B00E00027A1697A1902EBCB
:100A70000900081AA0612078C00602D42046FFF7BA
:100A800063FC002608E0D4E901211AF8060090472B
:100A9000206A401C761C20624E45F4DB2078C0069C
:100AA0000AD52046FFF750FC06E0D4E901213020AA
:100AB0009047206A401C2062381EA7F10107F4DC31
:100AC00007E0D4E9012118F805009047206A401C8E
:100AD0002062281EA5F10105F3DC2046FFF74AFC41
:100AE0002078000602D50220BDE8F0870120FBE750
:100AF0002DE9FF4F0C461E464FF0FF378BB0D2E971
:100B00000001DDF860800A908A46C1F30A5505B9F4
:100B10003D46002108464FF00000BAF1000F00F4F6
:100B2000400005DA00EB80004FF4400101EA50007C
:100B30004FEA9059B9F1010F00DDB9460A9850EA21
:100B40004A000ED044F61050A5F2FF3545432F144D
:100B5000B8F1000F1ED07542291E1EDDC9F100023A
:100B60001CE0B8F1010F4FF0000001D0302103E08C
:100B7000F24305E02154401CB042FBDB304600222A
:100B8000002121540B99C1F80880C1E900200FB061
:100B9000BDE8F08FBD1B6D1CDEE74A4600DA6942F6
:100BA00006A800F00DFC06AB93E8070003AB83E852
:100BB000070050460A9906F009F88DE80700A0F5ED
:100BC00000501F3800900398002D0ADD42F21F01EB
:100BD0004A460844002303A90390684606F072FAC7
:100BE00009E0A0F500504A461F38002303A90390EE
:100BF000684606F07CFA8DE807000004000C03D07C
:100C00004FF0FF30410800E01046B8F1000F03D06C
:100C10000022009215461EE0751E05D400F025FB4B
:100C2000303262556D1EF9D5B3460122084302D019
:100C300000227F1C04E02078302801D100227F1E92
:100C4000002A099784D01DE0112D07DA00F00DFB72
:100C5000303262556D1C50EA0102F5D1084302D0D2
:100C60000098C8B10EE00021681E05E0235C625CBC
:100C700063542254401E491C8142F7DBAB46A81B3B
:100C8000401E0990002004F80B000B98099AC0F848
:100C90000880C0E9002B7AE711264FF0000857E7DB
:100CA0002DE9F04F88460446D21D22F0070191B08D
:100CB000D1E90001CDE90A0106F050FB02460B988C
:100CC000C00F01D02D2007E02068810701D52B201F
:100CD00002E0202101EAC000032A099001D0072A7E
:100CE00005DB03464146204600F01CFB0BE1207863
:100CF000800601D5E06900E00620B8F1650F814665
:100D000006D0B8F1660F18D0B8F1670F70D131E096
:100D10000020B9F1110F009001DB112301E009F16E
:100D200001030AAA01A90CA8FFF7E2FEDDE90C7095
:100D3000002609F10105834647E001204B4600905B
:100D40004FF000470AAA01A90CA8FFF7D1FEDDE980
:100D50000DB00C995D46002610B909F101000D187F
:100D6000B9EB050003D4C0F1FF3609F10105A5EB8D
:100D700009002BE0B9F1010F01DA4FF00109002061
:100D8000B9F1110F0090484601DD112300E0034640
:100D90000AAA01A90CA8FFF7ABFEDDE90C704D46CD
:100DA00000268346207800070AD4AB4500DA5D466A
:100DB00001A8012D04DD411911F8011C302907D0CB
:100DC0004F4502DA17F1040F04DA012082460FE0E2
:100DD0006D1EEEE7002F02DCED1B3E4403E0781CA5
:100DE000A84200DD7D1CB81B00F1010A4FF000474E
:100DF0002078000703D4AA4501DB4FF0FF3A002119
:100E0000B7F1004F0DF143088DF8431024D00220B4
:100E10002B23002F01DA7F422D230A21021EA0F18D
:100E2000010000DC5FB197FBF1FC97FBF1F201FBE5
:100E30001C7C17460CF1300C08F801CDEEE7A8F148
:100E4000010003702188090501D5452100E06521D5
:100E5000A0F1010800F8011C09980FA9A1EB0807EF
:100E6000FF1D00B10120411901EBEA70A16938446E
:100E7000081A401EA0612078C00602D42046FFF761
:100E800063FA099828B1D4E901219047206A401CEF
:100E900020622078C00622D52046FFF755FA1EE0D2
:100EA000002E04DBB34502DD01A8805D00E03020A8
:100EB000D4E901219047206A401C2062761CAAF1E7
:100EC00001005FEA000A0AD100F0A4F9C0680168D5
:100ED000405CD4E901219047206A401C2062281E12
:100EE000A5F10105DCDC07E0D4E9012118F8010BCC
:100EF0009047206A401C2062381EA7F10107F3DCEE
:100F00002046FFF737FA032011B041E610B54369D8
:100F100013B1AFF3008001E0FFF73DFA012010BDEF
:100F2000127800F124010A7000224A700122EDE7D4
:100F300011684FF0FF32E9E7074B70B50D467B446F
:100F400000F0DDF90446284600F0ACFA10B14FF08D
:100F5000FF3070BD204670BD596400002DE9F05F80
:100F6000824615468B4600270AF10104B9460078EF
:100F7000302801D09DB113E014F8010B0127782827
:100F800003D0582801D045B10AE00DB1102D07D18A
:100F9000002714F8010B102502E0082500E00A25BF
:100FA0000026B0460EE005FB080005FB06F1012710
:100FB0001FFA80F801EB1046B6F5803F00D3B94622
:100FC00014F8010B294600F0EDF90028EBDABBF12B
:100FD000000F05D00FB1641E00E05446CBF800406E
:100FE000B9F1000F06D0FFF727F902210160C81EF2
:100FF000BDE8F09F48EA0640FAE7000010B5424815
:101000005421FFF799FC41485421FFF795FC4048D3
:101010005421FFF791FC3F493B483C4A3F4B086055
:101020003D490A603A491960531C0365481C106524
:10103000012008653B48344A39A1784400F022FB7E
:1010400020B9384878440A3800F0BAFB37482F4AAC
:1010500035A1784400F016FB20B9344878440A38AA
:1010600000F0AEFB32482A4A2FA1784400F00AFB78
:1010700020B92F4878440A3800F0A2FB40232248C8
:10108000DC0000212246FFF751FB20B125487844BF
:10109000543800F095FB1D48224640230021FFF7FD
:1010A00045FB20B121487844543800F089FB1848AA
:1010B000224610230021FFF739FB002806D01C48E8
:1010C0007844BDE81040563800F07ABB10BD104897
:1010D00070B5006D20F001040B4800F04BFB0B488D
:1010E00000F048FB0A4800F045FB09E0206D20F0C5
:1010F0000105204600F03EFB204600F08FF82C460C
:10110000002CF3D170BD0000380F00208C0F0020A0
:10111000E00F002000000020040000200800002054
:10112000720000009E650000770000008D650000E1
:101130006665000010B5203AC0F00B80B1E8185089
:10114000A0E81850B1E81850A0E81850203ABFF4B1
:10115000F5AF5FEA027C24BFB1E81850A0E8185050
:1011600044BF18C918C0BDE810405FEA827C24BFA4
:1011700051F8043B40F8043B08BF7047D20728BF32
:1011800031F8023B48BF11F8012B28BF20F8023B81
:1011900048BF00F8012B7047431A28BF9A427FF6D8
:1011A000C9AF1044114410F0030F1EBF11F8013DE8
:1011B000521E00F8013D10F0030F7FF4F6AF103A15
:1011C000C0F00A8010B531E9185020E91850103AE3
:1011D000BFF4F9AFBDE81040530724BF31E9081050
:1011E00020E9081044BF51F8043D40F8043D12F0D6
:1011F000030F08BF7047D20728BF31F8023D48BF30
:1012000011F8012C28BF20F8023D48BF00F8012C3E
:1012100070470000004870475410002070B5044625
:10122000051F00F0F9FA0068002C14BF446870BD77
:10123000002C18BFAC423CBF20466468F8D301685C
:101240000A18AA4218BF456003D12A68054611440E
:10125000016028684119A1421CBF6C6070BD6168C3
:10126000696021680844286070BD30B5B0F10A0299
:1012700071F100034FEA900E4EEA817EB0EB0E0052
:1012800061EB91014FEA101E4EEA017E10EB0E0059
:1012900041EB11114FEA102E4EEA016E10EB0E00D9
:1012A00041EB11214FEA104E4EEA014E10EB0E00B9
:1012B00041EB1141401841F100014FEAD00040EAF2
:1012C00041704FEAD1014FEA810444EA907410EB77
:1012D000800544EB01046D1944EB0404521BA34147
:1012E0004FF0000348BF0A3200D530BD401C41F129
:1012F000000130BD01694A1C02610878704700B5E1
:101300008FB0CDE901310021059105497944CDE93E
:10131000031011466846FFF7D1F80FB000BD00007A
:10132000E5FFFFFF2DE9F0411F4604460326016853
:10133000072A01F4006004DB08B116A505E016A534
:1013400003E008B115A500E015A521F0100020600C
:10135000A069C01EA0610FB1401EA0612046FEF72B
:10136000F3FF4FB1D4E9012138469047206A401C71
:101370002062C01C206206E0206AFAE7D4E901215D
:1013800015F8010B9047761EF8D22046FEF7F2FFC3
:10139000BDE8F0814E414E006E616E00494E460040
:1013A000696E66003A2800D2303820F02002412AC7
:1013B00001D3A2F13700884201D34FF0FF307047CC
:1013C0002DE9F047814616468AB0354878440DC865
:1013D0008DE80D0032487844801C03AC0DC884E8C9
:1013E0000D0041F69B300844372190FBF1F290FB51
:1013F000F1F5A5F1800501FB12041B3C02D5644206
:10140000012000E00020DFF898A080460027FA4481
:10141000AAF1BE0A0EE0E0070AD03246684607EBA2
:10142000470101230AEB810105F061FE8DE8070009
:1014300064107F1C002CEED1194F7F44AE3F19E0A1
:10144000E80715D007EB04100DF1180A90E80E001C
:101450008AE80E00C068F04201D19819089032461F
:10146000012306A903A805F042FE03AB83E80700A9
:101470006D10641C002DE3D14FF001033246694624
:10148000B8F1000F03A802D005F01CFE01E005F042
:101490002EFEC9E90001C9F808200AB0BDE8F087AE
:1014A000EC610000007B00F0800070472DE9F04700
:1014B00005460C46C86820F4201040F48000C8603F
:1014C000800602D5084600F0F4FAE06841F2820195
:1014D0004FF0FF390140022903D0204600F092FA74
:1014E000B5E000F42041B1F5004F0FD1C00306D59F
:1014F0006168E06A884200D80846606006E02069BA
:10150000E0626060606903F0D5FDA061A068002220
:10151000EEB200280DDAE1688B050AD4C043A06062
:1015200041F490302260E0606068411C61600670A8
:10153000A5E0E0689046226040F40050E060206939
:1015400068BB606903F0B8FD012704F12405A0B170
:10155000A08910F4407F08D0E06900F0A8F920616C
:1015600018B1E06840F4006016E0E7612561E068CA
:1015700020F4407040F480600EE0E06900F097F9DC
:1015800000282061F1D0E06840F4006010F4407F52
:10159000E06002D140F48070E06020696060E06843
:1015A00025696FF0010AC1051FD56168E06A8842AC
:1015B00000D80846411B04D02246284600F02CFAE9
:1015C000F0BBE068010203D5E562C4E9015854E0CC
:1015D000691CE1626160E16940F48030491EC4E940
:1015E000021030462E70BDE8F087010202D500F4EB
:1015F00080320AE06068411C61600670E0680A2E73
:1016000040F48030E06006D00022E16A60688142E8
:1016100003D90B4602E00122F7E70346A7895B1BCB
:101620007F0503D4E7699F4200DDE2B1814200D823
:101630000146E5620F1AC4E90158002B09DD00E0FC
:1016400005E022461946284600F0E6F908B148466A
:10165000C9E747B1A069E5626560C01BA061E068A9
:1016600040F01000E060E068000208D56168A06901
:10167000E562491B08446560A0615046B3E7304607
:10168000B1E700002DE9F0410C461646070047D0AF
:10169000104600F06FF82078611C61280AD072288B
:1016A00002D077283CD102E00125002405E0022584
:1016B000042402E0082448F2020511F8010B2B284B
:1016C00006D0622809D011F8010C74280AD00BE06A
:1016D00045F0030544F00204EFE745F0040544F04B
:1016E0000104EAE744F010043846214603F0ECFC1C
:1016F000411C15D00021316171604FF40071F5601B
:10170000F1617061200704D530460222002100F00B
:10171000FDF8306D40F0010030653046BDE8F081E5
:101720000020FBE72DE9F0410D460646104C206DE8
:10173000C10704D0410804D020F00104F7E7224695
:101740000EE0542000F0B3F807000ED0206D47F0F3
:1017500001010843542120653846FFF7EDF83A4669
:1017600029463046BDE8F0418CE70020D6E700006E
:10177000380F00202DE9F04704464FF000094FF0E4
:10178000FF37C568D4E90486A80707D0204600F0D3
:101790006DF9304603F084FC002802DA3846BDE8D3
:1017A000F087280502D54046FFF738FD4C2120463A
:1017B000FFF7C2F8206D20F0010020654846EEE7F3
:1017C00010B500F0A5F9BDE8104000F09CB97546D1
:1017D000FFF71CF9AE4605006946534620F00700A6
:1017E000854618B020B5FEF715FDBDE820404FF046
:1017F00000064FF000074FF000084FF0000BAC461A
:10180000ACE8C009ACE8C009ACE8C009ACE8C00964
:1018100021F007018D467047004870473C100020BA
:10182000704770477047704738B504460A46002035
:101830006946AFF30080002808BF38BD0246009912
:10184000204600F08CF9012038BD012000F0DBB902
:10185000F8B5AFF30080054600200C46102000BF0D
:101860000646A819A0420DD9324669460020AFF3BA
:101870000080070008BF00F0C6F90098A04218BF1A
:101880000546C419FFF7C8FF05600746F01D20F0A4
:1018900007004619284600F05BF9B44208BFF8BDBE
:1018A000A21B31463868BDE8F84000F058B970B561
:1018B0000646FFF7B1FF056806F10B0020F00704AC
:1018C000B4429CBF002070BD2B466A68BAB1106854
:1018D000A04210D304F1080188423CBF5068586010
:1018E00007D35168101941601168091B01605860E5
:1018F0001460101D70BD13465268002AE7D12146BE
:101900002846FFF791FF0028DED170BD2DE9F04198
:10191000044616460D464769007B80072ED03846A0
:1019200003F0CAFB50BB3EB3012E02D0022E25D1DC
:1019300004E0204600F02DF905441DE0384603F090
:10194000B9FBE168002841F01001E16005DA2046AA
:1019500000F058F80120BDE8F081C9030BD562689A
:10196000E16A914200D81146A26911442269891A9C
:10197000814200DD08460544002D01DA0220EAE735
:10198000E16A6068E268814206D29103E06203D5B1
:1019900022F4003141F01002A6690027AE4213DCA8
:1019A000E16A814201D90B4600E0034603EB060CD5
:1019B0002369ACEB030CAC4506DD814201D98C46B2
:1019C00000E084469C4505D1A760276042F02000D6
:1019D000A5620DE0AD1BE669AE1B8142A66000D991
:1019E0000846C01A281A20605819606022F02000AA
:1019F00003490840E060002084F84870ABE700002D
:101A0000BFCFD7FFC16821F4001141F08001C16050
:101A100000218160016070472DE9F047814614463E
:101A20000E464FF0FF383248D5685769054209D055
:101A30003846A16903F076FB002811DB2C48C0432F
:101A40000540E5602B4632464946384603F06EFBBA
:101A5000A16920F00042B21A11440028A16103D00C
:101A60002046FFF7CFFF4046BDE8F08770B504463B
:101A70000569C06A6168884200D80846E16821F4B7
:101A80002011E160C90312D5A84208D02246411BAB
:101A90002846FFF7C1FF10B14FF0FF3070BD0020A6
:101AA000E562C4E90150E06820F48030E060002085
:101AB00070BD10B50446C06820F02000E060A16A47
:101AC000A06988420DD02046FFF7D0FFE06820F4DF
:101AD000405040F01000E060A06AA0612069E06220
:101AE000606044F24001E0688843E06010BD00009F
:101AF0001000020010B50446AFF300802046BDE898
:101B00001040FEF773BB002801D000F01BB87047EF
:101B100010B5014602A000F05DF8012010BD0000E4
:101B200053494752545245443A205265646972659C
:101B300063743A2063616E2774206F70656E3A207B
:101B40000000000001491820ABBEFEE7260002009D
:101B500000210160C0E90110704710207047034662
:101B600040688C46002818BF88423CBF0346406846
:101B7000F8D318681844884207D00CF1030020F00D
:101B80000700001D411A521A0146081D0A60FFF79E
:101B900045BB10B50146C268900703D0900607D533
:101BA000886A0AE0FEF748FB01210160881E10BD2B
:101BB0008B69486818440B69C01A91F848301BB10A
:101BC00091F84910401A10BD1103FCD50028FADD28
:101BD000401E10BD70B505460C460A2000E06D1C85
:101BE00000F018F835B128780028F8D102E0641C1C
:101BF00000F010F814B120780028F8D1BDE870404A
:101C00000A2000F007B810B500F00CF8BDE810404D
:101C1000FFF779BF08B569468DF800000320ABBE19
:101C200008BD704710B5012805D0002103A0FFF7BB
:101C3000D1FF012010BD09A1F8E700005349475228
:101C4000544D454D3A204F7574206F66206865618C
:101C500070206D656D6F7279000000003A20486554
:101C60006170206D656D6F727920636F727275702F
:101C7000746564002DE9F04142F20004C4F20004EE
:101C8000A16C41F65400C2F2000040F20C05016064
:101C9000C2F20005297804294ED8DFE811F00500CA
:101CA0006A00BF00EE001D0141F2A10CC2F2000C5F
:101CB0009CF800201AB3006841F27011A0F5006290
:101CC00041F29400C2F200000368C2F2000141F840
:101CD0002320591C41F2A2020160C2F200021288C4
:101CE00091420CD10021016041F2EC608CF80010AF
:101CF000C2F20000007810B194A0FEF701FD4EF290
:101D00000016CEF200064FF48047C6F8807040F609
:101D10000F61BFF34F8FC2F200010020BFF36F8F3E
:101D200088704FF6F3708880204600F083F9012018
:101D300028703760BDE8F0814EF20016CEF2000642
:101D40004FF48047C6F8807040F60F61BFF34F8FA5
:101D5000C2F200010020BFF36F8F88704FF6F3705E
:101D60008880204600F066F9012028703760BDE8C1
:101D7000F08148F2B011C0F6E0710A68CB6EC2F390
:101D800007429FED6F0A40F22001FF2AC2F20001D4
:101D900025D0C3F30B1340F6FF77BB421FD090ED65
:101DA000001A00EE103AB8EE400AB8EEC11A9FEDE4
:101DB000652A30EE410A20EE020A81ED000A91ED1B
:101DC000000A9FED611A80EE010A81ED000A00EE23
:101DD000102A91ED001AB8EE400A30EE410A4EF298
:101DE0000016CEF200064FF4804781ED000AC6F8D7
:101DF000807040F60F61BFF34F8FC2F200010320E5
:101E0000BFF36F8F88704FF6E0708880204600F037
:101E100011F9022028703760BDE8F08190ED000ACA
:101E20009FED451AB8EEC00A9FED442A20EE010A44
:101E300041F268104EF2001820EE020AC2F20000D1
:101E4000CEF200084FF4804780ED000AC8F8807099
:101E500040F60F61BFF34F8FC2F200014FF6E27000
:101E6000BFF36F8F0326888020468E7000F0E2F863
:101E70002E70C8F80070BDE8F08190ED000A9FED6B
:101E80002E1AB8EEC00A9FED2D2A20EE010A41F26B
:101E900098004EF2001620EE020AC2F20000CEF2C6
:101EA00000064FF4804780ED000AC6F8807040F6C7
:101EB0000F61BFF34F8FC2F200010020BFF36F8F9D
:101EC00088704FF6F3708880204600F0B3F8012048
:101ED00028703760BDE8F08190ED000A9FED161A7A
:101EE000B8EEC00A9FED152A20EE010A41F26C10EF
:101EF0004EF2001620EE020AC2F20000CEF20006F8
:101F00004FF4804780ED000AC6F8807040F60F61FC
:101F1000BFF34F8FC2F200010220BFF36F8F8870B2
:101F20004FF689708880204600F084F800202870E1
:101F30003760BDE8F08100BF00409C45000080395B
:101F4000339388C300409C4448E1EAC5504952207D
:101F500073616D706C696E6720646F6E652E0D0025
:101F6000F0B581B0CF780D4604466FB12068000609
:101F700028D444F24016C0F20506304600F048FB73
:101F8000304600F045FB1DE044F24010C0F2050071
:101F900000F03EFB42F2FF31C0F2F401084401318F
:101FA000884201D200270DE04DF68361C4F21B3157
:101FB000A0FB01014FF0FF3000EB91507F2828BFBC
:101FC0007F20C7B20A20A06028784FF4FE466978C7
:101FD000AA7806EA072747EA00602B7902F07F0219
:101FE000084440EA0240002B18BF40F01000206077
:101FF00068794FF08061C02262504FF0C06160503C
:102000002068000610D5B820C0F2320000F000FBB6
:1020100042F20000C4F20000844205D148F20020E0
:10202000C0F2040000F0F4FA4FF40060206401B044
:10203000F0BD0000B0B504460220A0600D468978CE
:102040002046002200F060F895F804E095F801C001
:102050004FEA0E236979EA7843EA0C6343EA0141C7
:10206000EB7941EAC2012A7A002BA87818BF41F027
:102070000051002AAA7918BF0431002A18BF41F084
:1020800002016A7ABEF1F30F42EA010208D1BCF103
:10209000030F98BF002802BF042060F31B620020DA
:1020A000AEF1F301B1FA81F14FEA511CE02110F0D9
:1020B000800308BF41011143216161694BF6F87249
:1020C000CFF6E172114000F07F00002B18BF0143F2
:1020D0002878EB7A41EA4040AA7A002B18BF00F535
:1020E0008040082160616001C4F200210A504FF471
:1020F000C06000EB44100844C0F838C0E06FD4F86A
:102100008000E068B0BD000010B548F2000E42F259
:102110000003CFF6FF7E002AC4F200031EBF4FF675
:10212000FF7EC8F2000E1022D0F834C0984218BFCB
:1021300010BD0CEA0E0C06294FF0000E17D8DFE890
:1021400001F00429183A5A5A4E0048F2142EC0F6EB
:10215000E07E5EF8043C5EF8041C03F4FE445EF886
:10216000043C01F00F01214403F0F00341E0812918
:1021700041D148F21421C0F6E0710B680C6809687F
:1021800003F4FE4304F00F04234401F0F00103EBD9
:10219000010E30E048F21421C0F6E07151F8043C21
:1021A00051F8044C4FF4FE4E0EEA1343C4F30344BB
:1021B00051F8041C0CE048F21421C0F6E0710B68E1
:1021C0000C684FF4FE4E0EEA1343C4F3034409684F
:1021D0002344F02404EA114103EB010E0BE048F222
:1021E0001421C0F6E0714B68496803F00F0301F059
:1021F000F00101EB030E0EFA02F141EA0C0141631A
:1022000010BD000010B50446B0F5FA4F42F2004090
:10221000C0F2F40098BF4FF4FA44844228BF044649
:1022200031B944F24010C0F2050000F0F1F9014666
:1022300060180138844202D90020C0B210BDB0FB42
:10224000F4F001387F2828BF7F20C0B210BD000005
:1022500010B50A2181604FF60071C0F2FF010161E3
:1022600000214FF4F81241618161C161026040F6C2
:102270000072C0F203324164026401630162416290
:1022800043F6E4118162D0F88C1042F2000241F072
:102290000101C0F88C10D0F89010C4F2000241F097
:1022A0000101C0F89010416B904201D0406B10BD0D
:1022B00048F21023C0F6E0731A6847F6FF7C21EA63
:1022C0000C0C02F4FE4E19681A6801F00F0102F0BE
:1022D000F0040EEB0C02114421444163416B1A6877
:1022E0001C681B6802F4FE4204F00F04224403F051
:1022F000F0036FF31E411A4441EA0241416310BDED
:1023000058B980B544F24010C0F2050000F080F9E1
:10231000002808BF0120BDE8804044F23F21C0F200
:102320000F0108444DF68361C4F21B31A0FB01018B
:102330004FF0FF3000EB9140C0B270477047000093
:1023400044F20C0041F27B42C4F208000021C0F2CA
:102350000102C0F80C11C0F80411C0F84011C0F817
:102360001411C0F8982043F20402C4F208020223B8
:1023700013604CF20202C0F20302C0F8B010C0F8C1
:10238000AC20C0F88C1001607047000044F20C00D3
:10239000C4F208004FF4607101604EF63971C0F864
:1023A0008C104FF47031C0F8AC1043F20401C4F249
:1023B000080101220A6041F27B41C0F20101C0F82C
:1023C00098104FF48051C0F8E8104FF40861C0F83D
:1023D000281148F2F671C0F82C110021C0F8F41051
:1023E000C0F8FC1040F24541C0F24071C0F8141131
:1023F0004CF2E011C4F60101C0F80C114FF48071E9
:10240000C0F840114FF47021C0F804110421C0F845
:10241000B01070477047000040F22400C2F2000084
:102420000068704742F2FF32C0F2F40240F6001C2E
:1024300000219042C0F23D0C19DC40F6FF03C0F2CF
:102440003D03984231DD60453BD04CF6C073C0F28D
:102450006A03984259D045F64053C0F2C6039842E9
:1024600002BF48F29021C0F6E071896958E04BF64E
:102470007F23C0F28C13984229DD4BF68023C0F2F3
:102480008C13984235D044F60003C0F2E81398420A
:1024900041D04DF28053C0F24323984202BF48F22C
:1024A0009021C0F6E071096B3AE044F24023C0F29B
:1024B0000F03984205D048F28043C0F21E039842B1
:1024C0002ED148F29021C0F6E071096828E042F26E
:1024D0000043C0F2F403984211D04EF6C023C0F27C
:1024E0002113984202BF48F29021C0F6E071096AB8
:1024F00016E048F29021C0F6E071896A10E048F2D7
:102500009021C0F6E071C9690AE048F29021C0F656
:10251000E071C96804E048F29021C0F6E071C96A30
:1025200042F6640340F22402C4F2C833C2F200024D
:10253000106000BF1A6832B11A6822B11A6812B16D
:102540001A68002AF6D160450FD048F28042C0F2E6
:102550001E0290420CD044F24022C0F20F02904280
:1025600004BF022060F35A6105E021F0C06102E07F
:10257000012060F35A6144F21800C4F20E000160B9
:1025800070470000B0B5C0F30322541E092C88BF69
:10259000B0BD44F24012C4F20E02A2F5A07EA2F138
:1025A000600C0123DFE804F02A0532080B160E3216
:1025B0001228A2F1800E21E0A2F1780E1EE0A2F115
:1025C000900E1BE0A2F1580C102303E0A2F1500C76
:1025D0004FF480335568ED070CD100BF15681D42DC
:1025E00008D015681D4205D015681D4202D0156837
:1025F0001D42F3D1E64601E002F1100E7C2303EA0E
:1026000090204FEA4E1200F184408150B0BD00008E
:1026100010B5C0F3444104461F294FF0000088BFA5
:1026200010BDDFE811F03B0020002800A401A40148
:102630003B00C10032009D00A4013F00CE00A40178
:10264000E200A40156006800A4017A00A401A401DC
:10265000A401A401A401A4019000A401A401A40167
:10266000A401A401A30002F06BFA44F20011C4F229
:102670000E01896806E002F063FA44F20011C4F228
:102680000E01C968C1F3082197E044F20010C4F2BA
:102690000E0050F8900CC00700F06280BDE81040BA
:1026A00002F04EBA44F20014C4F20E0454F8780C4E
:1026B00054F8780C00F007000138032800F2C780B6
:1026C000DFE810F00400C700CA00D20002F088FA68
:1026D000CCE044F20014C4F20E0454F8800C54F818
:1026E000800C00F007000138032800F29280DFE838
:1026F00000F0269A929E44F20014C4F20E0454F89C
:102700007C0C54F87C0C00F007000138032800F220
:102710008080DFE800F01488808C44F20014C4F25A
:102720000E0454F8780C54F8780C00F007000138C7
:10273000032800F26E80DFE800F002766E7ABDE8D2
:10274000104002F04DBA44F20014C4F20E04E06DE1
:10275000C0F30110DFE810F00B0104006F007300FC
:1027600040F22400C2F20000006810BD02F0E8F957
:10277000C4F303114A1E092A4FF0000100F2F4804D
:10278000DFE812F00A009E00C700D300F200F2005A
:10279000DB00A600B400E30044F20011C4F20E0115
:1027A0000968C1F30421DFE002F0CAF944F2001124
:1027B000C4F20E014969C1F304210131B0FBF1F00B
:1027C00010BD44F20014C4F20E0454F8800C54F806
:1027D000800C00F007000138032849D8DFE800F03A
:1027E000024A4D5502F0FCF951E044F20014C4F2E3
:1027F0000E0454F87C0C54F87C0C00F007000138EF
:10280000032849D8DFE800F0024A4D5502F0E8F904
:1028100051E0002010BD02F093F92168C1F300617E
:102820000131C84010BDBDE8104002F0DDB9BDE87F
:10283000104002F0E5B9BDE8104002F0A7B902F07F
:102840007FF92168C1F304210131484310BD002004
:102850000CE002F0C9F909E002F072F92168C1F355
:1028600000610131C84001E002F0CAF9216B0FE0BC
:1028700000200CE002F0B8F909E002F061F92168EB
:10288000C1F300610131C84001E002F0B9F9216AE9
:1028900001F00F01C84010BD00200CE002F0A4F9C7
:1028A00009E002F04DF92168C1F300610131C8402F
:1028B00001E002F0A5F9A16A01F00301C84010BDD2
:1028C00044F20011C4F20E014969C1F304214BE046
:1028D00040F28061C0F216018C4244D144F20011F2
:1028E000C4F20E01096A01F00F010CE040F2907190
:1028F000C0F21A018C4236D144F20011C4F20E012A
:10290000896A01F003014FF0FF3202FA01F1C94375
:102910002AE044F20011C4F20E0109680222C1F358
:10292000006102FA01F101391EE044F20011C4F223
:102930000E01C968C1F3082116E044F20011C4F287
:102940000E018968C1F308210EE040F6A011C0F223
:1029500014018C4207D144F20011C4F20E01096B3C
:1029600001F00F0100E000210131B0FBF1F010BDDA
:102970002DE9F04F81B000F00F000138072800F278
:10298000548144F20015C4F20E05A5F1780200242A
:10299000DFE810F0080019001C004B011B004F007D
:1029A0004B0156000239032900F23F8140F24008F2
:1029B000C4F2C83804240020DFE801F0B802A6B051
:1029C00003240120B2E0A5F180021446002CA1F1FD
:1029D000010108BFA5F17C04092900F2268100202D
:1029E000DFE811F088000A004000230123015D00A8
:1029F000230123012301870041F21020C4F2C830D3
:102A00004FF4807145F8A01C016969B9016959B991
:102A1000016949B901690029F6D005E0416931B978
:102A2000416921B9416911B941690029F6D00220F3
:102A300060E0092962D0072940F0F78000205EE0BD
:102A40000139072900F2F1800020DFE801F0E9EE0A
:102A5000EE04EEEECBE802200121012200F0E8F8BE
:102A60002020DDE041F21020C4F2C830402145F8BA
:102A7000A01C00BF816869B9816859B9816849B9EA
:102A800081680029F6D005E0C16831B9C16821B973
:102A9000C16811B9C1680029F6D001202AE002F00E
:102AA0004FF844F60101C0F2E81149F20103002297
:102AB0008842C0F2D03328BF0122984240F240033E
:102AC000C4F2C8331A604FF000772A6838BF4FF05D
:102AD0008077884241F2102022F08072C4F2C83020
:102AE0004FF0010128BF3A432A60C0F8F0130320D9
:102AF00000E00420206001B0BDE8F08F012045F81F
:102B0000900C01B0BDE8F08F0120C8F800002868E3
:102B1000022440F080702860022007E00124C8F8F9
:102B20000040286840F080702860032048F2BF7998
:102B300004274EF2C01A01210122CFF68269C4F2A5
:102B40000E07C0F2E40A00F073F8FE6B41F6713B29
:102B5000C7F83CB002F04EF839683968484421F0B3
:102B60004071504538BF01F18071002E39601CBFA3
:102B70000020F86345F88C4C01F0B0FF044601F0EA
:102B8000DFFF44F60102C0F2E8120023904228BFA2
:102B90000123C8F8003049F201062B68C0F2D03694
:102BA0004FF00071B04223F0807338BF4FF0807156
:102BB000904228BF0B432B60F86BC7F83CB03968D4
:102BC000396804EB090221F0407152454FF0000CC6
:102BD00038BF01F18071396038B3C7F83CC001B02B
:102BE000BDE8F08F41F21020C4F2C830102145F842
:102BF000A01C00BF016849B9016839B9016829B949
:102C000001680029F6D001E0416831B9416821B975
:102C1000416811B941680029F6D0102000E0302049
:102C2000E96D21F030010843E86501B0BDE8F08F9F
:102C300070B5042800F2B48044F29003C4F20E038D
:102C400002264FF0010C00244FF0010EDFE800F0E7
:102C5000030C14121D004FF400764FF4807E4FF0E9
:102C6000090C0824C9B97AE080264FF0400E4FF0D5
:102C7000070C062489B972E04FF0030C00294FF0CD
:102C800002046BD04FF0040E09E020264FF0100E26
:102C90004FF0050C0424002961D0022807D153F815
:102CA0006C0C10F0300F05D0012500210FE0012140
:102CB00001250CE053F86C0CC00706D053F86C0CDF
:102CC000012161F3051043F86C0C0021002541F24D
:102CD0000020C4F2C83043F830EC00BF50F8246044
:102CE0004EB950F8246036B950F824601EB950F837
:102CF0002460002EF2D0002A52D000BF50F82C20C1
:102D00004AB950F82C2032B950F82C201AB950F892
:102D10002C20002AF2D0294342D153F86C1CC90759
:102D20003FD153F86C1C00BF196801F44001B1F5A4
:102D3000400F11D0196801F44001B1F5400F0BD0DC
:102D4000196801F44001B1F5400F05D0196801F48C
:102D50004001B1F5400FE7D1196944E00826012090
:102D6000A04043F8306C00BF1968014208D01968D0
:102D7000014205D01968014202D019680142F3D11D
:102D800072B1012000FA0CF01968014208D01968EC
:102D9000014205D01968014202D019680142F3D1FD
:102DA00070BD4FF480619961202143F82C1C53F8C9
:102DB0006C2C4FF4000112F0300F08BF4FF44001AB
:102DC0001A680A408A420BD01A680A408A4207D021
:102DD0001A680A408A4203D01A680A408A42EFD130
:102DE000490248BF1969D968082243F8302C00BF4E
:102DF0001A68520741BF1A685FEA42721A685FEAAE
:102E0000427202D51A685207F2D40A466FF3DF22E3
:102E10001C68240741BF1C685FEA04741C685FEAF1
:102E2000047402D51C682407F2D41C6853F86C4C57
:102E3000012565F30514C1F3C31143F86C4C0C294B
:102E400028BF0C2142EA017153F8602C4FF60004B0
:102E5000C0F6FF742240114401F1405143F8601C58
:102E600043F830EC50F82C10002999D150F82C1070
:102E7000002995D150F82C10002991D150F82C1030
:102E8000002918BF70BDEDE770B582B043F2780538
:102E9000C4F20E05022145F8401C55F8401C01F013
:102EA0000F01022940F0E080044648F23800C0F6E5
:102EB000E070D0F8E412013111D04168026811606D
:102EC000C16882681160416902691160C1698269E3
:102ED0001160416A026A1160C16A806A0160E1881A
:102EE0004B2901D200200DE0B1F5FA7F02D24FF05C
:102EF000805007E040F6C4124FF04050914238BF76
:102F00004FF0005055F82C1C4FF6FE72CCF6FF72B5
:102F10001140A2894FF6FF735A40084340EAD2306D
:102F200045F82C0CA08841F28861C2F200010880AB
:102F300055F80C1C40F6B42641F0807145F80C1C85
:102F40004FF6CC61C4F2C636CFF6FF717258715895
:102F500055F8081C002A21F0070118BF043145F874
:102F6000081C00F0BDF855F8180C20F0C04045F8DA
:102F7000180C55F82C0C40F0060045F82C0C01A854
:102F800001F092FD9DF8050001281FD19DF8040075
:102F900002281BD841F29260C2F200000178A9B960
:102FA00055F8341C40F6007241F0010145F8341C1C
:102FB00055F8181CCFF20E0211404CF2B402C0F6C4
:102FC0004032114345F8181C01210170208941F25B
:102FD0008A62C2F20002A189108041F29062A08848
:102FE000C2F20002118000F07BF8A07B30B1012812
:102FF0000AD142F23710CBF2107003E044F27700AE
:10300000C5F2207045F8200C60880121012200F0F3
:10301000E1F848B3A17A4FF6E042CFF6FF7260784C
:10302000002918BF0121B15055F8441C4AF6E85256
:1030300045F8442C2A68D2071FBF2A685FEAC2728B
:103040002A685FEAC27202D02A68D207F2D155F824
:10305000382C12F003021CBF01233360824206D1D8
:10306000D0BB0020306037E0002002B070BD0128E6
:1030700008BF002A06D141F29262C2F20002022386
:10308000137000BF2A68D2071FBF2A685FEAC272A6
:103090002A685FEAC27202D02A68D207F2D155F8D4
:1030A000382C22F00302024345F8382C2A68D20754
:1030B0001FBF2A685FEAC2722A685FEAC27202D042
:1030C0002A68D207F2D1002818BF012001293060F8
:1030D00004BF002045F8440C012002B070BD000080
:1030E00043F24C0CC4F20E0CDCF82420DCF8003067
:1030F00002F00702022A06D313F0010303D01428BA
:1031000015D203221CE0DCF80030012A06D813F0A7
:10311000010303D10A280FD2032211E0DCF80030AA
:10312000012A4FF0FF320BD813F0010308D00F2211
:10313000282838BF072203E00F22142838BF0722AF
:10314000DCF80030100240EA023023F47F421043E2
:1031500041F28A62CCF80000C2F20002DCF8000002
:103160001288C0F30320283202EB5203421C02EB08
:103170008200B3FBF0F0DCF80010431E21F0EE619A
:103180000720072B28BF034641EA036101F58011A0
:10319000CCF8001041F29061C2F200010B8819B224
:1031A000002948BF704703F1280101EB510153008A
:1031B00003EB520289B2B1FBF2F1DCF804200729DB
:1031C00038BF084622F0700141EA0010CCF8040034
:1031D000704700002DE9F04FA0F5E163B3F5966F5D
:1031E0004FF0000300F2CE8048F21C3E4FF6F80488
:1031F000C0F6E07E4FF4167ACFF6FF74B0F5E16FBB
:1032000088BF012388BF4FF4966A04F5167B5EF8E9
:10321000044C43F25C0CC4F20E0C2546B0F5E16F91
:1032200084BF4FF6F80BCFF6FF7B88BF250C5CF808
:10323000107CC4F307264FEA1778B0F5E16F88BF1A
:10324000260E43EA082340F201341C40B4F5007F07
:10325000EBB207DAFF2C10DCDCB9DEF80040C4F377
:10326000072925E0B4F5407F0DDAB4F5007F15D1CC
:10327000DEF80440C4F307291AE0B4F5807F12D1C8
:10328000DEF8004011E00CBFDEF80440DEF80C4030
:103290000BE0DEF80840C4F3072909E0DEF80C4033
:1032A000C4F3072904E0DEF808404FEA1469240C4F
:1032B0000BEB0005F71A6F43B7FBFAF71F44B74251
:1032C0004FF000035ED8E6B2A9EB06067543B5FBE6
:1032D000FAF555FA84F54D4554D862B1DCF8002072
:1032E00047F602739A433B02B0F5E16F88BF0233A1
:1032F0001A43CCF80020002904BF0120BDE8F08F5C
:103300004FF6E461CFF6FF715EF80110C9B20329F0
:1033100008D8DEF81010B0F5E16F94BFC9B2C1F360
:10332000072110E0DEF8141008F00302DFE802F0D5
:103330000204070AC9B206E0C1F3072103E0C1F3A2
:10334000074100E0090E0F2984BF0020BDE8F08F7F
:10335000DCF81020E72D22F4704242EA0131CCF86B
:10336000101028BFE725DCF8081040F2FF12914347
:103370006A00B0F5E16F88BF013242EA0100012323
:10338000CCF808001846BDE8F08F000001F056BCEC
:1033900043F29C11C4F20E01034651F80C2C002894
:1033A00018BF0123012A4FEAC32C04BF4AF6E85391
:1033B00041F80C3C51F8383C022823F0740318BF44
:1033C000743341F8383C0868012A40F0080008606E
:1033D00044F23C00C4F20E00036823F4406343EA65
:1033E0000C030360086820F00800086004BF002098
:1033F00041F80C0C70470000704700007047000057
:1034000070B578B144F20C00C4F208000068C0073F
:1034100008BF70BD44F28800C4F20840012140F8A2
:103420007C1C70BD44F20C04C4F20804E06FE06F31
:1034300044F28805C007C4F2084508D0022600BF40
:1034400002202E6000F008FDE06FC007F8D144F2C2
:103450008800C4F208600221016040F6FC60C2F2FC
:103460000010026842F020020260FF2045F8880C3C
:103470002420C4F2080001220260206840F02000ED
:103480002060296070BD000070B54AF2000CC4F2E3
:10349000000C82B100EB400E0CEB0E1E4FF0C0652D
:1034A0000EF10C0E0124002B08BF4FF080658C40FC
:1034B00045EA0E052C6007290FD800EB40050CEB00
:1034C0000515D5F804E08C000F26A6402EEA060666
:1034D00002FA04F426436E6011E000EB40060CEBA8
:1034E00006166FF01F04D6F808E004EB81040F25E0
:1034F000A5402EEA050502FA04F42543B560002A2A
:1035000018BF70BD00EB40000CEB001001220C3026
:1035100002FA01F14FF0C062002B08BF4FF0806249
:103520001043016070BD000046F22800C4F20400A0
:103530000121016042F20800C4F2000001607047FE
:10354000012905D0002918BF70471030026070476C
:103550001430026070470000B0B591F800C0BCF1B3
:10356000000F12D18268D2070FD000BF426B9207C2
:1035700041BF426B5FEA8272426B5FEA827202D5A0
:10358000426B9207F2D4022242604B788A78D1F8DB
:103590000CE04FEA03333AB1BEF1000F43F400737D
:1035A00018BFC0F810E006E0BEF1000F03D043F4EE
:1035B0000073C0F810E0CA7891F804E04C798D7976
:1035C000002A18BF43F48073BEF1000F18BF43F008
:1035D0004003002C18BF43F0800343EA8502CB79F7
:1035E000097A42EA03121143BCF1000F016008BFDF
:1035F000B0BD8168C9070ED1416B890741BF416BDE
:103600005FEA8171416B5FEA817102D5416B890785
:10361000F2D401214160B0BD012905D0002918BFB5
:1036200070471830026070471C300260704700001D
:10363000704700000821C4F20E0141F671338A6B15
:103640008B630B6843F001030B60886001204860C6
:103650004869400790B225D402224A6049F280624C
:10366000C0F298024B69002A18BF13F001030AD078
:103670004B69DB0706D04B69DB0703D04B69043A83
:10368000DB07EFD101224B699B0716D40B6823F0AF
:1036900001030B60E2B100284FF0000018BF8863FF
:1036A00040B270470A68002822F001020A601CBF7D
:1036B00000208863FF2040B270470A68002822F08B
:1036C00001020A601CBF00208863FE2040B27047E0
:1036D00000281CBF00208863FD2040B27047000016
:1036E000AFF300802DE9F04F81B01C23C4F20E032C
:1036F00041F671365F6A5E6253F8146C49F2806E6F
:1037000046F001060024C0F2980E43F8146CB4EBA6
:10371000920FBEB26AD04FEA92094FF000084FF004
:10372000080A8B46009605E0A844C1450BEB850BC3
:1037300040F2CA80724600BF002A1D6818BF15F00B
:1037400001070ED01F68FF070AD01F68FF0703D0CC
:103750001F68043AFF07EFD101222AB9A5E000BF94
:103760000122002A00F0A18000EB8802012743F823
:103770000C2C43F8107C1F687F0700F198806FF3D2
:10378000DF22C2F50062A9EB0805B5EB920F28BF56
:103790009508002DC8D000225F4600BFAA42C3D0C2
:1037A0003E6843F8046C764643F810AC002ED3F81C
:1037B00000C018BF1CF001040DD01C68E40709D03C
:1037C0001C68E40703D01C68043EE407EED1012620
:1037D00016B909E001263EB11E680132B60707F1AD
:1037E0000407DBD5FE2400E0FD24009E02680F687C
:1037F000BA424CD0724600BF1F68002A18BF17F0AB
:1038000001070DD01F68FF0709D01F68FF0703D00D
:103810001F68043AFF07EFD1012212B932E00122FA
:1038200082B343F80C0C012043F8100C18684007D1
:103830002AD40020082200BF012827D00F68744630
:1038400043F8047C43F8102C1F68002C18BF17F0B5
:1038500001070ED01F68FF070AD01F68FF0703D0BB
:103860001F68043CFF07EFD101241CB90AE000BF28
:1038700001243CB11F680130BF0701F10401DBD511
:10388000FE2404E0FD2402E0FF2400E0002453F8BD
:10389000140C002E20F0010043F8140C1CBF002073
:1038A000586260B201B0BDE8F08FFD2400E0FF2453
:1038B000009953F8140C002920F0010043F8140C6F
:1038C0001CBF00205862ECE700248EE701F00702DD
:1038D00061F3081240F6C471C2F200110A6000F0F0
:1038E000070260F308124A607047000080B500F0DC
:1038F0006BF941F2C460C2F20000406880BD000074
:1039000010B541F2C461C2F200010978012918D151
:103910000028014608BF0121072840F6C070C2F206
:103920000010026840F23F03CEF2C00302EA030235
:103930000260026888BF072142EA0162026088B221
:1039400010BDF82828BFF820411E41F2850200284A
:1039500018BFC8B2C1B2C0F64202A1FB0223C91A05
:1039600003EB51010A09A2EB421202440132012386
:10397000D2B203EB111142EA4111002818BF41F401
:103980000041C1F34310052803D94FF01F0E052055
:1039900009E028B111F01F0E08BF4FF0010E02E040
:1039A00001204FF0010E40F6C074C2F200143F2314
:1039B0002268CEF2C00303F57F531A4022604CF216
:1039C0000002CFF6FF72824002F47E124FF6C873F7
:1039D00042EA0E62C0F23F035A40236844F2041CDC
:1039E000C4F2084C1A4309044EEA4010226004D481
:1039F0004FF48001CCF8041008E044F20811C4F23E
:103A000008614FF4800200F500400A6041F27051F5
:103A1000C2F20001097844F294026FF0FF03C4F28D
:103A20000802002903EAD01113D04DF60173CCF837
:103A30000030CCF81830136F43F457431367D2F8B3
:103A4000883043F45743C2F88830136843F00803C2
:103A500002E0136823F00803136047F6E07300F0F8
:103A60001F020340C0F34910181A4FF6E1731844BF
:103A70000843811888B210BD41F2C460C2F2000050
:103A8000808970472DE9F04146F26C06C4F20806C1
:103A900056F8541C0446C1F38210FE30C0B241F205
:103AA000C4680428C2F2000807D8012101FA00F016
:103AB00010F0130F01D0002708E098F80000B42799
:103AC000012808BF3227022808BF962701F05EF8B8
:103AD00044F6D351C1F26201A0FB01029009604398
:103AE000B0FBF7F04001C2087C2A0BD838043060E4
:103AF00046F26800C4F2084040F6FF7101604FF4DE
:103B000070602CE0A0FB01024FF6F871C0F6FF7167
:103B10009209FF208B1D0C1D002500BF1A420AD000
:103B200022420AD00A420AD00430B5EB121F4FEAF3
:103B30001212F3D104E0013002E0023000E0033061
:103B4000C1B23804306046F26800C4F2084040F662
:103B5000FF7202604FF47060102938BF080246F20D
:103B60006801C4F2086108603068306856F8040CD7
:103B70003068316856F8042CC9B200F47F40C1F1B6
:103B80000801C84002F0F0018840316856F8042C62
:103B9000C9B202F00F02400A914000EB511042F20C
:103BA000107100FB01F400F0F1FF48F21F51C5F263
:103BB000EB11A0FB01014809B4FBF0F188B2A8F8B1
:103BC0000C10BDE8F081000070B541F2C46EC2F285
:103BD000000E9EF8001040F6C0720129C2F20012D9
:103BE00024D140F62C73DEF80810C2F20003B3F9BA
:103BF00078400844A04257DAB3F9641088425BDA8F
:103C0000B3F95010884280F29C80B3F93C1088428E
:103C100080F29980B3F92810884280F29680B3F937
:103C200014600021B042A8BF01218FE09EF801304E
:103C3000002918BF023340F61B6C03EB0313DEF8B8
:103C40000840C2F2000C1CF8235020444CF6CD442E
:103C5000A842B8BF0546A5F1C800CCF6CC44A0FBED
:103C600004046FF003060CEB830006EAD404001B87
:103C7000C4784068002D05FB040044F6D354C8BF47
:103C800000F5FA70C1F26204A0FB04044FF4004096
:103C900040EA9410022908BFA009C0F34311052986
:103CA00004D91F2405210BE006214FE031B110F0AB
:103CB0001F0408BF012403E0052147E0012101247E
:103CC0003F261568CEF2C00606F57F5635401560D2
:103CD0004CF20005CFF6FF758D4005F47E154FF6CA
:103CE000C87645EA0465C0F23F06754016689B0039
:103CF0003543000415600FD444EA411044F2041126
:103D0000C4F208414FF4800421284C600BD10CEB25
:103D10000300B0F9020028E044F20810C4F2086081
:103D20004FF4800101600CEB0300016CB0F93E0020
:103D30004B42B3F1FF3FC8BFC1F5FA73B3FBF0F0DC
:103D400013E0042102E0032100E0022101EB8100E5
:103D500033F9200013683F24CEF2C00423401360DF
:103D60001368013143EA01611160116844F2940360
:103D70008228C4F2080343F6C87613DCB143166800
:103D80004FF47F5505EA162631441E2811600BDCDE
:103D900044F20411C4F208410126CE61196821F0F1
:103DA000080128E03143116044F20811C4F20861AF
:103DB000012679288E611BDB41F27051C2F20001AD
:103DC0000978A9B144F20411C4F208414DF6017614
:103DD0000E608E61196F41F457411967D3F888104E
:103DE00041F45741C3F88810196841F0080102E016
:103DF000196821F008011960116841F2E862C2F205
:103E000000021160DEF8081000B2401ACEF804007B
:103E100070BD000010B5044600F0A6F818B900F017
:103E200081F800F0B3F8204600F016F800F09CF896
:103E3000002818BF10BD00F0BBF8BDE8104000F02E
:103E40009BB8000001F4600145F2740203310001E7
:103E5000C4F208021150704780B545F2300EC4F22A
:103E6000080E5EF8182C5EF808CCDEF800305EF81C
:103E7000243CDB0700D180BD0CFB00F003E000BF59
:103E80005EF8182CC01ADEF80030B0EB530F24BFD8
:103E9000DEF80000400801E0834227D25EF8183CBB
:103EA0009B1A03D2DEF8001019444B1C83421DD22A
:103EB0005EF8181C8B1A03D2DEF8001019444B1C54
:103EC000834213D25EF8181C8B1A03D2DEF800105E
:103ED00019444B1C834209D25EF8181C8B1ADBD2A2
:103EE000DEF8001019444B1CD6E700BF5EF8181C22
:103EF0008B1A03D2DEF8001019444B1C984298BF6D
:103F000080BD5EF8181C8B1ABAD2DEF80010194476
:103F10004B1CB5E745F26400C4F208004FF0FF31D6
:103F200001607047B0B540F20044C0F2060420467C
:103F30000121FEF727FB45F2280541F20010C4F2EB
:103F40000805C0F2010045F8280C204600F04AF8A8
:103F50004DF68361C4F21B31A0FB0101880C28607F
:103F60002868C043A860B0BD45F20C00C4F2080048
:103F7000006800F00100704745F21000C4F208002C
:103F800000210160416081607047000045F204003B
:103F9000C4F20800016841F0010101604EF2001016
:103FA000CEF200004FF080510160C0F880117047E0
:103FB00045F20400C4F20800016841F00401016008
:103FC0004EF28010CEF200004FF080510160BFF33E
:103FD0004F8FBFF36F8FC0F800117047704700001C
:103FE0007047000010B500F4781044F20014B0F5EA
:103FF000802FC4F20E0409D10C3400F0A1FD216819
:10400000C1F308210131B0FBF1F010BD05D8B0F5C6
:10401000003F13D00028F0D00CE0B0F5C02F0FD037
:10402000B0F5202F0ED0B0F5002F03D1BDE8104021
:1040300000F086BDBDE81040FEF7EABA0834DCE7C0
:104040001034DAE700F07CFD6169D9E700EB40004D
:1040500040F200514002C4F2023101220A5070477E
:1040600044F29400C4F20800016841F001010160CB
:1040700070470000A022C4F2080252F8203023F456
:10408000407342F8203052F8203043EA012142F8D0
:104090002010704770B5002854D0017801290BD04A
:1040A000022914D144F28812C4F20E0292789206C8
:1040B00044BF002070BD1BE044F28812C4F20E021F
:1040C000927812F0C00F1CBF002070BD10E048F2C3
:1040D000D41244F28813C0F6E072C4F20E031268E0
:1040E0001B6802F0010203F480031A44012A29D15B
:1040F00041F2C466C2F200063170417844F2001504
:104100007170C188B0F9020044F200147060084672
:10411000C4F20865C4F20844B181FFF7B3FC3078FB
:1041200090B101281DD106200221206029600721BD
:10413000E160E860C120C0F24000A0604FF4404060
:10414000606016E0002070BD06202060042028601A
:104150000720E0600520E860C020A0608120A86002
:1041600007E04FF4EE4060624FF48A40686201203D
:1041700028620720A065012070BD000041F2EC001C
:10418000C4F20800016821F48061016070470000FA
:1041900010B5044645F26010C0F20700FFF722FF99
:1041A00041F20022A0FB0401C0F27A020023FCF7D6
:1041B00047F840F6A071C2F20011086010BD00007F
:1041C000F0B581B00446FFF757FC45F26015C0F228
:1041D0000705261A2846FFF705FFA0FB060141F256
:1041E0000026C0F27A0632460023FCF729F840F692
:1041F000A477C2F200173860FFF73EFC201AA0F146
:1042000014042846FFF7EEFEA0FB0401324600230B
:10421000FCF716F8396801EB0040386001B0F0BDDA
:1042200010B541F64801C2F200010860041F45F2D2
:104230006010C0F20700FFF7D5FE41F20022A0FB9C
:104240000401C0F27A020023FBF7FAFF40F69C71EA
:10425000C2F20011086010BD2DE9F04144F20408DB
:10426000C4F20808D8F800204FF0045241F29C052F
:10427000C8F878200122C2F20005C8F87C20EFF3CC
:10428000108272B62B680A4601464FF00450013383
:1042900018BF2B60FCF7C9FA286818B101382860EC
:1042A00000D162B640F6C075C2F2001505F10C00EF
:1042B000AE686F682C68C8F85C0040F66C70C2F29B
:1042C00000109421FCF738FB45F26010C0F20700A3
:1042D0002C606F60AE60FFF785FE3C2141F200224A
:1042E000A0FB0101C0F27A020023FBF7A9FF4042C4
:1042F00045F8040CBDE8F081B0B582B044F29C04EE
:1043000043F2080501A8C4F20804C4F2080500F04D
:10431000CBFB4EF2C060C1F25310C4F8A80048F2C3
:10432000E670C4F89C004FF40860C4F8980042F2AC
:104330007A70C0F6007060609DF80500C00705D077
:104340009DF8040001289CBF2820A8644AF63F403D
:10435000286047F22800C4F208004FF0C0710160E5
:104360000020206646F68050C0F26330206002B024
:10437000B0BD000010B5044645F26010C0F2070061
:10438000FFF730FE41F20022A0FB0401C0F27A02E6
:104390000023FBF755FF40F6B471C2F2001108602C
:1043A00010BD000010B5041F45F26010C0F20700F8
:1043B000FFF718FE41F20022A0FB0401C0F27A02CE
:1043C0000023FBF73DFF40F6B071C2F20011086018
:1043D00010BD0000F0B581B00446FFF74DFB45F27B
:1043E0006015C0F20705261A2846FFF7FBFDA0FB63
:1043F000060141F20026C0F27A0632460023FBF79E
:104400001FFF40F6B877C2F200173860FFF734FBA1
:10441000201AA0F114042846FFF7E4FDA0FB0401D4
:1044200032460023FBF70CFF396801EB004038608F
:1044300001B0F0BDF0B581B00446FFF71DFB45F2B9
:104440006015C0F20705261A2846FFF7CBFDA0FB32
:10445000060141F20026C0F27A0632460023FBF73D
:10446000EFFE40F6AC77C2F200173860FFF704FBAE
:10447000201AA0F114042846FFF7B4FDA0FB0401A4
:1044800032460023FBF7DCFE396801EB0040386060
:1044900001B0F0BD44F23000C4F20E000068C0F379
:1044A000C82070470020FEF7ABBF0000FFF7FABF3F
:1044B00010B5044611200521FEF75AFA022000210A
:1044C0000022FEF7B5FB44F23000C4F20E00016892
:1044D0006FF3D32101604FF60001C0F20F010268B3
:1044E00001EAC42111430160022001210122FEF7EB
:1044F0009FFB11200421BDE81040FEF739BA0000EF
:1045000080B541F2D860C2F200000078002808BFF0
:1045100000F038F841F29C0CC2F2000CEFF310806E
:1045200072B6DCF8002041F6400E501CC2F2000EBC
:10453000DEF8000008BF6FF00102012818DB41F629
:104540004401C2F20001086841F24073C2F2000364
:10455000185C0B6801330B600B68B3F5807F04BFF8
:1045600000230B60DEF800100139CEF8001001E0E6
:104570004FF0FF30002ACCF8002018BF80BD62B693
:1045800080BD00002DE9F04188B044F24010C0F237
:10459000050001214FF00108FDF7F4FF42F2005041
:1045A000C0F20A000121FDF7EDFF03200E210422D5
:1045B000012303270426FEF767FF03200D210222B3
:1045C0000123FEF761FF25480DF1080C019023A09F
:1045D000051D80693ECD079042F200208CE83E0028
:1045E000C0F204000121FDF7CDFF00240020C4F239
:1045F00001048DF8040001A9204600F09BFC6767C8
:10460000A06F41F61F71884341F214610843A0670F
:104610004EF20010CEF200004FF40061A664C0F824
:104620008011E26C42F00402E26401602046052140
:1046300000F07AFC40F68C70C2F2000000214FF4CA
:1046400080620023FCF772F841F2D860C2F20000E9
:1046500080F8008008B0BDE8F08100BF05000000D0
:104660000000000000C20100000500000010000072
:1046700000000000000000007047000041F6D00C70
:10468000C2F2000C9CF80010002908BF704741F2EC
:10469000F061C2F200010A6846F21803C4F208038E
:1046A000DA634A6840F6FC701A608A68C2F2001049
:1046B0005A60CA689A630A695A624A691A638A69BF
:1046C0000423C4F208031A60CA69DA630A6A1A6327
:1046D0004A6AC3F89C208A6AC3F8A020CA6AC3F851
:1046E000A4200A6BC3F8A8204A6B5A628A6B9A62AC
:1046F000CA6BDA620A6C0260486C98674FF6FF700A
:10470000C0F207005866886C986600208CF800009C
:104710007047000041F6D000C2F200000178002985
:1047200018BF704746F21802C4F20802D36B41F278
:10473000F061C2F200010B6013684B6053688B603C
:10474000936BCB60536A0B61126B4A616C22C4F2AB
:10475000080252F8683C8B6152F82C3CCB6152F84D
:10476000383C0B62536B4B62936B8B62D36BCB62A7
:10477000136C0B6352F8443C4B6352F8403C8B6320
:1047800052F83C3CCB6340F6FC73C2F200131B684A
:104790000B6413694B6413688B6400211160012161
:1047A0000170704740F6FC70C2F20010016821F001
:1047B0000F01016046F25000C4F2080000210160C0
:1047C00046F21800C4F208404FF4E071016046F26E
:1047D0001800C4F208604FF4807101600021CFF628
:1047E000FF7101600420C4F208000521016040202F
:1047F000C4F2086001210160FDF7C8BDA020C4F229
:1048000008000168242221F480410160416821F4FC
:1048100080414160816821F480418160C16821F458
:104820008041C160012140F86C1C40F8782C4FF4A5
:10483000807240F8742C4FF49C7240F8702C002267
:1048400040F8242C052240F89C2C4020C4F208603B
:10485000016044F20800C4F208000160FDF796BD53
:104860006820C4F208600421016044F20800C4F228
:10487000080020210160FDF763BD00002DE9F04F25
:1048800081B043F23407C4F208078A460646386806
:10489000396800F00700C1F3C201002908BF0121F7
:1048A0003A6844F230084843C2F38211C4F208085F
:1048B000002908BF012100FB01F438683868386816
:1048C000D8F8080146F2380B20F01000C4F2080BAB
:1048D000012C08BF1030C8F8080100F057F9054650
:1048E00041F28460C2F2000004FB06F906604FEA60
:1048F000C9404FEA59312A460023FBF7A1FC47F88B
:10490000080CDBF80000C0F3C252511E032906D880
:1049100002F1180047F20462C0F20002105C0329A1
:1049200088BF0720DBF8001001F00701CA1E022A29
:1049300001D2C60004E0002914BF860000EB400647
:1049400000F024F9B0FBF6F041F2806BA4FB0021EB
:10495000C2F2000BCBF80000C80440EA5231D00488
:104960002A460023FBF76CFC57F8043C6FF31F50FA
:1049700003F4801347F8043C57F8043CAAFB0421D5
:10498000184347F8040C41F27C64C804C2F20004E6
:1049900040EA5231D0042A460023C4F800A0FBF7B5
:1049A0004FFC42F2D401B860C2F20001087818B995
:1049B000F86900F03F000870D8F86410C9061CD5EB
:1049C00049F68171C1F25E61A9FB0112510D43F6F6
:1049D000F412CFF6FF7240F2535311FB032242F65A
:1049E0005053C0F2190302FB013149F28062C0F258
:1049F00098025043B0FBF1F0F86120687968DBF869
:104A0000002043F6FF5301FB002041F28461C2F213
:104A10000001096808444FF6CF61CDF6E631A0FBEE
:104A200001121D2101EB527144F23002C4F208421E
:104A3000536741F28C63C2F200031B6820FA01F451
:104A400004EB5300B0FBF3F0D8F87430013840EABF
:104A50000130184340F4E840C8F874004FF4EE60A9
:104A6000106000F093F84000B4FBF0F00722411E04
:104A7000072828BF1046D8F80030072943EA00204D
:104A800038BF0A4640EA0210C8F8000001B0BDE88D
:104A9000F08F000044F29400C4F20800016841F075
:104AA00004010160704700004FF6E071CEF20F0183
:104AB0004A680B6802F00F02C3F3811343EA8202D3
:104AC00082700A6802F03F0242708A68C96802F088
:104AD000F002C1F3031111440170704744F29400D5
:104AE000C4F20E00016801F0070102290DD003296C
:104AF00011D0042919BF40F21801C2F2000140F29E
:104B00001C01C2F20001096807E040F21401C2F280
:104B10000001096801E04FF40041C26E406FC2F32A
:104B200004220132B1FBF2F1C0F308200130B1FBE5
:104B3000F0F040F21001C2F200010860704700007E
:104B400044F29400C4F20E00016801F0070102294A
:104B50000DD0032911D0042919BF40F21801C2F267
:104B6000000140F21C01C2F20001096807E040F2B6
:104B70001401C2F20001096801E04FF40041C06E67
:104B8000C0F304200130B1FBF0F0704740F2140094
:104B9000C2F200000068704740F200004EF68851F3
:104BA000C0F20000CEF2000141F8800C086840F429
:104BB0007000086043F24000C4F20E00416941F405
:104BC00000514161016821F003010160416B21F056
:104BD00001014163016A21F08051016270470000C8
:104BE0004FF400407047000040F21C00C2F2000089
:104BF000006870474FF20000C0F249207047000083
:104C00004FF47A707047000043F22000C4F20E00A7
:104C1000006841F278514FF4FF62C2F2000102EAEB
:104C2000C0004CF6CD420968CCF6CC42A0FB020293
:104C3000A1EB920000F3070040B2704710B543F2B9
:104C40002004C4F20E04206961680840B0F1FF3FFF
:104C500025DD400047D541F2D460C2F20000006873
:104C60000268CAB10021C0E90011206841F2785100
:104C70004FF4FF63C2F2000103EAC0004CF6CD43DB
:104C80000968CCF6CC43A0FB0303A1EB930000F32F
:104C9000070040B2012190474FF0804022E041F2EE
:104CA000DC60C2F2000000680268CAB10021C0E9FD
:104CB0000011206841F278514FF4FF63C2F2000105
:104CC00003EAC0004CF6CD430968CCF6CC43A0FB08
:104CD0000303A1EB930000F3070040B200219047CB
:104CE0004FF00040E060BDE8104001F085BE0000DC
:104CF0002DE9F04F81B041F2641041F67008C2F224
:104D000000004FF0010AC2F2000843F2080780F8E1
:104D100000A040463021C4F20E07FBF70DFE41F61D
:104D2000A009C2F2000948463021FBF705FE41F216
:104D3000D46041F2E061C2F20000C2F20001016001
:104D400041F2DC60C2F20000016048F2B010C0F62F
:104D5000E0700168406D6FF0FE03C2B253FAA1F635
:104D600053FA80F0B6FA86F6B0FA80F07609400978
:104D700030434CF6CD4B18BF90224FEAC200CCF620
:104D8000CC4BA0FB0B03C1F3074018BF192041F225
:104D9000785500EB800141F2745600EB9300C2F2AB
:104DA000000502EBD101C2F20006286068463160BE
:104DB000FFF77AFE9DF8010001286DD1306846F2B8
:104DC000411301462828D8BF2821B1F5937FC8BFD9
:104DD00040F22711A1F1280241F29461C2F20001D0
:104DE0000A71C0F2000302460B602328D8BF2322B9
:104DF000B2F5917FA8BF4FF49172A2F1230602464B
:104E00003228D8BF3222B2F5987FC8BF40F23112A3
:104E1000A2F1320441F2AC62C2F200021673936056
:104E20000C738B602D28D8BF2D20B0F5967FA8BFBE
:104E30004FF496702D3810751361B8694FF4FF6602
:104E40002B6806EAC000A0FB0B06A3EB960000F35C
:104E5000070043B202203E68502BB8BF0120412B0F
:104E6000B8BF002001EBC0035B6851F83010012E81
:104E7000C8E9001302EBC001496852F83020C9E9C3
:104E8000002107D14AF6E8513960FEF781FA002087
:104E9000386001E0FEF77CFA4FF040407862B86A73
:104EA00020F04040B8624EF20010CEF20000C0F890
:104EB00080A1C0F800A001F09FFD002001B0BDE876
:104EC000F08F000080B50020C4F2010001690906DE
:104ED00028D500F0AFF841F64C01C2F200010A6893
:104EE00041F24073C2F20003985408680130086030
:104EF00041F64000C2F200000268013202600A6816
:104F0000B2F5807F04BF00220A600268B2F5807F9C
:104F1000D8BF80BD00220A60026041F64400C2F2A0
:104F20000000026080BD00000A2222EA4102C26045
:104F3000C1607047F0B581B00D46044640F6AA61E5
:104F4000E160002141F20502216062604FF6F972D2
:104F500040F20040C0F20102C4F20100A1606161B0
:104F6000E164A26444F48062824221666167A167C1
:104F7000E16708BF21658442A16504BF0021C165C6
:104F8000A87C18B1206840F080402060E87C18B10F
:104F9000287D40F08000A065687B298AEA89084363
:104FA00010436060D5E901072E7B28B944F2401018
:104FB000C0F20500FDF72CFB4FEA761103291CD83F
:104FC00047F2EC52C0F2000252F8211079434A082D
:104FD00002EB40102268B0FBF1F022F060024FF6C5
:104FE00000712260C0F27F01226801EBC000F8313D
:104FF000084042EA060121606061687D18B12068BE
:1050000040F480302060EA7DA97D120542EA0171FA
:105010000022C7F27002114028782B7E2166616F52
:1050200021F030016167616F19436167E06001B091
:10503000F0BD00000169090609D4016909065CBFD9
:1050400001695FEA016102D401690906F2D5C0690C
:10505000C0B270470269520609D4026952065CBFA9
:1050600002695FEA426202D402695206F2D54163E4
:10507000704700004EF60C50BFF34F8FCEF2000089
:105080000168042201F4E061C0F2FA5211430160A8
:10509000BFF34F8F00BF00BF00BF00BFFAE70000A3
:1050A00048F20101411A0020022988BF4FF0FF3069
:1050B000704700000020704748F20101411A0020AB
:1050C000032938BF0120704710B510B3044600789B
:1050D0003A281ED147F2DC51C0F200012046FBF70E
:1050E00053FCC8B147F2E351C0F200012046FBF780
:1050F0004BFCA0B147F2D451C0F200012046FBF7AF
:1051000043FC4FF0FF31002808BF48F20301084676
:1051100010BD4FF0FF3010BD48F2010010BD48F245
:10512000020010BD4FF0FF3070470000B0B51446CC
:1051300048F2030290420BD048F20202904209D199
:1051400034B14D1E15F8010F01F02AFC013CF9D1D4
:105150000020B0BD4FF0FF30B0BD0000022909D0E3
:1051600001290AD0002918BF7047024612A0114633
:10517000FBF7DEB803A0FBF7C3BA07A00821FBF7D3
:10518000D7B800BF496E76616C696420617267753B
:105190006D656E740D000000546F6F206D616E7947
:1051A00020617267756D656E74732C206D61782057
:1051B00069732025640D0A00436F6D6D616E642074
:1051C0006E6F7420666F756E643A20272573270D05
:1051D0000A00000000210022FBF720BA0021002273
:1051E000FBF754BA844600284FF0010018BF00298D
:1051F00000D17047CCF8001000200CF108010DC15F
:105200008CF80400704700002DE9F04F81B0804613
:1052100040B3D8F8000028B308F10804002600279E
:1052200017E000BF0846FBF7E1FA014622680B468B
:10523000002AA06808BF33468E42D8BF1E46002A07
:10524000294608BF3946AF42D8BF0F4604F11004C3
:1052500050B1FBF7CBFA54F8041C05460029E1D104
:105260000021E3E70026002729A0FBF749FA47F2CF
:105270002560C0F20000FBF743FAB8F1000F3CD004
:10528000D8F80020CAB37D4247F2786747F6002A73
:10529000764208F108040FF2A808C0F200070FF2E6
:1052A0009009C0F2000A0FF28C0B09E0404611464B
:1052B000FBF73EF83846FBF723FAA2681034E2B158
:1052C00020680028F2D048462946FBF731F854F808
:1052D000042C2AB11078002808BF524601E000BF14
:1052E000524658463146FBF723F861680029E1D061
:1052F00008780028DED011A0DAE747F27860C0F223
:105300000000FBF7FDF9012001B0BDE8F08F00BF00
:105310003C636F6D6D616E643E203C617267733EED
:10532000203C68656C7020746578743E0D00000048
:10533000252A730020252A73000000002025730011
:10534000202D2D2D202573202D2D2D002DE9F04F02
:1053500097B000284FF0FF0818BF002904D14FFA7A
:1053600088F017B0BDE8F08F8246D0E9029014466D
:105370004A44824280F08082DAF8000022464844A3
:10538000FBF753FADAF808004FF000082044002435
:105390008145CAF80800E2D20EA947F27A630431C7
:1053A000C0F200034FF000080027099105E000BF9C
:1053B00009F10109814580F06282DAF8001011F8E4
:1053C00009B0BBF10A0F02D0BBF10D0FF0D1B94506
:1053D00001F8094000F03281DAF80000DAF8101024
:1053E000C5190D912846294604E000BFA84288BF90
:1053F000013804310A78082A04D01AB300F8012BC6
:1054000003E000BFA84288BF01384A78082A03D0C9
:10541000C2B100F8012B02E0A84288BF01388A78A7
:10542000082A03D072B100F8012B02E0A84288BF1D
:105430000138CA78082AD9D022B100F8012B0431EA
:10544000D8E700BF0470284619461E46FBF7ABF9A3
:10545000295C3346002900F0F1802E1830461946A9
:105460000C97FBF790F9315C3718002918BF07F843
:10547000014B0D98002800F0C4800468002C00F057
:10548000C480CDF82C8000F1080806E0D8F8084068
:1054900008F11008002C00F0B680D8F800000028B1
:1054A000F4D030462146FBF78CF90028EED147F2C4
:1054B0007A66C0F20006384631460E94FBF773F95F
:1054C000395C002900F0D3803C1820463146FBF7B8
:1054D0005AF9215C271800291CBF002007F8010B8E
:1054E000384631460F94FBF75EF9395C002900F02D
:1054F000C2803C1820463146FBF745F9215C26184E
:1055000000291CBF002006F8010B109447F27A64B2
:10551000C0F2000430462146FBF745F9315C0C9F90
:10552000002900F0AB80214634182046FBF72BF908
:10553000215C261800291CBF002006F8010B1194DD
:1055400047F27A64C0F2000430462146FBF72BF99B
:10555000315C002900F09480214634182046FBF786
:1055600012F9215C261800291CBF002006F8010B47
:10557000129447F27A64C0F2000430462146FBF7E9
:1055800012F9315C00297DD0214634182046FBF702
:10559000FAF8215C261800291CBF002006F8010B30
:1055A000139447F27A64C0F2000430462146FBF7B8
:1055B000FAF8315C002967D0214634182046FBF701
:1055C000E2F8215C261800291CBF002006F8010B18
:1055D000149447F27A64C0F2000430462146FBF787
:1055E000E2F8315C002951D0214634182046FBF7FF
:1055F000CAF8215C00291CBF002121541594012107
:105600002FE100270CE0DDF82C800027002428463D
:10561000A2A1FBF7D6F818B90D98FFF7F5FD0746DC
:10562000002F47F27A630C9FC0F2000306D12EB11F
:10563000304600211D46FFF791FD2B46BBF10A0FB6
:1056400008BFB94502D008F1010805E09AF8040046
:105650000D2818BF08F1010809F10109DAF808005E
:105660004F468AF804B08145FFF4A7AE07E10C9FCE
:10567000012400260CE00C9F022408E0032406E02D
:10568000042404E0052402E0062400E007240126A7
:1056900058F8040C002800F0CF807FA10A90FBF797
:1056A00073F90A99002800F0C78008460896059407
:1056B0000C46FBF79BF8064620462A21FBF759F8D3
:1056C00080B1012E4FF0020100F0CB800A9A3346E0
:1056D0003244013A9042059A089E40F0C280981EDA
:1056E000029003E002963346059A089E002E00F0D1
:1056F0009780501E0790581E0A9A03902E24002669
:105700000120089006930AE00798013686424FF080
:10571000000138BF0121B042089100F085809E420F
:1057200004DA905D2A2818BF044604E00398105C50
:105730002A2840F07980A4F16200152800F27480D4
:10574000DFE800F00B7272727272727272727272B1
:1057500072727272720C721B2D4FD5E7099850F855
:105760002670FAF769FD014604900020086038466B
:1057700016A90022FAF752FF41E00998049450F864
:105780002640FAF759FD074600203860204616A942
:1057900000220194FAF77AFFFF2813D943E0099811
:1057A000049450F82640FAF747FD07460020386079
:1057B000204616A900220194FAF768FF0021B1EBF8
:1057C000104F30D1386870BB169901980F1AFBF74B
:1057D0000DF887420C9F0A9A069B049C3FF494AFF5
:1057E00022E0099850F82670FAF726FD0146049049
:1057F00000200860384616A90022FAF747FF0498EF
:10580000006880B91698C01B04903846FAF7EEFF7E
:1058100004990C9F0A9A069B81423FF475AF03E0FE
:105820000020089000E00C9F059C02980221A042F5
:1058300017DA0898C00714D1D8F8002020460EA91E
:10584000904758F8080CDDF82C8047F27A6300285E
:105850004FF00004C0F200037FF4F0AE00260127F1
:10586000D5E62846FFF77AFCDDF82C8047F27A630C
:105870000024C0F20003E1E64FF0FE086FE5002FC0
:105880003FF46DADC21BDAF80000CAF80820C11958
:10589000FBF710F863E500BF3F00000068656C701F
:1058A0000000000001A0FAF72BBF00BF43414C5F8E
:1058B0004354554E453A204E6F7420696D706C65A7
:1058C0006D656E7465640D0001A0FAF719BF00BF25
:1058D0004745545F4245523A204E6F7420696D70BF
:1058E0006C656D656E7465640D00000080B504A084
:1058F000FAF706FF0AA0BDE88040FAF701BF00BF33
:105900004745545F4348414E4E454C3A20556E64DE
:10591000657220646576656C6F706D656E740D00E0
:105920004745545F4348414E4E454C3A20300D00A8
:1059300080B5FEF7AFFD014602A0BDE88040FAF752
:10594000F7BC00BF4745545F4354554E453A2025A8
:10595000640D0A0080B504A0FAF7D2FE0BA0BDE8E2
:105960008040FAF7CDBE00BF4745545F46524551CF
:105970004F46465345543A20556E6465722064651F
:1059800076656C6F706D656E740D00004745545FF1
:10599000465245514F46465345543A20300D00007B
:1059A00041F6D100C2F20000017841F65000C2F287
:1059B0000000027801A0FAF7BBBC00BF4745545F66
:1059C00050414354554E453A2025642C25640D0A18
:1059D0000000000080B504A0FAF792FE0AA0BDE81E
:1059E0008040FAF78DBE00BF4745545F504F574582
:1059F000523A20556E64657220646576656C6F70EE
:105A00006D656E740D0000004745545F504F57455B
:105A1000523A20302064426D0D00000080B504A091
:105A2000FAF76EFE0BA0BDE88040FAF769BE00BF32
:105A30004745545F504F5745524C4556454C3A20C8
:105A4000556E64657220646576656C6F706D656E09
:105A5000740D00004745545F504F5745524C455612
:105A6000454C3A20300D000080B504A0FAF748FEFE
:105A70000AA0BDE88040FAF743BE00BF4745545F27
:105A8000525353493A20556E6465722064657665B9
:105A90006C6F706D656E740D000000004745545FBB
:105AA000525353493A202D3230302064426D0D005C
:105AB00080B504A0FAF724FE0BA0BDE88040FAF7F9
:105AC0001FBE00BF4745545F525353494F4646538C
:105AD00045543A20556E64657220646576656C6F36
