:020000040000FA
:10000000902000200D0200001502000017020000E1
:10001000190200001B0200001D0200000000000089
:100020000000000000000000000000001F020000AF
:10003000210200001502000023020000250200003A
:10004000253200001534000027020000973200001E
:1000500041360000D53E0000C33E000051240000A0
:10006000270200002702000027020000DF490000ED
:100070002702000027020000391D000027020000AF
:1000800027020000270200002702000027020000CC
:1000900027020000270200002702000027020000BC
:1000A00027020000270200006F350000992300009E
:1000B000733D000027020000F14400002702000009
:1000C000270200002702000000F002F800F08EF87E
:1000D0000AA090E8000C82448344AAF10107DA45A3
:1000E00001D100F083F8AFF2090EBAE80F0013F067
:1000F000010F18BFFB1A43F001031847C881000025
:10010000E88100000A444FF0000C10F8013B13F0A6
:10011000070408BF10F8014B1D1108BF10F8015B60
:10012000641E05D010F8016B641E01F8016BF9D153
:1001300013F0080F1EBF10F8014BAD1C0C1B09D1AA
:100140006D1E58BF01F801CBFAD505E014F8016B1C
:1001500001F8016B6D1EF9D59142D6D370470000AE
:100160000023002400250026103A28BF78C1FBD8C0
:10017000520728BF30C148BF0B607047662907F09F
:100180004D8003681B0A28BF41F08001642900F0FC
:100190003581782900F0D481F52900F06B81F829A8
:1001A00000F0DC81632900F06087732900F0658727
:1001B000002070471FB507F024F89DE8030001F008
:1001C000A9FB01F0CDF804000020002106F076FF25
:1001D000401C60600020002106F086FFE06000F017
:1001E000B3FF1FBD10B501F018F810BD01F051FBB1
:1001F0001146FFF7DFFF05F0E1FE01F0DDFC03B47F
:10020000FFF7F0FF03BC01F0FFFC00000948804746
:1002100009480047FEE7FEE7FEE7FEE7FEE7FEE7E8
:10022000FEE7FEE7FEE7FEE704480549054A064B00
:1002300070470000D7460000C90000009010002061
:1002400090200020901C0020901C00200048704747
:10025000AC03002053EA020C00F069802DE9F04B5A
:100260004FF00006002B1FBFB3FA83F503FA05F425
:1002700024FA05F65E4012BF1643B2FA82F502FA7E
:1002800005F4C5F120051EBF22FA05FC44EA0C0462
:10029000203556EA044C4FEA144418BF641C4FF052
:1002A00000084FF00009904271EB030C39D300298C
:1002B00019BFB1FA81F701FA07F6B0FA80F700FA30
:1002C00007F6C7F120071EBF20FA07FC46EA0C0616
:1002D0002037B6FBF4FCA7EB0507103F07F01F0B18
:1002E000CBF120062CFA06F60CFA0BFB44BFB34602
:1002F0000026202FA4BF5E464FF0000B5BEA060CE1
:1003000008BF4FF0010B19EB0B0948EB0608ABFBDC
:10031000027C06FB02CC0BFB03CCC01B71EB0C0177
:10032000C1E70B46024641464846BDE8F08B13B58F
:10033000084318BF4FF0FF300146AFF30080BDE81F
:100340001C4070470FB4044910B503AA029800F08E
:1003500099FE10BC5DF814FB0403002070B5044640
:1003600085690068C10601D5302600E02026C00757
:1003700007D070BDD4E9012130469047206A401C67
:1003800020626D1EF6D570BD70B504468569007893
:10039000C00707D170BDD4E9012120209047206A11
:1003A000401C20626D1EF6D570BD70B50C4605462A
:1003B000012A05D02878800600D5EA69002302E0EA
:1003C000012305E05B1C934202D2E05C0028F9D1D6
:1003D000A869E618C01AA861286A18442862284645
:1003E000FFF7BCFF04E0D5E9012114F8010B9047A9
:1003F000B442F8D32846FFF7C7FF70BD2DE9F0419E
:100400000646002410687529314616A510D0AFF3B2
:100410000080002802DA404213A507E031688A070D
:1004200001D512A502E0490704D511A5012401E078
:10043000AFF3008000210A2206F1240709E0B0FB97
:10044000F2FCB0FBF2F302FB1C003030785418468B
:10045000491C0028F3D123462A463046BDE8F04126
:1004600000F092BB000000002D0000002B000000F7
:10047000200000002DE9F0418046D21D22F0070245
:100480000025D2E90002F52915A614D0011E72F14B
:10049000000106DA0023D0EB030063EB020211A691
:1004A00008E0D8F800108B0701D50FA602E0490735
:1004B00001D50EA601251146002408F1240704E009
:1004C00000F010FB30323A55641C50EA0102F7D1BB
:1004D0002B46324621464046BDE8F04100F054BB71
:1004E000000000002D0000002B0000002000000094
:1004F000F0B40D460188090502D51B4C7C4402E08E
:10050000194C7C440E34002100F1240608E002F06E
:100510000F071209E75D42EA03721B097754491C71
:1005200052EA0307F3D1224604780023240704D5B6
:10053000702D02D009B102231132F0BC00F024BBAF
:1005400070B504460D4621461068AFF300800246A0
:1005500029462046BDE870400023C9E7D21D22F09D
:100560000703D3E90023C3E7206D00002DE9F0471E
:100570004FF0000A89460446C0F820A02046E168F2
:100580008847002876D0252806D0D4E90121904755
:10059000206A401C2062F1E7E16820460026884777
:1005A000C4F81CA005460027C4F818A02A2D09D0BD
:1005B000284606F06FFD38B304EB8708303DC8F8D5
:1005C000185019E059F8041B204604EB870291618A
:1005D000E1688847012F054618D1E069002820DA34
:1005E00026F020061DE0D8F8180000EB800005EB8F
:1005F00040003038C8F818002046E16888470546B2
:1006000006F048FD0028EED1012F0AD02E2D08D18A
:100610002046E16888477F1C0546022F46F02006E9
:10062000C4DBA069002803DA404246F00106A0615D
:10063000F00701D026F010066C2D0AD0682D08D0E6
:100640004C2D39D06A2D35D0742D35D07A2D33D03C
:1006500016E0E1682F4620468847B84205460AD191
:100660006C2F27D04FF48060E1680643204688470E
:10067000054605E027E06C2F1AD04FF48070064342
:100680000DB3A5F14100192802D8203546F40066C3
:100690004A462946204626604E46FFF76FFD80B148
:1006A00001280BD0F61D26F0070000F1080965E7C8
:1006B0004020E4E78020D7E70020D5E706F10409D1
:1006C0005CE7284661E7206ABDE8F0872DE9F0473E
:1006D00091460F4680460446002614F8015B2DB172
:1006E00000F0F8F90068405DC007F6D12B2D02D06C
:1006F0002D2D18D0641E4A463946204600F0D4FC01
:1007000027B13968A14201D1C7F800804FF0020437
:1007100071050BD54042002803DDFFF797FD04600B
:10072000A007BDE8F08746F48066E4E70028F8DA21
:10073000FFF78CFD04606FF00040F2E72DE9F05FF9
:1007400093460F46804604460026FFF77FFDD0F80B
:100750000090824614F8015B2DB100F0BBF90068EF
:10076000405DC007F6D12B2D02D02D2D1AD0641E6E
:100770000021CAF800105A463946204600F094FC81
:10078000014627B13868A04201D1C7F80080DAF8E5
:100790000000022809D0CAF80090700505D548422B
:1007A000BDE8F09F46F48066E2E70846F8E70000FF
:1007B000014906F076BC00000403002010B5044691
:1007C00003E006F06EFC401C09D014F8010B05494B
:1007D0000028F6D1BDE810400A2006F062BC4FF0B8
:1007E000FF3010BD0403002070B5C468A50713D006
:1007F000650211D4B2F5807F09D0B2F5007F06D032
:10080000B2F5806F08D1012300F1240106E05D1EDE
:100810006FF07F46B54201D3012070BD0161C36115
:10082000416024F470611143C160002070BD401E1E
:10083000CAB210F8011F8A4202D00029F9D1002063
:10084000704730B503461D781DB10A4603E0AC423F
:1008500001D1181A30BD12F8014B002CF7D15B1CE6
:10086000F1E730B503461D783DB10A4612F8014B59
:100870001CB1AC42FAD15B1CF5E7181A30BD2DE96A
:10088000F0410E460546002400E0641C285D00F09F
:100890006EF90746305D00F06AF9381A02D1295D19
:1008A0000029F2D1BDE8F08110B5431C02E010F838
:1008B000011B71B18107FAD14FF0013202C88C1AC5
:1008C0008C4314EAC211F9D0C01A0A0603D0C01E24
:1008D00010BDC01A10BD0A0401D0801E10BD09024F
:1008E000FCD0401E10BD032A40F2308010F0030CF3
:1008F00000F0158011F8013BBCF1020F624498BF73
:1009000011F801CB00F8013B38BF11F8013BA2F10F
:10091000040298BF00F801CB38BF00F8013B11F08A
:10092000030300F0AD84083AC0F0088051F8043B9E
:10093000083A51F804CBA0E80810F5E7121D5CBF97
:1009400051F8043B40F8043BAFF30080D20724BFCA
:1009500011F8013B11F801CB48BF11F8012B24BF5E
:1009600000F8013B00F801CB48BF00F8012B7047AD
:10097000431A28BF9A427FF6B6AF10441144032AA7
:1009800040F2268010F0030F1EBF11F8013D521EE9
:1009900000F8013D10F0030F7FF4F6AF11F00303F0
:1009A00000F0B384083AC0F00B8051F8043D083AD7
:1009B00051F804CD40F8043D40F804CDFFF7F3BFF3
:1009C000121D5CBF51F8043D40F8043DAFF30080B8
:1009D000D20724BF11F8013D11F801CD48BF11F82D
:1009E000012C24BF00F8013D00F801CD48BF00F8FC
:1009F000012C70474FF0000200B51346944696460E
:100A0000203922BFA0E80C50A0E80C50B1F1200121
:100A1000BFF4F7AF090728BFA0E80C5048BF0CC0CF
:100A20005DF804EB890028BF40F8042B08BF70472D
:100A300048BF20F8022B11F0804F18BF00F8012B9F
:100A4000704700000000000030B44FF0013C50F847
:100A5000042B51F8043BCCFA52F4D51A20D1FCB93E
:100A600050F8042B51F8043BCCFA52F4D51A17D1A4
:100A7000B4B950F8042B51F8043BCCFA52F4D51A0F
:100A80000ED16CB950F8042B51F8043BCCFA52F457
:100A9000D51A05D1002CDAD030BC4FF000007047D9
:100AA00029BAB1FA81F111F01801D1F12000844086
:100AB000F2D1CA40CB4012F0FF0213F0FF0330BC6A
:100AC000D01A704770477047704700000048704761
:100AD000AC03002010B500F043FC001D10BD00BFAA
:100AE000DD65000030B5B0F10A0271F100034FEA94
:100AF000900E4EEA817EB0EB0E0061EB91014FEA61
:100B0000101E4EEA017E10EB0E0041EB11114FEA70
:100B1000102E4EEA016E10EB0E0041EB11214FEA50
:100B2000104E4EEA014E10EB0E0041EB1141401801
:100B300041F100014FEAD00040EA41704FEAD10193
:100B40004FEA810444EA907410EB800544EB010401
:100B50006D1944EB0404521BA3414FF0000348BF3E
:100B60000A3200D530BD401C41F1000130BD10B546
:100B70000446FFF7AFFF0068005DC00602D504F130
:100B8000200010BD204610BD2DE9F0470D469946C6
:100B90009246044600F124080168880604D5E069FD
:100BA00021F01001216000E00120A84201DD471B77
:100BB00000E00027A1697A1902EB0900081AA06178
:100BC0002078C00602D42046FFF7C8FB002608E0C4
:100BD000D4E901211AF806009047206A401C761CCF
:100BE00020624E45F4DB2078C0060AD52046FFF788
:100BF000B5FB06E0D4E9012130209047206A401C73
:100C00002062381EA7F10107F4DC07E0D4E90121D6
:100C100018F805009047206A401C2062281EA5F1A4
:100C20000105F3DC2046FFF7AFFB2078000602D574
:100C30000220BDE8F0870120FBE72DE9FF4F0C46BD
:100C40001E464FF0FF378BB0D2E90001DDF860801F
:100C50000A908A46C1F30A5505B93D460021084667
:100C60004FF00000BAF1000F00F4400005DA00EB8D
:100C700080004FF4400101EA50004FEA9059B9F169
:100C8000010F00DDB9460A9850EA4A000ED044F63A
:100C90001050A5F2FF3545432F14B8F1000F1ED0B8
:100CA0007542291E1EDDC9F100021CE0B8F1010FDA
:100CB0004FF0000001D0302103E0F24305E0215461
:100CC000401CB042FBDB30460022002121540B992E
:100CD000C1F80880C1E900200FB0BDE8F08FBD1B4E
:100CE0006D1CDEE74A4600DA694206A800F0CAFB3E
:100CF00006AB93E8070003AB83E8070050460A9968
:100D000005F0E8FD8DE80700A0F500501F380090C1
:100D10000398002D0ADD42F21F014A4608440023D1
:100D200003A90390684606F051F809E0A0F50050C9
:100D30004A461F38002303A90390684606F05BF873
:100D40008DE807000004000C03D04FF0FF3041088D
:100D500000E01046B8F1000F03D0002200921546C3
:100D60001EE0751E05D4FFF7BDFE303262556D1EC4
:100D7000F9D5B3460122084302D000227F1C04E0CB
:100D80002078302801D100227F1E002A099784D0C4
:100D90001DE0112D07DAFFF7A5FE303262556D1CFC
:100DA00050EA0102F5D1084302D00098C8B10EE024
:100DB0000021681E05E0235C625C63542254401EDF
:100DC000491C8142F7DBAB46A81B401E099000205E
:100DD00004F80B000B98099AC0F80880C0E9002BB2
:100DE0007AE711264FF0000857E72DE9F04F8846C3
:100DF0000446D21D22F0070191B0D1E90001CDE9EE
:100E00000A0106F02FF902460B98C00F01D02D20E1
:100E100007E02068810701D52B2002E0202101EAAC
:100E2000C000032A099001D0072A05DB034641468A
:100E3000204600F0D9FA0BE12078800601D5E06960
:100E400000E00620B8F1650F814606D0B8F1660FC4
:100E500018D0B8F1670F70D131E00020B9F1110F4F
:100E6000009001DB112301E009F101030AAA01A9A5
:100E70000CA8FFF7E2FEDDE90C70002609F1010580
:100E8000834647E001204B4600904FF000470AAAF6
:100E900001A90CA8FFF7D1FEDDE90DB00C995D4664
:100EA000002610B909F101000D18B9EB050003D4B3
:100EB000C0F1FF3609F10105A5EB09002BE0B9F1FE
:100EC000010F01DA4FF001090020B9F1110F009074
:100ED000484601DD112300E003460AAA01A90CA837
:100EE000FFF7ABFEDDE90C704D4600268346207807
:100EF00000070AD4AB4500DA5D4601A8012D04DDE8
:100F0000411911F8011C302907D04F4502DA17F1B9
:100F1000040F04DA012082460FE06D1EEEE7002F79
:100F200002DCED1B3E4403E0781CA84200DD7D1C82
:100F3000B81B00F1010A4FF000472078000703D4E6
:100F4000AA4501DB4FF0FF3A0021B7F1004F0DF148
:100F500043088DF8431024D002202B23002F01DA00
:100F60007F422D230A21021EA0F1010000DC5FB1A7
:100F700097FBF1FC97FBF1F201FB1C7C17460CF18F
:100F8000300C08F801CDEEE7A8F1010003702188CC
:100F9000090501D5452100E06521A0F1010800F80F
:100FA000011C09980FA9A1EB0807FF1D00B1012042
:100FB000411901EBEA70A1693844081A401EA0618A
:100FC0002078C00602D42046FFF7C8F9099828B156
:100FD000D4E901219047206A401C20622078C00695
:100FE00022D52046FFF7BAF91EE0002E04DBB345F8
:100FF00002DD01A8805D00E03020D4E901219047A6
:10100000206A401C2062761CAAF101005FEA000AF7
:101010000AD100F0A5F9C0680168405CD4E901215B
:101020009047206A401C2062281EA5F10105DCDCE7
:1010300007E0D4E9012118F8010B9047206A401C11
:101040002062381EA7F10107F3DC2046FFF79CF968
:10105000032011B041E610B5436913B1AFF300802E
:1010600001E0FFF7A2F9012010BD127800F1240180
:101070000A7000224A700122EDE711684FF0FF323A
:10108000E9E70000074B70B50D467B4400F099F985
:101090000446284600F068FA10B14FF0FF3070BDEA
:1010A000204670BD156000002DE9F05F82461546B0
:1010B0008B4600270AF10104B9460078302801D098
:1010C0009DB113E014F8010B0127782803D05828AC
:1010D00001D045B10AE00DB1102D07D1002714F859
:1010E000010B102502E0082500E00A250026B04685
:1010F0000EE005FB080005FB06F101271FFA80F84A
:1011000001EB1046B6F5803F00D3B94614F8010B49
:10111000294600F0A9F90028EBDABBF1000F05D051
:101120000FB1641E00E05446CBF80040B9F1000F47
:1011300006D0FFF78BF802210160C81EBDE8F09FC2
:1011400048EA0640FAE7000010B542485421FFF78C
:1011500051FC41485421FFF74DFC40485421FFF712
:1011600049FC3F493B483C4A3F4B08603D490A60C7
:101170003A491960531C0365481C10650120086535
:101180003B48344A39A1784400F0DEFA20B93848A7
:1011900078440A3800F076FB37482F4A35A1784466
:1011A00000F0D2FA20B9344878440A3800F06AFBDB
:1011B00032482A4A2FA1784400F0C6FA20B92F48B5
:1011C00078440A3800F05EFB40232248DC0000210E
:1011D0002246FFF709FB20B125487844543800F037
:1011E00051FB1D48224640230021FFF7FDFA20B1A4
:1011F00021487844543800F045FB18482246102313
:101200000021FFF7F1FA002806D01C487844BDE819
:101210001040563800F036BB10BD104870B5006D58
:1012200020F001040B4800F007FB0B4800F004FB22
:101230000A4800F001FB09E0206D20F0010520467E
:1012400000F0FAFA204600F08FF82C46002CF3D17B
:1012500070BD0000B00200200403002058030020ED
:1012600000000020040000200800002072000000A0
:101270005A6100007700000049610000226100000F
:1012800010B5203AC0F00B80B1E81850A0E8185013
:10129000B1E81850A0E81850203ABFF4F5AF5FEA63
:1012A000027C24BFB1E81850A0E8185044BF18C908
:1012B00018C0BDE810405FEA827C24BF51F8043BAF
:1012C00040F8043B08BF7047D20728BF31F8023B03
:1012D00048BF11F8012B28BF20F8023B48BF00F897
:1012E000012B7047431A28BF9A427FF6C9AF1044BA
:1012F000114410F0030F1EBF11F8013D521E00F8FB
:10130000013D10F0030F7FF4F6AF103AC0F00A80F1
:1013100010B531E9185020E91850103ABFF4F9AF70
:10132000BDE81040530724BF31E9081020E9081038
:1013300044BF51F8043D40F8043D12F0030F08BFCC
:101340007047D20728BF31F8023D48BF11F8012C81
:1013500028BF20F8023D48BF00F8012C704700006C
:1013600000487047CC03002070B50446051F00F00C
:10137000B5FA0068002C14BF446870BD002C18BF7B
:10138000AC423CBF20466468F8D301680A18AA4200
:1013900018BF456003D12A680546114401602868DA
:1013A0004119A1421CBF6C6070BD61686960216811
:1013B0000844286070BD000001694A1C0261087879
:1013C000704700B58FB0CDE9013100210591054985
:1013D0007944CDE9031011466846FFF7C7F80FB00E
:1013E00000BD0000E5FFFFFF2DE9F0411F46044668
:1013F00003260168072A01F4006004DB08B116A582
:1014000005E016A503E008B115A500E015A521F03B
:1014100010002060A069C01EA0610FB1401EA06135
:101420002046FEF79BFF4FB1D4E901213846904793
:10143000206A401C2062C01C206206E0206AFAE795
:10144000D4E9012115F8010B9047761EF8D2204609
:10145000FEF79AFFBDE8F0814E414E006E616E00CE
:10146000494E4600696E66003A2800D2303820F0B6
:101470002002412A01D3A2F13700884201D34FF064
:10148000FF3070472DE9F047814616468AB035484F
:1014900078440DC88DE80D0032487844801C03ACB8
:1014A0000DC884E80D0041F69B300844372190FBBD
:1014B000F1F290FBF1F5A5F1800501FB12041B3C54
:1014C00002D56442012000E00020DFF898A08046A9
:1014D0000027FA44AAF1BE0A0EE0E0070AD032461D
:1014E000684607EB470101230AEB810105F083FC05
:1014F0008DE8070064107F1C002CEED1194F7F444B
:10150000AE3F19E0E80715D007EB04100DF1180AFB
:1015100090E80E008AE80E00C068F04201D19819E8
:1015200008903246012306A903A805F064FC03AB2A
:1015300083E807006D10641C002DE3D14FF0010318
:1015400032466946B8F1000F03A802D005F03EFC10
:1015500001E005F050FCC9E90001C9F808200AB013
:10156000BDE8F087305E0000007B00F0800070472F
:101570002DE9F04705460C46C86820F4201040F4D9
:101580008000C860800602D5084600F0F4FAE068E2
:1015900041F282014FF0FF390140022903D0204679
:1015A00000F092FAB5E000F42041B1F5004F0FD100
:1015B000C00306D56168E06A884200D808466060CA
:1015C00006E02069E0626060606903F0F6FAA061FD
:1015D000A0680022EEB200280DDAE1688B050AD47B
:1015E000C043A06041F490302260E0606068411C1C
:1015F00061600670A5E0E0689046226040F400500B
:10160000E060206968BB606903F0D9FA012704F142
:101610002405A0B1A08910F4407F08D0E06900F053
:10162000A8F9206118B1E06840F4006016E0E761B5
:101630002561E06820F4407040F480600EE0E069CD
:1016400000F097F900282061F1D0E06840F40060D4
:1016500010F4407FE06002D140F48070E0602069C7
:101660006060E06825696FF0010AC1051FD56168F7
:10167000E06A884200D80846411B04D0224628462A
:1016800000F02CFAF0BBE068010203D5E562C4E982
:10169000015854E0691CE1626160E16940F4803006
:1016A000491EC4E9021030462E70BDE8F0870102E1
:1016B00002D500F480320AE06068411C6160067067
:1016C000E0680A2E40F48030E06006D00022E16A33
:1016D0006068814203D90B4602E00122F7E7034626
:1016E000A7895B1B7F0503D4E7699F4200DDE2B158
:1016F000814200D80146E5620F1AC4E90158002B67
:1017000009DD00E005E022461946284600F0E6F92A
:1017100008B14846C9E747B1A069E5626560C01BEA
:10172000A061E06840F01000E060E068000208D5C9
:101730006168A069E562491B08446560A061504684
:10174000B3E73046B1E700002DE9F0410C461646FC
:10175000070047D0104600F06FF82078611C612820
:101760000AD0722802D077283CD102E0012500245B
:1017700005E00225042402E0082448F2020511F8DD
:10178000010B2B2806D0622809D011F8010C74280F
:101790000AD00BE045F0030544F00204EFE745F002
:1017A000040544F00104EAE744F0100438462146F9
:1017B00003F00DFA411C15D00021316171604FF426
:1017C0000071F560F1617061200704D53046022296
:1017D000002100F0FDF8306D40F00100306530462A
:1017E000BDE8F0810020FBE72DE9F0410D460646FB
:1017F000104C206DC10704D0410804D020F0010432
:10180000F7E722460EE0542000F0B3F807000ED0B0
:10181000206D47F001010843542120653846FFF749
:10182000E9F83A4629463046BDE8F0418CE7002009
:10183000D6E70000B00200202DE9F04704464FF043
:1018400000094FF0FF37C568D4E90486A80707D020
:10185000204600F06DF9304603F0A6F9002802DAC0
:101860003846BDE8F087280502D54046FFF77CFDE5
:101870004C212046FFF7BEF8206D20F001002065C6
:101880004846EEE710B500F0A5F9BDE8104000F0BD
:101890009CB97546FFF71AF9AE46050069465346EE
:1018A00020F00700854618B020B5FEF7BDFCBDE866
:1018B00020404FF000064FF000074FF000084FF0B7
:1018C000000BAC46ACE8C009ACE8C009ACE8C00904
:1018D000ACE8C00921F007018D4670470048704709
:1018E000B4030020704770477047704738B504460E
:1018F0000A4600206946AFF30080002808BF38BDC3
:1019000002460099204600F08CF9012038BD0120E4
:1019100000F0DBB9F8B5AFF30080054600200C46B7
:10192000102000BF0646A819A0420DD932466946CC
:101930000020AFF30080070008BF00F0C6F9009850
:10194000A04218BF0546C419FFF7C8FF0560074647
:10195000F01D20F007004619284600F05BF9B4425C
:1019600008BFF8BDA21B31463868BDE8F84000F05A
:1019700058B970B50646FFF7B1FF056806F10B00D0
:1019800020F00704B4429CBF002070BD2B466A685B
:10199000BAB11068A04210D304F1080188423CBFDC
:1019A0005068586007D35168101941601168091BCD
:1019B000016058601460101D70BD13465268002A03
:1019C000E7D121462846FFF791FF0028DED170BD00
:1019D0002DE9F041044616460D464769007B800715
:1019E0002ED0384603F0EBF850BB3EB3012E02D0A8
:1019F000022E25D104E0204600F02DF905441DE01B
:101A0000384603F0DAF8E168002841F01001E1609F
:101A100005DA204600F058F80120BDE8F081C9033E
:101A20000BD56268E16A914200D81146A26911445F
:101A30002269891A814200DD08460544002D01DA39
:101A40000220EAE7E16A6068E268814206D2910317
:101A5000E06203D522F4003141F01002A6690027AC
:101A6000AE4213DCE16A814201D90B4600E0034635
:101A700003EB060C2369ACEB030CAC4506DD81429D
:101A800001D98C4600E084469C4505D1A7602760BB
:101A900042F02000A5620DE0AD1BE669AE1B81425D
:101AA000A66000D90846C01A281A2060581960603C
:101AB00022F0200003490840E060002084F84870CC
:101AC000ABE70000BFCFD7FFC16821F4001141F0A0
:101AD0008001C16000218160016070472DE9F047FD
:101AE000814614460E464FF0FF383248D568576994
:101AF000054209D03846A16903F097F8002811DBA8
:101B00002C48C0430540E5602B46324649463846DE
:101B100003F08EF8A16920F00042B21A11440028A7
:101B2000A16103D02046FFF7CFFF4046BDE8F08714
:101B300070B504460569C06A6168884200D80846E5
:101B4000E16821F42011E160C90312D5A84208D050
:101B50002246411B2846FFF7C1FF10B14FF0FF306E
:101B600070BD0020E562C4E90150E06820F48030D7
:101B7000E060002070BD10B50446C06820F0200071
:101B8000E060A16AA06988420DD02046FFF7D0FF2F
:101B9000E06820F4405040F01000E060A06AA061CE
:101BA0002069E062606044F24001E0688843E060E0
:101BB00010BD00001000020010B50446AFF3008015
:101BC0002046BDE81040FEF71ABB002801D000F007
:101BD0001BB8704710B5014602A000F05DF8012067
:101BE00010BD000053494752545245443A205265B3
:101BF0006469726563743A2063616E2774206F7044
:101C0000656E3A200000000001491820ABBEFEE7D7
:101C10002600020000210160C0E901107047102079
:101C20007047034640688C46002818BF88423CBF76
:101C300003464068F8D318681844884207D00CF16E
:101C4000030020F00700001D411A521A0146081D2A
:101C50000A60FFF789BB10B50146C268900703D040
:101C6000900607D5886A0AE0FEF7F0FA01210160C4
:101C7000881E10BD8B69486818440B69C01A91F81A
:101C800048301BB191F84910401A10BD1103FCD522
:101C90000028FADD401E10BD70B505460C460A202E
:101CA00000E06D1C00F018F835B128780028F8D154
:101CB00002E0641C00F010F814B120780028F8D17C
:101CC000BDE870400A2000F007B810B500F00CF82D
:101CD000BDE81040FFF779BF08B569468DF80000F0
:101CE0000320ABBE08BD704710B5012805D0002108
:101CF00003A0FFF7D1FF012010BD09A1F8E7000004
:101D000053494752544D454D3A204F7574206F66E4
:101D10002068656170206D656D6F7279000000004C
:101D20003A2048656170206D656D6F727920636F30
:101D30007272757074656400F0B581B042F2000093
:101D4000C4F20000826C40F61001C2F2000140F2C1
:101D50000C040A60C2F200042278032A00F2CB804D
:101D6000DFE802F0021D709C4EF20015CEF2000575
:101D70004FF48046C5F8806040F25621BFF34F8F84
:101D8000C2F200010022BFF36F8F8A704FF6F37228
:101D90008A8000F040F9012020702E60C5E048F2F2
:101DA000B012C0F6E0721368D26EC3F307439FED22
:101DB000620A40F2480CFF2BC2F2000C25D0C2F39D
:101DC0000B1240F6FF76B2421FD091ED001A00EEE2
:101DD000102AB8EE400AB8EEC11A9FED582A30EE2C
:101DE000410A20EE020A8CED000A9CED000A9FEDEC
:101DF000541A80EE010A8CED000A00EE103A9CEDB8
:101E0000001AB8EE400A30EE410A4EF20015CEF24A
:101E100000054FF480468CED000AC5F8806040F262
:101E20005621BFF34F8FC2F200010322BFF36F8F21
:101E30008A704FF6E0728A8000F0EDF80220207080
:101E40002E6072E091ED000A9FED391AB8EEC00ADB
:101E50009FED382A20EE010A40F2EC414EF20015C7
:101E600020EE020AC2F20001CEF200054FF48046D5
:101E700081ED000AC5F8806040F25621BFF34F8F14
:101E8000C2F2000103274FF6E272BFF36F8F8F702B
:101E90008A8000F0C0F827702E6046E091ED000ABD
:101EA0009FED231AB8EEC00A9FED222A20EE010A08
:101EB00040F210414EF2001520EE020AC2F200017B
:101EC000CEF200054FF4804681ED000AC5F880602F
:101ED00040F25621BFF34F8FC2F200010022BFF340
:101EE0006F8F8A704FF6F3728A8000F094F80120A9
:101EF00020702E6019E04EF20015CEF200054FF46E
:101F00008046C5F8806040F25621BFF34F8FC2F281
:101F100000010022BFF36F8F8A704FF6F3728A8040
:101F200000F079F8012020702E6001B0F0BD00BFF4
:101F300000409C4500008039339388C300409C4496
:101F400048E1EAC5F0B581B0CF780D4604466FB1DF
:101F50002068000628D444F24016C0F20506304638
:101F600000F0F2FB304600F0EFFB1DE044F24010C1
:101F7000C0F2050000F0E8FB42F2FF31C0F2F401CC
:101F800008440131884201D200270DE04DF68361FB
:101F9000C4F21B31A0FB01014FF0FF3000EB915068
:101FA0007F2828BF7F20C7B20A20A06028784FF47E
:101FB000FE466978AA7806EA072747EA00602B7987
:101FC00002F07F02084440EA0240002B18BF40F0B4
:101FD0001000206068794FF08061C02262504FF09D
:101FE000C06160502068000610D5B820C0F23200F1
:101FF00000F0AAFB42F20000C4F20000844205D1C6
:1020000048F20020C0F2040000F09EFB4FF4006094
:10201000206401B0F0BDB0B504460220A0600D46BA
:1020200089782046002200F05FF895F804E095F8E2
:1020300001C04FEA0E236979EA7843EA0C6343EA68
:102040000141EB7941EAC2012A7A002BA87818BF36
:1020500041F00051002AAA7918BF0431002A18BFA4
:1020600041F002016A7ABEF1F30F42EA010207D1A0
:10207000BCF1030F04D818B9042060F31B620020E0
:10208000AEF1F301B1FA81F14FEA511CE02110F0F9
:10209000800308BF41011143216161694BF6F87269
:1020A000CFF6E172114000F07F00002B18BF014312
:1020B0002878EB7A41EA4040AA7A002B18BF00F555
:1020C0008040082160616001C4F200210A504FF491
:1020D000C06000EB44100844C0F838C0E06FD4F88A
:1020E0008000E068B0BD000010B548F2000E42F27A
:1020F0000003CFF6FF7E002AC4F200031EBF4FF696
:10210000FF7EC8F2000E1022D0F834C0984218BFEB
:1021100010BD0CEA0E0C06294FF0000E17D8DFE8B0
:1021200001F0042718355555490048F2102EC0F625
:10213000E07EDEF80030DEF8001003F4FE44DEF846
:10214000003001F00F01214403F0F0033CE081294D
:102150003CD148F21021C0F6E0714B684C684968E8
:1021600003F4FE4304F00F04234401F0F0011EE0E9
:1021700048F21021C0F6E0710B680C684FF4FE4E77
:102180000EEA1343C4F3034409680CE048F210213B
:10219000C0F6E0714B684C684FF4FE4E0EEA1343F4
:1021A000C4F3034449682344F02404EA114103EBD7
:1021B000010E0BE048F21021C0F6E0718B688968CF
:1021C00003F00F0301F0F00101EB030E0EFA02F130
:1021D00041EA0C01416310BD10B50446B0F5FA4F59
:1021E00042F20040C0F2F40098BF4FF4FA44844237
:1021F00028BF044631B944F24010C0F2050000F097
:10220000A3FA014660180138844201D9002005E094
:10221000B0FBF4F001387F2828BF7F20C0B210BD8A
:1022200010B50A2181604FF60071C0F2FF01016113
:1022300000214FF4F81241618161C161026040F6F2
:102240000072C0F2033241640264016301624162C0
:1022500043F6E4118162D0F88C1042F2000241F0A2
:102260000101C0F88C10D0F89010C4F2000241F0C7
:102270000101C0F89010416B904201D0406B10BD3D
:1022800048F21023C0F6E0731A6847F6FF7C21EA93
:102290000C0C02F4FE4E19681A6801F00F0102F0EE
:1022A000F0040EEB0C02114421444163416B1A68A7
:1022B0001C681B6802F4FE4204F00F04224403F081
:1022C000F0036FF31E411A4441EA0241416310BD1D
:1022D00058B980B544F24010C0F2050000F034FA5D
:1022E000002808BF0120BDE8804044F23F21C0F231
:1022F0000F0108444DF68361C4F21B31A0FB0101BC
:102300004FF0FF3000EB9140C0B27047B0B547F2DC
:10231000080E44F2040140F21842C4F2080EC4F25E
:102320000801C2F200026FF0010C00BFEFF3108051
:1023300072B61568681C09D010600868DEF80030B5
:102340000C68156045B962B606E000BF0868DEF8A3
:1023500000300C68C2F800C004F0606400F06060F7
:1023600084F0007480F0007020439DB2B0FA80F0D9
:10237000B5F57E4F4FEA501002D10028D6D107E0C4
:1023800030B118B2C0F34560184400B2801101E0CA
:102390004FF47E4000B2B0BD47F23000C4F20800F6
:1023A0000168C26811408160C80740F2E040C2F293
:1023B000000003D0026842F4803202604A0703D56D
:1023C000026842F4003202600A0703D5026842F450
:1023D00080220260CA0603D5026842F4002202602D
:1023E000890658BF7047016841F480110160704749
:1023F00047F2140047F2FE01C4F20800C0F20201E5
:1024000001604FF4985141606021C8F2D1118160A0
:102410000021416143F63E01416342F2BC518163B8
:1024200040F20511C0F20201C16540F213110166CC
:1024300048F28041C0F26D014166704700EB4000F8
:1024400040F200514002C4F2023101220A507047AA
:1024500041F2E000C4F208000168C26811408160E6
:10246000704741F25000C4F2080000686FF35F301B
:10247000704740F60030C4F2023001210160C0F81C
:102480000016704741F22000C4F2080000686FF3A4
:102490005F30704740F20050C4F202300121016009
:1024A000EFF3108072B640F21840C2F200000168EB
:1024B00031B1013118BF70476FF001010160704701
:1024C00062B6704740F2184CC2F2000CEFF3108273
:1024D00072B6DCF80030013314BFCCF800304FF096
:1024E000FF3359B141F21803C4F2080310F8012B6D
:1024F00001391A60FAD1DCF800301BB1581ECCF853
:10250000000000D0704762B6704741F2000040F210
:102510002042C4F208000221C2F2000201634263B9
:10252000AF224265016040F2A041C2F20001416069
:1025300042F2200141620021016640F26041C2F294
:10254000000141663E21C0F8841040F20051C4F2FF
:10255000023101220A60C1F80026C1F8002CD0F82F
:10256000EC1021F48061C0F8EC10704740F24C0090
:10257000C2F200000068704742F2FF32C0F2F4027B
:1025800040F6001C00219042C0F23D0C19DC40F6E0
:10259000FF03C0F23D03984231DD60453BD04CF66D
:1025A000C073C0F26A03984259D045F64053C0F256
:1025B000C603984202BF48F29021C0F6E0718969D3
:1025C00058E04BF67F23C0F28C13984229DD4BF67E
:1025D0008023C0F28C13984235D044F60003C0F239
:1025E000E813984241D04DF28053C0F24323984201
:1025F00002BF48F29021C0F6E071096B3AE044F264
:102600004023C0F20F03984205D048F28043C0F245
:102610001E0398422ED148F29021C0F6E07109685D
:1026200028E042F20043C0F2F403984211D04EF683
:10263000C023C0F22113984202BF48F29021C0F695
:10264000E071096A16E048F29021C0F6E071896AEB
:1026500010E048F29021C0F6E071C9690AE048F242
:102660009021C0F6E071C96804E048F29021C0F6FC
:10267000E071C96A40F24C03C2F20003186042F6EE
:102680006403C4F2C83300BF1A68002AFCD1604555
:102690000FD048F28042C0F21E0290420CD044F2A9
:1026A0004022C0F20F02904204BF022060F35A6140
:1026B00005E021F0C06102E0012060F35A6144F2BC
:1026C0001800C4F20E00016070470000B0B5C0F3FE
:1026D0000322541E092C88BFB0BD44F2B002C4F2DC
:1026E0000E02A2F1B00E02F1300C0123DFE804F07B
:1026F00022052A080B150D2A112002F1100E19E0EF
:1027000002F1180E16E0964614E002F1380C102380
:1027100003E002F1400C4FF48033D2F89450ED07FF
:1027200004D100BFD2F890501D42FBD1E64601E033
:1027300002F1A00E7C2303EA90204FEA4E1200F132
:1027400084408150B0BD0000B0B5C0F344410446A0
:102750001F294FF0000088BFB0BDDFE801F0101462
:102760001D919110283682913E4A915891676B9144
:102770006F91919191919176919191919188BDE80C
:10278000B04001F07DBF01F07BFF44F27001C4F264
:102790000E01D1F8981007E001F072FF44F27001C9
:1027A000C4F20E01D1F89C10C1F3082109E001F038
:1027B00067FF44F27001C4F20E01D1F8A410C1F316
:1027C00004210131B0FBF1F0B0BD44F27000C4F25D
:1027D0000E000068C00744D0D1E70520C0F22400F5
:1027E00003F0A4FB44F27001C4F20E01D1F8C01052
:1027F0000AE00220C0F21E0003F098FB44F27001D0
:10280000C4F20E01D1F8B01001F00F010CE003206A
:10281000C0F2200003F08AFB44F27001C4F20E0102
:10282000D1F8B81001F00301C840B0BD0220C0F2D9
:102830001E0006E00320C0F2200002E00520C0F2E6
:102840002400BDE8B04003F071BB44F27004C4F250
:102850000E04D4F8EC00C0F30110DFE800F0110220
:10286000121640F24C00C2F200000068B0BD01F048
:1028700007FF0546204600F011F80130B5FBF0F0E7
:10288000B0BDBDE8B04001F020BF01F0F9FED4F8C2
:102890009010C1F3042101314843B0BD0146C0F39B
:1028A0000310421E092A4FF0000088BF7047DFE87E
:1028B00002F005480B5045455617253844F20010E4
:1028C000C4F20E00006841E044F20010C4F20E00B1
:1028D00000680221C0F3006001FA00F0013870477F
:1028E00040F28060C0F21600814228D144F200100C
:1028F000C4F20E00006A00F00F000CE040F290708D
:10290000C0F21A0081421AD144F20010C4F20E0043
:10291000806A00F003004FF0FF3101FA00F0C0437D
:10292000704740F6A010C0F21400814207D144F273
:102930000010C4F20E00006B00F00F007047002082
:10294000704744F20010C4F20E004069C0F3042046
:10295000704744F20010C4F20E00C06804E044F274
:102960000010C4F20E008068C0F308207047000019
:1029700000F00F00411E07294FF0000088BF70478C
:10298000DFE801F0042614132C3E134944F27000D2
:10299000C4F20E00406A00F00700023803283EBF70
:1029A000C0F10400C0B270470520704744F27000C7
:1029B000C4F20E00406900F00700013804281DD25F
:1029C00040F20321C0F60121C00001F5A0212FE053
:1029D00044F27000C4F20E00006904E044F270009A
:1029E000C4F20E00806900F007000138042805D207
:1029F00040F20321C000C0F6012119E00120704718
:102A000044F27000C4F20E000068C0074FF00900E5
:102A100008BF0720704744F27000C4F20E00D0F8DF
:102A2000EC00182101EA500040F20171C0F60401E7
:102A300021FA00F0C0B270472DE9F04100F00F001C
:102A40000138072800F21D8144F26005C4F20E052A
:102A500005F128020024DFE810F008003000330000
:102A6000140132005400140119000239032900F244
:102A7000088140F24008C4F2C83804240020DFE88E
:102A800001F0A0028A96032401209AE00139072967
:102A900088BFBDE8F0810020DFE811F0EC00F30012
:102AA000F3000800F300F300DC00EB00022001213A
:102AB000012200F0E9F82020DCE005F120021446B4
:102AC000002CA1F1010108BF05F12404092900F23D
:102AD000D8800020DFE801F058051CD5D52BD5D5CE
:102AE000D55741F21020C4F2C8304FF480712960EC
:102AF00001690029FCD000BF41690029FCD00220F7
:102B000042E0092943D0072940F0BB8000203FE084
:102B100041F21020C4F2C8304021296081680029A8
:102B2000FCD000BFC1680029FCD001202CE001F0DE
:102B3000A7FD44F60101C0F2E81149F201030022A9
:102B40008842C0F2D03328BF0122984240F24003AD
:102B5000C4F2C8331A604FF00077D5F8A02038BF10
:102B60004FF08077884241F2102022F08072C4F248
:102B7000C8304FF0010128BF3A43C5F8A020C0F883
:102B8000F013032000E004202060BDE8F081012064
:102B90002861BDE8F0810120C8F80000D5F8A00048
:102BA000022440F08070C5F8A000022009E0012452
:102BB000C8F80040D5F8A00040F08070C5F8A0002B
:102BC0000320042701210122C4F20E0700F05CF863
:102BD00002F09AFF6C6101F040FD044601F050FDE7
:102BE00044F60102C0F2E8120023904228BF0123FC
:102BF000C8F8003049F20106D5F8A030C0F2D0364E
:102C00004FF00071B04238BF4FF0807123F08073F5
:102C1000904228BF0B43C5F8A03041F67131F86BE4
:102C2000F963396848F2BF71CFF682613A684EF2B3
:102C3000C0132144C0F2E40322F0407299424FF0E5
:102C4000000C38BF02F180723A60D0B1C7F83CC0C6
:102C5000BDE8F08141F21020C4F2C8301021296093
:102C600001680029FCD000BF41680029FCD0102079
:102C700000E03020D5F8FC1021F030010843C5F801
:102C8000FC00BDE8F081000070B5042800F2B580BA
:102C900044F22403C4F20E0302264FF0010C002478
:102CA0004FF0010EDFE800F0030B12221C004FF47E
:102CB00000764FF4807E4FF0090C082416E0802641
:102CC0004FF0400E4FF0070C06240FE04FF0030CBE
:102CD00000294FF0020400F080804FF0040E09E05C
:102CE00020264FF0100E4FF0050C0424002975D05B
:102CF000022806D1186810F0300F05D001250021F8
:102D00000CE00121012509E01868C00704D018680B
:102D1000012161F3051018600021002541F2002017
:102D2000C4F2C830C3F83CE050F82460002EFBD059
:102D3000002A62D050F82C20002AFBD0294318BF6B
:102D400070BD1968C90709D1196800BFD96E01F4AF
:102D50004001B1F5400FF9D1D96F14E04FF4806113
:102D6000C3F88410202119641A684FF4000112F08E
:102D7000300F08BF4FF44001DA6E0A408A42FBD19F
:102D8000490248BFD96F996F0822DA63DA6E520799
:102D9000FCD40A466FF3DF22DC6E2407FCD4DC6E21
:102DA0001C68012565F30514C1F3C3111C600C29CF
:102DB00028BF0C2142EA0171DA684FF60004C0F620
:102DC000FF742240114401F14051D960C3F83CE046
:102DD00050F82C100029FBD00FE008260120A0405D
:102DE000DE6300BFD96E0142FCD132B1012000FA8E
:102DF0000CF000BFD96E0142FCD170BD42F2000060
:102E0000C4F208004AF2010181610021016140F22F
:102E100044710160704770B582B043F23805C4F266
:102E20000E0502212960296801F00F01022940F0F6
:102E3000B180044648F23800C0F6E070D0F8E412E1
:102E4000013111D0416802681160C1688268116067
:102E5000416902691160C16982691160416A026A4F
:102E60001160C16A806A0160E1884B2901D20020AB
:102E70000DE0B1F5FA7F02D24FF0805007E040F646
:102E8000C4124FF04050914238BF4FF00050696972
:102E90004FF6FE72CCF6FF721140A2894FF6FF7317
:102EA0005A40084340EAD2306861A08840F20C6181
:102EB000C2F200010880696B40F6801641F0807113
:102EC000C4F2C636696331683268AA6B002922F001
:102ED000070218BF0432AA6300F0A2F8A86A20F023
:102EE000C040A862686940F00600686101A801F06E
:102EF0009AFB9DF8050001281BD19DF804000228CB
:102F000017D840F21260C2F20000017889B9E9686E
:102F100040F6007241F00101E960A96ACFF20E02A9
:102F200011404CF2B402C0F640321143A9620121B3
:102F30000170208940F20E62C2F20002A189108065
:102F400040F21062A088C2F20002118000F068F81E
:102F5000A07B30B1012809D142F23710CBF21070BA
:102F600003E044F27700C5F22070286260880121F6
:102F7000012200F089F868B1A17A60784FF61462F6
:102F8000CFF6FF72002918BF0121B15000F006F8FA
:102F9000012000E0002002B070BD000080B543F2C7
:102FA0003401C4F20E01D1F800E04AF6E8530B6098
:102FB0004B6CDB07FCD1CB6840F6B42C13F0030359
:102FC000C4F2C63C1CBF0122CCF80020834206D1CB
:102FD000002818BF80BD0020CCF8000080BD01286B
:102FE00008BF002B06D140F21262C2F20002022397
:102FF000137000BF4A6CD207FCD1CA6822F00302EA
:103000000243CA604A6CD207FCD1002818BF0120D5
:10301000BEF1010FCCF8000004BF0020086080BDA5
:1030200043F24C01C4F20E014A6A0B6802F0070237
:10303000022A05D313F0010302D0142808D311E0AB
:103040000B68012A06D813F0010303D10A280CD219
:1030500003220EE00B68012A4FF0FF3209D813F06B
:10306000010306D00F22282801E00F22142838BFC0
:1030700007220B68100240EA023023F47F4210431B
:10308000086002F0C3BC00002DE9F04FA0F5E16339
:10309000B3F5966F4FF0000300F2C18048F2183E7E
:1030A0004FF6F804C0F6E07E4FF4167ACFF6FF74C0
:1030B000B0F5E16F88BF012388BF4FF4966A04F52D
:1030C000167BDEF8004043F24C0CC4F20E0C254691
:1030D000B0F5E16F84BF4FF6F80BCFF6FF7B88BFEA
:1030E000250CDCF80070C4F307264FEA1778B0F51A
:1030F000E16F88BF260E43EA082340F201341C40EA
:10310000B4F5007FEBB205DAFF2C0CDCBCB9DEF8BD
:10311000044019E0B4F5407F0BDAB4F5007F11D11B
:10312000DEF8084010E0B4F5807F10D1DEF80440EE
:103130000FE00CBFDEF80840DEF8104009E0DEF8D2
:103140000C4001E0DEF81040C4F3072904E0DEF88B
:103150000C404FEA1469240C0BEB0005F71A6F437F
:10316000B7FBFAF71F44B7424FF0000357D8E6B257
:10317000A9EB06067543B5FBFAF555FA84F54D45FE
:103180004DD862B1DCF8102047F602739A433B0237
:10319000B0F5E16F88BF02331A43CCF81020002944
:1031A0003AD04FF6E861CFF6FF715EF80110C9B270
:1031B000032905D8DEF81410B0F5E16F0AD807E04E
:1031C000DEF8181008F00302DFE802F00204070A34
:1031D000C9B206E0C1F3072103E0C1F3074100E0F3
:1031E000090E0F291AD8DCF82020E72D22F47042AE
:1031F00042EA0131CCF8201028BFE725DCF818108E
:1032000040F2FF1291436A00B0F5E16F88BF0132CE
:1032100042EA0100CCF81800012300E00023184620
:10322000BDE8F08F01F0A6BA43F26411C4F20E01BA
:103230000346CA6A002818BF0123012A4FEAC32C9B
:1032400004BF4AF6E853CB620B68022823F07403EC
:1032500018BF74330B60886B012A40F00800886344
:1032600044F23C00C4F20E00036823F4406343EAD6
:103270000C030360886B20F00800886304BF002003
:10328000C862704780B50120FFF7D8F80220BDE87A
:103290008040FFF7D3B86020C4F208000168C2681C
:1032A00040F2E84C11408160C807C2F2000C05D022
:1032B000DCF8002042F00802CCF800208A0705D58F
:1032C000DCF8002042F01002CCF800204A0705D5B7
:1032D000DCF8002042F02002CCF800200A0705D5D7
:1032E000DCF8002042F04002CCF80020CA0640F290
:1032F000E042C2F2000203D5136843F48073136006
:103300008B0603D5136843F4007313604B0603D593
:10331000136843F4806313600B0603D5136843F40A
:1033200000631360CB0503D5136843F48053136027
:103330008B0540F21443C2F2000303D5186840F035
:1033400001001860480503D5186840F002001860B5
:10335000080503D5186840F004001860C80403D5B8
:10336000186840F008001860880403D5186840F019
:1033700010001860480403D5106840F40050106035
:10338000080405D5DCF8000040F08000CCF800000F
:10339000C80303D5186840F020001860880303D5DF
:1033A000186840F040001860480303D5186840F0E2
:1033B00080001860C80103D5106840F48040106098
:1033C000880103D5186840F480701860480103D55F
:1033D000186840F400701860080105D5DCF800009A
:1033E00040F48070CCF80000C80003D5186840F4A1
:1033F00080601860880003D5106840F400401060B9
:10340000480058BF7047DCF8000040F40070CCF86A
:1034100000007047FFF73FBF0420C4F208001B21E3
:1034200081646021016400211F22016041604261CA
:103430000122816102634FF4E06241638163C263F0
:1034400040F6FF42416401654165C0F89C2040F6AA
:10345000FF52C0F8A010C0F8A420C0F8A810416224
:103460004FF4847181624FF6FF71C162D0F89C10F5
:1034700021F44071C0F89C10D0F89C10C0F89C104A
:10348000D0F8A01021F44071C0F8A010D0F8A0101E
:10349000C0F8A010D0F8A41021F44071C0F8A41016
:1034A000D0F8A41041F48071C0F8A410C16B21F0D1
:1034B000F001C163C16B41F0A001C163512181667C
:1034C0004EF20010CEF200000821C0F88011016019
:1034D000704770B54AF2000CC4F2000C82B100EBE8
:1034E000400E0CEB0E1E4FF0C0650EF10C0E0124C9
:1034F000002B08BF4FF080658C4045EA0E052C601C
:1035000007290FD800EB40050CEB0515D5F804E0B2
:103510008C000F26A6402EEA060602FA04F4264383
:103520006E6011E000EB40060CEB06166FF01F0416
:10353000D6F808E004EB81040F25A5402EEA050526
:1035400002FA04F42543B56002B170BD00EB4000FF
:103550000CEB001001220C3002FA01F14FF0C062B6
:10356000002B08BF4FF080621043016070BD46F22F
:103570002800C4F204000121016042F20800C4F2F4
:10358000000001607047012902D019B9103000E035
:103590001430026070470000B0B591F800C0BCF173
:1035A000000F08D18268D20705D000BF426B920796
:1035B000FCD4022242604B788A78D1F80CE04FEAC2
:1035C00003333AB1BEF1000F43F4007318BFC0F8E3
:1035D00010E006E0BEF1000F03D043F40073C0F822
:1035E00010E0CA7891F804E04C798D79002A18BF70
:1035F00043F48073BEF1000F18BF43F04003002C6A
:1036000018BF43F0800343EA8502CB79097A42EA86
:1036100003121143BCF1000F016008D08168C90793
:1036200018BFB0BD416B8907FCD401214160B0BD1A
:10363000012902D019B9183000E01C30026070472F
:1036400046F28001C4F208010868CA681040886028
:10365000C10740F2E841C2F2000103D00A6842F01B
:1036600004020A60820703D50A6842F002020A6077
:10367000420703D50A6842F001020A60C10540F220
:10368000E041C2F2000103D50A6842F001020A607B
:10369000820503D50A6842F004020A60420503D598
:1036A0000A6842F010020A60020503D50A6842F077
:1036B00020020A60C20403D50A6842F002020A60CE
:1036C000820403D50A6842F008020A60420403D566
:1036D0000A6842F040020A60000458BF7047086858
:1036E00040F080000860704746F21400C4F2080001
:1036F000D0F8841041F00301C0F8841044F2940122
:10370000C4F208010A6842F001020A601021016057
:103710004FF08061416044F20F01C0F2010181600D
:103720004FF40051C16000214FF0407201614261CD
:1037300045F6A072C0F2FF028161C2614FF40262DD
:10374000026240F29032C0F22302C26340F60422C9
:10375000C2F21422826444F23312C5F24B02C264F4
:1037600040F61F02C0F220220165016441648163BA
:103770004263F822C0F2022242621222C0F2140214
:10378000826242F6B432C262016370470821C4F219
:103790000E0141F671338A6B8B630B6843F00103B2
:1037A0000B608860012048604869400790B219D4D6
:1037B00002224A6046F67F12CFF667724B690132E9
:1037C00018BF13F00103F9D14B699B0713D40B68A1
:1037D00023F001030B60BAB100284FF0000018BFBE
:1037E000886315E00A6822F001020A6008B100202F
:1037F0008863FF200CE00A6822F001020A6008B129
:1038000000208863FE2003E008B100208863FD20CB
:1038100040B27047B0B501B30C2346F67F1E0022BC
:10382000C4F20E034FF0080CCFF6677E8A4214D024
:103830000468DC607446C3F800C000BF1D69013431
:1038400018BF15F00105F9D14CB11C690132A4076C
:1038500000F10400EAD5FE2002E0002000E0FD2097
:1038600040B2B0BDAFF300802DE9F04F83B0082423
:10387000C4F20E0441F67133A76BA363236882463A
:1038800043F0010020600020B0EB920FBDB233D0B6
:1038900046F67F1902954FEA920B0025CFF667791D
:1038A0004FF001080E460191484600BF61690130A2
:1038B00018BF11F00101F9D1D8B30AEB8500A0605F
:1038C000C4F804806169490735D46FF3DF20C0F57F
:1038D0000060ABEB0507B7EB900F28BF87083046B9
:1038E0003946FFF797FF28B93D44AB4506EB8706FD
:1038F000DAD80020DDE90115DAF800300A689342D1
:1039000021D046F67F10CFF6677000BF62690130A4
:1039100018BF12F00102F9D190B10120C4F808A03B
:103920006060606940070DD408460121FFF772FF0F
:1039300009E0FD2000E0FF20029A2168002A04E04F
:10394000FD2000E0FF202168002D21F00101216011
:103950001CBF0021A16340B203B0BDE8F08F01F0AD
:10396000070261F3081240F6C471C2F200110A6046
:1039700000F0070260F308124A6070470021C9286E
:1039800040F2F04288BF0121C2F200021F281160FC
:103990000BD840F2FC41C2F2000101220A6040F261
:1039A0006421C2F200010A605CE03E280CD840F2BB
:1039B000FC41C2F2000103220A6040F26421C2F21B
:1039C00000010A601F384DE05D280CD840F2FC4130
:1039D000C2F2000107220A6040F26421C2F2000133
:1039E0000A603E383EE07C280CD840F2FC41C2F22E
:1039F00000010F220A6040F26421C2F200010A6055
:103A00005D382FE09B280CD840F2FC41C2F2000147
:103A10001F220A6040F26421C2F200010A607C3871
:103A200020E0BA280CD840F2FC41C2F200013F224B
:103A30000A6040F26421C2F200010A609B3811E082
:103A4000D92815D8FF2140F2FC42CA2838BF7F216F
:103A5000C2F20002116040F26421C2F200017F2232
:103A60000A60BA3840F26821C2F20001086070476B
:103A700040F2FC41C2F20001FF220A6040F26421E0
:103A8000C2F20001D9388EE740F21D4040F20D0C21
:103A9000C2F20000C2F2000C00789CF8003098429C
:103AA00007D39CF82810884201D9142002E09842DC
:103AB00002D1EC2040B27047002100BF984204D9E7
:103AC0000CEB0102527890420DD3272909D00CEB60
:103AD000010253784A1C98421146EFD1A2F114001A
:103AE000E8E78120E6E7A1F11300E3E710B504461B
:103AF000084600F03BF844F22411C4F208414FF4A8
:103B0000EE40086044F22010C4F208604FF48A428C
:103B1000426001220260072220464A63BDE810404D
:103B200000F093B846F26800C4F2080041684168AA
:103B30000168416842680368D2B201F47F41C2F172
:103B40000802D14003F0F002914042680068D2B20E
:103B500000F00F00490A02FA00F001EB5010704724
:103B600040F21E40C2F200000088704770B546F275
:103B70001805C4F2080529680446C1F38211FE3114
:103B8000C9B2042906D80120884010F0130F01D0D3
:103B9000002600E0962600F098FD44F6D351C1F2CD
:103BA0006201A0FB010290096043B0FBF6F0400106
:103BB000B0F57A7F02D24FF4706010E0A0FB0101F3
:103BC0008909FF20002200BF0130B2EB510F4FEAFC
:103BD0005101F9D1C0B20F2828BF0F2000023104D3
:103BE000696546F26801C4F2084140F6FF720A6056
:103BF00046F26801C4F208610860FFF793FF42F2E1
:103C0000107100FB01F400F060FD48F21F51C5F295
:103C1000EB11A0FB01014809B4FBF0F080B270BDCC
:103C200010F1140FD8BF6FF0130040F20D011428EB
:103C3000A8BF1420C2F200010844007D40F21D41DB
:103C4000C2F200010870AFF3008080B5002808BF01
:103C50000120F82828BF6FF00700C0B2FFF78EFEE2
:103C600040F6C070C2F20010016843F6FF72CEF257
:103C7000C002114040F2FC42016040F2F041C2F249
:103C80000002C2F2000112680968920140F2682342
:103C9000C2F2000342EAC10140F264221B68C2F290
:103CA0000002126841EA0361036841EA8231194364
:103CB000016080BD01F4600145F27402033100012E
:103CC000C4F208021150704745F274010001C4F2B9
:103CD0000801085800F001007047000045F2180C78
:103CE00040F26463C4F2080CC2F20003DCF8002066
:103CF00093ED000ADCF818305CF80C3CDB0700D1CF
:103D0000704701EE100AB8EE411A20EE010AB6EE35
:103D1000001A20EE010ABCEEC00A10EE100A00BF25
:103D2000DCF81830B0EB530F24BFDCF81800400863
:103D3000DCF800309B1A03D2DCF8181019444B1C35
:103D40008342F5D3DCF800108B1A03D2DCF818108C
:103D500019444B1C984298BF7047DCF800108B1A2E
:103D600003D2DCF8181019444B1CDCF80020C01AF0
:103D7000D6E745F25C00C4F208000168C268114051
:103D80008160704710B540F20040C0F2060001218A
:103D9000FEF79CFC45F2280441F20010C4F208042E
:103DA000C0F2010044F8280C00F06AFC00EE100A92
:103DB000B8EE400A9FED201A30EE000A80EE010AAC
:103DC00040F26460C2F20000BFEE002ABDEEC01AED
:103DD00080ED000A11EE100A013881B201EE101ACE
:103DE000B8EE411A30EE411A31EE021A9FED132A55
:103DF0000A0240F25E61C2F2000121EE021A08805E
:103E0000BDEEC11A40F25C6111EE100AC2F200016F
:103E10009FED0B1A08702260216820EE010AB6EEB1
:103E2000001A20EE010A0843BCEEC00A206010EE22
:103E3000100A0138A06010BD0024744900008043BE
:103E40000000804F45F20C00C4F20800006800F04A
:103E50000100704745F20C00C4F20800006810F041
:103E6000060018BF0120704745F21000C4F2080098
:103E70000021016041608160704745F20400C4F296
:103E80000860012101604EF20010CEF200004FF0F8
:103E900080510160C0F88011704745F20400C4F2FF
:103EA0000860042101604EF28010CEF200004FF055
:103EB00080510160BFF34F8FBFF36F8FC0F80011C7
:103EC000704744F21400C4F208000168C26811404F
:103ED0008160704744F21400C4F208000168C268AF
:103EE00011408160704770B50446FFF739FE251A0E
:103EF00000F0C6FBA0FB050141F20025C0F27A05E7
:103F00002A460023FCF7A6F940F6A876C2F200166E
:103F10003060FFF725FE201AA0F1140400F0B0FB7A
:103F2000A0FB04012A460023FCF794F9316801EB59
:103F30000040306070BD10B5044600F0A1FB41F2B6
:103F40000022A0FB0401C0F27A020023FCF782F9F0
:103F500040F6A071C2F20011086010BD70B50446B1
:103F6000FFF7FEFD251A00F08BFBA0FB050141F2D7
:103F70000025C0F27A052A460023FCF76BF940F6CB
:103F8000A476C2F200163060FFF7EAFD201AA0F115
:103F9000140400F075FBA0FB04012A460023FCF783
:103FA00059F9316801EB0040306070BD10B540F246
:103FB000C471C2F200010860041F00F061FB41F20D
:103FC0000022A0FB0401C0F27A020023FCF742F9B0
:103FD00040F69C71C2F20011086010BD2DE9F0415D
:103FE00044F20408C4F20808D8F800204FF0045244
:103FF00040F21845C8F878200122C2F20005C8F83E
:104000007C20EFF3108272B62B680A4601464FF00F
:104010000450013318BF2B60FCF765FC286818B109
:104020000138286000D162B640F6BC75C2F20015B6
:1040300005F11000EE68AF686C68C8F85C0040F6E7
:104040006C70C2F200109421FCF7D4FC3C206C6030
:10405000AF60EE6000F0B7F840422860BDE8F08144
:10406000B0B582B044F29C0443F2080501A8C4F242
:104070000804C4F2080500F0D6FA4EF2C060C1F29E
:104080005310C4F8A80048F2F670C4F89C004FF42E
:104090000860C4F8980042F27A70C0F60070606060
:1040A0009DF80500012805D19DF8040001289CBF5A
:1040B0002820A8644AF63F40286047F22800C4F24E
:1040C00008004FF0C07101600020206646F6805065
:1040D000C0F26330206002B0B0BD10B5044600F0FD
:1040E000CFFA41F20022A0FB0401C0F27A020023C1
:1040F000FCF7B0F840F6B471C2F20011086010BDD0
:1041000010B5041F00F0BCFA41F20022A0FB04012C
:10411000C0F27A020023FCF79DF840F6B071C2F2BB
:104120000011086010BD70B50446FFF719FD251A8F
:1041300000F0A6FAA0FB050141F20025C0F27A05C5
:104140002A460023FCF786F840F6B876C2F200163D
:104150003060FFF705FD201AA0F1140400F090FA7A
:10416000A0FB04012A460023FCF774F8316801EB38
:104170000040306070BD70B50446FFF7F1FC251AB1
:1041800000F07EFAA0FB050141F20025C0F27A059D
:104190002A460023FCF75EF840F6AC76C2F2001621
:1041A0003060FFF7DDFC201AA0F1140400F068FA7B
:1041B000A0FB04012A460023FCF74CF8316801EB10
:1041C0000040306070BD10B5044600F059FA41F26D
:1041D0000022A0FB0401C0F27A020023FCF73AF8A7
:1041E00010BD80B540F24860C2F20000007808B906
:1041F00000F036F840F2184CC2F2000CEFF31080D9
:1042000072B6DCF8002040F2BC7E501CC2F2000EF8
:10421000DEF8000008BF6FF00102012818DB40F251
:10422000C071C2F20001086840F2BC63C2F2000330
:10423000185C0B6801330B600B68B3F5807F04BF1B
:1042400000230B60DEF800100139CEF8001001E009
:104250004FF0FF30CCF8002002B180BD62B680BDC7
:104260002DE9F04188B044F24010C0F20500012170
:104270004FF00108FEF72AFA42F20050C0F20A009D
:104280000121FEF723FA03200E2104220123032734
:104290000426FFF71EF903200D2102220123FFF758
:1042A00018F925480DF1080C019023A0051D80691F
:1042B0003ECD079042F200208CE83E00C0F20400A0
:1042C0000121FEF703FA00240020C4F201048DF856
:1042D000040001A9204600F0EDFB6767A06F41F6DE
:1042E0001F71884341F214610843A0674EF2001029
:1042F000CEF200004FF40061A664C0F88011E26CB9
:1043000042F00402E26401602046052100F0CCFB8B
:1043100040F20430C2F2000000214FF4806200231A
:10432000FCF762FA40F24860C2F2000080F80080B8
:1043300008B0BDE8F08100BF0500000000000000EB
:1043400000C2010000050000001000000000000095
:104350000000000070B540F24861C2F20001097827
:10436000044609B9FFF77CFF002540F21C46C4F261
:1043700001050A2CC2F2000605D1307818B1284692
:104380000D2100F0F9FB2846214600F0F5FB0D2C2D
:1043900005D1307818B128460A2100F0EDFB2046FF
:1043A00070BD000044F20402C4F20802136803F076
:1043B0007063B3F1806FF9D0136803F07063B3F1E9
:1043C000206FF3D043F23803C4F20803186009B138
:1043D0008020506000F0BCB82DE9F04381B043F27A
:1043E0003007C4F20807894606467868796800F005
:1043F0000700C1F3C201002908BF01217A6844F215
:1044000094084843C2F38211C4F20808002908BF87
:1044100001217A687A687A68D8F8A42000FB01F450
:1044200022F01000012C08BF1030C8F8A40000F0E2
:104430004CF9054640F20860C2F20000066066438F
:10444000F004710B2A460023FBF704FF47F8040C25
:1044500000F057F840F20461C2F2000108603868C9
:10446000A9FB042100F4801038603868002340F470
:104470008040386040F20060C2F20000C0F8009056
:10448000C80440EA5231D0042A46FBF7E3FE41F269
:104490008C01F860C2F20001087818B9386A00F09F
:1044A0003F000870D8F80010C9061CD549F6817184
:1044B000C1F25E61A6FB0112510D43F6F412CFF674
:1044C000FF7240F2535311FB032242F65053C0F2E5
:1044D000190302FB013149F28062C0F29802504395
:1044E000B0FBF1F0386201B0BDE8F04300F030B845
:1044F00043F27000C4F20800C16802681140816094
:10450000704710B546F23801C4F208010868C0F3DC
:10451000C2535A1E032A06D803F1180047F6B463A3
:10452000C0F20003185C032A88BF0720096801F065
:104530000701CA1E022A01D2C40004E0002914BFE8
:10454000840000EB400400F0C0F8B0FBF4F010BDB4
:10455000B0B540F2006043F2380140F20462C2F2AA
:104560000000C4F20801C2F2000200680968126883
:1045700044F2300501FB002040F20861C2F2000164
:104580000968C4F2080544184DF27B40C0F20100EE
:10459000686744F23000C4F208404FF4EE610160F5
:1045A00000F093F84000B4FBF0F00722411E07280A
:1045B00028BF10462B68072943EA002038BF0A4667
:1045C00040EA02102860B0BD80B543F20800C4F292
:1045D00008004AF63F4101604FF4821181620321D5
:1045E000C1620021816344F29400C4F208000168B2
:1045F00041F0040101604AF2001048F2A061C3F2E8
:10460000BC30C0F20101FFF7E7FE4EF28010CEF29F
:1046100000004FF08041C0F800110160BFF34F8FE0
:10462000BFF36F8F80BD4FF6E071CEF20F014A6885
:104630000B6802F00F02C3F3811343EA8202827017
:104640000A6802F03F0242708A68C96802F0F0020C
:10465000C1F3031111440170704780B500F010F8E8
:1046600044F20811C4F20E010968C1F308210131B6
:10467000B0FBF1F040F23801C2F20001086080BDE9
:1046800044F29400C4F20E00016801F0070102290F
:104690000CD0032910D0042919BF40F24001C2F206
:1046A000000140F24401C2F2000103E040F23C018B
:1046B000C2F20001096801E04FF40041C06EC0F38E
:1046C00004200130B1FBF0F0704740F23C00C2F230
:1046D00000000068704740F200004EF60851C0F23A
:1046E0000000CEF200010860D1F8800040F47000B4
:1046F000C1F8800043F24000C4F20E00416941F469
:1047000000514161016821F003010160416B21F01A
:1047100001014163016A21F08051016270474FF449
:104720000040704740F24400C2F200000068704749
:104730004FF20000C0F2492070474FF47A70704782
:1047400043F22000C4F20E00006840F2F8414FF43A
:10475000FF62C2F2000102EAC0004CF6CD420968D5
:10476000CCF6CC42A0FB0202A1EB920000F30700C2
:1047700040B2704710B543F22004C4F20E04206921
:1047800061680840B0F1FF3F25DD400047D540F2A9
:104790004460C2F2000000680268CAB10021C0E9AA
:1047A0000011206840F2F8414FF4FF63C2F20001AB
:1047B00003EAC0004CF6CD430968CCF6CC43A0FB1D
:1047C0000303A1EB930000F3070040B201219047DF
:1047D0004FF0804022E040F24C60C2F200000068DE
:1047E0000268CAB10021C0E90011206840F2F84116
:1047F0004FF4FF63C2F2000103EAC0004CF6CD4360
:104800000968CCF6CC43A0FB0303A1EB930000F3B3
:10481000070040B2002190474FF00040E060BDE843
:10482000104001F0B7BF2DE9F04381B040F2E44001
:10483000C2F200004FF0010880F8008040F6280026
:1048400043F22005C2F200003021C4F20E05FCF74D
:10485000D1F840F65800C2F200003021FCF7CAF847
:1048600040F2446040F25061C2F20000C2F2000126
:10487000016040F24C60C2F20000016048F2B010EA
:10488000C0F6E0700168406D6FF0FE03C2B253FAEB
:10489000A1F753FA80F0B7FA87F7B0FA80F07F09F2
:1048A000400938434CF6CD4918BF90224FEAC20068
:1048B000CCF6CC49A0FB0903C1F3074018BF19206F
:1048C00040F2F84700EB800140F2F44400EB930023
:1048D000C2F2000702EBD101C2F200043860684660
:1048E0002160FFF7A0FE9DF8010001284BD124684C
:1048F00040F214622146282CD8BF2821B1F5937FBD
:10490000C8BF40F227112839C2F20002117145F6E2
:104910009121C0F20001232C23461160D8BF23232C
:10492000B3F5917F2046A8BF4FF49173322CD8BFC6
:104930003220B0F5987FC8BF40F2311040F22C66AB
:10494000233B3238C2F200063373B16010739160BA
:104950002D2CD8BF2D24B4F5967FA8BF4FF49674A4
:10496000A4F12D003075316128684FF4FF62396879
:1049700002EAC000A0FB0902A1EB920000F30700CD
:1049800040B201F087F84FF04040E860286920F01D
:10499000404028614EF20010CEF20000C0F8808145
:1049A000C0F8008001F0F6FE002001B0BDE8F08301
:1049B00010B50446FFF746FA20B12046BDE8104086
:1049C000FFF78CB9FFF7DEF9FFF757FA2046FFF73C
:1049D00085F9FFF762FABDE81040FFF745BA80B5E8
:1049E0000020C4F201000169090628D500F0BEF8D4
:1049F00040F2C871C2F200010A6840F2BC63C2F220
:104A00000003985408680130086040F2BC70C2F29C
:104A100000000268013202600A68B2F5807F04BFBC
:104A200000220A600268B2F5807FD8BF80BD0022F4
:104A30000A60026040F2C070C2F20000026080BDF5
:104A400070B51C461646054631B944F24010C0F216
:104A50000500FDF779FE01464FEA7410032888BF70
:104A600070BD0DA252F820007043420802EB4111C4
:104A70002A68B1FBF0F022F060024FF600712A6064
:104A8000C0F27F012A6801EBC000F831084042EA19
:104A900004012960686170BD10000000080000007A
:104AA00006000000040000000A2222EA4102C2605F
:104AB000C1607047B0B50D46044600F033F8A87CDD
:104AC00018B1206840F080402060E87C18B1287D53
:104AD00040F08000A065687B298AEA89084310437A
:104AE0006060D5E901122B7B2046FFF7A9FF687DA6
:104AF00018B1206840F480302060EA7DA97D12055D
:104B000042EA01710022C7F27002114028782B7E20
:104B10002166616F21F030016167616F1943616740
:104B2000E060B0BD40F6AA62C260002241F2050317
:104B3000026043604FF6F97340F20041C0F2010396
:104B4000C4F2010182604261C264836440F4806304
:104B50008B42026642678267C26708BF026588426D
:104B6000826504BF0020C86570470000016909061E
:104B7000FCD5C069C0B2704702695206FCD54163DA
:104B8000704700004EF60C50BFF34F8FCEF200007E
:104B90000168042201F4E061C0F2FA52114301609D
:104BA000BFF34F8F00BFFDE748F20101411A00201B
:104BB000022988BF4FF0FF3070470020704748F24D
:104BC0000101411A0020032938BF0120704710B5A8
:104BD00010B3044600783A281ED147F2E421C0F20F
:104BE00000012046FBF730FFC8B147F2EB21C0F2CD
:104BF00000012046FBF728FFA0B147F2DC21C0F2FC
:104C000000012046FBF720FF4FF0FF31002808BFCE
:104C100048F20301084610BD4FF0FF3010BD48F2C6
:104C2000010010BD48F2020010BD4FF0FF30704788
:104C3000B0B5144648F2030290420BD00D4648F23C
:104C40000201884208D12CB115F8010B01F07FFD5B
:104C5000013CF9D10020B0BD4FF0FF30B0BD0000E5
:104C6000022907D0012908D059B9024612A01146DD
:104C7000FBF768BB03A0FBF7A1BD07A00821FBF76A
:104C800061BB7047496E76616C69642061726775BB
:104C90006D656E740D000000546F6F206D616E794C
:104CA00020617267756D656E74732C206D6178205C
:104CB00069732025640D0A00436F6D6D616E642079
:104CC0006E6F7420666F756E643A20272573270D0A
:104CD0000A00000000210022FBF7F8BC002100229E
:104CE000FBF72CBD844600284FF0010018BF0029B7
:104CF00000D17047CCF8001000200CF108010DC164
:104D00008CF80400704700002DE9F04F81B0804618
:104D100040B3D8F8000028B308F1080400260027A3
:104D2000FBF7C2FD54F8041C054629B10846FBF701
:104D3000BBFD014601E000BF002122680B46002AAE
:104D4000A06808BF33468E42D8BF1E46002A2946B7
:104D500008BF3946AF42D8BF0F46002804F11004FF
:104D6000DED101E00026002728A0FBF727FD47F64B
:104D7000D560C0F20000FBF721FDB8F1000F3AD07A
:104D8000D8F80020BAB37D4247F6287748F2C22A05
:104D9000764208F108040FF2A408C0F200070FF2EF
:104DA0008C09C0F2000A0FF2880B00BF206858B1CE
:104DB00048462946FBF7C6FA54F8042C42B110784D
:104DC000002808BF524604E0404611460AE000BFF2
:104DD000524658463146FBF7B5FA616821B108786A
:104DE00010B115A0FBF7AEFA3846FBF7E7FCA26856
:104DF0001034002ADAD147F62870C0F20000FBF721
:104E0000DDFC012001B0BDE8F08F00BF3C636F6D99
:104E10006D616E643E203C617267733E203C686544
:104E20006C7020746578743E0D000000252A7300B4
:104E300020252A730000000020257300202D2D2D31
:104E4000202573202D2D2D002DE9F04F93B0002843
:104E50004FF0FF0900F05581002900F0528104460F
:104E6000D0E902B015465A44824280F04081206861
:104E70002A465844FBF737FDA0684FF00008284445
:104E800083454FF00009A06080F03B810AA947F6F6
:104E90002A760431C0F200064FF000090023069183
:104EA000216811F80BA0BAF10A0F02D0BAF10D0F68
:104EB00018D19B4501F80B8052D020682169C51894
:104EC000CDE90813284629460A78082A04D06AB191
:104ED00000F8012B03E000BFA84288BF0138013170
:104EE000F2E700BF0BF1010B4DE000BF80F800803E
:104EF0002846314612AA01F031FC80B307460898D3
:104F0000B0B10668B6B100F1080800BFD8F80000DB
:104F100020B138463146FBF7B2FCC0B3D8F8086080
:104F200008F11008002EF1D100264FF0000802E031
:104F3000002609E00026284675A1FBF7A0FC18B959
:104F40000898FFF7E1FE0646002E47F62A76C0F2E3
:104F5000000604D11FB138460021FFF781FE099BEE
:104F6000BAF10A0F08BF9B4502D009F1010904E01C
:104F700020790D2818BF09F101090BF1010BA06878
:104F80005B4684F804A08345FFF48AAFB2E00A963A
:104F900047F62A76C0F200060020314612AACDF864
:104FA0001C9001F0DBFB4FF0010900BF68B1B9F1C3
:104FB000070F0AA941F8290026D00020314612AA7D
:104FC00009F1010901F0CAFBF0E758F8047C002F51
:104FD00000F0778038464DA1FBF736FD002870D0F1
:104FE0003846FBF761FC049038462A21FBF71FFC8A
:104FF00098B1049B0221012B07D0FA18013A904284
:1050000003D1981E00900BE001212846FFF728FEEF
:10501000DDF81C904FF00008A1E7049B18460093B0
:10502000B9F1020F42D3A9F1010003970290581E73
:105030002E220026012701909E4205DA0398805D0A
:105040002A2818BF024604E003980199405C2A28E8
:105050002DD1A2F1730004280BD80592DFE800F0EF
:1050600003270C0F12000698042150F82600012295
:105070000DE0622A10D01AE00698012104E006989B
:10508000022101E00698042150F82600002201F0D8
:10509000EBFBDDE9043250B10298013686424FF055
:1050A000000738BF0127B042C6D100E000270098B2
:1050B0000221484516DA47F62A76F807C0F20006BC
:1050C000A3D1D8F8002048460AA9904758F8080C00
:1050D000DDF81C9000284FF000087FF440AF002757
:1050E000012628E747F62A76C0F200068DE74FF042
:1050F000FE0906E02BB1C21A2068A260C118FBF7B6
:1051000037FC4FFA89F013B0BDE8F08F3F00000084
:1051100068656C700000000001A0FBF74FBB00BF8A
:1051200043414C5F4354554E453A204E6F742069BD
:105130006D706C656D656E7465640D0001A0FBF7A4
:105140003DBB00BF4745545F4245523A204E6F7405
:1051500020696D706C656D656E7465640D0000008E
:1051600040F20C40C2F20000017801A0FBF7EAB85F
:105170004745545F4348414E4E454C3A2025640D07
:105180000A00000080B501F0E7F8014602A0BDE882
:105190008040FBF7D7B800BF4745545F4354554E96
:1051A000453A2025640D0A0080B504A0FBF706FBF4
:1051B0000BA0BDE88040FBF701BB00BF4745545F33
:1051C000465245514F46465345543A20556E646504
:1051D0007220646576656C6F706D656E740D00008D
:1051E0004745545F465245514F46465345543A2031
:1051F000300D000040F68A00C2F20000017840F64F
:105200000C00C2F20000027801A0FBF79BB800BFBF
:105210004745545F50414354554E453A2025642C30
:1052200025640D0A0000000080B5FEF72DFC014644
:1052300002A0BDE88040FBF785B800BF4745545F3A
:10524000504F5745523A2025642064426D0D0A00A4
:1052500040F21D40C2F20000017801A0FBF772B8D5
:105260004745545F504F5745524C4556454C3A20A0
:1052700025640D0A0000000080B50CA0FBF79EFA23
:10528000FDF744F800EE100AB8EEC00AB5EE001AB9
:1052900020EE010A10EE100A01F042FF02460BA0B8
:1052A0000B46BDE88040FBF74DB800BF4745545F53
:1052B000525353493A20556E646572206465766591
:1052C0006C6F706D656E740D000000004745545F93
:1052D000525353493A20252E32662064426D0D0AFE
:1052E0000000000080B504A0FBF768FA0BA0BDE841
:1052F0008040FBF763BA00BF4745545F52535349A0
:105300004F46465345543A20556E64657220646595
:1053100076656C6F706D656E740D00004745545F67
:10532000525353494F46465345543A203020644225
:105330000D00000001A0FBF741BA00BF4745545FD4
:105340005258434F554E543A204E6F7420696D7039
:105350006C656D656E7465640D00000002A002212D
:1053600003220023FAF7EEBF48573A202564205362
:10537000573A2025642E25640D0A000070B52DEDE6
:10538000028B84B0FFF7DCF9044640F24800C2F219
:105390000000006801F0C4FE054640F2EC40C2F295
:1053A000000000680E4601F0BBFE41EC180B40F215
:1053B0001040C2F20000006801F0B2FE41EC100B98
:1053C00006A021462A4633468DED008B8DED020B5B
:1053D000FAF7B8FF04B0BDEC028B70BD4745545FCF
:1053E00056543A2025642C20252E31662C20252E5B
:1053F00031662C20252E31660D0A000080B507A0ED
:10540000FBF7DCF948F2F010C0F6E0700268436880
:1054100005A0BDE88040FAF795BF00BF494E464F52
:105420003A204F4B0D0000004D435549443A20307F
:1054300078256C6C580D0A0040F6140040F20051BB
:1054400040F25003C2F20000C2F20001C2F20003B7
:105450004FF48072FFF746BC80B54868FFF73EFC0A
:105460000146000618BF0121080606A20AA008BFCF
:10547000104640F26062C2F200021170BDE8804046
:10548000FBF79CB95052494E545F4D4F44453A206A
:1054900053484F52540D00005052494E545F4D4FE7
:1054A00044453A2046554C4C0D00000003A0FBF744
:1054B00085F905A0FBF782F9FFF764FB52455345D8
:1054C000543A204F4B0D0000526573746172742082
:1054D0006465766963652E0D0000000080B50EA03E
:1054E000FBF76CF940F25860C2F20000016801312C
:1054F000016000F017FE00F00AFD01F00AF813A1A8
:105500000DA2002818BF11460846FBF757F9BDE861
:10551000804000F0F4BC00BF53454E445F5041430F
:105520004B45543A20556E64657220646576656C0F
:105530006F706D656E740D0053454E445F5041436E
:105540004B45543A204F4B0D0000000053454E444C
:105550005F5041434B45543A204552524F520D0043
:1055600070B54868FFF7BAFB40F6890604464FF667
:10557000C070C2F20006044218BF3F24307840F2E7
:105580000C45C2F200052C7020B101F0B7F8642080
:10559000FFF70EFAA0B20021FEF704FF30780128D1
:1055A00002D101F002F83078022808BF01F036F885
:1055B000297802A0BDE87040FAF7C4BE5345545F95
:1055C0004348414E4E454C3A2025640D0A000000E8
:1055D000B0B54868FFF782FB40F68905C2F20005C6
:1055E0000446B0F5FF7F287888BF40F2FF1420B151
:1055F00001F084F86420FFF7DBF9002000F07CFE66
:10560000204600F019FF2878012802D100F0CDFFD4
:105610002878022808BF01F001F803A02146BDE860
:10562000B040FAF78FBE00BF5345545F4354554E08
:10563000453A2025640D0A0001A0FBF7BFB800BF62
:105640005345545F454D3A204E6F7420696D706C20
:10565000656D656E7465640D0000000070B5486886
:105660000C46FFF73BFB1F2510F0E00F18BF284644
:1056700040F68A06A168C2F2000630700846FFF7BD
:105680002DFB10F0E00F08BF054640F60C04307803
:10569000C2F20004E9B22570FEF761F93178227890
:1056A00002A0BDE87040FAF74DBE00BF5345545FFD
:1056B00050414354554E453A2025642C25640D0A2B
:1056C00000000000B0B54868FFF704FB40F689050C
:1056D0000446C2F2000510F1140FD8BF6FF0130496
:1056E0002878142CA8BF142420B101F007F86420F6
:1056F000FFF75EF960B2FEF793FA2878012802D12D
:1057000000F053FF2878022808BF00F087FFFEF75B
:10571000BBF9014602A0BDE8B040FAF713BE00BFD6
:105720005345545F504F5745523A202564206442F8
:105730006D0D0A0070B54868FFF7D0FA40F689058C
:105740000446C2F20005002808BF01242878F82C7E
:1057500028BFF82420B100F0D1FF6420FFF728F91A
:1057600040F21D46C2F20006E0B23470FEF76DFA58
:105770002878012802D100F018FF2878022808BFF5
:1057800000F04CFF317802A0BDE87040FAF7DABDB6
:105790005345545F504F5745524C4556454C3A205F
:1057A00025640D0A0000000010B50DA00C46FBF7A3
:1057B00005F86068FFF78EFA00EE100AB8EEC00A2E
:1057C000B5EE001A20EE010A10EE100A01F0A8FC56
:1057D00002460CA00B46BDE81040FAF7B3BD00BF6F
:1057E0005345545F525353494F46465345543A200C
:1057F000556E64657220646576656C6F706D656E5C
:10580000740D00005345545F525353494F4646535D
:1058100045543A20252E32662064420D0A000000CD
:1058200001A0FAF7CBBF00BF53544152545F424529
:10583000523A204E6F7420696D706C656D656E74A0
:1058400065640D0001A0FAF7B9BF00BF535441527F
:10585000545F5258434F554E543A204E6F7420694E
:105860006D706C656D656E7465640D0001A0FAF76E
:10587000A5BF00BF53544F505F4245523A204E6F70
:105880007420696D706C656D656E7465640D0000E3
:1058900001A0FAF793BF00BF53544F505F525843D3
:1058A0004F554E543A204E6F7420696D706C656D83
:1058B000656E7465640D000010B500F04DFD044682
:1058C00000F036FF4FF07E60FDF760FF40F68C0081
:1058D000A4B2C2F20000C0F8004100F0F1FF03A042
:1058E0002146BDE81040FAF72DBD00BF53544F527A
:1058F000455F4354554E453A2025640D0A0000008B
:10590000B0B500F015FF4FF07E60FDF73FFF40F6A9
:105910000C0440F68A05C2F20004C2F200052078A9
:10592000297841EA002040F68C01C2F20001C1F85A
:10593000040100F0C5FF2978227802A0BDE8B0403C
:10594000FAF700BD53544F52455F50414354554EF2
:10595000453A2025642C25640D0A000010B54868DE
:10596000FFF7BCF9022816D0012824D070B940F600
:105970008904C2F20004207840B100F0BFFE0A2082
:10598000FFF716F8002020701CA023E047F62F70C8
:10599000C0F200001EE0002000F0AEFC0A20FFF77D
:1059A00007F800F03BFE40F68900C2F20000022139
:1059B00001700AA00EE0002000F09EFC0A20FEF715
:1059C000F7FF00F0F2FD40F68900C2F2000001216D
:1059D000017006A0BDE81040FAF7F0BE54585F53BE
:1059E000545245414D3A20320D00000054585F5347
:1059F000545245414D3A20310D00000054585F5338
:105A0000545245414D3A20300D00000043F24C0CF9
:105A100040F20E62C4F20E0CC2F20002DCF800107A
:105A20001288C1F30321283202EB52034A1C02EB15
:105A30008201B3FBF1F1DCF800004B1E20F0EE60B8
:105A40000721072B28BF0B4640EA036000F58010B2
:105A5000CCF8000040F21060C2F20000038818B2D7
:105A6000002814D403F1280000EB5000530003EB8E
:105A7000520280B2B0FBF2F0DCF80420072838BFF5
:105A8000014622F0700040EA0110CCF80400704793
:105A9000AFF30080B0B5014643F20805C4F20E052D
:105AA000022050292A68B8BF0120412940F2146120
:105AB000C2F20001B8BF002001EBC0035B6851F8DF
:105AC000301040F62804C2F20004C4E9001340F28A
:105AD0002C61C2F2000101EBC0035B6851F8301089
