:020000040000FA
:10000000201F0020C5010000CD010000CF0100002D
:10001000D1010000D3010000D50100000000000064
:10002000000000000000000000000000D7010000F8
:10003000D9010000CD010000DB010000DD0100005E
:10004000DF010000CD260000DF0100005125000087
:100050003D270000552B0000512B0000C11D000062
:10006000DF010000E9260000DF010000E943000095
:10007000DF010000DF010000691A0000DF0100005D
:10008000DF010000FD260000DF010000DF010000AD
:10009000DF010000DF010000DF010000DF010000E0
:1000A000DF010000DF01000029270000691D0000BA
:1000B000852A0000DF01000051410000DF0100003F
:1000C000DF010000DF01000000F002F800F06BF833
:1000D0000AA090E8000C82448344AAF10107DA45A3
:1000E00001D100F060F8AFF2090EBAE80F0013F08A
:1000F000010F18BFFB1A43F001031847789900005D
:1001000098990000103A24BF78C878C1FAD85207ED
:1001100024BF30C830C144BF04680C607047000081
:100120000023002400250026103A28BF78C1FBD800
:10013000520728BF30C148BF0B607047662908F0DE
:10014000718003681B0A28BF41F08001642900F018
:10015000B580782900F01681F82900F02181632903
:1001600000F01885732900F01D85002070471FB529
:1001700008F015F89DE8030001F098F900F008FE7A
:1001800004000020002107F06FF9401C606000208F
:10019000002107F053F9E06000F052FD1FBD10B5DB
:1001A00000F0B7FD10BD01F03FF91146FFF7DFFF8A
:1001B00004F02EFA01F0E6FA03B4FFF7F0FF03BCF7
:1001C00001F03AFB0948804709480047FEE7FEE78F
:1001D000FEE7FEE7FEE7FEE7FEE7FEE7FEE7FEE7F7
:1001E00004480549054A064B704700004543000096
:1001F000C900000020130020201F0020201700202D
:10020000201700200FB4044910B503AA029800F08B
:10021000CDFC10BC5DF814FB7C01002070B50446D9
:1002200085690068C10601D5302600E02026C00798
:1002300007D070BDD4E9012130469047206A401CA8
:1002400020626D1EF6D570BD70B5044685690078D4
:10025000C00707D170BDD4E9012120209047206A52
:10026000401C20626D1EF6D570BD70B50C4605466B
:10027000012A05D02878800600D5EA69002302E02B
:10028000012305E05B1C934202D2E05C0028F9D117
:10029000A869E618C01AA861286A18442862284686
:1002A000FFF7BCFF04E0D5E9012114F8010B9047EA
:1002B000B442F8D32846FFF7C7FF70BD2DE9F041DF
:1002C0000646002410687529314616A510D0AFF3F4
:1002D0000080002802DA404213A507E031688A074F
:1002E00001D512A502E0490704D511A5012401E0BA
:1002F000AFF3008000210A2206F1240709E0B0FBD9
:10030000F2FCB0FBF2F302FB1C00303078541846CC
:10031000491C0028F3D123462A463046BDE8F04167
:1003200000F0C7B9000000002D0000002B00000005
:1003300020000000F0B40D460188090502D51B4CD1
:100340007C4402E0194C7C440E34002100F1240668
:1003500008E002F00F071209E75D42EA03721B0989
:100360007754491C52EA0307F3D12246047800234C
:10037000240704D5702D02D009B102231132F0BC3C
:1003800000F097B970B504460D4621461068AFF3EA
:100390000080024629462046BDE870400023C9E798
:1003A000D21D22F00703D3E90023C3E7D47F000066
:1003B0002DE9F05F894604464FF0000ADFF874B17A
:1003C000FB44C0F820A02046E1688847002874D08C
:1003D000252806D0D4E901219047206A401C2062DC
:1003E000F1E700265F462046E16888472028054659
:1003F00007DB312D05D2781910F8200C08B106431F
:10040000F1E7B00701D526F00406C4F81CA00027C8
:10041000C4F818A02A2D09D0284606F0A9FF38B341
:1004200004EB8708303DC8F8185019E059F8041B50
:10043000204604EB87029161E1688847012F054659
:1004400018D1E069002820DA26F020061DE0D8F84F
:10045000180000EB800005EB40003038C8F81800A9
:100460002046E1688847054606F082FF0028EED165
:10047000012F0AD02E2D08D12046E16888477F1C25
:100480000546022F46F02006C4DBA069002803DAE7
:10049000404246F00106A061F00701D026F01006A8
:1004A0006C2D0BD0682D09D04C2D39D06A2D35D04C
:1004B000742D35D07A2D33D016E038E0E1682F4620
:1004C00020468847B842054609D16C2F26D04FF404
:1004D0008060E168064320468847054604E06C2FAB
:1004E0001AD04FF4807006430DB3A5F141001928CE
:1004F00002D8203546F400664A4629462046266042
:100500004E46FFF71BFE80B101280BD0F61D26F0EA
:10051000070000F1080956E74020E4E78020D8E70B
:100520000020D6E706F104094DE7284652E7206A85
:10053000BDE8F09F7C7F000070B5064600F0AAF889
:100540000468054630460A22002100F041FB2C6079
:1005500070BD0000014906F012BF00007C010020C0
:1005600010B5044603E006F00AFF401C09D014F859
:10057000010B05490028F6D1BDE810400A2006F01D
:10058000FEBE4FF0FF3010BD7C01002070B5C46886
:10059000A50713D0650211D4B2F5807F09D0B2F55A
:1005A000007F06D0B2F5806F08D1012300F124014D
:1005B00006E05D1E6FF07F46B54201D3012070BD9D
:1005C0000161C361416024F470611143C160002086
:1005D00070BD401ECAB210F8011F8A4202D0002925
:1005E000F9D10020704730B505460B462A4613F86E
:1005F000014B12F8010B08B1A042F8D01CB1002841
:1006000002D06D1CF1E7284630BD0000000000005C
:1006100030B44FF0013C50F8042B51F8043BCCFAB5
:1006200052F4D51A20D1FCB950F8042B51F8043BF0
:10063000CCFA52F4D51A17D1B4B950F8042B51F8AA
:10064000043BCCFA52F4D51A0ED16CB950F8042BF5
:1006500051F8043BCCFA52F4D51A05D1002CDAD06B
:1006600030BC4FF00000704729BAB1FA81F111F0A7
:100670001801D1F120008440F2D1CA40CB4012F0E1
:10068000FF0213F0FF0330BCD01A70477047704769
:1006900070470000004870472402002010B5FFF7A3
:1006A000F9FF006810BD10B50446FFF7F3FF0460C2
:1006B00010BD2DE9F0470D4699469246044600F1DB
:1006C00024080168880604D5E06921F01001216042
:1006D00000E00120A84201DD471B00E00027A169DE
:1006E0007A1902EB0900081AA0612078C00602D42A
:1006F0002046FFF793FD002608E0D4E901211AF80F
:1007000006009047206A401C761C20624E45F4DBB0
:100710002078C0060AD52046FFF780FD06E0D4E920
:10072000012130209047206A401C2062381EA7F12A
:100730000107F4DC07E0D4E9012118F8050090472F
:10074000206A401C2062281EA5F10105F3DC20462A
:10075000FFF77AFD2078000602D50220BDE8F08779
:100760000120FBE72DE9FF4F0C461E464FF0FF37F7
:100770008BB0D2E90001DDF860800A908A46C1F3AF
:100780000A5505B93D46002108464FF00000BAF170
:10079000000F00F4400005DA00EB80004FF4400148
:1007A00001EA50004FEA9059B9F1010F00DDB94656
:1007B0000A9850EA4A000ED044F61050A5F2FF35D0
:1007C00045432F14B8F1000F1ED07542291E1EDDBF
:1007D000C9F100021CE0B8F1010F4FF0000001D098
:1007E000302103E0F24305E02154401CB042FBDB22
:1007F00030460022002121540B99C1F80880C1E93C
:1008000000200FB0BDE8F08FBD1B6D1CDEE74A462F
:1008100000DA694206A800F0D3FB06AB93E80700B4
:1008200003AB83E8070050460A9905F065FD8DE8A3
:100830000700A0F500501F3800900398002D0ADD36
:1008400042F21F014A460844002303A90390684668
:1008500005F0CEFF09E0A0F500504A461F380023FE
:1008600003A90390684605F0D8FF8DE8070000044F
:10087000000C03D04FF0FF30410800E01046B8F103
:10088000000F03D00022009215461EE0751E05D40D
:1008900000F0A9FA303262556D1EF9D5B346012237
:1008A000084302D000227F1C04E02078302801D1C8
:1008B00000227F1E002A099784D01DE0112D07DA3F
:1008C00000F091FA303262556D1C50EA0102F5D108
:1008D000084302D00098C8B10EE00021681E05E070
:1008E000235C625C63542254401E491C8142F7DB46
:1008F000AB46A81B401E0990002004F80B000B9883
:10090000099AC0F80880C0E9002B7AE711264FF059
:10091000000857E72DE9F04F88460446D21D22F023
:10092000070191B0D1E90001CDE90A0106F0ACF868
:1009300002460B98C00F01D02D2007E020688107E8
:1009400001D52B2002E0202101EAC000032A0990F2
:1009500001D0072A05DB03464146204600F0A0FAF5
:100960000BE12078800601D5E06900E00620B8F1AF
:10097000650F814606D0B8F1660F18D0B8F1670F41
:1009800070D131E00020B9F1110F009001DB11238B
:1009900001E009F101030AAA01A90CA8FFF7E2FE90
:1009A000DDE90C70002609F10105834647E00120CE
:1009B0004B4600904FF000470AAA01A90CA8FFF788
:1009C000D1FEDDE90DB00C995D46002610B909F1A4
:1009D00001000D18B9EB050003D4C0F1FF3609F191
:1009E0000105A5EB09002BE0B9F1010F01DA4FF089
:1009F00001090020B9F1110F0090484601DD1123D3
:100A000000E003460AAA01A90CA8FFF7ABFEDDE946
:100A10000C704D4600268346207800070AD4AB456B
:100A200000DA5D4601A8012D04DD411911F8011C11
:100A3000302907D04F4502DA17F1040F04DA0120FC
:100A400082460FE06D1EEEE7002F02DCED1B3E44F8
:100A500003E0781CA84200DD7D1CB81B00F1010AF0
:100A60004FF000472078000703D4AA4501DB4FF080
:100A7000FF3A0021B7F1004F0DF143088DF8431004
:100A800024D002202B23002F01DA7F422D230A21BC
:100A9000021EA0F1010000DC5FB197FBF1FC97FBA7
:100AA000F1F201FB1C7C17460CF1300C08F801CD6B
:100AB000EEE7A8F1010003702188090501D5452161
:100AC00000E06521A0F1010800F8011C09980FA9B8
:100AD000A1EB0807FF1D00B10120411901EBEA70ED
:100AE000A1693844081A401EA0612078C00602D4CB
:100AF0002046FFF793FB099828B1D4E901219047DC
:100B0000206A401C20622078C00622D52046FFF7CC
:100B100085FB1EE0002E04DBB34502DD01A8805DED
:100B200000E03020D4E901219047206A401C206277
:100B3000761CAAF101005FEA000A0AD100F028F948
:100B4000C0680168405CD4E901219047206A401CDC
:100B50002062281EA5F10105DCDC07E0D4E90121B3
:100B600018F8010B9047206A401C2062381EA7F13C
:100B70000107F3DC2046FFF767FB032011B041E6D5
:100B800010B5436913B1AFF3008001E0FFF76DFBCF
:100B9000012010BD127800F124010A7000224A7071
:100BA0000122EDE711684FF0FF32E9E7074B70B51E
:100BB0000D467B4400F061F90446284600F072FAC5
:100BC00010B14FF0FF3070BD204670BDC967000006
:100BD0002DE9F04791460F4680460446002614F85A
:100BE000015B2DB100F0CCF80068405DC007F6D184
:100BF0002B2D02D02D2D18D0641E4A463946204692
:100C000000F08EF927B13968A14201D1C7F8008000
:100C10004FF0020471050BD54042002803DDFFF7B9
:100C200039FD0460A007BDE8F08746F48066E4E77C
:100C30000028F8DAFFF72EFD04606FF00040F2E7BD
:100C400010B54248542100F0C8FB4148542100F03F
:100C5000C4FB4048542100F0C0FB3F493B483C4A9C
:100C60003F4B08603D490A603A491960531C0365CF
:100C7000481C1065012008653B48344A39A1784476
:100C800000F006FB20B9384878440A3800F09EFB93
:100C900037482F4A35A1784400F0FAFA20B9344891
:100CA00078440A3800F092FB32482A4A2FA178444F
:100CB00000F0EEFA20B92F4878440A3800F086FB9D
:100CC00040232248DC0000212246FFF75FFC20B1D0
:100CD00025487844543800F079FB1D4822464023CB
:100CE0000021FFF753FC20B121487844543800F02C
:100CF0006DFB1848224610230021FFF747FC00280F
:100D000006D01C487844BDE81040563800F05EBB61
:100D100010BD104870B5006D20F001040B4800F0C4
:100D20002FFB0B4800F02CFB0A4800F029FB09E0E0
:100D3000206D20F00105204600F022FB204600F047
:100D40002BF82C46002CF3D170BD000028010020A8
:100D50007C010020D00100200000002004000020C1
:100D60000800002072000000DF770000770000001C
:100D7000CE770000A77700000048704724020020CB
:100D800010B500F005F8001D10BD00BFDD660000C5
:100D9000004870474402002070B50446051F00F06B
:100DA00069FB0068002C14BF446870BD002C18BF9C
:100DB000AC423CBF20466468F8D301680A18AA42D6
:100DC00018BF456003D12A680546114401602868B0
:100DD0004119A1421CBF6C6070BD616869602168E7
:100DE0000844286070BD30B5B0F10A0271F100030B
:100DF0004FEA900E4EEA817EB0EB0E0061EB91015E
:100E00004FEA101E4EEA017E10EB0E0041EB11116D
:100E10004FEA102E4EEA016E10EB0E0041EB11214D
:100E20004FEA104E4EEA014E10EB0E0041EB11411D
:100E3000401841F100014FEAD00040EA41704FEA0A
:100E4000D1014FEA810444EA907410EB800544EB31
:100E500001046D1944EB0404521BA3414FF000033D
:100E600048BF0A3200D530BD401C41F1000130BD01
:100E700001694A1C02610878704700B58FB0CDE95E
:100E800001310021059105497944CDE9031011464E
:100E90006846FFF78DFA0FB000BD0000E5FFFFFFC9
:100EA0002DE9F0411F46044603260168072A01F494
:100EB000006004DB08B116A505E016A503E008B143
:100EC00015A500E015A521F010002060A069C01E46
:100ED000A0610FB1401EA0612046FFF79FF94FB1FE
:100EE000D4E9012138469047206A401C2062C01C8A
:100EF000206206E0206AFAE7D4E9012115F8010B27
:100F00009047761EF8D22046FFF79EF9BDE8F081A3
:100F10004E414E006E616E00494E4600696E66009D
:100F20002DE9F05F824615468B4600270AF1010441
:100F3000B9460078302801D09DB113E014F8010BB8
:100F40000127782803D0582801D045B10AE00DB117
:100F5000102D07D1002714F8010B102502E00825F9
:100F600000E00A250026B0460EE005FB080005FB60
:100F700006F101271FFA80F801EB1046B6F5803F15
:100F800000D3B94614F8010B294600F0EDFA002809
:100F9000EBDABBF1000F05D00FB1641E00E0544640
:100FA000CBF80040B9F1000F06D0FFF773FB022128
:100FB0000160C81EBDE8F09F48EA0640FAE700005D
:100FC0002DE9F047814616468AB0354878440DC869
:100FD0008DE80D0032487844801C03AC0DC884E8CD
:100FE0000D0041F69B300844372190FBF1F290FB55
:100FF000F1F5A5F1800501FB12041B3C02D564420A
:10100000012000E00020DFF898A080460027FA4485
:10101000AAF1BE0A0EE0E0070AD03246684607EBA6
:10102000470101230AEB810105F0F7FB8DE807007A
:1010300064107F1C002CEED1194F7F44AE3F19E0A5
:10104000E80715D007EB04100DF1180A90E80E0020
:101050008AE80E00C068F04201D198190890324623
:10106000012306A903A805F0D8FB03AB83E807001A
:101070006D10641C002DE3D14FF001033246694628
:10108000B8F1000F03A802D005F0B2FB01E005F0B3
:10109000C4FBC9E90001C9F808200AB0BDE8F0871F
:1010A0003C740000007B00F0800070472DE9F05F89
:1010B000054617460C46C86820F4201040F480000E
:1010C000C860800602D5084600F03BFBE06841F2AC
:1010D00082014FF0FF3A0140022903D0204600F080
:1010E000CDFAB9E000F42041B1F5004F0FD1C003B3
:1010F00006D56168E06A884200D80846606006E06C
:101100002069E06260606069002000BFA061A068A3
:101110000022EEB200280DDAE1688B050AD4C04344
:10112000A06041F490302260E0606068411C616022
:101130000670AAE0E0689146226040F40050E0604A
:10114000206978BB606903F0B3F904F124054FF01E
:101150000108A8B1A08910F4407F08D0E06900F030
:10116000D4F9206118B1E06840F4006017E0C4F8D9
:101170001C802561E06820F4407040F480600EE03F
:10118000E06900F0C2F900282061F0D0E06840F486
:10119000006010F4407FE06002D140F48070E060B5
:1011A00020696060E06825696FF0010BC1051ED5FC
:1011B0006168E06A884200D80846411B04D0224694
:1011C000284600F065FAE8BB1FB1E562C4E90159A1
:1011D00059E0681CE0626060E069401EA060E06861
:1011E00040F48030E06030462E70BDE8F09F17B1CB
:1011F00000F480320AE06068411C61600670E068BB
:101200000A2E40F48030E06006D00022E16A606877
:10121000814203D90B4602E00122F7E70346B4F806
:101220000CC05B1B5FEA4C5C04D4D4F81CC09C452A
:1012300000DD02B3814200D80146002BA1EB00087B
:10124000E56200E008E0C4E9015907DD22461946DD
:10125000284600F01DFA08B15046C6E7B8F1000F65
:1012600009D0A169E5626560A1EB0800A061E068B2
:1012700040F01000E06047B16168A069E562491B79
:1012800008446560A0615846AFE73046ADE700000E
:101290002DE9F0410C461646070047D0104600F0F5
:1012A0006FF82078611C61280AD0722802D0772854
:1012B0003CD102E00125002405E00225042402E0DF
:1012C000082448F2020511F8010B2B2806D06228E9
:1012D00009D011F8010C74280AD00BE045F0030581
:1012E00044F00204EFE745F0040544F00104EAE7A6
:1012F00044F010043846214603F0E2F8411C15D0B2
:101300000021316171604FF40071F560F16170612D
:10131000200704D530460222002100F033F9306D59
:1013200040F0010030653046BDE8F0810020FBE769
:101330002DE9F0410D460646104C206DC10704D042
:10134000410804D020F00104F7E722460EE05420C3
:1013500000F0DBF807000ED0206D47F001010843D4
:1013600054212065384600F038F83A462946304680
:10137000BDE8F0418CE70020D6E7000028010020FE
:101380002DE9F04704464FF0FF380026C568D4E940
:101390000497A80718D0204600F0B0F9384603F0AB
:1013A0007DF8002800DA4646280502D54846FFF7B2
:1013B000F3FC4C21204600F010F8206D20F00100D5
:1013C00020653046BDE8F0874046FBE710B500F0E9
:1013D000E7F9BDE8104000F0DEB94FF0000200B5BB
:1013E000134694469646203922BFA0E80C50A0E848
:1013F0000C50B1F12001BFF4F7AF090728BFA0E8F6
:101400000C5048BF0CC05DF804EB890028BF40F8C1
:10141000042B08BF704748BF20F8022B11F0804F03
:1014200018BF00F8012B70477546FFF7A5FCAE46C4
:1014300005006946534620F00700854618B020B5E0
:10144000FEF7CEFEBDE820404FF000064FF000074B
:101450004FF000084FF0000BAC46ACE8C009ACE818
:10146000C009ACE8C009ACE8C00921F007018D460D
:1014700070470000004870472C02002070477047FA
:101480007047704738B504460A4600206946AFF3F6
:101490000080002808BF38BD02460099204600F0B1
:1014A000D8F9012038BD012000F027BAF8B5AFF314
:1014B0000080054600200C46102000BF0646A819F3
:1014C000A0420DD9324669460020AFF300800700E4
:1014D00008BF00F012FA0098A04218BF0546C419D0
:1014E000FFF7C8FF05600746F01D20F0070046190A
:1014F000284600F0A7F9B44208BFF8BDA21B314648
:101500003868BDE8F84000F0A4B970B50646FFF7AA
:10151000B1FF056806F10B0020F00704B4429CBF40
:10152000002070BD2B466A68BAB11068A04210D383
:1015300004F1080188423CBF5068586007D35168E5
:10154000101941601168091B016058601460101D7A
:1015500070BD13465268002AE7D121462846FFF79E
:1015600091FF0028DED170BD3A2800D2303820F03B
:101570002002412A01D3A2F13700884201D34FF063
:10158000FF3070472DE9F041044616460D46476985
:10159000007B80072ED0384602F08AFF50BB3EB356
:1015A000012E02D0022E25D104E0204600F06BF976
:1015B00005441DE03846002000BFE168002841F0E6
:1015C0001001E16005DA204600F058F80120BDE87E
:1015D000F081C9030BD56268E16A914200D81146D7
:1015E000A26911442269891A814200DD0846054436
:1015F000002D01DA0220EAE7E16A6068E2688142D0
:1016000006D29103E06203D522F4003141F01002CA
:10161000A6690027AE4213DCE16A814201D90B467C
:1016200000E0034603EB060C2369ACEB030CAC456E
:1016300006DD814201D98C4600E084469C4505D1F7
:10164000A760276042F02000A5620DE0AD1BE669AF
:10165000AE1B8142A66000D90846C01A281A206035
:101660005819606022F0200003490840E060002023
:1016700084F84870ABE70000BFCFD7FFC16821F402
:10168000001141F08001C16000218160016070475C
:101690002DE9F74F15460C464FF0FF3B3848D76809
:1016A000D2F814A0074209D05046A9694FF0FF3084
:1016B000002819DB3248C0430740EF604FF0004973
:1016C0006FF000484C4501D3464600E0264600999D
:1016D0003B465046324602F01FFFA96920F0004207
:1016E000B21A1144A96128B12846FFF7C7FF58462E
:1016F000BDE8FE8FA41BE5D10020F9E770B50446D4
:101700000569C06A6168884200D80846E16821F42A
:101710002011E160C90312D5A84208D02246411B1E
:101720002846FFF7B5FF10B14FF0FF3070BD002025
:10173000E562C4E90150E06820F48030E0600020F8
:1017400070BD10B50446C06820F02000E060A16ABA
:10175000A06988420DD02046FFF7D0FFE06820F452
:10176000405040F01000E060A06AA0612069E06293
:10177000606044F24001E0688843E06010BD000012
:101780001000020010B50446AFF300802046BDE80B
:101790001040FEF711BD002801D000F04DB8704791
:1017A00010B5014602A000F08FF8012010BD000026
:1017B00053494752545245443A2052656469726510
:1017C00063743A2063616E2774206F70656E3A20EF
:1017D0000000000010B5203AC0F00B80B1E81850AE
:1017E000A0E81850B1E81850A0E81850203ABFF40B
:1017F000F5AF5FEA027C24BFB1E81850A0E81850AA
:1018000044BF18C918C0BDE810405FEA827C24BFFD
:1018100051F8043B40F8043B08BF7047D20728BF8B
:1018200031F8023B48BF11F8012B28BF20F8023BDA
:1018300048BF00F8012B704701491820ABBEFEE7F6
:101840002600020000210160C0E90110704710204D
:101850007047034640688C46002818BF88423CBF4A
:1018600003464068F8D318681844884207D00CF142
:10187000030020F00700001D411A521A0146081DFE
:101880000A60FFF789BA10B50146C268900703D015
:10189000900607D5886A0AE0FEF7FCFE0121016088
:1018A000881E10BD8B69486818440B69C01A91F8EE
:1018B00048301BB191F84910401A10BD1103FCD5F6
:1018C0000028FADD401E10BD70B505460C460A2002
:1018D00000E06D1C00F018F835B128780028F8D128
:1018E00002E0641C00F010F814B120780028F8D150
:1018F000BDE870400A2000F007B810B500F00CF801
:10190000BDE81040FFF747BF08B569468DF80000F5
:101910000320ABBE08BD704710B5012805D00021DB
:1019200003A0FFF7D1FF012010BD09A1F8E70000D7
:1019300053494752544D454D3A204F7574206F66B8
:101940002068656170206D656D6F72790000000020
:101950003A2048656170206D656D6F727920636F04
:10196000727275707465640053EA020C00F069804D
:101970002DE9F04B4FF00006002B1FBFB3FA83F5A3
:1019800003FA05F424FA05F65E4012BF1643B2FAD4
:1019900082F502FA05F4C5F120051EBF22FA05FC06
:1019A00044EA0C04203556EA044C4FEA144418BFAC
:1019B000641C4FF000084FF00009904271EB030CDB
:1019C00039D3002919BFB1FA81F701FA07F6B0FA45
:1019D00080F700FA07F6C7F120071EBF20FA07FCC0
:1019E00046EA0C062037B6FBF4FCA7EB0507103FD0
:1019F00007F01F0BCBF120062CFA06F60CFA0BFBB6
:101A000044BFB3460026202FA4BF5E464FF0000B14
:101A10005BEA060C08BF4FF0010B19EB0B0948EB12
:101A20000608ABFB027C06FB02CC0BFB03CCC01B05
:101A300071EB0C01C1E70B46024641464846BDE842
:101A4000F08B13B5084318BF4FF0FF300146AFF3DA
:101A50000080BDE81C40704702F0FF0343EA032208
:101A600042EA0242FFF7BBBCF8B54148414C00686E
:101A70006065607D012840D000285FD141499FED1D
:101A8000420A0868C96EC0F30740FF2826D0C1F398
:101A90000B1140F6FF72914220D094ED150A01EE31
:101AA000101A3B49B8EE411AB8EEC00A31EE400AAE
:101AB0009FED361A20EE010A9FED361A81ED030ADA
:101AC00091ED030A80EE010A81ED030A00EE100A8F
:101AD00091ED031AB8EE400A30EE410A2C48284D29
:101AE0004FF48046012780ED030AC5F88060E020AE
:101AF00000F002FF67752E60F8BD94ED150A9FEDAA
:101B00001E1A1F4D4FF48046E220B8EEC00A20EEA8
:101B1000010A9FED1A1A20EE010A84ED170AC5F892
:101B20008060BFF34F8FBFF36F8F2065012020755A
:101B300000F032F8022060752E60F8BD94ED150AB1
:101B40009FED0D1A0E4D4FF48046F3200027B8EE9E
:101B5000C00A20EE010A9FED091A20EE010A84ED69
:101B6000180AC5F8806000F0C7FE67752E60F8BDE2
:101B7000482000408402002000409C45000080393D
:101B800000E100E0B081E00F339388C300409C4443
:101B90000C00002048E1EAC5F8B51D4C0220BD4EFE
:101BA0002060307D002818BF03200021002500F0B0
:101BB00037F8306DB0F1F30118BF0121337D327C6D
:101BC0004FF0407607021943002A18BF46EA002763
:101BD000104E47F47F021640002908BF06F18062CC
:101BE000114663F3451163F3861108BF1146A160E6
:101BF000094AF338E168B0FA80F040091140E16029
:101C000006490D60C1F83806606FA06F6068F8BDC6
:101C10000820004000FFFFF0F8BFE1FF0800044289
:101C200070B5234A0024062813680AD8DFE800F0BC
:101C300004150B1A313129001E4804680568006834
:101C400005E0812825D11B4844684568406804F4B4
:101C5000FE4405F00F052C4418E01648046805689A
:101C6000006803E01348446845684068F026C5F3FF
:101C7000034506EA10404FF4FE4606EA14442C449D
:101C800006E00C488468806804F00F0400F0F0005F
:101C90000444094800291CBF4FF6FF70C8F2000039
:101CA00018BF1021184004FA01F10843106070BDFC
:101CB000342000401082E00F0080FFFF10B5044682
:101CC000B0F5FA4F0B4898BF4FF4FA44844228BF4E
:101CD000044619B9084800F03BF90146601801387C
:101CE00084429ABFB0FBF4F0013800207F2828BF5F
:101CF0007F2010BD0024F4004041050070B5184855
:101D00007349184AEFF3108372B60B6A5C1C34BF38
:101D10000C624FF0FF34056813680668013C0C62E2
:101D200000D162B605F0606406F0606584F000746E
:101D300085F000752C439DB2B4FA84F46409B5F5BE
:101D40007E4F02D1002CDDD105E024B118B2402134
:101D500090FBF1F001E04FF47E4000B270BD00BF97
:101D6000044008400870084014490868CA681040D8
:101D70008860C10704D056490A6B42F480320A6376
:101D8000410704D552490A6B42F400320A63010745
:101D900004D54F490A6B42F480220A63C10604D578
:101DA0004B490A6B42F400220A63800604D5484876
:101DB000016B41F480110163704700BF307008402F
:101DC0002DE9F047324AD2F89C00D2F8A81001EA77
:101DD00000085FEA4850C2F8A48041D59D4E307F8C
:101DE00001283DD192463A4F2B4D4FF00409104641
:101DF000DAF80C406FF35F34200429D05046DAF84B
:101E00000000B16FA1B100F00F03C0F3031001395E
:101E1000EB5C285CB167D7E900121844083251FA2C
:101E200080F0C7E90002FFF769FF90FBF9F0307618
:101E3000F06ED7E90023716F984238BF4FF0FF333F
:101E40008A4238BF4FF0FF32C6E91C32013CD3E76B
:101E5000D6E91B01814203D3386B40F4800038631C
:101E60005FEAC8500D4842BF0121C0F8001601606A
:101E70005FEA885142BF0121C0F8001601605FEAA5
:101E8000085142BF0121C0F800160160BDE8F0878B
:101E9000441008408402002090840000000B02439C
:101EA00010B5EFF3108272B6094A136A013338BFD6
:101EB0001362084B21B110F8014B01391C60F9E79E
:101EC000106A10B10138106200D010BD62B610BDAA
:101ED000000300201810084070B5C0F303214D1E08
:101EE000092D31D81949012301F13002A1F1B004C3
:101EF000DFE805F021052A080B150D2A111F01F155
:101F0000100418E001F1180415E00C4613E001F18B
:101F10003802102303E001F140024FF48033D1F87E
:101F20009440E40703D1D1F890401C42FBD1144601
:101F300001E001F1A0047C21012201EA90204FF090
:101F4000844100EB4410425070BD00BFB0400E40D1
:101F500010B5C0F344410020192900F27880DFE871
:101F600001F00D111776760D1F2A62762F36763F17
:101F700076494B764D76767676767652BDE8104089
:101F800002F0C4B902F0C2F95849D1F8981004E03F
:101F900002F0BCF95549D1F89C10C1F3082106E0C4
:101FA00002F0B4F95149D1F8A410C1F30421013170
:101FB000B0FBF1F010BD4D480068C00733D0DDE73D
:101FC000264802F0EBFA4949D1F8C01005E025484F
:101FD00002F0E4FA4549D1F8B01001F00F0107E032
:101FE0001F4802F0DBFA4149D1F8B81001F00301B3
:101FF000C84010BD1B4802E0194800E01748BDE882
:10200000104002F0CBBA394C0C21D4F8EC0001EAB4
:1020100090003749085804280FD008280FD0072807
:102020001CBF002010BDE34801780B4800291CBFED
:1020300040F60010C0F23D0010BD054810BD02F092
:1020400065F9D4F89010C1F304210131484310BD63
:1020500000F0490284020020C0EA210105002400AA
:102060000300200002001E0000F00F00411E0020AF
:10207000072939D8DFE801F0040F12381B2838305F
:102080001A48406A00F0070105208A1E032A38BF5B
:10209000C1F106007047154800690AE0134840691D
:1020A00000F00700013804280CD213A107E00F4804
:1020B000806900F007000138042803D20D4951F867
:1020C000200070470120704708480068C0074FF0A3
:1020D000090008BF0720704704480C21D0F8EC0025
:1020E00001EA900002490858704700BF70400E4056
:1020F00080840000708400000300000002000000E3
:10210000060000000A0000002DE9F04700F00F0073
:102110000C46411E072935D8464D002605F114000E
:10212000DFE801F00410133012303022424A4FF041
:102130000108032C28D0042C29D0052C22D10124FD
:10214000032026E005F10C000646032C1AD10120DD
:1021500001210122012400F07BF8002E08BF05F1C7
:1021600010063460BDE8F087042C0BD10220012159
:102170000122022400F06CF8D5F8E80064F30510A1
:10218000C5F8E800BDE8F087924601200AE0022089
:102190000224012192461160D5F88C1041F0807123
:1021A000C5F88C100121012200F052F8234F41F6AE
:1021B0007139F86BC7F83C903968396868F3196170
:1021C000396008B10020F8632C6002F09FF8D5F860
:1021D0009460044602F09AF8194A0021194B904283
:1021E0004FF0000288BF0122CAF800209842164B27
:1021F000D5F88C2022F0807228BF02F18072C5F8D9
:102200008C20F86BC7F83C903A68C6F3082201327C
:10221000B4FBF2F20D4C1A443B68A24223F0407327
:1022200038BF03F1807300283B60ABD0F963BDE891
:10223000F08700BF74400E404000C84304000E40C9
:102240000048E8010148E801BF8782FEC0E1E400E0
:102250002DE9F843032809D0022812D0012876D1AD
:1022600080264FF040080724062304E002260124BC
:1022700000234FF0010891B1022807D0012001216D
:1022800026E00324022349B14FF0040840480168C6
:1022900011F0300F12D00121002019E00826012191
:1022A0003B489940C663C36E0B42FCD1002A4ED016
:1022B0000121A140C26E0A42FCD148E00168C90771
:1022C00004D00168012666F3051101600020002199
:1022D0002F4F204EC7F83C8056F82350002DFBD0DE
:1022E000AAB356F82420002AFBD008432FD138681F
:1022F000C00701D1002005E04FF48060C7F88400DA
:102300002020386400F02AF8BD6F0220002101224D
:102310004FF00109FFF79CFFF86E0F4A386869F328
:1023200005103860C5F3C3106FF3DF250C2828BFF4
:102330000C20F968114041EA0070284400F1405037
:10234000F860C7F83C8056F824000028FBD0BDE8B0
:10235000F88300BF0012C84300F8FF0F0B490028A4
:1023600008BF4FF440012028094808BF4FF400017E
:10237000026812F0300F08BF4FF44001C26E0A40ED
:102380008A42FBD1490248BFC06F7047FF03C107B3
:1023900024400E400549096805490A6822F00702F1
:1023A000104308603448C08B00F006B88009C6436B
:1023B00070300E4084020020B0B52E494A6A02F007
:1023C00007030A68D20704D0022B02D3142807D3CC
:1023D0000FE00A68D20705D1012B03D80A280BD2D7
:1023E00003220DE00A68D2074FF0FF3208D0012B1C
:1023F00006D80F22282801E00F22142838BF072210
:1024000010021D4B40EA02300A6822F47F4210435A
:102410000860188C0A68C2F303222830013200EBEE
:10242000500002EB8204B0FBF4F0441E0720072C9E
:1024300028BF04460D6825F0EE6545EA046404F5FE
:1024400080140C605B8C1CB2002C11D42833540017
:1024500003EB530304EB52029BB2B3FBF2F2072AE5
:1024600038BF10464A6822F0700242EA0010486005
:10247000B0BD00BF4C300E408402002070B50A7819
:102480004B788C78CD78960306F58056002B08BFE4
:102490009603002C18BF06F50066002D18BF06F540
:1024A00080664A7909793243032928BF032142EA29
:1024B0000121024A42F8201070BD00BFA000084070
:1024C0001CB500206C468DF801008DF804001F48F3
:1024D000B0F88010ADF8021090F87C1090F88200EF
:1024E00080F001008DF80000481E21468DF805009F
:1024F0000020FFF7C3FF012021468DF804000220D1
:10250000FFF7BCFF1CBD00BFBCB500206C46012519
:102510008DF801004FF47F40ADF804000B4890F8AF
:10252000781090F879008DF803008DF8020081F0A2
:10253000010021468DF800000120FFF79FFF0320D6
:1025400021468DF80450FFF799FFBCBD40060020DE
:102550005D490868CA6810408860C10704D0A24974
:10256000CA6A42F00802CA62810704D59E49CA6A53
:1025700042F01002CA62410704D59B49CA6A42F080
:102580002002CA62010704D59749CA6A42F0400294
:10259000CA62C10604D594490A6B42F480720A6388
:1025A000810604D590490A6B42F400720A63410621
:1025B00004D58D490A6B42F480620A63010604D592
:1025C00089490A6B42F400620A63C10504D5864951
:1025D0000A6B42F480520A63810504D582498A69F4
:1025E00042F001028A61410504D57F498A6942F0BF
:1025F00002028A61010504D57B498A6942F004021E
:102600008A61C10404D578498A6942F008028A6166
:10261000810404D574498A6942F010028A61410438
:1026200004D571490A6B42F400520A63010404D5CF
:102630006D49CA6A42F08002CA62C10304D56A4980
:102640008A6942F020028A61810304D566498A6959
:1026500042F040028A61410304D563498A6942F02D
:1026600080028A61C10104D55F490A6B42F480424D
:102670000A63810104D55C498A6942F480728A61E7
:10268000410104D558498A6942F400728A61010106
:1026900004D55549CA6A42F48072CA62C10004D5A1
:1026A00051498A6942F480628A61810004D54E49A9
:1026B0000A6B42F400420A63400004D54A48C16AEA
:1026C00041F40071C162704760000840FFF740BFED
:1026D000012138B190FAA0F2B2FA82F201FA02F2C4
:1026E0009043F6E7704700000949C8680A6810403F
:1026F00045F2555210408860FFF7EABF0449C868A8
:102700000A6810404AF6AA2210408860FFF7E0BF2E
:102710001CA40040E348016A11B10139016200D0F4
:10272000704762B6704700BF02480121016002484D
:10273000016070472860044008200040294908686B
:10274000CA6810408860C10704D0D649CA6A42F0FE
:102750000402CA62810704D5D249CA6A42F0020261
:10276000CA62410704D5CF49CA6A42F00102CA626F
:10277000C10504D5CB490A6B42F001020A63810509
:1027800004D5C8490A6B42F004020A63410504D526
:10279000C4490A6B42F010020A63010504D5C1491D
:1027A0000A6B42F020020A63C10404D5BD490A6BDA
:1027B00042F002020A63810404D5BA490A6B42F06E
:1027C00008020A63410404D5B6490A6B42F040028C
:1027D0000A63000404D5B348016B41F08001016332
:1027E000704700BF8060084000030020124841F697
:1027F0007132816B8263026889B242F00102026029
:102800004FF07E62826001224260426952070AD420
:1028100002224260094A4369DB0703D0531C002AA5
:102820001A46F8D14269026822F00102026009B139
:1028300000218163704700BF08000E40806967FF78
:102840001B4A1A490B690132DB0718BF002AF9D16C
:1028500032B1486001200860086940F38000704789
:102860006FF00200704700BFF0B5C9B10F4B104DBB
:10287000002208248A4213D00668DE602E461C60BF
:102880001F690136FF0718BF002EF9D156B11E6926
:1028900004300132B60744BF6FF00100F0BDE9E734
:1028A0000020F0BD6FF00200F0BD00BF0C000E4034
:1028B0007F6967FFC9F85800FDF73EBE2846FDF75F
:1028C00092BE0A2001F060BDBFF34F8FBFF36F8F40
:1028D00070472846C9F85850FDF72EBE10EE100A72
:1028E00005F0C2BBC90441EA5031C004FFF73CB84F
:1028F00028463A21FDF76DBEBFF34F8FBFF36F8FB0
:1029000020652775FFF748B94FF080510160BFF38C
:102910004F8FBFF36F8FC0F800117047642001F034
:1029200033BD9BF878009BF8791080F00100704768
:1029300001F0070261F3081203490A6000F0070280
:1029400060F308124A607047C40F00214148807D3F
:1029500018B1962803D9142016E0EC2014E0134A8D
:102960000021282909D0535C984208D003D9531874
:102970005B78984206D30131F3E7812004E0A1F1AE
:10298000140001E0A1F1130040B2704710F1140FE0
:10299000D8BF6FF0130005491428A8BF14201430C5
:1029A000C0B2085C2B49887500F002B83084000082
:1029B00010B5F828014628BFF8210028254808BF8F
:1029C00001210022C92988BF01224266224A1F290B
:1029D00001D8012325E03E2902D803231F3920E036
:1029E0005D2902D807233E391BE07C2902D80F233A
:1029F0005D3916E09B2902D81F237C3911E0BA29E2
:102A000002D83F239B390CE0D92908D87F231361D2
:102A1000FF22CA2938BF7F228266BA3903E0FF232A
:102A2000D939136183660C4A0C4C516163490B68B8
:102A300023400B60D0E91930800140EAC300D2E99D
:102A4000043240EA02600A6840EA833010430860BA
:102A500010BD00BF840200200C000020FF3FC0E03A
:102A600080B500F04BF80E4801684907FCD5816835
:102A700041F0040181603448042101601E48FFF7E1
:102A800043FF80BD06480168C26811408160480765
:102A900004D50448816941F400518161704700BF49
:102AA0005C5008400003002010B51048FFF714FAEE
:102AB0000F4C1048206001F029FC4FF47A71B0FBF4
:102AC000F1F0400200F5F870B0FBF1F00421A0F540
:102AD0008070A06200202063A06E40F00400A06619
:102AE000194801600448FFF70FFF10BD00040600FD
:102AF000005008400011010080E100E010B5114ACB
:102B0000114B1168C907114909D004241C604FF00A
:102B10008054C1F88040FFF7D7FEC1F880410024FF
:102B200054609460D46000F0010404EB500001385C
:102B30005062012018604FF080500860C1F8800199
:102B400010BD00BF0C5008400450084600E100E0F2
:102B5000AFF3008010B517480168C26811408A01C0
:102B60008160154A0FD5154B4FF6C0741B68C2F82B
:102B7000F8404FF4FE1404EA5303114CC4F8FC303F
:102B80004FF0007323604B0106D5C36823F08063C8
:102B9000C3604FF080631360090109D5D0F80411B8
:102BA000084A1140C0F80411C16821F00061C160F9
:102BB00010BD00BF1440084020400844C00F002151
:102BC0001C400846FFFFDF7F2DE9F84F2DED0E4B2F
:102BD000EF4DF04C05F54050A0472846A04705F5BD
:102BE0008040A04705F5E040A04705F5C040A0475C
:102BF00005F5A040A04705F50050A04705F50040A9
:102C0000A04703A801F068FBE3480124E34E10212C
:102C10000460E348C6F84001E248C0F82C1148F2CD
:102C2000E671C6F83411D6F8301141F40861C6F8DF
:102C30003011DD49C6F89C109DF80D10012906D110
:102C40009DF80C10012902D8D84A28219164D8494E
:102C50004FF000084FF00455C6F8F880C6F89810F9
:102C60004FF46071C6F8908001604FF004504FF44B
:102C70008051F463FEF7B1FBDFF838A33068B56725
:102C8000F467EFF3108072B6CB4940F6EC624FF078
:102C90000450DAF82040FEF79DFD601C08BF6FF07D
:102CA0000104B146CAF8204004B962B6C34D94216C
:102CB00005F1D000D5F8CC40D5F8C870D5F8C4607F
:102CC000C9F85C00BE48FEF788FBC5F8C460C5F8CB
:102CD000C870C5F8CC40BB4C3C20A0474042702196
:102CE000C5F8C0002846FEF778FB0420C9F83C0070
:102CF000C9F88480C9F88880C9F88C8001F006FB87
:102D0000C5F8A48001F002FB6020C5F8B880A04798
:102D1000C5F8A0006020A047C5F8B4006420A04713
:102D2000C5F8BC005020A047D5F8BC1001EB00400E
:102D3000C5F8BC006420A047C5F8A8005020A047F3
:102D4000D5F8A81001EB0040C5F8A8006420A04702
:102D5000C5F8AC005020A047D5F8AC1001EB0040FE
:102D6000C5F8AC006420A047C5F8B0005020A047CB
:102D7000D5F8B01001EB0040C5F8B000D9F8080054
:102D8000C00705D0D9F8080020F00100C9F80800F4
:102D9000286840F008002860FFF786FEDFF8F81D7D
:102DA0000020894ADFF8F4BD884B6867C5F8F41045
:102DB0008749C5F8F800C5F8FC10C5F80011854929
:102DC000C9F83C11D2F8841041F00301C2F8841014
:102DD000D9F8901041F00101C9F890104FF400515A
:102DE000D1604FF0407151617B4990614FF4E070C8
:102DF0000860DBF84C000138062805D80FF6A05112
:102E000051F8200074491860DBF86400082824BFDA
:102E10000720CBF864000E200860DBF86400400057
:102E200018604FF0C0600860DBF85C004006186076
:102E30006A4890646A48D06400201065DBF850004E
:102E400004F0FEFD9FED680B53EC102B04F084FEA4
:102E50009BED040A05460E46B8EE400AFFF73EFD1C
:102E60002A46334604F010FC04F020FB9FED600B73
:102E700009EE100A9FED60AAFF2651EC100B9FEDA2
:102E8000600BCDE90010C80F59EC108B0290300692
:102E900025D0F5B200EE105AB8EE400A29EE008AAD
:102EA00018EE100A05F0E0F841EC100B07460C464E
:102EB00004F0CEF851EC100B3A46234604F0E6FF3E
:102EC000029A4B4662F3DF71424605F00DF920B9D4
:102ED000B4EE4A8AF1EE10FA08DB013ED7E70FF6AE
:102EE000DC40FDF73DFBDAE909050BE0B0EE480AEE
:102EF000CAF8285004F01CF9BDEEC00A10EE100A02
:102F0000CAF8240040EA05402F4D3F4AE8612020DE
:102F1000DBF84411914217D03C4A914200F089807D
:102F20003B48814200F0A9803A48284B81422DD08D
:102F3000394881427AD03948814279D03848814233
:102F400040F0A18020209AE0DBF81020DBF8503020
:102F50009FED341A0821CAE90D10042000EE102A52
:102F60001B029400B8EE400AB4FBF3F320EE010A12
:102F70009BED501A013BB8EE411ACAF83C30B4EE52
:102F8000410AF1EE10FAB8BF032074E0102050E0BF
:102F900000040600D91E00004441084404400840D3
:102FA000C0E653110C4008467A27000F083008404D
:102FB000806D630300030020B4840000FC0E002138
:102FC0006C0F002121400000146008401860084682
:102FD00002C00300E000880018600844040A1422BC
:102FE00033414B5000BF00BF0000000000002040F4
:102FF00000000000000000000000004700BF00BF0C
:10300000FA7E6ABC7493683FF0490200E0930400C2
:10301000006A1800C027090000350C00804F12001C
:10302000801A06000AD7A33B508D173D102026E0DA
:103030000820DBF81020DBF850301FED051A0421C2
:10304000CAE90D1000EE102A434394000220B8EEA6
:10305000400A9B0020EE010A9BED501AB4FBF3F3EB
:10306000B8EE411A013BB4EE410ACAF83C30F1EE29
:1030700010FAB8BF0120CD4B1CE0CC4B0820032137
:10308000CAE90D1008E020200321CAE90D10C84943
:1030900001F5B451CBF84411DBF85020DBF81010E7
:1030A0005043890000EB4000B1FBF0F00138CAF852
:1030B0003C000020BF49C04A1162DAF83C1040EAE7
:1030C000C10040F4003018624FF060701062DAF80E
:1030D000380008384FEAB00006280AD8C1B24722A3
:1030E00022FA01F1C90704D00FF62C5151F8200043
:1030F00018624FF402602862B048E8639BED151A2D
:103100009BED140AB8EE411AB8EE400A31EE011AEE
:1031100081EE008A18EE100A04F0A6FFB5EE408A90
:10312000F1EE10FA4ADD9FEDA69B9FEDA78B82463C
:103130008B461F25002D4CD4284604F06AFC04461B
:103140000F465046594622463B4604F09DFA41EC54
:10315000100B03F0FDFE51EC100B04F02BFCB0EE55
:10316000480A0646F0EE680A03F0A6FC53EC102B62
:103170002046394604F0F0FC02460B4650465946BC
:1031800004F084FE074602980C4653EC192B60F3BA
:10319000DF71384641EC1A7B04F0A6FF60B9DDE927
:1031A00000323846214604F08AFFB0EE4A9AA8461B
:1031B000B146F0EE6A9A50B9013DBBE7DFF844AC86
:1031C000DFF84CBC4FF000084FF000090BE0A846B8
:1031D000B146DFF830ACDFF838BC7D4DB9F1000FF7
:1031E00048BF09F12009744940F2FF306F4A8863F3
:1031F0001F20B9F11F0FA8BF8146B8F11F0FB8BF3C
:1032000040460128D8BF012040EA49109063DBF80E
:103210001001032824BF0020CBF8100130200860E3
:10322000DBF8100100011060DBE93F012129A863F0
:1032300024BF2020CBF800015F494FF4784008609C
:10324000DBF8000120B1634901EBC0205A4910604E
:103250004FF4E0200860DBF80801052824BF0020B7
:10326000CBF808014FF0E0700860DBF8080180053A
:1032700010604FF0087068639BF8680018B1FF2178
:103280008BF81C1101E09BF81C114B4D4FF6FF729F
:10329000DBE93A342A639BF81A51B3FBF5F3B5FB2B
:1032A000F4F4023B23EAE376002BC8BF013E0F2370
:1032B0000F2EA8BF1E460F2C38BF234641EA03211C
:1032C0003A4B41EA063119630021414B196118B1AB
:1032D0000121CBF8202104E0DBF82001642888BF1D
:1032E0000121324A29B19BF8680010B96420CBF85B
:1032F0002001394C304904F57020C860DBF820010A
:103300000004D0604FF44040C860DBF8200150B1A9
:10331000DBF84C0020F00100042804D0DBF8100199
:10332000022840F054814FF44050C8600020CBF890
:1033300024019BF81B01204B4FF47021102824BF5F
:103340000F208BF81B0159601946000400F58040DE
:103350005060DBF8EC00052824BF0420CBF8EC001B
:103360009BF81851102D24BF0F258BF81851DBF84E
:10337000E800B0F5803F24BF4FF6FF70CBF8E800BF
:1033800016484862DBF81001012829D1DBF80C014E
:1033900030B3DBF8E8004FF0FF31A04601FA00F04F
:1033A0009BF8E4104840C0431DE000BF1860084689
:1033B00000040600FFFF7F0018600844900323000C
:1033C0000000001EDC0C3742000000000000F03F4F
:1033D0001460084000F8FFFF0000F0FFBF07FFFF88
:1033E0009BF8E400A046DBF8EC40214601F022F80F
:1033F000E94A24B16FF00F0101EB041151625062F0
:10340000E8015062DBE93A01B0FBF1F000045062E0
:103410009BF8F840212C24BF20248BF8F84021464B
:10342000DBF8F00001F006F80546DBF8F400214671
:1034300001F000F8D94F1F22D74E394641F8042F2A
:10344000621E72604FF0FF32A240DBE94334002B72
:1034500018BFD343012CD24C18BF002383EA0502C6
:103460005840E2622063206B28B1606B311D10F47C
:10347000706F08BF391D4FF40070324608604FF47A
:1034800000619BF8F9000028304608BF38464160CB
:10349000C44FDBF8740002281BD001284BD0C24E69
:1034A000002840F0C88000257D61BD613D607D60E1
:1034B0009BF87B00002800F09280DBF87C00BBF8D2
:1034C0008410084401387861FEF7FAFFFFF71CF812
:1034D00075E00025DFF85C697D61BD613D607D6060
:1034E0008DF81950FFF71DFA8DF81B108DF81A1082
:1034F0008DF818004FF47F40ADF81C0006AC00209A
:103500002146B047F86B214620F03000F8630120D7
:103510008DF81C000220B047F86B214620F0C00057
:10352000F86301200695ADF81C50B04703202146F2
:10353000B0479D4E7FE09BF87B009B4E00287AD0E1
:10354000FEF7BEFFFEF7E0FF00206FF0FF0278619C
:10355000B861DBF87C00BBF8981001440139796050
:10356000BBF89C10014402EB0121BBF896201044EB
:103570008E4A02EB0040BBF8862040EA02309BF8FE
:10358000942040EA0210084338609BF89A0018B172
:10359000386840F480103860DBF86C00DBF890107D
:1035A000814203D0386840F008003860DBF88800BA
:1035B0000421002808BF0321386808433860F86BED
:1035C00020F0F000F863F86B40F0A00032E04FF418
:1035D0008050D060DBF824018003D060A9E6BBF8FE
:1035E0008400DFF85068013878614FF47F408DF82F
:1035F0001150ADF81400FFF794F98DF813108DF801
:1036000012108DF8100004AC00202146B0470120B4
:1036100021468DF814000220B04701202146ADF864
:1036200014500495B04703202146B047F86B5E4E16
:1036300020F0F000F8631B205D4D40F67F71B86408
:10364000012038635120B8660820C5F88001286041
:10365000786A88437862DBF8D000013805280CD8F6
:10366000DFE800F00D03101315034FF48070B8620B
:10367000786A40F0250078620BE0002008E04FF403
:10368000847005E048F2160002E0442000E080204B
:10369000B862DBE935100BF11C04F962102824BF75
:1036A0000F20CBF8D800DBF8DC10042924BF03215D
:1036B000CBF8DC10DBF8E020202A24BF1F22CBF857
:1036C000E020490141EA0020796A1043084378620A
:1036D00038481ECC0160DFF86017416042EA433190
:1036E0004162DFF858170463334C4163DBE90B2177
:1036F00042EA41314165DBF834100166DFF84017DA
:103700004166DBE90E2142EA41310122C0F8841012
:103710002A49C1F8002CC1F800260A602849294A24
:10372000C0F8EC10D0F8EC1021F48061C0F8EC1077
:10373000802040F2FF11C5F8800128604AF63F4022
:1037400020600020A063D6F8900040F00400C6F886
:103750009000DBF8040051601B491C4A014491426F
:1037600002D2022102208FE019491A4A01449142F3
:1037700002D20321032087E01749184A01449142ED
:1037800002D2042104207FE01549164A01449142E7
:103790002AD20521052077E0186008461860084401
:1037A0001460084004000840044008400000FFFF87
:1037B00000E100E000100840083008400005024326
:1037C0000B0A0B0030300844806474BB00A3E11185
:1037D000C03398D3C09A930C4032BADD80FE210AE0
:1037E00040252AE400F36F06C949CA4A01449142C0
:1037F00002D21320062147E0C749C84A014491423A
:1038000002D2142008213FE0C549C64A0144914232
:1038100002D21B20092137E0C349C44A0144914226
:1038200002D215200A212FE0C149C24A0144914227
:1038300002D21C200C2127E0BF49C04A014491421A
:1038400002D21D200F211FE0BD49BE4A0144914212
:1038500002D22420102117E0BB49BC4A0144914206
:1038600002D29B2012210FE0B949BA4A0144914289
:1038700002D22520142107E0B7490844B7498842FD
:1038800000F2BC829C201821A946CAF81010E06200
:10389000B34FE06A3A46C0F38210002808BF012007
:1038A000E16AC1F3C201002908BF01214843E16A6E
:1038B00011F0070108BF01214843CAF81000012890
:1038C000D6F8341121F0100108BF1031C6F83411B8
:1038D0000023DBE90150DAF81010DBF84461A0FBAB
:1038E0000101FEF7FFFF60633A460023DAF810009B
:1038F000A5FB0001FEF7F6FF60623A460023DAF806
:103900001000A16A01EA0801B846A162A6FB000105
:10391000FEF7E8FFA16A0843A0629BF80C0010F0D4
:103920000100CAF814000AD18E484FF480118E4A63
:1039300001608E481168043821F00F010DE08C49B8
:103940004FF48010884A0860106820F00F00106063
:1039500088481168043841F00201116010210160AB
:10396000DFF8E014C87E18B9A06C00F03F00C876FC
:10397000DAF81450616A266B676BA36BA26AA446DF
:103980007D4CD4F89040E40622D506F03F046FF356
:103990009F476FF3DF33002D08BF524207FB04112E
:1039A000194440F253531144A1FB0812C90C41EAD7
:1039B0004231724AB1FBF2F1714A11FB0322714BA1
:1039C00002FB01315F4A5043B0FBF1F0CCF84800F4
:1039D00000F0C6FB4FF0804043F63E016A4AC9F84A
:1039E0008001C9F880006948FEF76EFF416342F22A
:1039F000BC5181636649416641691140654A416134
:103A0000016811400160016841F41C3101604168A6
:103A10006FF3DF314160816821F47C41816081680E
:103A200041F000418160016921F0FF0101610169FC
:103A300041F082010161016821F0FF0101609BF802
:103A40002C11026811430F220160416821F470615A
:103A500041609BF848110F2928BF1146436843EA8B
:103A600001214160416821F4E04141609BF8291146
:103A7000072928BF0721436843EA01314160816873
:103A800021F4F07181609BF82B110F2938BF0A4691
:103A9000816841EA42118160816821F07C71816016
:103AA0009BF82A113F2928BF3F21826842EA015131
:103AB0008160C16D21F4FC51C1659BF82811C36D73
:103AC000DBF84C20042A04D123F47C23CE4DC365BB
:103AD0000BE043F48073CC4D012AC365C36D23F41E
:103AE0007C23C36511D0042A74D1DBF85030DBF895
:103AF000404103EB83039C4204D2026822F4E0625B
:103B0000026072E04FF4A03366E04FF4804363E05C
:103B1000805AA9EA40357F06006F98EE8014EF03C3
:103B200000B780F00048E80180710DF280BA8C0186
:103B300000508EF480DE800200A1B3F60051250211
:103B400080374CF780969800805B40F80024F400A2
:103B5000C0B806F9405DC600001F0AFA3F660301BF
:103B600000F04902303008461460084018600846EA
:103B700030300844186008440440084000366E01A4
:103B8000F439FFFF502D190040FF10C01470084099
:103B900080846D00FF0778FEAC84000040060020A2
:103BA0004000000080000000C00000008001000014
:103BB00080010000400100000001000043616E6EC2
:103BC0006F742063616C63756C6174652054584236
:103BD00052210D004FF40033C46D2343C365042A02
:103BE000036823F4E063036003D1026842F4807247
:103BF0000260C26D22F03F02C2650422022908BFA2
:103C00000322012908BF0522C36D1A43C2656FF064
:103C10000F020229026618BF0321026E11430166DA
:103C2000816821F470218160816841F48031816074
:103C3000016E21F470610166016E41F480710166CC
:103C4000016E21F0F0010166016E41F01001016684
:103C50006FF003019BF8CC0001EB800040F4E061C1
:103C6000794801600021DBF8C420CAE90211022A68
:103C700012D3DBF8C8400023002104F001056408DA
:103C800045EA430302F00105520845EA4101012AD1
:103C9000F3D15D4DCAE902138161DAF80C100161BC
:103CA0009BF8CD104A0705D4016841F0400101603E
:103CB0009BF8CD10CA0605D5016841F0800101606E
:103CC0009BF8CD10CA0705D1016841F020010160C1
:103CD0009BF8CD108A0705D5016841F48051016039
:103CE0009BF8CD10890603D5016841F002010160FF
:103CF0009BF95C01FEF74AFEBBF860116868C0F3EF
:103D00008210FE30C0B2042807D8012202FA00F067
:103D100010F0130F01D0002000E096204FF416425F
:103D20003C4B51434FF47A72B1FBF0F14901B1FBC6
:103D3000F2F2FF2112B152080131FBE70004334ACD
:103D4000A86540F6FF701065C8B20F2828BF0F2085
:103D500000021865A86DA86D686DA86DA86D686DE6
:103D6000A86D686D9BF865119BF86401FEF7E0FD96
:103D70000020CAF83000CAF82C00CAF818003348EE
:103D8000016840689BF80F00CAF81C102D4948775D
:103D900000F08CFA02F0A0F92D48BBEE091A9FED55
:103DA0002E2A2F4990ED030A098830EE010A9FED73
:103DB000291A20EE022A20EE011A20EE022A20EE15
:103DC000011A01EE002A9FED251A00EE012ABDEE30
:103DD000C20A10EE100A084484B2B4F5FF7F88BF0F
:103DE00040F2FF1401F08AFF204601F0F5FFBDEC20
:103DF0000E4B01B0BDE8F04F02F004BAA946032013
:103E000045E500BF00030020146008401860084426
:103E100040060020186008460000800000000001F5
:103E2000000080010000000200000002000000020B
:103E3000000000027D240000400500204003002017
:103E4000400400208402002000200840F081E00FA0
:103E50000C00002082A87B3952499DBBEC5138BF31
:103E60000001E00F2DE9F843614C40F201100721F9
:103E700001224CF2503546F2A81302264FF0573774
:103E8000A4F878000020C4E91B014FF07C51C4E97C
:103E9000130542F22005C4E91530AF23606784F8AA
:103EA00068006066C4E90C00C4E9060684F8820074
:103EB000C4F87E00C4F87A00C4F8900084F8940036
:103EC000C4F88600C4F88A00C4F8960084F89A0002
:103ED000C4F89C00C4E917213E21C4E90852464DAC
:103EE000C4E90A63434A454BC4E90E10E349A946B5
:103EF000C4E90073C4E90252C4E904102021A4F803
:103F000084100321A4F8A0100021082904D062180D
:103F1000013182F8BA00F8E700202021082805D0F6
:103F200004EB40020130A2F8A210F7E700200021C4
:103F3000082904D06218013182F8B200F8E730484D
:103F4000002701254FF002082821C4E93A181D2155
:103F500084F8CC8084F8E450C4E93677C4F8E07083
:103F6000C4E931071020A4F8F80043F29360C4E9D3
:103F70003C074FF6FF70C4E9345094F8CD0000F0D0
:103F8000C000093084F8CD0004F1FC00FDF725FAEB
:103F90001C4884F848511E491E4B1F4D3C220A26DE
:103FA000C4E94877C4E94C77C4F83871A4F83C7187
:103FB000C4F87871C4E95388C4F81901FE20C4E933
:103FC0005865C4E95A3284F82C010F48C4F8280116
:103FD0000E4884466FF01300C4E956070320C4E975
:103FE0005C1C84F854010D48C4E95090BDE8F88386
:103FF0004006002001003F00A086010000A1BC3364
:10400000058001000110011F00031D03E040FDFFBA
:1040100050FBFFFF90D00300070D0101801A06003E
:1040200010B5044600F072F9034AA0FB0401002316
:10403000FDF79AFC10BD00BF00127A002DE9F04197
:10404000384C394D2046A8473848A84738484FF0E3
:10405000010838490426C0F800800A6866F30302A4
:104060000A6002220260086862F3071008603248A2
:10407000A847324F40F6AA6031490025F86041F266
:1040800005003D607860BD607D61FD64B9643D669A
:104090007D67BD67FD673D65BD6578602046FDF7BE
:1040A00057FF3968202321F0600139603968396091
:1040B0004FF4612101EB40104FF4E111B0FBF1F03E
:1040C000204901EBC000F831084041F61F717861CA
:1040D0003D66786F20F030007867786F786703204E
:1040E000FD607867B86F88434FF40061B867BD48DA
:1040F000BE64C0F88011FA6C42F00402FA64124AFD
:1041000013704FF480620023016005200021FD60E0
:10411000F8600E48FCF73AFAC44880F80180BDE820
:10412000F08100BF40410500D91E000000250A00B3
:104130000CA0004604A00040002204000000014042
:10414000F9FF010000FF7F000BE400E07C0100208C
:104150000248C168026811408160704770300840B1
:104160002DE9F843424A4349444B5069D1F8447120
:1041700041499946002818BF7F420869126988465C
:10418000D404A0FB030100232246FDF7EDFB054606
:10419000D8F80C60D8F8000022460023C846A0FBDF
:1041A0000901FDF7E1FB06FB0500364D3649C41950
:1041B0003348B4F1804F9CBF46F2E070C0F2350046
:1041C00028600968C90709D0304908443049B0FB64
:1041D000F1F0FD30C0B2FEF7DDF828682D4943F656
:1041E000FF5204EB5003B3FBF0F02D4B0A602A4959
:1041F0002A4AB4FBF3F30138B4FBF1F111441A4439
:104200004978527840EA013024FA01F140EA8222EA
:104210002448436F1A43244B4267B1FBF8F202FB78
:104220000311642359434FF0FF33414538BF013A2E
:1042300003EB5201013203EB5202072998BF072A10
:104240000FD9436E23F0040343661202036842EA67
:10425000011123F4EE630360026811430160BDE8BD
:10426000F88351EA0203ECD0436E43F00403EBE71A
:1042700000030020400600202C30084000F04902D6
:10428000C0CF6A00240000204C300E4020A107005F
:1042900040420F00A440084440BE4025A0840000D6
:1042A000401B5F13304008400010B6FD08490A6803
:1042B00002F07062B2F1806FF9D00A6802F07062A9
:1042C000B2F1206FF3D003490860FFF749BF00BF88
:1042D00004400840383008400B494A680B6802F037
:1042E0000F02C3F3811343EA820282700A6802F06C
:1042F0003F0242708A68C96802F0F002C1F30311FC
:1043000011440170704700BFE0FF0FE008480168EA
:1043100001F00701023902299ABF07A252F82110C1
:104320000449C06EC0F304200130B1FBF0F07047C7
:1043300094400E40C0EA210100F0490200800000D4
:10434000008000000D480E490160D0F8801041F453
:104350007001C0F880100B48416941F4005141617F
:10436000016821F003010160416B21F0010141630B
:10437000016A21F080510162704700BF08ED00E042
:104380000000000040300E402DE9F041134D04467E
:104390002868C0071DD1FEF787FB11490120114F86
:1043A0004FF080560860204688463E60C7F880611E
:1043B000FEF756FB0420C8F80000C7F88060002014
:1043C000FEF782FAC7F880616860A860E860BDE81F
:1043D000F0812046BDE8F041FEF742BB0C5008409A
:1043E0000450084600E100E05D48016809061BD55D
:1043F00001680906FCD5C1685A480D4B026B9954F7
:10440000016B01310163416B01314163016BB1F516
:10441000807F04BF00210163416BB1F5807F03DD24
:104420000021016341638163704700BF8402002063
:104430001C09002070B54A1E002101230024551CD0
:1044400004BF084670BD20FA04F603FA02F5F60729
:1044500018BF2943013A0134F1E700000D48BFF3CA
:104460004F8F0D4A016801F4E06111430160BFF311
:104470004F8F00BFFDE700BF0648BFF34F8F064ACE
:10448000016801F4E06111430160BFF34F8F00BF89
:10449000FDE700BF0CED00E00400FA0548F204015E
:1044A000411A002011F1030F38BF4FF0FF30704761
:1044B00048F20101411A0020032938BF012070474A
:1044C00010B5C8B1044600783A2815D10F492046E6
:1044D000FCF79EF898B10E492046FCF799F888B190
:1044E0000C492046FCF794F801464FF0FF300029B4
:1044F00008BF48F2030010BD4FF0FF3010BD48F276
:10450000010010BD48F2020010BD00BF6184000030
:1045100068840000598400002DE9F0410D4648F2FE
:104520000301884215D048F20201884214D10C4E92
:10453000DFF81083144664B198F8010015F8017B88
:1045400008B9FFF77BFD30684006FCD57762013C77
:10455000F1E70020BDE8F0814FF0FF30BDE8F081C9
:10456000100001408402002004A0FBF7F9FF06A020
:10457000FBF7F6FF01F056FCFFF77EFF524553456F
:10458000543A204F4B0D00005265737461727420D1
:104590006465766963652E0D0000000010B5044661
:1045A000FDF762FD15498C4208D015498C4208D0B0
:1045B00014498C4209D11448006804E0124880680C
:1045C00001E01148406800F007000138032884BF6B
:1045D000002010BDDFE800F00202050F4FF400409C
:1045E00010BDFFF793FE0849D1F88010C1F30061B8
:1045F0000131C84010BD4FF47A7010BD0500240091
:104600000300200002001E0080400E400000000059
:1046100088B08648012101608548D0F8C44106A8C9
:10462000FFF75AFE200E834E834F8E2813D8D7F8FB
:1046300098104FF400434FF0501441F00402C7F8B3
:1046400098200022B2F5907F03D0B5183032EC509C
:10465000F8E7C7F898108F2804D87869202161F30B
:10466000060078619DF81900744C012805D1D4F832
:10467000300140F00400C4F83001714A0020C2F853
:10468000200302206060606800F00F00022840F004
:10469000FC80674DD5F8E402013011D068682968C4
:1046A0000860E868A9680860686929690860E869BD
:1046B000A9690860686A296A0860E86AA96A0860E6
:1046C000DFF88081642060499146A8F81E00A06947
:1046D00008400130A061A06B40F08070A063D2F868
:1046E000EC01002818BF01208000FDF753FEE06AAE
:1046F00020F0C040E062A06940F00600A06107A879
:10470000FFF7EAFD9DF81D00012813D19DF81C005C
:1047100002280FD8D8F82C0060B920694B4940F026
:1047200001002061E06A084049490843E062012035
:10473000C8F82C004748C8F820006420FDF73CFE6C
:10474000454860620220D5F8E022A36980EA137030
:104750004FEA137CD1B2C2F3072200F00300DFE876
:1047600000F0020D050AD5F8E83201E0D5F8E43290
:10477000C3F3072506E0D5F8E40201E0D5F8E80226
:10478000030C050E571A4FF416704743B7FBF0F7AA
:104790000F44974200F27980D9B2691A4143B1FBC4
:1047A000F0F050FA83F1A9426FD8A06A47F602727E
:1047B00090431F4A40EA0720A062D2F8C80110F0D7
:1047C000FC0F27D1D2F8F402C0B210285DD2A26B40
:1047D000E72922F4704242EA003040F2FF12A0635F
:1047E00028BFE721206B90434A4640EA41004AF641
:1047F000E85120630120C9F8000020682160616C45
:10480000C907FCD1E16811F0030127D10221C8F8E2
:104810002C1028E0D2F8F8220CF00300DFE810F0AA
:1048200004006A0963096709D0B2CEE744000E406C
:104830003880E00F0020004018400E4034300E4019
:104840009407C64384020020FEFFFFCF000F0EF046
:10485000B4C0400BC800A0007740205701220129B6
:10486000C9F8202311D0616CC907FCD1E16801228D
:1048700062F30101E160616CC907FCD10121C9F853
:104880002013012804BF00202060112004214FF0D4
:104890000408FDF739FCDF48008801F09DFAFFF7B6
:1048A000CDFB42F21070FFF76FFDDB4FDB4CDCA05D
:1048B0003968A047E2A0E4A1A047E648012104220C
:1048C00001230125A0477D60E348E44FB847E44950
:1048D0004FF480400860E348016868F31B610160A1
:1048E000E148B847E1480321FDF70EFCE04C2046C3
:1048F000B847E04F2046BD61FDF72AFB4FF4FA614F
:10490000B0FBF1F038614FF400703860B868C00750
:1049100002D101F06FFC7D60F86AD74940F00100D8
:10492000F8624FF08060C1F880010860D348FDF75D
:10493000D3FAD348FDF7D0FAD2485FF8F890D249BD
:10494000D0F8580289F800500A68002AFCD1CF49F3
:1049500020F0C060002708601020C1F844010A2040
:104960000021B060CA4830614FF4F8107761B76138
:10497000F7613060C7487764306443F6E41037630A
:1049800037627762B062D6F88C0040F00100C6F85A
:104990008C00D6F8900040F00100C6F8900000208E
:1049A000FDF73EF9002001214FF00108FDF738F92D
:1049B000B94CBA492046FDF781F9DFF8E4A2054673
:1049C00089F80C00032089F8147089F810808AF89F
:1049D0000000F320C9F8500089F815702DB9204661
:1049E0000021FDF76BF905460BE03068000608D49E
:1049F00020460021FDF762F94FF4FA400021FDF74F
:104A00005DF90A20A749B0609AF80000000440EA66
:104A100005200840C0213060A3480160A3488021E0
:104A200001603068000605D5A148FDF791FA944869
:104A3000FDF78EFA4FF400603064FDF7ADF8706C4E
:104A40004FF4804140F0010070648B48C0F8801141
:104A5000016001F0C3FB9748D0F80801B0F1573F5F
:104A600041F03380DFF850B294494FF4BE7258469B
:104A7000FCF7B0FEFEF7A8F8914EDFF84882924F9F
:104A80009FED939B9FED94AA9FED94CA9FED94FA9E
:104A90000024B5EE008ABBEE09BAB1EE00DAB2EE40
:104AA0000EEA99F8010008B9FFF7C8FAEFF3108091
:104AB00072B6D8F82010481C08BF6FF00101D9F871
:104AC0003400012815DBD9F83800864A135CD9F880
:104AD00038200132C9F83820D9F83820B2F5807F63
:104AE00008BFC9F83840D9F83420013AC9F8342051
:104AF00001E04FF0FF33C8F8201001B962B6591C2D
:104B00005DD0B9F8285078480A2B43554FD177A18A
:104B100044550546FBF767FD0028C9F8580040F0EA
:104B2000E087284673A1FBF75EFDC9F8580058B12D
:104B300072A0FBF715FD5348D0F8B821D0F8BC316E
:104B400071A0FBF75FFB31E0284673A1FBF74BFD3B
:104B5000C9F8580030B13F48012104220123FBF776
:104B600051FB23E028466FA1FBF73DFDC9F8580033
:104B700078B10B30FDF79EFE80B26D49002818BF5A
:104B800001208BF867016B4818BF0846FBF7E8FC6B
:104B90000CE06949FDF792FE0028C9F8580000F0C2
:104BA0003282DBE901126548FBF72CFB0025681C0B
:104BB00081B2B1F5807118BF0146A9F82810D8F864
:104BC0001800800440F12081D8F8180020F400502B
:104BD000C8F8180099F80800012840F0CD80D9F8ED
:104BE0003C000130C9F83C00D9F83C00DAF8041068
:104BF000884240F2A780C9F83C4089F8084089F80B
:104C0000194089F802404E48DAF80410FBF7FAFA26
:104C1000B2E000BF0001E00F04500E4005020000AA
:104C20000D0A5374617274696E672E205265736544
:104C3000742063617573653A20307825580D0A0039
:104C40000D0A25730D0A0000526164696F207465B6
:104C5000737400009395000000250A00D91E00001F
:104C60003CA0004638A0004030053E0002001E0077
:104C7000800616000060044000E100E040410500AD
:104C8000008204003880E00F6428C84318400E40BA
:104C900000FFFF00000F03030024F40000093D00A3
:104CA0000C000020007F7F00002000440020004610
:104CB000B80032001C0B0020400600200801E00F65
:104CC00044100840000300201C0A002000BF00BF61
:104CD00000000000000059400000C842EC5138BEFE
:104CE000000034421C090020BC07002052455345F7
:104CF00054000000494E464F00000000494E464F08
:104D00003A204F4B0D0000004D435549443A2030A6
:104D100078256C6C580D0A004745545F5645525330
:104D2000494F4E005052494E545F4D4F44453A0052
:104D3000F3970000A4980000DD9900004295000060
:104D40006994000099F80200012812D1D9F83C00BA
:104D500002280ED39BF8670189F8024048B1D9F8C0
:104D60003C10DFF8980D6FF07F026FF07F03FBF7C8
:104D700049FA012089F8190099F80300F8B1BF48F1
:104D8000016899F8060040B1013989F8051049B267
:104D9000B1F1FF3F0EDC002106E0013189F805107A
:104DA00049B23F2906DD3F2180F0010089F8051056
:104DB00089F80600B14801600020FDF79FFE99F8D0
:104DC000040008B3AD4C256889F80550FCF796FF40
:104DD00000EE100AB8EEC00A20EE080AFDF77EFDCC
:104DE0000246A7480B4669B2FBF70CFA99F8050092
:104DF000411C7F2838BF002148B289F80510206087
:104E000000200024FDF77AFED8F83010D8F83000E2
:104E1000C9052CD410F4E05F0FD0D8F83000012180
:104E200020F4E850C8F830009648C0F80016016039
:104E30009548FBF795FB01F04FF9D8F83000400298
:104E400009D5D8F8300020F48000C8F8300001F00F
:104E500071F989F81C40D8F83000800440F19C803A
:104E6000D8F8300020F40050C8F8300094E020F466
:104E7000807089F80240C8F83000F0686FF35F3046
:104E8000A9F82600EFF3108072B6D8F820000130A0
:104E900038BFC8F82000B9F826000021884203D0A6
:104EA00032687A540131F9E776480121C0F80016DA
:104EB0000160D8F8200020B10138C8F8200000D1E6
:104EC00062B672480068396802B2C9F84010D20D63
:104ED00050FA82F000B2021299F80900A9F82420D1
:104EE000012805D1D9E9120301301344C9E912039D
:104EF0009BF8670138B3B9F8260097F904305C468F
:104F0000D7F80BA0D7F807B00638A9F82600B8796B
:104F10000090DFF8DC0DFBF775F9B9F826100F25C6
:104F2000E8B28AB2824207D9385C18B1FBF712FBAB
:104F3000B9F826100135F3E7DFF8B80D51465A46A7
:104F4000FBF760F9A34699F80800DFF8B8AB002436
:104F500010B101F0C1F81FE09BF8660110B1D8F85C
:104F60001C0005E0D7F80B00D8F81C108842F0D1DF
:104F7000DFF8841DC1F8070052208871D7F80700B8
:104F8000C1F80B00C9F84400D9F84000086099F84E
:104F90002400087100F0D2FFD8F82C0000070DD5CE
:104FA00089F819404FF48041D8F82C0020F008000F
:104FB000C8F82C003648016001F08EF899F8190005
:104FC00001287FF46EADDFF8302D54209071012060
:104FD00089F80200D9F83C00D9F84410C2F80B1047
:104FE000D8F81C101060C2F807109AED030ABDEE45
:104FF000C00A10EE100A107100F0A0FFDAF80800E5
:10500000FDF77CFD4DE5DFF8381BFDF757FCC9F8CF
:10501000580000B300F10905FDF75BFC0446FDF7FD
:1050200067FCC9F8580010B30130FDF743FC19497B
:105030008C4203D318498C42C0F08080DFF8080B03
:10504000FBF78EFA9BF86701002400283FF4AEAD11
:10505000DFF8FC0A9AE5DFF8FC1AFDF72FFCC9F827
:105060005800D8B1DBF84411DFF8EC0A21E1DFF891
:10507000D80AFBF775FA0025002498E53830084077
:105080001C960000000B0243989800000C7008402A
:105090003CA0004600D8B805813E6D56DFF8BC1A2A
:1050A000FDF70CFC0028C9F8580056D00B30FDF76E
:1050B00001FCD94BD94ADA49DA4D9842D8BF184693
:1050C0008C4602F58F528842014638BF1946A942E4
:1050D000154688BF0D466045D34838BF0D46D349B5
:1050E00028449842D248D34B38BF0D4628449842B2
:1050F000D1483CBF42F2C075C0F209052844904235
:10510000CE4838BF00F50435CD4828448842CD4804
:105110003CBF44F68075C0F21205854284BF46F656
:105120000025C0F2180500F0E9FDCBF84451FDF769
:105130004BFDDBF84411DFF8280ABAE010B1C24990
:10514000884217D3DFF8000AFBF70AFA9BF86701D9
:10515000002890D0DFF8F4098BE728460FF60421E9
:10516000FBF741FAC9F8580088B1DBF85010DFF8B6
:10517000FC099EE0CBE9014000F0C0FDFDF724FDF5
:10518000DBE90112DFF8BC09FBF73CF873E7DFF855
:10519000E019FDF793FBC9F85800B8B10730FDF7E7
:1051A00089FB054664284FF0640098BF0546A74870
:1051B000854228BF054600F0A1FDCBF85050FDF711
:1051C00003FDDBF85010DFF8AC0972E0DFF8A81936
:1051D000FDF774FBC9F8580020B1DBF85410DFF874
:1051E0009C0966E0DFF89819FDF768FBC9F85800DC
:1051F000B8B10830FDF75EFB054664284FF0640047
:1052000098BF05469248854228BF054600F076FDC6
:10521000CBF85450FDF7D8FCDBF85410DFF86409E4
:1052200047E0DFF86419FDF749FBC9F8580020B1E1
:1052300099F81D10DFF854093BE0DFF85419FDF729
:105240003DFBC9F85800F0B10C30FDF733FBC5B297
:105250003F203F2D28BF054699F8070089F81D50CB
:1052600018B100F09BFFFDF759FB2846FFF71EF829
:1052700099F80700032816D0022811D0012814D16C
:1052800000F0C4FE11E0DFF81019FDF717FBC9F8B4
:10529000580088B1FDF75AFB0146DFF8000908E025
:1052A00000F0E0FE01E000F099FE99F81D10DFF833
:1052B000E408FAF7A7FF79E4DFF8E418FDF7FEFA4F
:1052C000C9F8580010B30A30FDF7F4FA05B215F129
:1052D000140FD8BF6FF01305142DA8BF142599F82B
:1052E000070018B100F05AFFFDF718FB68B2CBF8C1
:1052F0005C51FDF74BFB99F80700032815D00228F5
:1053000010D0012813D100F081FE10E0DFF89818CA
:10531000FDF7D4FAC9F8580078B199F81610DFF8FB
:105320008C08C6E700F09EFE01E000F057FEFDF796
:105330000DFB0146DFF86C08BBE7DFF87418FDF7DA
:10534000BDFAC9F8580018B30D30FDF7B3FAC4B26E
:105350002546F82C28BFF82599F8070018B100F069
:105360001DFFFDF7DBFA002C08BF0125284689F850
:105370001650FDF71DFB99F80700032822D00228DC
:105380004FF000041BD001281FD100F03FFE1CE0AD
:10539000DFF82418FDF792FAC9F85800D0B1FCF7ED
:1053A000ADFC00EE100AB8EEC00A20EE080AFDF7C8
:1053B00095FA0246DFF804080B46FFF7C2BB00F07F
:1053C00051FE02E000F00AFE002499F81610DFF802
:1053D000E4076EE7DFF8E817FDF770FA0028C9F870
:1053E00058007FF4E3ABDFF8DC17FDF767FAC9F884
:1053F000580020B10D30C9F85800FFF7D7BBDFF8CF
:10540000C817FDF75BFAC9F8580028B311480068BF
:1054100041B2DFF8BC074CE7F0490200008204000B
:10542000E96E030030570500CFA8FAFF801A060086
:10543000DF5EF8FF400D03009F51F5FF00250A00D5
:10544000BFBDF0FFC05C150041420F0040420F009D
:1054500020A1070008600840DFF87817FDF72EFA52
:10546000C9F8580020B1DBF84011DFF86C0720E7DD
:10547000DFF8C806DFF86417FBF7B5F8C9F858007D
:10548000B8B10930FDF716FA054641F28830854279
:1054900098BF0546D648854228BF054600F02EFC39
:1054A000CBF84051FDF790FBDBF84011DFF83007F7
:1054B000FFE6DFF88806DFF82C17FBF794F8C9F849
:1054C000580048B1CB480288CB488069C0F3C82156
:1054D000DFF81407FFF768BBDFF86006DFF80C178A
:1054E000FBF781F8C9F8580000B30A30FDF7E2F97C
:1054F000054699F8070018B100F050FEFDF70EFAC6
:10550000ADB2B5F5FF7F88BF40F2FF1500F0F6FBA6
:10551000284600F061FC00F075FEDFF8D40629464D
:10552000FAF770FE0025DFF8DCA5A5E5DFF80C062C
:10553000DFF8C016FBF757F8C9F8580010B3AE48AB
:10554000DFF8C015806991ED030A91ED031AB4EEFE
:105550004E1AF1EE10FA08DBDFF8A81591ED031AE8
:10556000B4EE4F1AF1EE10FA1EDDDFF89006FAF7EE
:10557000F7FF9BF867010028D4D0DFF88406FAF71C
:10558000EFFFCFE7DFF8B405DFF87816FBF72BF86D
:10559000C9F8580018B39BF864119BF86521DFF82F
:1055A0006806FAF72FFEBDE730EE0B0AC0F3C820FD
:1055B00020EE0C0A20EE0D0ABDEEC00A10EE101A05
:1055C000451A00F00BFEFDF711F9DFF83C05ADB20E
:1055D000C0F8005100F03AFEDFF81C069FE7DFF844
:1055E0005C05DFF82816FAF7FEFFC9F8580028B363
:1055F00000F10C05FDF76DF98246FDF779F9C9F860
:10560000580068B301305FFA8AF5FDF753F91F2D92
:105610004FF01F0228BF1546C1B228468BF86451CF
:105620001F2928BF11468BF86511FDF781F99BF8FA
:1056300064119BF86521DFF8D805B2E7DFF8FC04B8
:10564000DFF8D415FAF7CFFFC9F8580058B100F0C9
:10565000EBFD9BF864119BF86521DFF8C005A0E71E
:10566000DFF8B0058BE7DFF8D404DFF8B415FAF7FC
:10567000BAFFC9F8580020B100F0D6FDDFF8A40544
:105680007DE7DFF8B804DFF8A015FAF7ACFFC9F83A
:10569000580028B300F10C05FDF71BF98246FDF711
:1056A00027F9C9F85800B8B3451CFDF712F90446AC
:1056B000FDF71EF9C9F8580088B399F808100130B1
:1056C000C9F85800002953D0DFF86C05FAF748FFF5
:1056D0009BF8670100283FF425AFDFF860054EE72F
:1056E000DFF85804DFF85C15FAF77DFFC9F85800B9
:1056F000C0B199F8080000286DD0DFF854050025E6
:1057000089F80850FAF72CFF9BF867010028DFF8AA
:1057100044057FF434AF06E7DFF824052FE7DFF810
:1057200018052CE7DFF81404DFF82C15FAF75BFFF7
:105730000028C9F8580061D00A30FDF7BBF8C1B2A3
:105740000446DFF8180503293FF619AFDFE801F03A
:105750000280899299F807000028DFF800053FF4DD
:105760000EAF00F01BFDFDF7ACF8DFF8000589E097
:10577000FAF7E2FEDFF88C13312CC1F804A0C9F867
:10578000440007D89BF8670118B1DFF8A004FAF7C6
:10579000E7FE32244FF47A70DA4960438860DFF81C
:1057A0009004FAF7DDFE9BF8670150B1D5494868CF
:1057B000896848430E49B0FBF1F1DFF87804FAF745
:1057C00021FD0120C9F83C0089F8080089F819007A
:1057D00089F80200A6E6DFF87004FAF7C1FE9BF82C
:1057E00067010028DFF864047FF4C9AE9AE600BFC1
:1057F00040420F000001E00F18400E40CF48DFF894
:105800007014FAF7F0FEC9F8580050B101200025D5
:1058100089F80900DFF85C04C9E91255FAF7A0FE1F
:1058200081E6C648DFF85014FAF7DDFEC9F85800E3
:1058300058B3DFF84804002589F80950FAF790FEBC
:105840009BF8670100283FF46EAEDFF8340496E65B
:1058500000F054FAFDF735F800F0D8FBDFF8080443
:1058600010E000F04BFAFDF72CF800F0FBFBDFF83E
:10587000F40307E000F042FAFDF723F800F0AEFB76
:10588000DFF8DC0389F8074079E6AC48DFF8F41369
:10589000FAF7A9FEC9F85800E0B1D9F84810DFF8C6
:1058A000E803FAF7AFFCD9F84800002878D099ED62
:1058B000131A00EE100AB8EE400AB8EEC11A81EED3
:1058C000000AFDF70BF80246DFF8C0030B46FAF7B3
:1058D00099FC27E69948DFF8BC13FAF784FE002804
:1058E000C9F858005ED00A30FCF7E4FF0124824674
:1058F00089F81C4000F002FA00250AF16040B0F17E
:10590000604F98BF6FF0604A4FEADA00C9E91BA503
:1059100089F81850C8E90055C9E91D5000F0CAFAC5
:10592000DD490520DD4A1F230860A8488263242240
:105930004A624FF480728A624FF49C72CA62D84AFB
:105940000264D84A1360D84A4FF4E0531360D74A30
:105950004261D74812228D640260FF22086C40F039
:105960001200086440F20470C8634FF480608D66D2
:105970003F21C6F8A8007048C0F800460460CD4832
:10598000FCF76AF8D6F8A800802140F48060C6F8D9
:10599000A8005B480160C84802210160C7483DE794
:1059A000BBA0ECE56548C649FAF71DFEC9F85800EA
:1059B00090B199F81C00012841D100F0BBFBC3480D
:1059C000002589F81C50FAF7CBFD9BF867010028E9
:1059D000BF487FF4D4ADA6E55848BE49FAF703FEA8
:1059E000C9F85800A8B3D9E91C4AD9F86C00B0EE40
:1059F000490A99F91850F0EE690A05907CB100EE59
:105A0000104A01EE10AAB8EE400AB8EE411A81EE33
:105A1000000A20EE0A0AFCF761FF41EC100BAE48C9
:105A200053EC102B0095FAF7EDFB9BF8670100286B
:105A30003FF478ADA94805992246534618E0A1489D
:105A4000FAF78EFD9BF8670100289F487FF497AD19
:105A500068E53A48A249FAF7C6FDC9F8580050B1BE
:105A60009BF8F9009BF8F830DBE93C1200909D4868
:105A7000FAF7C8FB56E531489B49FAF7B4FD002810
:105A8000C9F858003FF44EAD1E4CE06802F0ECFA45
:105A900005900C46D9F85C0002F0E6FA0546D9F804
:105AA00060008A4602F0E0FA41EC100B4AEC115B10
:105AB0008E48059A2346DFF84CA08DED001B8DED36
:105AC000020BFAF79FFBFFF7D6BAFEF7CBF90FA050
:105AD000FAF746FD00F0A8FB11A0FAF741FDFEF72A
