:020000040000FA
:10000000A0300020F90100000102000003020000FE
:1000100005020000070200000902000000000000C5
:100020000000000000000000000000000B020000C3
:100030000D020000010200000F020000110200008A
:10004000C92F00002B3000001302000029300000EF
:10005000DD320000A13B00009F3B00002B2300008D
:10006000130200001302000013020000914B000075
:100070001302000013020000751C000013020000B0
:10008000130200001302000013020000130200001C
:10009000130200001302000013020000130200000C
:1000A00013020000130200000B320000292300009D
:1000B0004B3A00001302000013020000130200007C
:1000C0002B4300001302000000F002F800F085F856
:1000D0000AA090E8000C82448344AAF10107DA45A3
:1000E00001D100F07AF8AFF2090EBAE80F0013F070
:1000F000010F18BFFB1A43F0010318479C7300005F
:10010000BC7300000A444FF0000C10F8013B13F0E0
:10011000070408BF10F8014B1D1108BF10F8015B60
:10012000641E05D010F8016B641E01F8016BF9D153
:1001300013F0080F1EBF10F8014BAD1C0C1B09D1AA
:100140006D1E58BF01F801CBFAD505E014F8016B1C
:1001500001F8016B6D1EF9D59142D6D370470000AE
:100160000023002400250026103A28BF78C1FBD8C0
:10017000520728BF30C148BF0B607047662906F0A0
:10018000218703681B0A28BF41F08001642900F021
:100190002B81F82900F06481732900F0C9860020C2
:1001A00070471FB506F001FF9DE8030001F050FB0A
:1001B00001F030F804000020002106F053FE401C3E
:1001C00060600020002106F063FEE06000F016FF92
:1001D0001FBD10B500F07BFF10BD01F0F8FA11460D
:1001E000FFF7DFFF06F06CF801F084FC03B4FFF7C3
:1001F000F0FF03BC01F0A6FC09488047094800470E
:10020000FEE7FEE7FEE7FEE7FEE7FEE7FEE7FEE7C6
:10021000FEE7FEE704480549054A064B7047000023
:10022000B7480000C9000000A0200020A030002036
:10023000A02C0020A02C0020004870473410002083
:1002400053EA020C00F069802DE9F04B4FF00006F4
:10025000002B1FBFB3FA83F503FA05F424FA05F661
:100260005E4012BF1643B2FA82F502FA05F4C5F1F8
:1002700020051EBF22FA05FC44EA0C04203556EA8C
:10028000044C4FEA144418BF641C4FF000084FF0B0
:100290000009904271EB030C39D3002919BFB1FA60
:1002A00081F701FA07F6B0FA80F700FA07F6C7F10E
:1002B00020071EBF20FA07FC46EA0C062037B6FBD3
:1002C000F4FCA7EB0507103F07F01F0BCBF120064E
:1002D0002CFA06F60CFA0BFB44BFB3460026202F7F
:1002E000A4BF5E464FF0000B5BEA060C08BF4FF060
:1002F000010B19EB0B0948EB0608ABFB027C06FB74
:1003000002CC0BFB03CCC01B71EB0C01C1E70B460D
:10031000024641464846BDE8F08B13B5084318BF76
:100320004FF0FF300146AFF30080BDE81C4070473E
:100330000FB4044910B503AA029800F0FDFD10BCEB
:100340005DF814FB8C0F002070B5044685690068C9
:10035000C10601D5302600E02026C00707D070BDB9
:10036000D4E9012130469047206A401C20626D1E6E
:10037000F6D570BD70B5044685690078C00707D111
:1003800070BDD4E9012120209047206A401C2062E2
:100390006D1EF6D570BD70B50C460546012A05D018
:1003A0002878800600D5EA69002302E0012305E0F1
:1003B0005B1C934202D2E05C0028F9D1A869E618E0
:1003C000C01AA861286A184428622846FFF7BCFFB3
:1003D00004E0D5E9012114F8010B9047B442F8D3A9
:1003E0002846FFF7C7FF70BD2DE9F04106460024FF
:1003F00010687529314616A510D0AFF3008000288B
:1004000002DA404213A507E031688A0701D512A538
:1004100002E0490704D511A5012401E0AFF30080F3
:1004200000210A2206F1240709E0B0FBF2FCB0FB30
:10043000F2F302FB1C00303078541846491C0028A7
:10044000F3D123462A463046BDE8F04100F0F7BA22
:10045000000000002D0000002B0000002000000024
:10046000D21DF0B40D4622F007020188D2E9003413
:10047000090502D5104A7A4402E00F4A7A440E3246
:10048000002100F1240608E003F00F071B09D75DE7
:1004900043EA047324097754491C53EA0407F3D14F
:1004A00004780023240704D5702D02D009B102235B
:1004B0001132F0BC00F0C3BA4E6B00002DE9F047DA
:1004C0004FF0000A89460446C0F820A02046E168A3
:1004D0008847002876D0252806D0D4E90121904706
:1004E000206A401C2062F1E7E16820460026884728
:1004F000C4F81CA005460027C4F818A02A2D09D06E
:10050000284606F09BFC38B304EB8708303DC8F85A
:10051000185019E059F8041B204604EB870291613A
:10052000E1688847012F054618D1E069002820DAE4
:1005300026F020061DE0D8F8180000EB800005EB3F
:1005400040003038C8F818002046E1688847054662
:1005500006F074FC0028EED1012F0AD02E2D08D110
:100560002046E16888477F1C0546022F46F020069A
:10057000C4DBA069002803DA404246F00106A0610E
:10058000F00701D026F010066C2D0AD0682D08D097
:100590004C2D39D06A2D35D0742D35D07A2D33D0ED
:1005A00016E0E1682F4620468847B84205460AD142
:1005B0006C2F27D04FF48060E168064320468847BF
:1005C000054605E027E06C2F1AD04FF480700643F3
:1005D0000DB3A5F14100192802D8203546F4006674
:1005E0004A462946204626604E46FFF7C7FD80B1A1
:1005F00001280BD0F61D26F0070000F1080965E779
:100600004020E4E78020D7E70020D5E706F1040981
:100610005CE7284661E7206ABDE8F0872DE9F047EE
:1006200091460F4680460446002614F8015B2DB122
:1006300000F0F0F90068405DC007F6D12B2D02D024
:100640002D2D18D0641E4A463946204600F086FCFF
:1006500027B13968A14201D1C7F800804FF00204E8
:1006600071050BD54042002803DDFFF7E5FD04606E
:10067000A007BDE8F08746F48066E4E70028F8DAD2
:10068000FFF7DAFD04606FF00040F2E72DE9F05F5C
:1006900093460F46804604460026FFF7CDFDD0F86E
:1006A0000090824614F8015B2DB100F0B3F90068A8
:1006B000405DC007F6D12B2D02D02D2D1AD0641E1F
:1006C0000021CAF800105A463946204600F046FC80
:1006D000014627B13868A04201D1C7F80080DAF896
:1006E0000000022809D0CAF80090700505D54842DC
:1006F000BDE8F09F46F48066E2E70846F8E70000B0
:1007000010B5044603E006F0A0FB401C09D014F825
:10071000010B05490028F6D1BDE810400A2006F07B
:1007200094BB4FF0FF3010BD8C0F002070B5C46833
:10073000A50713D0650211D4B2F5807F09D0B2F5B8
:10074000007F06D0B2F5806F08D1012300F12401AB
:1007500006E05D1E6FF07F46B54201D3012070BDFB
:100760000161C361416024F470611143C1600020E4
:1007700070BD401ECAB210F8011F8A4202D0002983
:10078000F9D10020704730B503461D781DB10A46E7
:1007900003E0AC4201D1181A30BD12F8014B002C15
:1007A000F7D15B1CF1E730B503461D783DB10A4631
:1007B00012F8014B1CB1AC42FAD15B1CF5E7181AD8
:1007C00030BD2DE9F0410E460546002400E0641CD2
:1007D000285D00F027F90746305D00F023F9381A4C
:1007E00002D1295D0029F2D1BDE8F08110B5431C8A
:1007F00002E010F8011B71B18107FAD14FF001320C
:1008000002C88C1A8C4314EAC211F9D0C01A0A0625
:1008100003D0C01E10BDC01A10BD0A0401D0801E36
:1008200010BD0902FCD0401E10BD032A40F23080EA
:1008300010F0030C00F0158011F8013BBCF1020F21
:10084000624498BF11F801CB00F8013B38BF11F8A2
:10085000013BA2F1040298BF00F801CB38BF00F8B9
:10086000013B11F0030300F06584083AC0F00880F2
:1008700051F8043B083A51F804CBA0E80810F5E71A
:10088000121D5CBF51F8043B40F8043BAFF30080FD
:10089000D20724BF11F8013B11F801CB48BF11F872
:1008A000012B24BF00F8013B00F801CB48BF00F842
:1008B000012B7047431A28BF9A427FF6B6AF104407
:1008C0001144032A40F2268010F0030F1EBF11F8D6
:1008D000013D521E00F8013D10F0030F7FF4F6AF0A
:1008E00011F0030300F06B84083AC0F00B8051F85C
:1008F000043D083A51F804CD40F8043D40F804CDD9
:10090000FFF7F3BF121D5CBF51F8043D40F8043DF2
:10091000AFF30080D20724BF11F8013D11F801CDDB
:1009200048BF11F8012C24BF00F8013D00F801CDAB
:1009300048BF00F8012C70474FF0000200B5134685
:1009400094469646203922BFA0E80C50A0E80C50EF
:10095000B1F12001BFF4F7AF090728BFA0E80C50A0
:1009600048BF0CC05DF804EB890028BF40F8042B99
:1009700008BF704748BF20F8022B11F0804F18BF06
:1009800000F8012B7047000030B44FF0013C50F8E4
:10099000042B51F8043BCCFA52F4D51A20D1FCB9FF
:1009A00050F8042B51F8043BCCFA52F4D51A17D165
:1009B000B4B950F8042B51F8043BCCFA52F4D51AD0
:1009C0000ED16CB950F8042B51F8043BCCFA52F418
:1009D000D51A05D1002CDAD030BC4FF0000070479A
:1009E00029BAB1FA81F111F01801D1F12000844047
:1009F000F2D1CA40CB4012F0FF0213F0FF0330BC2B
:100A0000D01A704770477047704700000048704721
:100A10003410002010B500F0FDFB001D10BD00BF1C
:100A20004564000010B50446FFF7F4FF0068005D60
:100A3000C00602D504F1200010BD204610BD2DE9EE
:100A4000F0470D4699469246044600F12408016895
:100A5000880604D5E06921F01001216000E0012042
:100A6000A84201DD471B00E00027A1697A1902EBCB
:100A70000900081AA0612078C00602D42046FFF7BA
:100A800063FC002608E0D4E901211AF8060090472B
:100A9000206A401C761C20624E45F4DB2078C0069C
:100AA0000AD52046FFF750FC06E0D4E901213020AA
:100AB0009047206A401C2062381EA7F10107F4DC31
:100AC00007E0D4E9012118F805009047206A401C8E
:100AD0002062281EA5F10105F3DC2046FFF74AFC41
:100AE0002078000602D50220BDE8F0870120FBE750
:100AF0002DE9FF4F0C461E464FF0FF378BB0D2E971
:100B00000001DDF860800A908A46C1F30A5505B9F4
:100B10003D46002108464FF00000BAF1000F00F4F6
:100B2000400005DA00EB80004FF4400101EA50007C
:100B30004FEA9059B9F1010F00DDB9460A9850EA21
:100B40004A000ED044F61050A5F2FF3545432F144D
:100B5000B8F1000F1ED07542291E1EDDC9F100023A
:100B60001CE0B8F1010F4FF0000001D0302103E08C
:100B7000F24305E02154401CB042FBDB304600222A
:100B8000002121540B99C1F80880C1E900200FB061
:100B9000BDE8F08FBD1B6D1CDEE74A4600DA6942F6
:100BA00006A800F00DFC06AB93E8070003AB83E852
:100BB000070050460A9905F061FD8DE80700A0F591
:100BC00000501F3800900398002D0ADD42F21F01EB
:100BD0004A460844002303A90390684605F0CAFF6B
:100BE00009E0A0F500504A461F38002303A90390EE
:100BF000684605F0D4FF8DE807000004000C03D020
:100C00004FF0FF30410800E01046B8F1000F03D06C
:100C10000022009215461EE0751E05D400F025FB4B
:100C2000303262556D1EF9D5B3460122084302D019
:100C300000227F1C04E02078302801D100227F1E92
:100C4000002A099784D01DE0112D07DA00F00DFB72
:100C5000303262556D1C50EA0102F5D1084302D0D2
:100C60000098C8B10EE00021681E05E0235C625CBC
:100C700063542254401E491C8142F7DBAB46A81B3B
:100C8000401E0990002004F80B000B98099AC0F848
:100C90000880C0E9002B7AE711264FF0000857E7DB
:100CA0002DE9F04F88460446D21D22F0070191B08D
:100CB000D1E90001CDE90A0106F0A8F802460B9837
:100CC000C00F01D02D2007E02068810701D52B201F
:100CD00002E0202101EAC000032A099001D0072A7E
:100CE00005DB03464146204600F01CFB0BE1207863
:100CF000800601D5E06900E00620B8F1650F814665
:100D000006D0B8F1660F18D0B8F1670F70D131E096
:100D10000020B9F1110F009001DB112301E009F16E
:100D200001030AAA01A90CA8FFF7E2FEDDE90C7095
:100D3000002609F10105834647E001204B4600905B
:100D40004FF000470AAA01A90CA8FFF7D1FEDDE980
:100D50000DB00C995D46002610B909F101000D187F
:100D6000B9EB050003D4C0F1FF3609F10105A5EB8D
:100D700009002BE0B9F1010F01DA4FF00109002061
:100D8000B9F1110F0090484601DD112300E0034640
:100D90000AAA01A90CA8FFF7ABFEDDE90C704D46CD
:100DA00000268346207800070AD4AB4500DA5D466A
:100DB00001A8012D04DD411911F8011C302907D0CB
:100DC0004F4502DA17F1040F04DA012082460FE0E2
:100DD0006D1EEEE7002F02DCED1B3E4403E0781CA5
:100DE000A84200DD7D1CB81B00F1010A4FF000474E
:100DF0002078000703D4AA4501DB4FF0FF3A002119
:100E0000B7F1004F0DF143088DF8431024D00220B4
:100E10002B23002F01DA7F422D230A21021EA0F18D
:100E2000010000DC5FB197FBF1FC97FBF1F201FBE5
:100E30001C7C17460CF1300C08F801CDEEE7A8F148
:100E4000010003702188090501D5452100E06521D5
:100E5000A0F1010800F8011C09980FA9A1EB0807EF
:100E6000FF1D00B10120411901EBEA70A16938446E
:100E7000081A401EA0612078C00602D42046FFF761
:100E800063FA099828B1D4E901219047206A401CEF
:100E900020622078C00622D52046FFF755FA1EE0D2
:100EA000002E04DBB34502DD01A8805D00E03020A8
:100EB000D4E901219047206A401C2062761CAAF1E7
:100EC00001005FEA000A0AD100F0A4F9C0680168D5
:100ED000405CD4E901219047206A401C2062281E12
:100EE000A5F10105DCDC07E0D4E9012118F8010BCC
:100EF0009047206A401C2062381EA7F10107F3DCEE
:100F00002046FFF737FA032011B041E610B54369D8
:100F100013B1AFF3008001E0FFF73DFA012010BDEF
:100F2000127800F124010A7000224A700122EDE7D4
:100F300011684FF0FF32E9E7074B70B50D467B446F
:100F400000F0DDF90446284600F0ACFA10B14FF08D
:100F5000FF3070BD204670BD095F00002DE9F05FD5
:100F6000824615468B4600270AF10104B9460078EF
:100F7000302801D09DB113E014F8010B0127782827
:100F800003D0582801D045B10AE00DB1102D07D18A
:100F9000002714F8010B102502E0082500E00A25BF
:100FA0000026B0460EE005FB080005FB06F1012710
:100FB0001FFA80F801EB1046B6F5803F00D3B94622
:100FC00014F8010B294600F0EDF90028EBDABBF12B
:100FD000000F05D00FB1641E00E05446CBF800406E
:100FE000B9F1000F06D0FFF727F902210160C81EF2
:100FF000BDE8F09F48EA0640FAE7000010B5424815
:101000005421FFF799FC41485421FFF795FC4048D3
:101010005421FFF791FC3F493B483C4A3F4B086055
:101020003D490A603A491960531C0365481C106524
:10103000012008653B48344A39A1784400F022FB7E
:1010400020B9384878440A3800F0BAFB37482F4AAC
:1010500035A1784400F016FB20B9344878440A38AA
:1010600000F0AEFB32482A4A2FA1784400F00AFB78
:1010700020B92F4878440A3800F0A2FB40232248C8
:10108000DC0000212246FFF751FB20B125487844BF
:10109000543800F095FB1D48224640230021FFF7FD
:1010A00045FB20B121487844543800F089FB1848AA
:1010B000224610230021FFF739FB002806D01C48E8
:1010C0007844BDE81040563800F07ABB10BD104897
:1010D00070B5006D20F001040B4800F04BFB0B488D
:1010E00000F048FB0A4800F045FB09E0206D20F0C5
:1010F0000105204600F03EFB204600F08FF82C460C
:10110000002CF3D170BD0000380F00208C0F0020A0
:10111000E00F002000000020040000200800002054
:10112000720000004E600000770000003D6000008B
:101130001660000010B5203AC0F00B80B1E81850DE
:10114000A0E81850B1E81850A0E81850203ABFF4B1
:10115000F5AF5FEA027C24BFB1E81850A0E8185050
:1011600044BF18C918C0BDE810405FEA827C24BFA4
:1011700051F8043B40F8043B08BF7047D20728BF32
:1011800031F8023B48BF11F8012B28BF20F8023B81
:1011900048BF00F8012B7047431A28BF9A427FF6D8
:1011A000C9AF1044114410F0030F1EBF11F8013DE8
:1011B000521E00F8013D10F0030F7FF4F6AF103A15
:1011C000C0F00A8010B531E9185020E91850103AE3
:1011D000BFF4F9AFBDE81040530724BF31E9081050
:1011E00020E9081044BF51F8043D40F8043D12F0D6
:1011F000030F08BF7047D20728BF31F8023D48BF30
:1012000011F8012C28BF20F8023D48BF00F8012C3E
:1012100070470000004870475410002070B5044625
:10122000051F00F0F9FA0068002C14BF446870BD77
:10123000002C18BFAC423CBF20466468F8D301685C
:101240000A18AA4218BF456003D12A68054611440E
:10125000016028684119A1421CBF6C6070BD6168C3
:10126000696021680844286070BD30B5B0F10A0299
:1012700071F100034FEA900E4EEA817EB0EB0E0052
:1012800061EB91014FEA101E4EEA017E10EB0E0059
:1012900041EB11114FEA102E4EEA016E10EB0E00D9
:1012A00041EB11214FEA104E4EEA014E10EB0E00B9
:1012B00041EB1141401841F100014FEAD00040EAF2
:1012C00041704FEAD1014FEA810444EA907410EB77
:1012D000800544EB01046D1944EB0404521BA34147
:1012E0004FF0000348BF0A3200D530BD401C41F129
:1012F000000130BD01694A1C02610878704700B5E1
:101300008FB0CDE901310021059105497944CDE93E
:10131000031011466846FFF7D1F80FB000BD00007A
:10132000E5FFFFFF2DE9F0411F4604460326016853
:10133000072A01F4006004DB08B116A505E016A534
:1013400003E008B115A500E015A521F0100020600C
:10135000A069C01EA0610FB1401EA0612046FEF72B
:10136000F3FF4FB1D4E9012138469047206A401C71
:101370002062C01C206206E0206AFAE7D4E901215D
:1013800015F8010B9047761EF8D22046FEF7F2FFC3
:10139000BDE8F0814E414E006E616E00494E460040
:1013A000696E66003A2800D2303820F02002412AC7
:1013B00001D3A2F13700884201D34FF0FF307047CC
:1013C0002DE9F047814616468AB0354878440DC865
:1013D0008DE80D0032487844801C03AC0DC884E8C9
:1013E0000D0041F69B300844372190FBF1F290FB51
:1013F000F1F5A5F1800501FB12041B3C02D5644206
:10140000012000E00020DFF898A080460027FA4481
:10141000AAF1BE0A0EE0E0070AD03246684607EBA2
:10142000470101230AEB810105F0B9FB8DE80700B4
:1014300064107F1C002CEED1194F7F44AE3F19E0A1
:10144000E80715D007EB04100DF1180A90E80E001C
:101450008AE80E00C068F04201D19819089032461F
:10146000012306A903A805F09AFB03AB83E8070054
:101470006D10641C002DE3D14FF001033246694624
:10148000B8F1000F03A802D005F074FB01E005F0ED
:1014900086FBC9E90001C9F808200AB0BDE8F08759
:1014A0009C5C0000007B00F0800070472DE9F04755
:1014B00005460C46C86820F4201040F48000C8603F
:1014C000800602D5084600F0F4FAE06841F2820195
:1014D0004FF0FF390140022903D0204600F092FA74
:1014E000B5E000F42041B1F5004F0FD1C00306D59F
:1014F0006168E06A884200D80846606006E02069BA
:10150000E0626060606903F032FCA061A0680022C4
:10151000EEB200280DDAE1688B050AD4C043A06062
:1015200041F490302260E0606068411C61600670A8
:10153000A5E0E0689046226040F40050E060206939
:1015400068BB606903F015FC012704F12405A0B114
:10155000A08910F4407F08D0E06900F0A8F920616C
:1015600018B1E06840F4006016E0E7612561E068CA
:1015700020F4407040F480600EE0E06900F097F9DC
:1015800000282061F1D0E06840F4006010F4407F52
:10159000E06002D140F48070E06020696060E06843
:1015A00025696FF0010AC1051FD56168E06A8842AC
:1015B00000D80846411B04D02246284600F02CFAE9
:1015C000F0BBE068010203D5E562C4E9015854E0CC
:1015D000691CE1626160E16940F48030491EC4E940
:1015E000021030462E70BDE8F087010202D500F4EB
:1015F00080320AE06068411C61600670E0680A2E73
:1016000040F48030E06006D00022E16A60688142E8
:1016100003D90B4602E00122F7E70346A7895B1BCB
:101620007F0503D4E7699F4200DDE2B1814200D823
:101630000146E5620F1AC4E90158002B09DD00E0FC
:1016400005E022461946284600F0E6F908B148466A
:10165000C9E747B1A069E5626560C01BA061E068A9
:1016600040F01000E060E068000208D56168A06901
:10167000E562491B08446560A0615046B3E7304607
:10168000B1E700002DE9F0410C461646070047D0AF
:10169000104600F06FF82078611C61280AD072288B
:1016A00002D077283CD102E00125002405E0022584
:1016B000042402E0082448F2020511F8010B2B284B
:1016C00006D0622809D011F8010C74280AD00BE06A
:1016D00045F0030544F00204EFE745F0040544F04B
:1016E0000104EAE744F010043846214603F049FBC0
:1016F000411C15D00021316171604FF40071F5601B
:10170000F1617061200704D530460222002100F00B
:10171000FDF8306D40F0010030653046BDE8F081E5
:101720000020FBE72DE9F0410D460646104C206DE8
:10173000C10704D0410804D020F00104F7E7224695
:101740000EE0542000F0B3F807000ED0206D47F0F3
:1017500001010843542120653846FFF7EDF83A4669
:1017600029463046BDE8F0418CE70020D6E700006E
:10177000380F00202DE9F04704464FF000094FF0E4
:10178000FF37C568D4E90486A80707D0204600F0D3
:101790006DF9304603F0E2FA002802DA3846BDE877
:1017A000F087280502D54046FFF738FD4C2120463A
:1017B000FFF7C2F8206D20F0010020654846EEE7F3
:1017C00010B500F0A5F9BDE8104000F09CB97546D1
:1017D000FFF71CF9AE4605006946534620F00700A6
:1017E000854618B020B5FEF715FDBDE820404FF046
:1017F00000064FF000074FF000084FF0000BAC461A
:10180000ACE8C009ACE8C009ACE8C009ACE8C00964
:1018100021F007018D467047004870473C100020BA
:10182000704770477047704738B504460A46002035
:101830006946AFF30080002808BF38BD0246009912
:10184000204600F08CF9012038BD012000F0DBB902
:10185000F8B5AFF30080054600200C46102000BF0D
:101860000646A819A0420DD9324669460020AFF3BA
:101870000080070008BF00F0C6F90098A04218BF1A
:101880000546C419FFF7C8FF05600746F01D20F0A4
:1018900007004619284600F05BF9B44208BFF8BDBE
:1018A000A21B31463868BDE8F84000F058B970B561
:1018B0000646FFF7B1FF056806F10B0020F00704AC
:1018C000B4429CBF002070BD2B466A68BAB1106854
:1018D000A04210D304F1080188423CBF5068586010
:1018E00007D35168101941601168091B01605860E5
:1018F0001460101D70BD13465268002AE7D12146BE
:101900002846FFF791FF0028DED170BD2DE9F04198
:10191000044616460D464769007B80072ED03846A0
:1019200003F027FA50BB3EB3012E02D0022E25D180
:1019300004E0204600F02DF905441DE0384603F090
:1019400016FAE168002841F01001E16005DA20464E
:1019500000F058F80120BDE8F081C9030BD562689A
:10196000E16A914200D81146A26911442269891A9C
:10197000814200DD08460544002D01DA0220EAE735
:10198000E16A6068E268814206D29103E06203D5B1
:1019900022F4003141F01002A6690027AE4213DCA8
:1019A000E16A814201D90B4600E0034603EB060CD5
:1019B0002369ACEB030CAC4506DD814201D98C46B2
:1019C00000E084469C4505D1A760276042F02000D6
:1019D000A5620DE0AD1BE669AE1B8142A66000D991
:1019E0000846C01A281A20605819606022F02000AA
:1019F00003490840E060002084F84870ABE700002D
:101A0000BFCFD7FFC16821F4001141F08001C16050
:101A100000218160016070472DE9F047814614463E
:101A20000E464FF0FF383248D5685769054209D055
:101A30003846A16903F0D3F9002811DB2C48C043D4
:101A40000540E5602B4632464946384603F0CAF960
:101A5000A16920F00042B21A11440028A16103D00C
:101A60002046FFF7CFFF4046BDE8F08770B504463B
:101A70000569C06A6168884200D80846E16821F4B7
:101A80002011E160C90312D5A84208D02246411BAB
:101A90002846FFF7C1FF10B14FF0FF3070BD0020A6
:101AA000E562C4E90150E06820F48030E060002085
:101AB00070BD10B50446C06820F02000E060A16A47
:101AC000A06988420DD02046FFF7D0FFE06820F4DF
:101AD000405040F01000E060A06AA0612069E06220
:101AE000606044F24001E0688843E06010BD00009F
:101AF0001000020010B50446AFF300802046BDE898
:101B00001040FEF773BB002801D000F01BB87047EF
:101B100010B5014602A000F05DF8012010BD0000E4
:101B200053494752545245443A205265646972659C
:101B300063743A2063616E2774206F70656E3A207B
:101B40000000000001491820ABBEFEE7260002009D
:101B500000210160C0E90110704710207047034662
:101B600040688C46002818BF88423CBF0346406846
:101B7000F8D318681844884207D00CF1030020F00D
:101B80000700001D411A521A0146081D0A60FFF79E
:101B900045BB10B50146C268900703D0900607D533
:101BA000886A0AE0FEF748FB01210160881E10BD2B
:101BB0008B69486818440B69C01A91F848301BB10A
:101BC00091F84910401A10BD1103FCD50028FADD28
:101BD000401E10BD70B505460C460A2000E06D1C85
:101BE00000F018F835B128780028F8D102E0641C1C
:101BF00000F010F814B120780028F8D1BDE870404A
:101C00000A2000F007B810B500F00CF8BDE810404D
:101C1000FFF779BF08B569468DF800000320ABBE19
:101C200008BD704710B5012805D0002103A0FFF7BB
:101C3000D1FF012010BD09A1F8E700005349475228
:101C4000544D454D3A204F7574206F66206865618C
:101C500070206D656D6F7279000000003A20486554
:101C60006170206D656D6F727920636F727275702F
:101C7000746564002DE9F04142F20004C4F20004EE
:101C8000A16C41F62000C2F2000040F20C05016098
:101C9000C2F20005297804294ED8DFE811F00500CA
:101CA0006A00BF00EE001D0141F2A10CC2F2000C5F
:101CB0009CF800201AB3006841F23411A0F50062CC
:101CC00041F29400C2F200000368C2F2000141F840
:101CD0002320591C41F2A2020160C2F200021288C4
:101CE00091420CD10021016041F2B4608CF80010E7
:101CF000C2F20000007810B194A0FEF701FD4EF290
:101D00000016CEF200064FF48047C6F8807040F609
:101D10000F61BFF34F8FC2F200010020BFF36F8F3E
:101D200088704FF6F3708880204600F082F9012019
:101D300028703760BDE8F0814EF20016CEF2000642
:101D40004FF48047C6F8807040F60F61BFF34F8FA5
:101D5000C2F200010020BFF36F8F88704FF6F3705E
:101D60008880204600F065F9012028703760BDE8C2
:101D7000F08148F2B011C0F6E0710A68CB6EC2F390
:101D800007429FED6F0A40F22001FF2AC2F20001D4
:101D900025D0C3F30B1340F6FF77BB421FD090ED65
:101DA000001A00EE103AB8EE400AB8EEC11A9FEDE4
:101DB000652A30EE410A20EE020A81ED000A91ED1B
:101DC000000A9FED611A80EE010A81ED000A00EE23
:101DD000102A91ED001AB8EE400A30EE410A4EF298
:101DE0000016CEF200064FF4804781ED000AC6F8D7
:101DF000807040F60F61BFF34F8FC2F200010320E5
:101E0000BFF36F8F88704FF6E0708880204600F037
:101E100010F9022028703760BDE8F08190ED000ACB
:101E20009FED451AB8EEC00A9FED442A20EE010A44
:101E300041F22C104EF2001820EE020AC2F200000D
:101E4000CEF200084FF4804780ED000AC8F8807099
:101E500040F60F61BFF34F8FC2F200014FF6E27000
:101E6000BFF36F8F0326888020468E7000F0E1F864
:101E70002E70C8F80070BDE8F08190ED000A9FED6B
:101E80002E1AB8EEC00A9FED2D2A20EE010A41F26B
:101E900098004EF2001620EE020AC2F20000CEF2C6
:101EA00000064FF4804780ED000AC6F8807040F6C7
:101EB0000F61BFF34F8FC2F200010020BFF36F8F9D
:101EC00088704FF6F3708880204600F0B2F8012049
:101ED00028703760BDE8F08190ED000A9FED161A7A
:101EE000B8EEC00A9FED152A20EE010A41F230102B
:101EF0004EF2001620EE020AC2F20000CEF20006F8
:101F00004FF4804780ED000AC6F8807040F60F61FC
:101F1000BFF34F8FC2F200010220BFF36F8F8870B2
:101F20004FF689708880204600F083F800202870E2
:101F30003760BDE8F08100BF00409C45000080395B
:101F4000339388C300409C4448E1EAC5504952207D
:101F500073616D706C696E6720646F6E652E0D0025
:101F6000F0B581B0CF780D4604466FB12068000609
:101F700028D444F24016C0F20506304600F0C4FAF8
:101F8000304600F0C1FA1DE044F24010C0F20500F6
:101F900000F0BAFA42F2FF31C0F2F4010844013114
:101FA000884201D200270DE04DF68361C4F21B3157
:101FB000A0FB01014FF0FF3000EB91507F2828BFBC
:101FC0007F20C7B20A20A06028784FF4FE466978C7
:101FD000AA7806EA072747EA00602B7902F07F0219
:101FE000084440EA0240002B18BF40F01000206077
:101FF00068794FF08061C02262504FF0C06160503C
:102000002068000610D5B820C0F2320000F07CFA3B
:1020100042F20000C4F20000844205D148F20020E0
:10202000C0F2040000F070FA4FF40060206401B0C8
:10203000F0BDB0B504460220A0600D468978204668
:10204000002200F05FF895F804E095F801C04FEA2F
:102050000E236979EA7843EA0C6343EA0141EB799C
:1020600041EAC2012A7A002BA87818BF41F000513A
:10207000002AAA7918BF0431002A18BF41F00201D2
:102080006A7ABEF1F30F42EA010207D1BCF1030FF5
:1020900004D818B9042060F31B620020AEF1F301EC
:1020A000B1FA81F14FEA511CE02110F0800308BF22
:1020B00041011143216161694BF6F872CFF6E1727B
:1020C000114000F07F00002B18BF01432878EB7A05
:1020D00041EA4040AA7A002B18BF00F58040082151
:1020E00060616001C4F200210A504FF4C06000EB4F
:1020F00044100844C0F838C0E06FD4F88000E068AD
:10210000B0BD000010B548F2000E42F20003CFF659
:10211000FF7E002AC4F200031EBF4FF6FF7EC8F206
:10212000000E1022D0F834C0984218BF10BD0CEA3F
:102130000E0C06294FF0000E17D8DFE801F0042737
:1021400018355555490048F2102EC0F6E07EDEF8ED
:102150000030DEF8001003F4FE44DEF8003001F039
:102160000F01214403F0F0033CE081293CD148F207
:102170001021C0F6E0714B684C68496803F4FE43D7
:1021800004F00F04234401F0F0011EE048F2102196
:10219000C0F6E0710B680C684FF4FE4E0EEA134374
:1021A000C4F3034409680CE048F21021C0F6E07162
:1021B0004B684C684FF4FE4E0EEA1343C4F30344DD
:1021C00049682344F02404EA114103EB010E0BE0BB
:1021D00048F21021C0F6E0718B68896803F00F03A4
:1021E00001F0F00101EB030E0EFA02F141EA0C01DD
:1021F000416310BD10B50446B0F5FA4F42F20040FD
:10220000C0F2F40098BF4FF4FA44844228BF044659
:1022100031B944F24010C0F2050000F075F90146F2
:1022200060180138844201D9002005E0B0FBF4F0C9
:1022300001387F2828BF7F20C0B210BD10B50A2109
:1022400081604FF60071C0F2FF01016100214FF47F
:10225000F81241618161C161026040F60072C0F212
:1022600003324164026401630162416243F6E41196
:102270008162D0F88C1042F2000241F00101C0F8F6
:102280008C10D0F89010C4F2000241F00101C0F8A7
:102290009010416B904201D0406B10BD48F210236A
:1022A000C0F6E0731A6847F6FF7C21EA0C0C02F4D2
:1022B000FE4E19681A6801F00F0102F0F0040EEBEF
:1022C0000C02114421444163416B1A681C681B686D
:1022D00002F4FE4204F00F04224403F0F0036FF313
:1022E0001E411A4441EA0241416310BD58B980B50C
:1022F00044F24010C0F2050000F006F9002808BFC3
:102300000120BDE8804044F23F21C0F20F010844A3
:102310004DF68361C4F21B31A0FB01014FF0FF3089
:1023200000EB9140C0B270477047704740F2240004
:10233000C2F200000068704742F2FF32C0F2F402BD
:1023400040F6001C00219042C0F23D0C19DC40F622
:10235000FF03C0F23D03984231DD60453BD04CF6AF
:10236000C073C0F26A03984259D045F64053C0F298
:10237000C603984202BF48F29021C0F6E071896915
:1023800058E04BF67F23C0F28C13984229DD4BF6C0
:102390008023C0F28C13984235D044F60003C0F27B
:1023A000E813984241D04DF28053C0F24323984243
:1023B00002BF48F29021C0F6E071096B3AE044F2A6
:1023C0004023C0F20F03984205D048F28043C0F288
:1023D0001E0398422ED148F29021C0F6E0710968A0
:1023E00028E042F20043C0F2F403984211D04EF6C6
:1023F000C023C0F22113984202BF48F29021C0F6D8
:10240000E071096A16E048F29021C0F6E071896A2D
:1024100010E048F29021C0F6E071C9690AE048F284
:102420009021C0F6E071C96804E048F29021C0F63E
:10243000E071C96A40F22403C2F20003186042F658
:102440006403C4F2C83300BF1A68002AFCD1604597
:102450000FD048F28042C0F21E0290420CD044F2EB
:102460004022C0F20F02904204BF022060F35A6182
:1024700005E021F0C06102E0012060F35A6144F2FE
:102480001800C4F20E00016070470000B0B5C0F340
:102490000322541E092C88BFB0BD44F2B002C4F21E
:1024A0000E02A2F1B00E02F1300C0123DFE804F0BD
:1024B00022052A080B150D2A112002F1100E19E031
:1024C00002F1180E16E0964614E002F1380C1023C3
:1024D00003E002F1400C4FF48033D2F89450ED0742
:1024E00004D100BFD2F890501D42FBD1E64601E076
:1024F00002F1A00E7C2303EA90204FEA4E1200F175
:1025000084408150B0BD0000B0B5C0F344410446E2
:102510001F294FF0000088BFB0BDDFE801F01014A4
:102520001D919110283682913E4A915891676B9186
:102530006F91919191919176919191919188BDE84E
:10254000B04002F08DB902F08BF944F27001C4F290
:102550000E01D1F8981007E002F082F944F2700100
:10256000C4F20E01D1F89C10C1F3082109E002F079
:1025700077F944F27001C4F20E01D1F8A410C1F34E
:1025800004210131B0FBF1F0B0BD44F27000C4F29F
:102590000E000068C00744D0D1E70520C0F2240037
:1025A00003F046FE44F27001C4F20E01D1F8C010EF
:1025B0000AE00220C0F21E0003F03AFE44F270016D
:1025C000C4F20E01D1F8B01001F00F010CE00320AD
:1025D000C0F2200003F02CFE44F27001C4F20E01A0
:1025E000D1F8B81001F00301C840B0BD0220C0F21C
:1025F0001E0006E00320C0F2200002E00520C0F229
:102600002400BDE8B04003F013BE44F27004C4F2ED
:102610000E04D4F8EC00C0F30110DFE800F0110262
:10262000121640F22400C2F200000068B0BD02F0B1
:1026300017F90546204600F011F80130B5FBF0F01F
:10264000B0BDBDE8B04002F030B902F009F9D4F8ED
:102650009010C1F3042101314843B0BD0146C0F3DD
:102660000310421E092A4FF0000088BF7047DFE8C0
:1026700002F005480B5045455617253844F2001026
:10268000C4F20E00006841E044F20010C4F20E00F3
:1026900000680221C0F3006001FA00F001387047C1
:1026A00040F28060C0F21600814228D144F200104E
:1026B000C4F20E00006A00F00F000CE040F29070CF
:1026C000C0F21A0081421AD144F20010C4F20E0086
:1026D000806A00F003004FF0FF3101FA00F0C043C0
:1026E000704740F6A010C0F21400814207D144F2B6
:1026F0000010C4F20E00006B00F00F0070470020C5
:10270000704744F20010C4F20E004069C0F3042088
:10271000704744F20010C4F20E00C06804E044F2B6
:102720000010C4F20E008068C0F30820704700005B
:1027300000F00F00411E07294FF0000088BF7047CE
:10274000DFE801F0042614132C3E134944F2700014
:10275000C4F20E00406A00F00700023803283EBFB2
:10276000C0F10400C0B270470520704744F2700009
:10277000C4F20E00406900F00700013804281DD2A1
:1027800040F20321C0F60121C00001F5A0212FE095
:1027900044F27000C4F20E00006904E044F27000DC
:1027A000C4F20E00806900F007000138042805D249
:1027B00040F20321C000C0F6012119E0012070475A
:1027C00044F27000C4F20E000068C0074FF0090028
:1027D00008BF0720704744F27000C4F20E00D0F822
:1027E000EC00182101EA500040F20171C0F604012A
:1027F00021FA00F0C0B270472DE9F04100F00F005F
:102800000138072800F21D8144F26005C4F20E056C
:1028100005F128020024DFE810F008003000330042
:10282000140132005400140119000239032900F286
:10283000088140F24008C4F2C83804240020DFE8D0
:1028400001F0A0028A96032401209AE001390729A9
:1028500088BFBDE8F0810020DFE811F0EC00F30054
:10286000F3000800F300F300DC00EB00022001217C
:10287000012200F0E9F82020DCE005F120021446F6
:10288000002CA1F1010108BF05F12404092900F27F
:10289000D8800020DFE801F058051CD5D52BD5D510
:1028A000D55741F21020C4F2C8304FF4807129602E
:1028B00001690029FCD000BF41690029FCD0022039
:1028C00042E0092943D0072940F0BB8000203FE0C7
:1028D00041F21020C4F2C8304021296081680029EB
:1028E000FCD000BFC1680029FCD001202CE001F021
:1028F000B7FF44F60101C0F2E81149F201030022DA
:102900008842C0F2D03328BF0122984240F24003EF
:10291000C4F2C8331A604FF00077D5F8A02038BF52
:102920004FF08077884241F2102022F08072C4F28A
:10293000C8304FF0010128BF3A43C5F8A020C0F8C5
:10294000F013032000E004202060BDE8F0810120A6
:102950002861BDE8F0810120C8F80000D5F8A0008A
:10296000022440F08070C5F8A000022009E0012494
:10297000C8F80040D5F8A00040F08070C5F8A0006D
:102980000320042701210122C4F20E0700F05CF8A5
:1029900003F09EF96C6101F050FF044601F060FF06
:1029A00044F60102C0F2E8120023904228BF01233E
:1029B000C8F8003049F20106D5F8A030C0F2D03690
:1029C0004FF00071B04238BF4FF0807123F0807338
:1029D000904228BF0B43C5F8A03041F67131F86B27
:1029E000F963396848F2BF71CFF682613A684EF2F6
:1029F000C0132144C0F2E40322F0407299424FF028
:102A0000000C38BF02F180723A60D0B1C7F83CC008
:102A1000BDE8F08141F21020C4F2C83010212960D5
:102A200001680029FCD000BF41680029FCD01020BB
:102A300000E03020D5F8FC1021F030010843C5F843
:102A4000FC00BDE8F081000070B5042800F2B580FC
:102A500044F22403C4F20E0302264FF0010C0024BA
:102A60004FF0010EDFE800F0030B12221C004FF4C0
:102A700000764FF4807E4FF0090C082416E0802683
:102A80004FF0400E4FF0070C06240FE04FF0030C00
:102A900000294FF0020400F080804FF0040E09E09E
:102AA00020264FF0100E4FF0050C0424002975D09D
:102AB000022806D1186810F0300F05D0012500213A
:102AC0000CE00121012509E01868C00704D018684E
:102AD000012161F3051018600021002541F200205A
:102AE000C4F2C830C3F83CE050F82460002EFBD09C
:102AF000002A62D050F82C20002AFBD0294318BFAE
:102B000070BD1968C90709D1196800BFD96E01F4F1
:102B10004001B1F5400FF9D1D96F14E04FF4806155
:102B2000C3F88410202119641A684FF4000112F0D0
:102B3000300F08BF4FF44001DA6E0A408A42FBD1E1
:102B4000490248BFD96F996F0822DA63DA6E5207DB
:102B5000FCD40A466FF3DF22DC6E2407FCD4DC6E63
:102B60001C68012565F30514C1F3C3111C600C2911
:102B700028BF0C2142EA0171DA684FF60004C0F662
:102B8000FF742240114401F14051D960C3F83CE088
:102B900050F82C100029FBD00FE008260120A0409F
:102BA000DE6300BFD96E0142FCD132B1012000FAD0
:102BB0000CF000BFD96E0142FCD170BD70B582B07F
:102BC00043F23805C4F20E0502212960296801F09C
:102BD0000F01022940F0B180044648F23800C0F6E7
:102BE000E070D0F8E412013111D041680268116040
:102BF000C16882681160416902691160C1698269B6
:102C00001160416A026A1160C16A806A0160E188EC
:102C10004B2901D200200DE0B1F5FA7F02D24FF02E
:102C2000805007E040F6C4124FF04050914238BF48
:102C30004FF0005069694FF6FE72CCF6FF721140FA
:102C4000A2894FF6FF735A40084340EAD2306861C8
:102C5000A08841F24C61C2F200010880696B40F625
:102C6000801641F08071C4F2C636696331683268FB
:102C7000AA6B002922F0070218BF0432AA6300F0F1
:102C8000A1F8A86A20F0C040A862686940F0060078
:102C9000686101A801F0B7FD9DF8050001281BD16E
:102CA0009DF80400022817D841F25660C2F20000D5
:102CB000017889B9E96840F6007241F00101E960E4
:102CC000A96ACFF20E0211404CF2B402C0F64032B3
:102CD0001143A96201210170208941F24E62C2F2C2
:102CE0000002A189108041F25462A088C2F2000261
:102CF000118000F067F8A07B30B1012809D142F2C1
:102D00003710CBF2107003E044F27700C5F2207068
:102D1000286260880121012200F088F868B1A17A58
:102D200060784FF61462CFF6FF72002918BF0121B8
:102D3000B15000F005F8012000E0002002B070BDA5
:102D400080B543F23401C4F20E01D1F800E04AF636
:102D5000E8530B604B6CDB07FCD1CB6840F6B42C1E
:102D600013F00303C4F2C63C1CBF0122CCF80020C0
:102D7000834206D1002818BF80BD0020CCF8000097
:102D800080BD012808BF002B06D141F25662C2F275
:102D900000020223137000BF4A6CD207FCD1CA683C
:102DA00022F003020243CA604A6CD207FCD1002819
:102DB00018BF0120BEF1010FCCF8000004BF0020B5
:102DC000086080BD43F24C01C4F20E014A6A0B68F0
:102DD00002F00702022A05D313F0010302D01428DF
:102DE00008D311E00B68012A06D813F0010303D1C0
:102DF0000A280CD203220EE00B68012A4FF0FF32A2
:102E000009D813F0010306D00F22282801E00F2271
:102E1000142838BF07220B68100240EA023023F45E
:102E20007F421043086002F0D5BE00002DE9F04F4C
:102E3000A0F5E163B3F5966F4FF0000300F2C18097
:102E400048F2183E4FF6F804C0F6E07E4FF4167ACA
:102E5000CFF6FF74B0F5E16F88BF012388BF4FF450
:102E6000966A04F5167BDEF8004043F24C0CC4F27F
:102E70000E0C2546B0F5E16F84BF4FF6F80BCFF688
:102E8000FF7B88BF250CDCF80070C4F307264FEAEF
:102E90001778B0F5E16F88BF260E43EA082340F2A9
:102EA00001341C40B4F5007FEBB205DAFF2C0CDCDA
:102EB000BCB9DEF8044019E0B4F5407F0BDAB4F594
:102EC000007F11D1DEF8084010E0B4F5807F10D10A
:102ED000DEF804400FE00CBFDEF80840DEF81040DA
:102EE00009E0DEF80C4001E0DEF81040C4F30729E9
:102EF00004E0DEF80C404FEA1469240C0BEB0005EB
:102F0000F71A6F43B7FBFAF71F44B7424FF00003BD
:102F100057D8E6B2A9EB06067543B5FBFAF555FAA4
:102F200084F54D454DD862B1DCF8102047F60273A8
:102F30009A433B02B0F5E16F88BF02331A43CCF8E5
:102F4000102000293AD04FF6E861CFF6FF715EF805
:102F50000110C9B2032905D8DEF81410B0F5E16FED
:102F60000AD807E0DEF8181008F00302DFE802F0E4
:102F70000204070AC9B206E0C1F3072103E0C1F366
:102F8000074100E0090E0F291AD8DCF82020E72DB0
:102F900022F4704242EA0131CCF8201028BFE72524
:102FA000DCF8181040F2FF1291436A00B0F5E16FAF
:102FB00088BF013242EA0100CCF81800012300E08A
:102FC00000231846BDE8F08F01F0C4BC43F2641141
:102FD000C4F20E010346CA6A002818BF0123012A61
:102FE0004FEAC32C04BF4AF6E853CB620B680228B1
:102FF00023F0740318BF74330B60886B012A40F010
:103000000800886344F23C00C4F20E00036823F415
:10301000406343EA0C030360886B20F00800886378
:1030200004BF0020C862704770477047012101F05B
:10303000B3BA10B541F29C04EFF3108072B6C2F23D
:1030400000042068013018BF2060032000F0A9FCB4
:1030500010B900F06DFD38B1206818B1013820605A
:1030600000D162B6012010BD00F00EF844F2080055
:10307000C4F2080001210160206818B10138206005
:1030800000D162B6002010BD10B50424C4F20804BB
:103090002068400703D100F048FF0138606140F626
:1030A000FC60C2F20010016821F02001016010BD37
:1030B00010B544F20C04C4F2080450B12068C007F3
:1030C00008BF10BD44F20000C4F208400121C160F5
:1030D00010BD00F01BF840F6FC60C2F20010016861
:1030E000012241F02001016044F20000C4F20840D6
:1030F000FF2101602421C4F208010A60216841F027
:10310000200121600221C0F8881010BD70B544F282
:103110008804C4F2080420682068C0070BD044F279
:103120008805C4F20845022602202E6000F042FC09
:103130002068C007F8D144F28800C4F20860022178
:10314000016070BD20B118210138C4F20801086087
:1031500040F6FC60C2F20010016821F0200101601D
:1031600044F20000C4F2086002210160704770B5AB
:103170004AF2000CC4F2000C82B100EB400E0CEBE2
:103180000E1E4FF0C0650EF10C0E0124002B08BF7F
:103190004FF080658C4045EA0E052C6007290FD85A
:1031A00000EB40050CEB0515D5F804E08C000F266C
:1031B000A6402EEA060602FA04F426436E6011E0E9
:1031C00000EB40060CEB06166FF01F04D6F808E083
:1031D00004EB81040F25A5402EEA050502FA04F44C
:1031E0002543B56002B170BD00EB40000CEB001050
:1031F00001220C3002FA01F14FF0C062002B08BF2F
:103200004FF080621043016070BD46F22800C4F2A6
:1032100004000121016042F20800C4F200000160D4
:103220007047012902D019B9103000E01430026053
:1032300070470000B0B591F800C0BCF1000F08D194
:103240008268D20705D000BF426B9207FCD40222ED
:1032500042604B788A78D1F80CE04FEA03333AB1F8
:10326000BEF1000F43F4007318BFC0F810E006E091
:10327000BEF1000F03D043F40073C0F810E0CA7829
:1032800091F804E04C798D79002A18BF43F48073DB
:10329000BEF1000F18BF43F04003002C18BF43F0ED
:1032A000800343EA8502CB79097A42EA031211438B
:1032B000BCF1000F016008D08168C90718BFB0BD1C
:1032C000416B8907FCD401214160B0BD012902D0C6
:1032D00019B9183000E01C300260704770470000D8
:1032E0000821C4F20E0141F671338A6B8B630B68BF
:1032F00043F001030B608860012048604869400783
:1033000090B219D402224A6046F67F12CFF6677255
:103310004B69013218BF13F00103F9D14B699B07C8
:1033200013D40B6823F001030B60BAB100284FF0EF
:10333000000018BF886315E00A6822F001020A60E5
:1033400008B100208863FF200CE00A6822F0010227
:103350000A6008B100208863FE2003E008B1002065
:103360008863FD2040B27047B0B501B30C2346F628
:103370007F1E0022C4F20E034FF0080CCFF6677ECA
:103380008A4214D00468DC607446C3F800C000BFF1
:103390001D69013418BF15F00105F9D14CB11C6944
:1033A0000132A40700F10400EAD5FE2002E000206B
:1033B00000E0FD2040B2B0BDAFF300802DE9F04F3A
:1033C00083B00824C4F20E0441F67133A76BA363E3
:1033D0002368824643F0010020600020B0EB920F8A
:1033E000BDB233D046F67F1902954FEA920B002505
:1033F000CFF667794FF001080E460191484600BFAD
:103400006169013018BF11F00101F9D1D8B30AEB9D
:103410008500A060C4F804806169490735D46FF362
:10342000DF20C0F50060ABEB0507B7EB900F28BFBE
:10343000870830463946FFF797FF28B93D44AB452A
:1034400006EB8706DAD80020DDE90115DAF800304E
:103450000A68934221D046F67F10CFF6677000BF0E
:103460006269013018BF12F00102F9D190B1012058
:10347000C4F808A06060606940070DD408460121C7
:10348000FFF772FF09E0FD2000E0FF20029A2168AB
:10349000002A04E0FD2000E0FF202168002D21F03B
:1034A000010121601CBF0021A16340B203B0BDE84F
:1034B000F08F01F0070261F3081240F6C471C2F206
:1034C00000110A6000F0070260F308124A607047BA
:1034D00080B500F06FF941F28860C2F200004068E8
:1034E00080BD80B540F6C07CC2F2001CDCF8003024
:1034F00044F220118228C4F2084143F6C8720FDC5E
:1035000023EA020EDCF800304FF47F5202EA132265
:1035100072441F28CCF80020A8BF01F1007104E01C
:103520001A4301F10071CCF8002001220A60BDE8C5
:10353000804001F06EBCB0B541F28861C2F200017A
:103540000978012917D10028014608BF0121072861
:1035500040F6C070C2F20010026840F23F03CEF2A3
:10356000C00302EA03020260026888BF072142EA40
:103570000162026039E0F82828BFF820411E41F2BC
:103580008502002818BFC8B2C1B2C0F64202A1FB32
:103590000223C91A03EB51010A09A2EB42120244A9
:1035A00001320123D2B203EB111142EA411100288A
:1035B00018BF41F40041084600F089F904464FF471
:1035C000807000EAD415C82001F023FC47F6E071B2
:1035D0004FF6FF32214002EA5412891A4FF6E17287
:1035E000114404F01F002943014488B2B0BD41F2E8
:1035F0008860C2F200000078C0B101282BD144F2EB
:10360000001044F20012C4F208400621C4F208621D
:103610000223016013600723C360D160C121C0F29F
:10362000400181604FF440414160704744F2001016
:10363000C4F208400621016044F20011C4F208619E
:1036400004220A600722C2600522CA60C02282608A
:1036500081208860704744F20010C4F208404FF4A3
:10366000EE41416244F20010C4F208604FF48A4116
:10367000416201210162704746F26800C4F208000D
:1036800041684168026801F47F414942090AC2F376
:10369000032201FA02FC426843680168C2F3072270
:1036A000DBB2D21AC1F3031102FA01F142680068D9
:1036B0004909D2B200F00F0001EB5C1102FA00F0F0
:1036C00001EB5010704741F28860C2F2000080891F
:1036D000704700002DE9F04146F21806C4F20806D2
:1036E00031680446C1F38210FE30C0B241F28868EE
:1036F0000428C2F2000807D8012101FA00F010F0F6
:10370000130F01D0002708E098F80000B427012823
:1037100008BF3227022808BF962746F26805C4F280
:10372000084501F0C2F844F6D351C1F26201A0FB92
:10373000010290096043B0FBF7F04001C2087C2A07
:1037400007D83804706540F6FF7028604FF4706049
:1037500015E0A0FB01018909FF2000220130B2EB36
:10376000510F4FEA5101F9D1C1B23804706540F6EA
:10377000FF7028604FF47060102938BF080246F2CD
:103780006801C4F208610860FFF776FF42F2107129
:1037900000FB01F401F089F848F21F51C5F2EB116A
:1037A000A0FB01014809B4FBF0F188B2A8F80C10A5
:1037B000BDE8F0812DE9F04141F28865C2F20005D3
:1037C000297840F6C0780129C2F2001825D1A968ED
:1037D0000A1840F62C71C2F2000101F178030620AC
:1037E000B3F90070BA4204DA0138A3F11403F7D137
:1037F000002000EB800231F92240D8F800103F226F
:10380000CEF2C0021140C8F80010D8F80010013004
:1038100041EA0060C8F8000049E06A78002918BF52
:10382000023240F61B6402EB0212AB68C2F20004E3
:1038300014F8227018444CF6CD43B842B8BF07467E
:10384000A7F1C800CCF6CC43A0FB03036FF003063E
:1038500004EB820006EAD303C01AC3784068002F45
:1038600007FB030044F6D353C8BF00F5FA70C1F25A
:103870006203A0FB03034FF4004040EA931097005B
:10388000022908BF980900F022F8212803D1E01985
:10389000B0F902400BE0E019016CB0F93E004A4279
:1038A000B2F1FF3FC8BFC1F5FA72B2FBF0F4204697
:1038B000FFF717FED8F8000041F2AC61C2F2000138
:1038C0000860A86821B2081A6860BDE8F081C0F3FA
:1038D0004311052903D94FF01F0C052109E029B137
:1038E00010F01F0C08BF4FF0010C02E001214FF057
:1038F000010C10B540F6C07EC2F2001EDEF80020BA
:1039000043F6FF73CEF2C0031A40CEF800204CF20B
:103910000002CFF6FF728A4002F47E124FF6C8739F
:1039200042EA0C62C0F23F03DEF800405A40000455
:1039300042EA04024CEA4110CEF8002006D444F2D8
:103940000811C4F208414FF4800207E044F2081164
:10395000C4F208614FF4800200F500400A6010BD17
:1039600010B5044600F0DCF820B12046BDE8104058
:1039700000F020B800F072F800F0EDF8204600F0FA
:1039800019F800F0F8F8BDE8104000F0DBB801F4D9
:10399000600145F2740203310001C4F208021150C3
:1039A000704745F274010001C4F20801085800F0A4
:1039B0000100704745F2180C41F2B863C4F2080CDC
:1039C000C2F20003DCF8002093ED000ADCF81830A6
:1039D0005CF80C3CDB0700D1704701EE100AB8EE32
:1039E000411A20EE010AB6EE001A20EE010ABCEEE2
:1039F000C00A10EE100A00BFDCF81830B0EB530F0D
:103A000024BFDCF818004008DCF800309B1A03D211
:103A1000DCF8181019444B1C8342F5D3DCF8001075
:103A20008B1A03D2DCF8181019444B1C984298BF2B
:103A30007047DCF800108B1A03D2DCF81810194418
:103A40004B1CDCF80020C01AD6E745F26400C4F233
:103A500008004FF0FF31016070470000B0B540F240
:103A60000044C0F206042046012100F09AF845F215
:103A7000280541F20010C4F20805C0F2010045F823
:103A8000280C204600F08FF800EE100AB8EE400A2D
:103A90009FED201A30EE000A80EE010A41F2B86074
:103AA000C2F20000BFEE002ABDEEC01A80ED000A8F
:103AB00011EE100A013881B201EE101AB8EE411A67
:103AC00030EE411A31EE021A9FED132A0A0241F23A
:103AD000B261C2F2000121EE021A0880BDEEC11AE5
:103AE00041F2B06111EE100AC2F200019FED0B1A13
:103AF00008702A60296820EE010AB6EE001A20EE4E
:103B0000010A0843BCEEC00A286010EE100A013812
:103B1000A860B0BD00247449000080430000804FBD
:103B200045F20C00C4F20800006800F00100704784
:103B300045F20C00C4F20800006810F0060018BF3F
:103B40000120704745F21000C4F208000021016016
:103B500041608160704745F20400C4F208600121B1
:103B600001604EF20010CEF200004FF08051016073
:103B7000C0F88011704745F20400C4F208600421C7
:103B800001604EF28010CEF200004FF080510160D3
:103B9000BFF34F8FBFF36F8FC0F8001170477047AE
:103BA0007047FEF773BC10B500F4781044F20014AF
:103BB000B0F5802FC4F20E0409D10C3400F050FE91
:103BC0002168C1F308210131B0FBF1F010BD05D827
:103BD000B0F5003F13D00028F0D00CE0B0F5C02FB6
:103BE0000FD0B0F5202F0ED0B0F5002F03D1BDE8D7
:103BF000104000F035BEBDE81040FEF785BC08342B
:103C0000DCE71034DAE700F02BFE6169D9E7000049
:103C1000032888BF704741F22801C4F20801DFE899
:103C200000F007020406303102E0603100E090311C
:103C300001200860704710B540F20044C0F206044D
:103C400004F540500121FEF721FC20460121FEF73A
:103C50001DFC04F580400121FEF718FC04F5E0404E
:103C60000121FEF713FC04F5C0400121FEF70EFC14
:103C700004F5A0400121FEF709FC04F500500121E4
:103C8000FEF704FC04F500400121BDE81040FEF7FA
:103C9000FDBBA022C4F2080252F8203023F4407386
:103CA00042F8203052F8203043EA012142F8201037
:103CB000704780B541F29C03C2F20003EFF310801D
:103CC00072B61968481C12D0186044F2000E47F210
:103CD0000800C4F2080EC4F20800DEF800C0026852
:103CE000DEF800200068196089B962B60FE044F27E
:103CF000000047F20801C4F20800C4F20801D0F83D
:103D000000C00A68026808686FF0010119606FF36B
:103D10009F20110604BF4FF60060CFF6FF705FEAE8
:103D20000C6104BF4FF60060CFF6FF7080BD80B518
:103D300040B3017844F288120129C4F20E021DD06A
:103D4000022921D1927892061CD441F28862C2F2F3
:103D5000000243781170C188B0F9020053705060BE
:103D600008469181FFF7B6FCFFF741FC44F258107A
:103D7000C4F2084007210160012080BD927812F052
:103D8000C00FE2D0002080BD48F2D413C0F6E0732B
:103D90001B68126803F0010302F480021A44012A2E
:103DA000D3D0EFE741F2EC00C4F20800016821F43F
:103DB00080610160704741F25800C4F2080001219F
:103DC00001600163704710B5044645F26010C0F20F
:103DD0000700FFF7E8FE41F20022A0FB0401C0F259
:103DE0007A020023FCF72CFA40F6A071C2F200110F
:103DF000086010BDF0B581B00446FFF764FC45F2E1
:103E00006015C0F20705261A2846FFF7CCFEA0FB76
:103E1000060141F20026C0F27A0632460023FCF782
:103E20000FFA40F6A477C2F200173860FFF74BFC98
:103E3000201AA0F114042846FFF7B5FEA0FB0401E8
:103E400032460023FCF7FCF9396801EB004038608A
:103E500001B0F0BD10B541F61401C2F200010860D6
:103E6000041F45F26010C0F20700FFF79CFE41F20C
:103E70000022A0FB0401C0F27A020023FCF7E0F963
:103E800040F69C71C2F20011086010BD2DE9F041AE
:103E900044F20408C4F20808D8F800204FF0045295
:103EA00041F29C05C8F878200122C2F20005C8F84A
:103EB0007C20EFF3108272B62B680A4601464FF061
:103EC0000450013318BF2B60FCF7AFFC286818B111
:103ED0000138286000D162B640F6BC75C2F2001508
:103EE00005F11000EE68AF686C68C8F85C0040F639
:103EF0006C70C2F200109421FCF71EFD45F26010B8
:103F0000C0F207006C60AF60EE60FFF74CFE3C2132
:103F100041F20022A0FB0101C0F27A020023FCF76B
:103F20008FF940422860BDE8F08141F22000C4F2E0
:103F3000080000686FF35F30704710B5044645F223
:103F40006010C0F20700FFF72EFE41F20022A0FB36
:103F50000401C0F27A020023FCF772F940F6B47152
:103F6000C2F20011086010BD10B5041F45F26010C8
:103F7000C0F20700FFF717FE41F20022A0FB040188
:103F8000C0F27A020023FCF75BF940F6B071C2F28E
:103F90000011086010BDF0B581B00446FFF793FB37
:103FA00045F26015C0F20705261A2846FFF7FBFD0B
:103FB000A0FB060141F20026C0F27A063246002339
:103FC000FCF73EF940F6B877C2F200173860FFF709
:103FD0007AFB201AA0F114042846FFF7E4FDA0FBA9
:103FE000040132460023FCF72BF9396801EB00404D
:103FF000386001B0F0BDF0B581B00446FFF763FB57
:1040000045F26015C0F20705261A2846FFF7CBFDDA
:10401000A0FB060141F20026C0F27A0632460023D8
:10402000FCF70EF940F6AC77C2F200173860FFF7E4
:104030004AFB201AA0F114042846FFF7B4FDA0FBA8
:10404000040132460023FCF7FBF8396801EB00401D
:10405000386001B0F0BD704741F22410C2F2000098
:10406000006870470020FFF723B80000B0B544F2A5
:104070000005C4F2080529680446090608BFFFF7D1
:104080009AFEFFF7E9FF012810D000BF00F00BF9FE
:1040900018B1686810F0706FF8D1686810F0706F30
:1040A00001D0022406E02046FEF7C0FF00200024D5
:1040B000FFF748F82046B0BDFFF7D4BF10B504465F
:1040C00000F0F1F850B12046FFF7C5FF40B100788D
:1040D000201AC0B2BDE81040FFF7C8BF022010BDD3
:1040E000012010BD80B541F29C60C2F20000007852
:1040F00008B900F037F841F29C0CC2F2000CEFF363
:10410000108072B6DCF8002041F60C0E501CC2F292
:10411000000EDEF8000008BF6FF00102012818DB76
:1041200041F61001C2F20001086841F20C73C2F2BC
:104130000003185C0B6801330B600B68B3F5807FDC
:1041400004BF00230B60DEF800100139CEF8001028
:1041500001E04FF0FF30CCF8002002B180BD62B624
:1041600080BD00002DE9F04188B044F24010C0F25B
:10417000050001214FF00108FEF788F942F20050D6
:10418000C0F20A000121FEF781F903200E2104226A
:10419000012303270426FEF7EAFF03200D21022254
:1041A0000123FEF7E4FF25480DF1080C019023A040
:1041B000051D80693ECD079042F200208CE83E004C
:1041C000C0F204000121FEF761F900240020C4F2CE
:1041D00001048DF8040001A9204600F045FD676741
:1041E000A06F41F61F71884341F214610843A06734
:1041F0004EF20010CEF200004FF40061A664C0F849
:104200008011E26C42F00402E26401602046052164
:1042100000F024FD40F68C70C2F2000000214FF443
:1042200080620023FCF782FA41F29C60C2F2000037
:1042300080F8008008B0BDE8F08100BF05000000F4
:104240000000000000C20100000500000010000096
:10425000000000000000000070B541F29C61C2F255
:1042600000010978044609B9FFF77CFF002541F2F7
:10427000A006C4F201050A2CC2F2000605D130786E
:1042800018B128460D2100F051FD2846214600F0C6
:104290004DFD0D2C05D1307818B128460A2100F0CB
:1042A00045FD204670BDB0B541F29C05EFF310808E
:1042B00072B6C2F200052868013018BF28600320DA
:1042C000FFF76FFB04460320FFF76BFB10B9FFF706
:1042D0002FFC40B1286818B10138286000D162B6BF
:1042E00000242046B0BD44F20400C4F20800006877
:1042F000296819B10139296000D162B60021B1EBFA
:10430000907FEED100F07060B0F1C06FE9D002D8BC
:104310004FF0407104E0B0F1106FE1D04FF0406118
:10432000401A18BF01200443DBE7704741F6980CA0
:10433000C2F2000C9CF80010002940D041F2BC6190
:10434000C2F200010A6846F21803C4F20803DA63F5
:104350004A6840F6FC701A608A68C2F200105A601F
:10436000CA689A630A695A624A691A638A690423A5
:10437000C4F208031A60CA69DA630A6A1A634A6AED
:10438000C3F89C208A6AC3F8A020CA6AC3F8A42094
:104390000A6BC3F8A8204A6B5A628A6B9A62CA6B8E
:1043A000DA620A6C0260486C98674FF6FF70C0F2E0
:1043B00007005866886C986600208CF800007047EB
:1043C00041F69800C2F20000017801B1704746F250
:1043D0001802C4F20802D36B41F2BC61C2F20001C0
:1043E0000B6013684B6053688B60936BCB60536AB0
:1043F0000B61126B4A610422C4F2080213688B61DC
:10440000D36BCB61136B0B62D2F89C304B62D2F84A
:10441000A0308B62D2F8A430CB62D2F8A8300B6304
:10442000536A4B63936A8B63D36ACB6340F6FC7326
:10443000C2F200131B680B64936F4B64936E8B6422
:104440000021916601210170704740F6FC70C2F2B4
:104450000010016848F2F67221F00F01016046F287
:104460005000C4F208000021016046F21800C4F2B6
:1044700008404FF4E071016046F21800C4F2086091
:104480004FF4807101600021CFF6FF7101600420BC
:10449000C4F20800052101604020C4F20860012137
:1044A000016044F20800C4F20800C0F83021016045
:1044B00070470420C4F20800D0F89C10242221F494
:1044C0008041C0F89C10D0F8A01021F48041C0F8C1
:1044D000A010D0F8A41021F48041C0F8A410D0F8A6
:1044E000A81021F48041C0F8A810012101634262A4
:1044F0004FF4807282624FF49C72C2620022826723
:10450000052202604020C4F20860016044F2080005
:10451000C4F2080048F2F672C0F83021016070471A
:104520006820C4F208600421016044F20800C4F26B
:10453000080020210160704744F23000C4F20E00F0
:104540000068C0F3C820704710B50446112005214B
:10455000FEF752F9022000210022FEF775FA44F21C
:1045600030004FF60001C4F20E40C0F20F010160AE
:1045700044F23000C4F20E00026801EAC421114383
:104580000160022001210122FEF75EFA11200421C0
:10459000BDE81040FEF730B944F20402C4F208024C
:1045A000136803F07063B3F1806FF9D0136803F000
:1045B0007063B3F1206FF3D043F23803C4F2080301
:1045C000186009B18020506000F0C7B82DE9F043B1
:1045D00081B043F23007C4F208078946064678687E
:1045E000796800F00700C1F3C201002908BF01216A
:1045F0007A6844F294084843C2F38211C4F208086E
:10460000002908BF01217A687A687A68D8F8A4205E
:1046100000FB01F422F01000012C08BF1030C8F894
:10462000A40000F042F9054641F24860C2F20000E1
:1046300006606643F004710B2A460023FBF700FE78
:1046400047F8040C00F062F841F24463A4FB002137
:10465000C2F200031860C80440EA5231D0042A466E
:104660000023FBF7EDFD3B686FF31F5003F480134D
:104670003B603B68A9FB04211843386041F240606D
:10468000C2F20000C0F80090C80440EA5231D004E1
:104690002A460023FBF7D4FD42F29C01F860C2F2E7
:1046A0000001087818B9386A00F03F000870D8F89F
:1046B0000010C9061CD549F68171C1F25E61A6FBE6
:1046C0000112510D43F6F412CFF6FF7240F253532C
:1046D00011FB032242F65053C0F2190302FB0131D1
:1046E00049F28062C0F298025043B0FBF1F03862A8
:1046F00001B0BDE8F04300F030B844F29400C4F2D9
:104700000800016841F004010160704710B546F2ED
:104710003801C4F208010868C0F3C2535A1E032AC4
:1047200006D803F1180047F29B03C0F20003185C9F
:10473000032A88BF0720096801F00701CA1E022A60
:1047400001D2C40004E0002914BF840000EB40043F
:1047500000F0ABF8B0FBF4F010BDB0B541F2406032
:1047600043F2380141F24462C2F20000C4F208018F
:10477000C2F2000200680968126843F6FF5301FBA9
:10478000002041F24861C2F20001096844F230059C
:1047900008444FF6CF61CDF6E631A0FB01121D2192
:1047A00001EB527144F23002C4F20842536741F205
:1047B0005063C2F200031B6820FA01F404EB5300BB
:1047C000B0FBF3F0C4F2080501386B6F40EA01302A
:1047D000184340F4E84068674FF4EE60106000F062
:1047E00064F84000B4FBF0F00722411E072828BF00
:1047F00010462B68072943EA002038BF0A4640EAE2
:1048000002102860B0BD4FF6E071CEF20F014A6889
:104810000B6802F00F02C3F3811343EA8202827035
:104820000A6802F03F0242708A68C96802F0F0022A
:10483000C1F3031111440170704780B500F010F806
:1048400044F20811C4F20E010968C1F308210131D4
:10485000B0FBF1F040F21001C2F20001086080BD2F
:1048600044F29400C4F20E00016801F0070102292D
:104870000CD0032910D0042919BF40F21801C2F24C
:10488000000140F21C01C2F2000103E040F21401F9
:10489000C2F20001096801E04FF40041C06EC0F3AC
:1048A00004200130B1FBF0F0704740F21400C2F276
:1048B00000000068704740F200004EF60851C0F258
:1048C0000000CEF200010860D1F8800040F47000D2
:1048D000C1F8800043F24000C4F20E00416941F487
:1048E00000514161016821F003010160416B21F039
:1048F00001014163016A21F08051016270474FF468
:104900000040704740F21C00C2F20000006870478F
:104910004FF20000C0F2492070474FF47A707047A0
:1049200043F22000C4F20E00006841F23C514FF403
:10493000FF62C2F2000102EAC0004CF6CD420968F3
:10494000CCF6CC42A0FB0202A1EB920000F30700E0
:1049500040B2704710B543F22004C4F20E0420693F
:1049600061680840B0F1FF3F25DD400047D541F2C6
:104970009860C2F2000000680268CAB10021C0E974
:104980000011206841F23C514FF4FF63C2F2000174
:1049900003EAC0004CF6CD430968CCF6CC43A0FB3B
:1049A0000303A1EB930000F3070040B201219047FD
:1049B0004FF0804022E041F2A060C2F200000068A7
:1049C0000268CAB10021C0E90011206841F23C51DF
:1049D0004FF4FF63C2F2000103EAC0004CF6CD437E
:1049E0000968CCF6CC43A0FB0303A1EB930000F3D2
:1049F000070040B2002190474FF00040E060BDE862
:104A0000104001F09BBD2DE9F04381B041F2281028
:104A1000C2F200004FF0010880F8008041F6380033
:104A200043F22005C2F200003021C4F20E05FBF76C
:104A300083FF41F66800C2F200003021FBF77CFFE3
:104A400041F2986041F2A461C2F20000C2F200019A
:104A5000016041F2A060C2F20000016048F2B010B3
:104A6000C0F6E0700168406D6FF0FE03C2B253FA09
:104A7000A1F753FA80F0B7FA87F7B0FA80F07F0910
:104A8000400938434CF6CD4918BF90224FEAC20086
:104A9000CCF6CC49A0FB0903C1F3074018BF19208D
:104AA00041F23C5700EB800141F2385400EB930097
:104AB000C2F2000702EBD101C2F20004386068467E
:104AC0002160FFF7A0FE9DF8010001284BD124686A
:104AD00041F258622146282CD8BF2821B1F5937F96
:104AE000C8BF40F227112839C2F20002117145F601
:104AF0005941C0F20001232C23461160D8BF232363
:104B0000B3F5917F2046A8BF4FF49173322CD8BFE4
:104B10003220B0F5987FC8BF40F2311041F2706684
:104B2000233B3238C2F200063373B16010739160D8
:104B30002D2CD8BF2D24B4F5967FA8BF4FF49674C2
:104B4000A4F12D003075316128684FF4FF62396897
:104B500002EAC000A0FB0902A1EB920000F30700EB
:104B600040B201F07BF84FF04040E860286920F047
:104B7000404028614EF20010CEF20000C0F8808163
:104B8000C0F8008001F0DAFC002001B0BDE8F0833D
:104B900080B50020C4F201000169090628D500F0A3
:104BA000BFF841F61801C2F200010A6841F20C7325
:104BB000C2F20003985408680130086041F60C0006
:104BC000C2F200000268013202600A68B2F5807F1A
:104BD00004BF00220A600268B2F5807FD8BF80BDA2
:104BE00000220A60026041F61000C2F2000002607A
:104BF00080BD000070B51C461646054631B944F22A
:104C00004010C0F20500FDF77FFC01464FEA74102A
:104C1000032888BF70BD0DA252F8200070434208DF
:104C200002EB41112A68B1FBF0F022F060024FF66E
:104C300000712A60C0F27F012A6801EBC000F831E0
:104C4000084042EA04012960686170BD100000005C
:104C50000800000006000000040000000A2222EA0A
:104C60004102C260C1607047B0B50D46044600F015
:104C700033F8A87C18B1206840F080402060E87CC0
:104C800018B1287D40F08000A065687B298AEA89F8
:104C9000084310436060D5E901122B7B2046FFF7E3
:104CA000A9FF687D18B1206840F480302060EA7D5B
:104CB000A97D120542EA01710022C7F2700211407B
:104CC00028782B7E2166616F21F030016167616F6A
:104CD00019436167E060B0BD40F6AA62C26000227D
:104CE00041F20503026043604FF6F97340F2004160
:104CF000C0F20103C4F2010182604261C2648364B4
:104D000040F480638B42026642678267C26708BFD5
:104D100002658842826504BF0020C86570470000B4
:104D200001690906FCD5C069C0B270470269520624
:104D3000FCD54163704700004EF60C50BFF34F8F17
:104D4000CEF200000168042201F4E061C0F2FA52E0
:104D500011430160BFF34F8F00BFFDE748F201012F
:104D6000411A0020022988BF4FF0FF307047002011
:104D7000704748F20101411A0020032938BF012081
:104D8000704710B510B3044600783A281ED147F298
:104D90008C01C0F200012046FBF7F6FDC8B147F2D6
:104DA0009301C0F200012046FBF7EEFDA0B147F2EF
:104DB0008401C0F200012046FBF7E6FD4FF0FF3111
:104DC000002808BF48F20301084610BD4FF0FF302D
:104DD00010BD48F2010010BD48F2020010BD4FF0B6
:104DE000FF307047B0B5144648F2030290420BD032
:104DF0000D4648F20201884208D12CB115F8010B8A
:104E000001F078FB013CF9D10020B0BD4FF0FF303C
:104E1000B0BD792844F29400C4F208001BDB41F2D3
:104E20003451C2F200010978A9B144F20411C4F26C
:104E300008414DF601720A608A61016F41F45741E1
:104E40000167D0F8881041F45741C0F88810016814
:104E500041F0080102E0016821F00801016070479B
:104E6000022907D0012908D059B9024612A01146DB
:104E7000FBF75EBA03A0FBF743BC07A00821FBF7D2
:104E800057BA7047496E76616C69642061726775C4
:104E90006D656E740D000000546F6F206D616E794A
:104EA00020617267756D656E74732C206D6178205A
:104EB00069732025640D0A00436F6D6D616E642077
:104EC0006E6F7420666F756E643A20272573270D08
:104ED0000A00000000210022FBF7A0BB00210022F5
:104EE000FBF7D4BB844600284FF0010018BF00290F
:104EF00000D17047CCF8001000200CF108010DC162
:104F00008CF80400704700002DE9F04F81B0804616
:104F100040B3D8F8000028B308F1080400260027A1
:104F2000FBF764FC54F8041C054629B10846FBF75E
:104F30005DFC014601E000BF002122680B46002A0B
:104F4000A06808BF33468E42D8BF1E46002A2946B5
:104F500008BF3946AF42D8BF0F46002804F11004FD
:104F6000DED101E00026002728A0FBF7C9FB47F2AD
:104F7000BC00C0F20000FBF7C3FBB8F1000F3AD051
:104F8000D8F80020BAB37D4247F20F1747F2974A8C
:104F9000764208F108040FF2A408C0F200070FF2ED
:104FA0008C09C0F2000A0FF2880B00BF206858B1CC
:104FB00048462946FBF7BCF954F8042C42B1107856
:104FC000002808BF524604E0404611460AE000BFF0
:104FD000524658463146FBF7ABF9616821B1087873
:104FE00010B115A0FBF7A4F93846FBF789FBA268BE
:104FF0001034002ADAD147F20F10C0F20000FBF79C
:105000007FFB012001B0BDE8F08F00BF3C636F6DF6
:105010006D616E643E203C617267733E203C686542
:105020006C7020746578743E0D000000252A7300B2
:1050300020252A730000000020257300202D2D2D2F
:10504000202573202D2D2D002DE9F04F93B0002841
:105050004FF0FF0900F05581002900F0528104460D
:10506000D0E902B015465A44824280F0408120685F
:105070002A465844FBF7D9FBA0684FF000082844A3
:1050800083454FF00009A06080F03B810AA947F2F8
:1050900011160431C0F200064FF0000900230691FA
:1050A000216811F80BA0BAF10A0F02D0BAF10D0F66
:1050B00018D19B4501F80B8052D020682169C51892
:1050C000CDE90813284629460A78082A04D06AB18F
:1050D00000F8012B03E000BFA84288BF013801316E
:1050E000F2E700BF0BF1010B4DE000BF80F800803C
:1050F0002846314612AA01F004FA80B30746089800
:10510000B0B10668B6B100F1080800BFD8F80000D9
:1051100020B138463146FBF754FBC0B3D8F80860DD
:1051200008F11008002EF1D100264FF0000802E02F
:10513000002609E00026284675A1FBF742FB18B9B6
:105140000898FFF7E1FE0646002E47F21116C0F25E
:10515000000604D11FB138460021FFF781FE099BEC
:10516000BAF10A0F08BF9B4502D009F1010904E01A
:1051700020790D2818BF09F101090BF1010BA06876
:105180005B4684F804A08345FFF48AAFB2E00A9638
:1051900047F21116C0F200060020314612AACDF8DF
:1051A0001C9001F0AEF94FF0010900BF68B1B9F1F0
:1051B000070F0AA941F8290026D00020314612AA7B
:1051C00009F1010901F09DF9F0E758F8047C002F7E
:1051D00000F0778038464DA1FBF7D6FB002870D051
:1051E0003846FBF703FB049038462A21FBF7C1FA47
:1051F00098B1049B0221012B07D0FA18013A904282
:1052000003D1981E00900BE001212846FFF728FEED
:10521000DDF81C904FF00008A1E7049B18460093AE
:10522000B9F1020F42D3A9F1010003970290581E71
:105230002E220026012701909E4205DA0398805D08
:105240002A2818BF024604E003980199405C2A28E6
:105250002DD1A2F1730004280BD80592DFE800F0ED
:1052600003270C0F12000698042150F82600012293
:105270000DE0622A10D01AE00698012104E0069899
:10528000022101E00698042150F82600002201F0D6
:10529000BFF9DDE9043250B10298013686424FF081
:1052A000000738BF0127B042C6D100E000270098B0
:1052B0000221484516DA47F21116F807C0F2000637
:1052C000A3D1D8F8002048460AA9904758F8080CFE
:1052D000DDF81C9000284FF000087FF440AF002755
:1052E000012628E747F21116C0F200068DE74FF0BD
:1052F000FE0906E02BB1C21A2068A260C118FBF7B4
:10530000D9FA4FFA89F013B0BDE8F08F3F000000E2
:1053100068656C700000000001A0FBF7F1B900BFE8
:1053200043414C5F4354554E453A204E6F742069BB
:105330006D706C656D656E7465640D0001A0FBF7A2
:10534000DFB900BF4745545F4245523A204E6F7463
:1053500020696D706C656D656E7465640D0000008C
:1053600080B504A0FBF7CCF90AA0BDE88040FBF7AC
:10537000C7B900BF4745545F4348414E4E454C3A7C
:1053800020556E64657220646576656C6F706D651E
:105390006E740D004745545F4348414E4E454C3AAC
:1053A00020300D0080B5FFF7C7F8014602A0BDE828
:1053B0008040FAF7BDBF00BF4745545F4354554E88
:1053C000453A2025640D0A0080B504A0FBF798F942
:1053D0000BA0BDE88040FBF793B900BF4745545F81
:1053E000465245514F46465345543A20556E6465E2
:1053F0007220646576656C6F706D656E740D00006B
:105400004745545F465245514F46465345543A200E
:10541000300D000041F69900C2F20000017841F61B
:105420001C00C2F20000027801A0FAF781BF00BFA1
:105430004745545F50414354554E453A2025642C0E
:1054400025640D0A0000000080B504A0FBF758F9A0
:105450000AA0BDE88040FBF753B900BF4745545F41
:10546000504F5745523A20556E64657220646576F8
:10547000656C6F706D656E740D0000004745545F7C
:10548000504F5745523A20302064426D0D000000C5
:1054900080B504A0FBF734F90BA0BDE88040FBF712
:1054A0002FB900BF4745545F504F5745524C4556A2
:1054B000454C3A20556E64657220646576656C6F64
:1054C000706D656E740D00004745545F504F574531
:1054D000524C4556454C3A20300D000080B507A08F
:1054E000FBF70EF9FEF7E5FBC0F34171084400B28B
:1054F00081100AA0BDE88040FAF71ABF4745545F03
:10550000525353493A20556E64657220646576653E
:105510006C6F706D656E740D000000004745545F40
:10552000525353493A2025642064426D0D0A00000D
:1055300080B504A0FBF7E4F80BA0BDE88040FBF7C2
:10554000DFB800BF4745545F525353494F46465357
:1055500045543A20556E64657220646576656C6FBB
:10556000706D656E740D00004745545F525353498A
:105570004F46465345543A20302064420D00000007
:1055800001A0FBF7BDB800BF4745545F5258434FD9
:10559000554E543A204E6F7420696D706C656D6580
:1055A0006E7465640D00000002A002210322002336
:1055B000FAF7BEBE48573A2025642053573A2025B3
:1055C000642E25640D0A000070B52DED028B84B0A9
:1055D000FFF7A6F9044640F22000C2F2000000687E
:1055E00001F072FC054641F22C10C2F20000006886
:1055F0000E4601F069FC41EC180B41F29800C2F232
:105600000000006801F060FC41EC100B06A0214690
:105610002A4633468DED008B8DED020BFAF788FE9E
:1056200004B0BDEC028B70BD4745545F56543A2020
:1056300025642C20252E31662C20252E31662C2029
:10564000252E31660D0A000080B507A0FBF758F83B
:1056500048F2F010C0F6E0700268436805A0BDE8AB
:105660008040FAF765BE00BF494E464F3A204F4B87
:105670000D0000004D435549443A203078256C6CAC
:10568000580D0A0041F6240041F2405140F228032F
:10569000C2F20000C2F20001C2F200034FF48072B5
:1056A000FFF720BC80B54868FFF718FC01460006EC
:1056B00018BF0121080606A20AA008BF104641F241
:1056C000B462C2F200021170BDE88040FBF718B866
:1056D0005052494E545F4D4F44453A2053484F5223
:1056E000540D00005052494E545F4D4F44453A20EE
:1056F00046554C4C0D00000003A0FBF701F805A037
:10570000FAF7FEFFFFF718FB52455345543A204F76
:105710004B0D000052657374617274206465766984
:1057200063652E0D0000000010B508A00C46FAF7C6
:10573000E7FF6068FFF7D2FB30B1FDF77AFC0BA002
:10574000BDE81040FAF7DCBF10BD00BF53454E4422
:105750005F5041434B45543A20556E646572206456
:105760006576656C6F706D656E740D0053454E44C3
:105770005F5041434B45543A20446F6E650D000025
:1057800010B54868FFF7AAFB044607A0FAF7B8FF70
:1057900040F2FF3114F47C4F08BFA1B20AA0BDE86B
:1057A0001040FAF7C5BD00BF5345545F4348414E12
:1057B0004E454C3A20556E64657220646576656C82
:1057C0006F706D656E740D005345545F4348414ED4
:1057D0004E454C3A2025640D0A00000010B548687B
:1057E000FFF77CFB0446B0F5FF7F88BF40F2FF1453
:1057F0002046FEF7A9FE03A02146BDE81040FAF7B7
:1058000097BD00BF5345545F4354554E453A20253C
:10581000640D0A0001A0FAF773BF00BF5345545F3F
:10582000454D3A204E6F7420696D706C656D656EE4
:105830007465640D0000000070B548680C46FFF701
:105840004DFB1F2510F0E00F18BF284641F69906C2
:10585000A168C2F2000630700846FFF73FFB10F067
:10586000E00F08BF054641F61C043078C2F2000480
:10587000E9B22570FDF71DFE3178227802A0BDE85F
:105880007040FAF755BD00BF5345545F5041435433
:10589000554E453A2025642C25640D0A0000000071
:1058A00010B50AA00C46FAF72BFF6068FFF712FB51
:1058B000014610F1140FD8BF6FF013011429A8BFCF
:1058C00014210AA0BDE81040FAF732BD5345545FD9
:1058D000504F5745523A20556E6465722064657684
:1058E000656C6F706D656E740D0000005345545FFC
:1058F000504F5745523A2025642064426D0D0A00EE
:1059000010B508A00C46FAF7FBFE6068FFF7E6FA50
:105910000146FC2828BFFC210BA0BDE81040FAF787
:1059200007BD00BF5345545F504F5745524C455635
:10593000454C3A20556E64657220646576656C6FDF
:10594000706D656E740D00005345545F504F5745A0
:10595000524C4556454C3A2025640D0A0000000083
:1059600010B50DA00C46FAF7CBFE6068FFF7B2FA4F
:1059700000EE100AB8EEC00AB5EE001A20EE010AD9
:1059800010EE100A01F0A0FA02460CA00B46BDE88A
:105990001040FAF7CDBC00BF5345545F52535349F2
:1059A0004F46465345543A20556E646572206465EF
:1059B00076656C6F706D656E740D00005345545FB5
:1059C000525353494F46465345543A20252E32668A
:1059D0002064420D0A00000001A0FAF791BE00BF4A
:1059E00053544152545F4245523A204E6F742069DD
:1059F0006D706C656D656E7465640D0001A0FAF7DD
:105A00007FBE00BF53544152545F5258434F554ECE
:105A1000543A204E6F7420696D706C656D656E74BC
:105A200065640D0001A0FAF76BBE00BF53544F50E0
:105A30005F4245523A204E6F7420696D706C656DFF
:105A4000656E7465640D000001A0FAF759BE00BFD1
:105A500053544F505F5258434F554E543A204E6F57
:105A60007420696D706C656D656E7465640D000001
:105A700010B5FEF761FD044600F0DAFC4FF07E60E1
:105A8000FDF72EFC41F69C00A4B2C2F20000C0F863
:105A9000004100F0E9FD03A02146BDE81040FAF7FF
:105AA00047BC00BF53544F52455F4354554E453A8F
:105AB0002025640D0A000000B0B500F0B9FC4FF0DD
:105AC0007E60FDF70DFC41F61C0441F69905C2F21B
:105AD0000004C2F200052078297841EA002041F64E
