:020000040000FA
:1000000038300020E5010000ED010000EF010000A4
:10001000F1010000F3010000F50100000000000004
:10002000000000000000000000000000F7010000D8
:10003000F9010000ED010000FB010000FD010000DE
:10004000FF010000252B0000FF010000A92900008E
:10005000312C00006D30000069300000AD2100003F
:10006000FF010000412B0000FF0100004D4900008E
:10007000FF010000FF010000091D0000FF0100005A
:10008000FF010000552B0000D1480000FF010000D7
:10009000FF010000FF010000FF010000FF01000060
:1000A000FF010000FF010000812B0000552100002E
:1000B0009D2F0000FF01000099460000FF01000095
:1000C000FF010000FF01000000F002F800F07BF8E3
:1000D0000AA090E8000C82448344AAF10107DA45A3
:1000E00001D100F070F8AFF2090EBAE80F0013F07A
:1000F000010F18BFFB1A43F00103184760AB000063
:1001000080AB00000A4410F8014B14F00F0508BF43
:1001100010F8015B240908BF10F8014B6D1E05D0D3
:1001200010F8013B6D1E01F8013BF9D1641E03D0AC
:10013000641E01F8015BFBD19142E4D370470000DB
:100140000023002400250026103A28BF78C1FBD8E0
:10015000520728BF30C148BF0B607047662908F0BE
:10016000898703681B0A28BF41F08001642900F0D9
:10017000B980782900F01A81F82900F025816329D7
:1001800000F0D585732900F0DA85002070471FB58F
:1001900008F02DFF9DE8030001F020FA00F0D2FEE8
:1001A00004000020002108F071F8401C606000206D
:1001B000002108F081F8E06000F028FE1FBD10B5B6
:1001C00000F08DFE10BD01F0C7F91146FFF7DFFF0B
:1001D00005F03AFF01F060FB03B4FFF7F0FF03BC4A
:1001E00001F0B4FB0948804709480047FEE7FEE7F5
:1001F000FEE7FEE7FEE7FEE7FEE7FEE7FEE7FEE7D7
:1002000004480549054A064B704700008D48000028
:10021000C900000038240020383000203828002091
:100220003828002000487047540200200FB40449C9
:1002300010B503AA029800F087FD10BC5DF814FB0E
:10024000AC01002070B5044685690068C10601D57F
:10025000302600E02026C00707D070BDD4E9012178
:1002600030469047206A401C20626D1EF6D570BD56
:1002700070B5044685690078C00707D170BDD4E920
:10028000012120209047206A401C20626D1EF6D577
:1002900070BD70B50C460546012A05D02878800649
:1002A00000D5EA69002302E0012305E05B1C9342CC
:1002B00002D2E05C0028F9D1A869E618C01AA8614A
:1002C000286A184428622846FFF7BCFF04E0D5E9F5
:1002D000012114F8010B9047B442F8D32846FFF7E8
:1002E000C7FF70BD2DE9F04106460024106875294E
:1002F000314616A510D0AFF30080002802DA404244
:1003000013A507E031688A0701D512A502E0490765
:1003100004D511A5012401E0AFF3008000210A22D9
:1003200006F1240709E0B0FBF2FCB0FBF2F302FB9C
:100330001C00303078541846491C0028F3D123465D
:100340002A463046BDE8F04100F080BA00000000C7
:100350002D0000002B00000020000000F0B40D462E
:100360000188090502D51B4C7C4402E0194C7C44F1
:100370000E34002100F1240608E002F00F071209F4
:10038000E75D42EA03721B097754491C52EA0307EE
:10039000F3D1224604780023240704D5702D02D01F
:1003A00009B102231132F0BC00F050BA70B5044616
:1003B0000D4621461068AFF30080024629462046CC
:1003C000BDE870400023C9E7D21D22F00703D3E93E
:1003D0000023C3E7FC8D00002DE9F05F8946044649
:1003E0004FF0000ADFF874B1FB44C0F820A02046AB
:1003F000E1688847002874D0252806D0D4E9012177
:100400009047206A401C2062F1E700265F462046A4
:10041000E16888472028054607DB312D05D2781989
:1004200010F8200C08B10643F1E7B00701D526F01B
:100430000406C4F81CA00027C4F818A02A2D09D06F
:10044000284607F0BDFE38B304EB8708303DC8F8F6
:10045000185019E059F8041B204604EB87029161FB
:10046000E1688847012F054618D1E069002820DAA5
:1004700026F020061DE0D8F8180000EB800005EB00
:1004800040003038C8F818002046E1688847054623
:1004900007F096FE0028EED1012F0AD02E2D08D1AC
:1004A0002046E16888477F1C0546022F46F020065B
:1004B000C4DBA069002803DA404246F00106A061CF
:1004C000F00701D026F010066C2D0BD0682D09D056
:1004D0004C2D39D06A2D35D0742D35D07A2D33D0AE
:1004E00016E038E0E1682F4620468847B8420546C6
:1004F00009D16C2F26D04FF48060E1680643204676
:100500008847054604E06C2F1AD04FF480700643EC
:100510000DB3A5F14100192802D8203546F4006634
:100520004A462946204626604E46FFF717FE80B110
:1005300001280BD0F61D26F0070000F1080956E748
:100540004020E4E78020D8E70020D6E706F1040940
:100550004DE7284652E7206ABDE8F09FA48D0000D1
:100560002DE9F04791460F4680460446002614F8D0
:10057000015B2DB100F04AF90068405DC007F6D17B
:100580002B2D02D02D2D18D0641E4A463946204608
:1005900000F0ECFB27B13968A14201D1C7F8008017
:1005A0004FF0020471050BD54042002803DDFFF730
:1005B00039FE0460A007BDE8F08746F48066E4E7F2
:1005C0000028F8DAFFF72EFE04606FF00040F2E733
:1005D0002DE9F05F93460F46804604460026FFF75C
:1005E00021FED0F80090824614F8015B2DB100F096
:1005F0000DF90068405DC007F6D12B2D02D02D2DDE
:100600001AD0641E0021CAF800105A463946204606
:1006100000F0ACFB014627B13868A04201D1C7F811
:100620000080DAF80000022809D0CAF800907005AE
:1006300005D54842BDE8F09F46F48066E2E70846EB
:10064000F8E70000014907F0C2BD0000AC0100203E
:1006500010B5044603E007F0BAFD401C09D014F8B9
:10066000010B05490028F6D1BDE810400A2007F02B
:10067000AEBD4FF0FF3010BDAC01002070B5C468B6
:10068000A50713D0650211D4B2F5807F09D0B2F569
:10069000007F06D0B2F5806F08D1012300F124015C
:1006A00006E05D1E6FF07F46B54201D3012070BDAC
:1006B0000161C361416024F470611143C160002095
:1006C00070BD401ECAB210F8011F8A4202D0002934
:1006D000F9D10020704730B503461D781DB10A4698
:1006E00003E0AC4201D1181A30BD12F8014B002CC6
:1006F000F7D15B1CF1E730B503461D783DB10A46E2
:1007000012F8014B1CB1AC42FAD15B1CF5E7181A88
:1007100030BD2DE9F0410E460546002400E0641C82
:10072000285D00F086F80746305D00F082F8381A40
:1007300002D1295D0029F2D1BDE8F08110B5431C3A
:1007400002E010F8011B71B18107FAD14FF00132BC
:1007500002C88C1A8C4314EAC211F9D0C01A0A06D6
:1007600003D0C01E10BDC01A10BD0A0401D0801EE7
:1007700010BD0902FCD0401E10BD000000000000AA
:1007800030B44FF0013C50F8042B51F8043BCCFA44
:1007900052F4D51A20D1FCB950F8042B51F8043B7F
:1007A000CCFA52F4D51A17D1B4B950F8042B51F839
:1007B000043BCCFA52F4D51A0ED16CB950F8042B84
:1007C00051F8043BCCFA52F4D51A05D1002CDAD0FA
:1007D00030BC4FF00000704729BAB1FA81F111F036
:1007E0001801D1F120008440F2D1CA40CB4012F070
:1007F000FF0213F0FF0330BCD01A704770477047F8
:1008000070470000004870475402002010B500F007
:1008100099FB001D10BD00BF757A000010B5FFF7F1
:1008200001FD006810BD10B50446FFF7FBFC046035
:1008300010BD10B50446FFF7E9FF0068005DC00673
:1008400002D504F1200010BD204610BD2DE9F0476F
:100850000D4699469246044600F124080168880630
:1008600004D5E06921F01001216000E00120A842D8
:1008700001DD471B00E00027A1697A1902EB09009E
:10088000081AA0612078C00602D42046FFF7DAFCDF
:10089000002608E0D4E901211AF806009047206AF2
:1008A000401C761C20624E45F4DB2078C0060AD539
:1008B0002046FFF7C7FC06E0D4E90121302090472D
:1008C000206A401C2062381EA7F10107F4DC07E013
:1008D000D4E9012118F805009047206A401C2062E5
:1008E000281EA5F10105F3DC2046FFF7C1FC2078A6
:1008F000000602D50220BDE8F0870120FBE72DE9C4
:10090000FF4F0C461E464FF0FF378BB0D2E9000177
:10091000DDF860800A908A46C1F30A5505B93D4664
:10092000002108464FF00000BAF1000F00F440002B
:1009300005DA00EB80004FF4400101EA50004FEA75
:100940009059B9F1010F00DDB9460A9850EA4A0002
:100950000ED044F61050A5F2FF3545432F14B8F1E0
:10096000000F1ED07542291E1EDDC9F100021CE0D9
:10097000B8F1010F4FF0000001D0302103E0F24345
:1009800005E02154401CB042FBDB30460022002130
:1009900021540B99C1F80880C1E900200FB0BDE8CF
:1009A000F08FBD1B6D1CDEE74A4600DA694206A8DF
:1009B00000F09EFB06AB93E8070003AB83E807005B
:1009C00050460A9906F0C0FB8DE80700A0F50050DC
:1009D0001F3800900398002D0ADD42F21F014A469D
:1009E0000844002303A90390684606F029FE09E0A5
:1009F000A0F500504A461F38002303A9039068461B
:100A000006F033FE8DE807000004000C03D04FF021
:100A1000FF30410800E01046B8F1000F03D000227B
:100A2000009215461EE0751E05D400F0B6FA30326D
:100A300062556D1EF9D5B3460122084302D000224B
:100A40007F1C04E02078302801D100227F1E002A7C
:100A5000099784D01DE0112D07DA00F09EFA30329C
:100A600062556D1C50EA0102F5D1084302D000988E
:100A7000C8B10EE00021681E05E0235C625C63548F
:100A80002254401E491C8142F7DBAB46A81B401E86
:100A90000990002004F80B000B98099AC0F8088010
:100AA000C0E9002B7AE711264FF0000857E72DE93F
:100AB000F04F88460446D21D22F0070191B0D1E9DB
:100AC0000001CDE90A0106F007FF02460B98C00FAE
:100AD00001D02D2007E02068810701D52B2002E0FE
:100AE000202101EAC000032A099001D0072A05DB72
:100AF00003464146204600F0ADFA0BE1207880061F
:100B000001D5E06900E00620B8F1650F814606D006
:100B1000B8F1660F18D0B8F1670F70D131E000203E
:100B2000B9F1110F009001DB112301E009F101037C
:100B30000AAA01A90CA8FFF7E2FEDDE90C70002665
:100B400009F10105834647E001204B4600904FF034
:100B500000470AAA01A90CA8FFF7D1FEDDE90DB0F4
:100B60000C995D46002610B909F101000D18B9EB8A
:100B7000050003D4C0F1FF3609F10105A5EB09001A
:100B80002BE0B9F1010F01DA4FF001090020B9F1B2
:100B9000110F0090484601DD112300E003460AAA28
:100BA00001A90CA8FFF7ABFEDDE90C704D4600264D
:100BB0008346207800070AD4AB4500DA5D4601A8D9
:100BC000012D04DD411911F8011C302907D04F45D2
:100BD00002DA17F1040F04DA012082460FE06D1EDD
:100BE000EEE7002F02DCED1B3E4403E0781CA84238
:100BF00000DD7D1CB81B00F1010A4FF00047207892
:100C0000000703D4AA4501DB4FF0FF3A0021B7F1FA
:100C1000004F0DF143088DF8431024D002202B2300
:100C2000002F01DA7F422D230A21021EA0F10100CC
:100C300000DC5FB197FBF1FC97FBF1F201FB1C7C40
:100C400017460CF1300C08F801CDEEE7A8F10100D1
:100C500003702188090501D5452100E06521A0F137
:100C6000010800F8011C09980FA9A1EB0807FF1D56
:100C700000B10120411901EBEA70A1693844081A5A
:100C8000401EA0612078C00602D42046FFF7DAFAA1
:100C9000099828B1D4E901219047206A401C2062BC
:100CA0002078C00622D52046FFF7CCFA1EE0002EA1
:100CB00004DBB34502DD01A8805D00E03020D4E90B
:100CC00001219047206A401C2062761CAAF1010095
:100CD0005FEA000A0AD100F035F9C0680168405C9B
:100CE000D4E901219047206A401C2062281EA5F10A
:100CF0000105DCDC07E0D4E9012118F8010B90477D
:100D0000206A401C2062381EA7F10107F3DC204650
:100D1000FFF7AEFA032011B041E610B5436913B1F5
:100D2000AFF3008001E0FFF7B4FA012010BD1278A4
:100D300000F124010A7000224A700122EDE71168D7
:100D40004FF0FF32E9E70000074B70B50D467B44DA
:100D500000F06DF90446284600F03CFA10B14FF05F
:100D6000FF3070BD204670BD7D7400002DE9F05F3E
:100D7000824615468B4600270AF10104B9460078E1
:100D8000302801D09DB113E014F8010B0127782819
:100D900003D0582801D045B10AE00DB1102D07D17C
:100DA000002714F8010B102502E0082500E00A25B1
:100DB0000026B0460EE005FB080005FB06F1012702
:100DC0001FFA80F801EB1046B6F5803F00D3B94614
:100DD00014F8010B294600F07DF90028EBDABBF18D
:100DE000000F05D00FB1641E00E05446CBF8004060
:100DF000B9F1000F06D0FFF715FA02210160C81EF5
:100E0000BDE8F09F48EA0640FAE7000010B5424806
:100E1000542100F07AFB4148542100F076FB404811
:100E2000542100F072FB3F493B483C4A3F4B08606D
:100E30003D490A603A491960531C0365481C106516
:100E4000012008653B48344A39A1784400F0B8FADB
:100E500020B9384878440A3800F050FB37482F4A08
:100E600035A1784400F0ACFA20B9344878440A3807
:100E700000F044FB32482A4A2FA1784400F0A0FA3F
:100E800020B92F4878440A3800F038FB4023224824
:100E9000DC0000212246FFF7F1FB20B12548784411
:100EA000543800F02BFB1D48224640230021FFF759
:100EB000E5FB20B121487844543800F01FFB184866
:100EC000224610230021FFF7D9FB002806D01C483A
:100ED0007844BDE81040563800F010BB10BD1048F3
:100EE00070B5006D20F001040B4800F0E1FA0B48EA
:100EF00000F0DEFA0A4800F0DBFA09E0206D20F08D
:100F00000105204600F0D4FA204600F01FF82C46D8
:100F1000002CF3D170BD000058010020AC0100206E
:100F20000002002000000020040000200800002033
:100F3000720000006384000077000000528400000B
:100F40002B840000004870477402002070B50446EE
:100F5000051F00F027FB0068002C14BF446870BD1B
:100F6000002C18BFAC423CBF20466468F8D301682F
:100F70000A18AA4218BF456003D12A6805461144E1
:100F8000016028684119A1421CBF6C6070BD616896
:100F9000696021680844286070BD30B5B0F10A026C
:100FA00071F100034FEA900E4EEA817EB0EB0E0025
:100FB00061EB91014FEA101E4EEA017E10EB0E002C
:100FC00041EB11114FEA102E4EEA016E10EB0E00AC
:100FD00041EB11214FEA104E4EEA014E10EB0E008C
:100FE00041EB1141401841F100014FEAD00040EAC5
:100FF00041704FEAD1014FEA810444EA907410EB4A
:10100000800544EB01046D1944EB0404521BA34119
:101010004FF0000348BF0A3200D530BD401C41F1FB
:10102000000130BD01694A1C02610878704700B5B3
:101030008FB0CDE901310021059105497944CDE911
:10104000031011466846FFF7C7F90FB000BD000056
:10105000E5FFFFFF2DE9F0411F4604460326016826
:10106000072A01F4006004DB08B116A505E016A507
:1010700003E008B115A500E015A521F010002060DF
:10108000A069C01EA0610FB1401EA0612046FFF7FD
:10109000D9F84FB1D4E9012138469047206A401C65
:1010A0002062C01C206206E0206AFAE7D4E9012130
:1010B00015F8010B9047761EF8D22046FFF7D8F8B6
:1010C000BDE8F0814E414E006E616E00494E460013
:1010D000696E66003A2800D2303820F02002412A9A
:1010E00001D3A2F13700884201D34FF0FF3070479F
:1010F0002DE9F047814616468AB0354878440DC838
:101100008DE80D0032487844801C03AC0DC884E89B
:101110000D0041F69B300844372190FBF1F290FB23
:10112000F1F5A5F1800501FB12041B3C02D56442D8
:10113000012000E00020DFF898A080460027FA4454
:10114000AAF1BE0A0EE0E0070AD03246684607EB75
:10115000470101230AEB810106F087FA8DE80700B9
:1011600064107F1C002CEED1194F7F44AE3F19E074
:10117000E80715D007EB04100DF1180A90E80E00EF
:101180008AE80E00C068F04201D1981908903246F2
:10119000012306A903A806F068FA03AB83E8070059
:1011A0006D10641C002DE3D14FF0010332466946F7
:1011B000B8F1000F03A802D006F042FA01E006F0F1
:1011C00054FAC9E90001C9F808200AB0BDE8F0875F
:1011D0005C810000007B00F0800070472DE9F05F2B
:1011E000054617460C46C86820F4201040F48000DD
:1011F000C860800602D5084600F02DFBE06841F289
:1012000082014FF0FF3A0140022903D0204600F04E
:10121000BFFAB9E000F42041B1F5004F0FD1C0038F
:1012200006D56168E06A884200D80846606006E03A
:101230002069E06260606069002000BFA061A06872
:101240000022EEB200280DDAE1688B050AD4C04313
:10125000A06041F490302260E0606068411C6160F1
:101260000670AAE0E0689146226040F40050E06019
:10127000206978BB606903F0CDFB04F124054FF0D1
:101280000108A8B1A08910F4407F08D0E06900F0FF
:10129000D4F9206118B1E06840F4006017E0C4F8A8
:1012A0001C802561E06820F4407040F480600EE00E
:1012B000E06900F0C2F900282061F0D0E06840F455
:1012C000006010F4407FE06002D140F48070E06084
:1012D00020696060E06825696FF0010BC1051ED5CB
:1012E0006168E06A884200D80846411B04D0224663
:1012F000284600F057FAE8BB1FB1E562C4E901597E
:1013000059E0681CE0626060E069401EA060E0682F
:1013100040F48030E06030462E70BDE8F09F17B199
:1013200000F480320AE06068411C61600670E06889
:101330000A2E40F48030E06006D00022E16A606846
:10134000814203D90B4602E00122F7E70346B4F8D5
:101350000CC05B1B5FEA4C5C04D4D4F81CC09C45F9
:1013600000DD02B3814200D80146002BA1EB00084A
:10137000E56200E008E0C4E9015907DD22461946AC
:10138000284600F00FFA08B15046C6E7B8F1000F42
:1013900009D0A169E5626560A1EB0800A061E06881
:1013A00040F01000E06047B16168A069E562491B48
:1013B00008446560A0615846AFE73046ADE70000DD
:1013C0002DE9F0410C461646070047D0104600F0C4
:1013D0006FF82078611C61280AD0722802D0772823
:1013E0003CD102E00125002405E00225042402E0AE
:1013F000082448F2020511F8010B2B2806D06228B8
:1014000009D011F8010C74280AD00BE045F003054F
:1014100044F00204EFE745F0040544F00104EAE774
:1014200044F010043846214603F0FCFA411C15D064
:101430000021316171604FF40071F560F1617061FC
:10144000200704D530460222002100F025F9306D36
:1014500040F0010030653046BDE8F0810020FBE738
:101460002DE9F0410D460646104C206DC10704D011
:10147000410804D020F00104F7E722460EE0542092
:1014800000F0DBF807000ED0206D47F001010843A3
:1014900054212065384600F038F83A46294630464F
:1014A000BDE8F0418CE70020D6E70000580100209D
:1014B0002DE9F04704464FF0FF380026C568D4E90F
:1014C0000497A80718D0204600F0A2F9384603F088
:1014D00097FA002800DA4646280502D54846FFF765
:1014E00035FD4C21204600F010F8206D20F0010061
:1014F00020653046BDE8F0874046FBE710B500F0B8
:10150000D9F9BDE8104000F0D0B94FF0000200B5A5
:10151000134694469646203922BFA0E80C50A0E816
:101520000C50B1F12001BFF4F7AF090728BFA0E8C4
:101530000C5048BF0CC05DF804EB890028BF40F890
:10154000042B08BF704748BF20F8022B11F0804FD2
:1015500018BF00F8012B70477546FFF753F9AE46E8
:1015600005006946534620F00700854618B020B5AF
:10157000FEF746FEBDE820404FF000064FF00007A2
:101580004FF000084FF0000BAC46ACE8C009ACE8E7
:10159000C009ACE8C009ACE8C00921F007018D46DC
:1015A00070470000004870475C0200207047704799
:1015B0007047704738B504460A4600206946AFF3C5
:1015C0000080002808BF38BD02460099204600F080
:1015D000CAF9012038BD012000F019BAF8B5AFF3FF
:1015E0000080054600200C46102000BF0646A819C2
:1015F000A0420DD9324669460020AFF300800700B3
:1016000008BF00F004FA0098A04218BF0546C419AC
:10161000FFF7C8FF05600746F01D20F007004619D8
:10162000284600F099F9B44208BFF8BDA21B314624
:101630003868BDE8F84000F096B970B50646FFF787
:10164000B1FF056806F10B0020F00704B4429CBF0F
:10165000002070BD2B466A68BAB11068A04210D352
:1016600004F1080188423CBF5068586007D35168B4
:10167000101941601168091B016058601460101D49
:1016800070BD13465268002AE7D121462846FFF76D
:1016900091FF0028DED170BD2DE9F04104461646C9
:1016A0000D464769007B80072ED0384603F0B2F91B
:1016B00050BB3EB3012E02D0022E25D104E02046BD
:1016C00000F06BF905441DE03846002000BFE168DA
:1016D000002841F01001E16005DA204600F058F8DA
:1016E0000120BDE8F081C9030BD56268E16A91422F
:1016F00000D81146A26911442269891A814200DD8D
:1017000008460544002D01DA0220EAE7E16A606834
:10171000E268814206D29103E06203D522F40031EF
:1017200041F01002A6690027AE4213DCE16A814253
:1017300001D90B4600E0034603EB060C2369ACEB32
:10174000030CAC4506DD814201D98C4600E084469D
:101750009C4505D1A760276042F02000A5620DE0FE
:10176000AD1BE669AE1B8142A66000D90846C01ACF
:10177000281A20605819606022F0200003490840B0
:10178000E060002084F84870ABE70000BFCFD7FFCF
:10179000C16821F4001141F08001C1600021816025
:1017A000016070472DE9F74F15460C464FF0FF3B9F
:1017B0003848D768D2F814A0074209D05046A96922
:1017C0004FF0FF30002819DB3248C0430740EF607C
:1017D0004FF000496FF000484C4501D3464600E009
:1017E000264600993B465046324603F047F9A96920
:1017F00020F00042B21A1144A96128B12846FFF72F
:10180000C7FF5846BDE8FE8FA41BE5D10020F9E7CD
:1018100070B504460569C06A6168884200D8084608
:10182000E16821F42011E160C90312D5A84208D073
:101830002246411B2846FFF7B5FF10B14FF0FF309D
:1018400070BD0020E562C4E90150E06820F48030FA
:10185000E060002070BD10B50446C06820F0200094
:10186000E060A16AA06988420DD02046FFF7D0FF52
:10187000E06820F4405040F01000E060A06AA061F1
:101880002069E062606044F24001E0688843E06003
:1018900010BD00001000020010B50446AFF3008038
:1018A0002046BDE81040FEF797BC002801D000F0AC
:1018B0004DB8704710B5014602A000F08FF8012026
:1018C00010BD000053494752545245443A205265D6
:1018D0006469726563743A2063616E2774206F7067
:1018E000656E3A200000000010B5203AC0F00B8071
:1018F000B1E81850A0E81850B1E81850A0E8185006
:10190000203ABFF4F5AF5FEA027C24BFB1E818507B
:10191000A0E8185044BF18C918C0BDE810405FEADD
:10192000827C24BF51F8043B40F8043B08BF704759
:10193000D20728BF31F8023B48BF11F8012B28BF5E
:1019400020F8023B48BF00F8012B704701491820DE
:10195000ABBEFEE72600020000210160C0E90110D5
:10196000704710207047034640688C46002818BF17
:1019700088423CBF03464068F8D318681844884240
:1019800007D00CF1030020F00700001D411A521A85
:101990000146081D0A60FFF7D9BA10B50146C268B2
:1019A000900703D0900607D5886A0AE0FEF73AFC54
:1019B00001210160881E10BD8B69486818440B69BD
:1019C000C01A91F848301BB191F84910401A10BD67
:1019D0001103FCD50028FADD401E10BD70B5054688
:1019E0000C460A2000E06D1C00F05DF835B1287847
:1019F0000028F8D102E0641C00F055F814B12078FA
:101A00000028F8D1BDE870400A2000F04CB810B5AD
:101A100000F052F8BDE81040FFF747BF032A40F23C
:101A2000308010F0030C00F0158011F8013BBCF180
:101A3000020F624498BF11F801CB00F8013B38BF98
:101A400011F8013BA2F1040298BF00F801CB38BFA6
:101A500000F8013B11F003033FF446AF083AC0F031
:101A6000088051F8043B083A51F804CBA0E808106C
:101A7000F5E7121D5CBF51F8043B40F8043BAFF39F
:101A80000080D20724BF11F8013B11F801CB48BFF9
:101A900011F8012B24BF00F8013B00F801CB48BF2F
:101AA00000F8012B704708B569468DF80000032047
:101AB000ABBE08BD7047000010B5012805D000215D
:101AC00003A0FFF78BFF012010BD09A1F8E700007C
:101AD00053494752544D454D3A204F7574206F6617
:101AE0002068656170206D656D6F7279000000007F
:101AF0003A2048656170206D656D6F727920636F63
:101B0000727275707465640053EA020C00F06980AB
:101B10002DE9F04B4FF00006002B1FBFB3FA83F501
:101B200003FA05F424FA05F65E4012BF1643B2FA32
:101B300082F502FA05F4C5F120051EBF22FA05FC64
:101B400044EA0C04203556EA044C4FEA144418BF0A
:101B5000641C4FF000084FF00009904271EB030C39
:101B600039D3002919BFB1FA81F701FA07F6B0FAA3
:101B700080F700FA07F6C7F120071EBF20FA07FC1E
:101B800046EA0C062037B6FBF4FCA7EB0507103F2E
:101B900007F01F0BCBF120062CFA06F60CFA0BFB14
:101BA00044BFB3460026202FA4BF5E464FF0000B73
:101BB0005BEA060C08BF4FF0010B19EB0B0948EB71
:101BC0000608ABFB027C06FB02CC0BFB03CCC01B64
:101BD00071EB0C01C1E70B46024641464846BDE8A1
:101BE000F08B13B5084318BF4FF0FF300146AFF339
:101BF0000080BDE81C407047431A28BF9A427FF618
:101C00000DAF10441144032A40F2268010F0030F58
:101C10001EBF11F8013D521E00F8013D10F0030FE8
:101C20007FF4F6AF11F0030300F04380083AC0F0F0
:101C30000B8051F8043D083A51F804CD40F8043DBA
:101C400040F804CDFFF7F3BF121D5CBF51F8043D0F
:101C500040F8043DAFF30080D20724BF11F8013DE6
:101C600011F801CD48BF11F8012C24BF00F8013D47
:101C700000F801CD48BF00F8012C704702F0FF03C7
:101C800043EA032242EA0242FFF741BC431A28BF5B
:101C90009A427FF629AE1044114410F0030F1EBF84
:101CA00011F8013D521E00F8013D10F0030F7FF4C2
:101CB000F6AF103AC0F00A8010B531E9185020E9AB
:101CC0001850103ABFF4F9AFBDE81040530724BFD5
:101CD00031E9081020E9081044BF51F8043D40F8EC
:101CE000043D12F0030F08BF7047D20728BF31F838
:101CF000023D48BF11F8012C28BF20F8023D48BF23
:101D000000F8012C70470000F8B54A484A4C0068BA
:101D10002065607A80B1E06C216D484A22F810108D
:101D200001307F2888BF0020E064206D402190FBB7
:101D3000F1F043490860F8BD207901283FD0002820
:101D400055D144499FED440A0868C96EC0F3074065
:101D5000FF2826D0C1F30B1140F6FF72914220D02C
:101D600094ED140A01EE101A3949B8EE411AB8EE92
:101D7000C00A31EE400A9FED391A20EE010A9FEDAC
:101D8000381A81ED030A91ED030A80EE010A81ED14
:101D9000030A00EE100A91ED031AB8EE400A30EE85
:101DA000410A2B48294D4FF48046FF21E02280ED67
:101DB000030A00F0F9FF012020712E60F8BD94EDB8
:101DC000140A9FED201A214D4FF480462048FF2130
:101DD000E22200F0FEFF9FED1C1A20EE010A84EDC6
:101DE000160A00F0E1FF022020712E60F8BD94ED8C
:101DF000140A9FED141A154D4FF480461448FF2124
:101E0000F322002700F0E5FF9FED0F1A20EE010AF4
:101E100084ED170AC5F88060BFF34F8FBFF36F8F53
:101E2000C0E90E210763283000F062F827712E60A8
:101E3000F8BD00BF48200040B4020020D4070020B5
:101E40003830084000409C450000803900E100E047
:101E50000C000020B081E00F339388C300409C4405
:101E60001F85EBC570B5457A9C4E044665B1306858
:101E700000060ED48148002100F0E4F84FF4FA4047
:101E8000002100F0DFF804E07C48002100F0DAF8DF
:101E900005460A20B060D4E90012207A090660F3F2
:101EA000164105F07F0041EA0020A17A1043002985
:101EB00018BF40F0100030600948C0210160094996
:101EC000E06808603068000605D5074800F076FA3B
:101ED000064800F073FA4FF40060306470BD00BF34
:101EE0000020004400200046B800320000820400B8
:101EF000F8B52A4D0446022000212860A06800F0B1
:101F000053F8D4E90320D4E901316669070247EAAE
:101F1000036747EA064646EAC202667E002E18BFFD
:101F200042F00052A67E002E18BF0432267E002EFC
:101F300018BF42F00202E67E3243F32808BF0029B0
:101F400005D1032B9EBF042161F31B62002111F018
:101F500080034FF0E00608BF4E01324321F08001BC
:101F6000AA600F4EEA683240002B18BF0A4321686E
:101F700042EA4141627F002A18BF41F48041E96092
:101F8000084AF338217FB0FA80F040091160C2F8A6
:101F90003806686FA86F6868F8BD00BF0820004069
:101FA000F8BFE1FF0800044270B5234A0024062868
:101FB00013680AD8DFE800F004150B1A3131290044
:101FC0001E4804680568006805E0812825D11B4883
:101FD00044684568406804F4FE4405F00F052C444D
:101FE00018E0164804680568006803E01348446870
:101FF00045684068F026C5F3034506EA10404FF4F3
:10200000FE4606EA14442C4406E00C4884688068C6
:1020100004F00F0400F0F0000444094800291CBF3C
:102020004FF6FF70C8F2000018BF1021184004FAE4
:1020300001F10843106070BD342000401082E00FB1
:102040000080FFFF10B50446B0F5FA4FB64898BFC0
:102050004FF4FA44844228BF044619B9084800F0F6
:10206000ADF901466018013884429ABFB0FBF4F024
:10207000013800207F2828BF7F2010BD0024F400F5
:102080004041050080B515480A214FF4F8128160DF
:1020900013490161002141618161C1610260114AFE
:1020A0004164026401630162416243F6E4118162AA
:1020B000D0F88C1041F00101C0F88C10D0F89010CD
:1020C00041F00101C0F8901000200021FFF76CFFE3
:1020D00000200121BDE88040FFF766BF00200040DE
:1020E00000FFFF00000F030370B518487349184A3A
:1020F000EFF3108372B6CB695C1C34BFCC614FF038
:10210000FF34056813680668013CCC6100D162B6F3
:1021100005F0606406F0606584F0007485F0007579
:102120002C439DB2B4FA84F46409B5F57E4F02D114
:10213000002CDDD105E024B118B2402190FBF1F074
:1021400001E04FF47E4000B270BD00BF0440084083
:102150000870084014490868CA6810408860C107C0
:1021600004D05649CA6A42F48032CA62410704D593
:102170005249CA6A42F40032CA62010704D54F4983
:10218000CA6A42F48022CA62C10604D54B49CA6AAF
:1021900042F40022CA62800604D54848C16A41F46C
:1021A0008011C162704700BF307008402DE9F047D0
:1021B000324AD2F89C00D2F8A81001EA00085FEA7F
:1021C0004850C2F8A48041D52D4E307C01283DD125
:1021D00092463A4F2B4D4FF004091046DAF80C4066
:1021E0006FF35F34200429D05046DAF80000716F95
:1021F000A1B10139716739680831396000F00F0108
:10220000C0F30310695C285C0844B16F51FA80F098
:10221000B067FFF769FF90FBF9F03073B06E3B6871
:10222000316FB26F984238BF4FF0FF338A4238BFE8
:102230004FF0FF32C6E91B32013CD3E7D6E91A0161
:10224000814203D3F86A40F48000F8625FEAC85024
:102250000D4842BF0121C0F8001601605FEA8851B5
:1022600042BF0121C0F8001601605FEA085142BF79
:102270000121C0F800160160BDE8F0874410084055
:10228000B402002040960000000B024310B5EFF3AB
:10229000108272B6094AD369013338BFD361084B43
:1022A00021B110F8014B01391C60F9E7D06910B178
:1022B0000138D06100D010BD62B610BD30030020DF
:1022C00018100840164988420ED0164988420BD093
:1022D000154988420BD0154988420BD014498842D1
:1022E0000BD0144988420BD11349096809E01249FF
:1022F000C96906E01049C96803E00F49896900E02F
:1023000000216C4A10600D4A1368002BFCD1094A69
:1023100090420B4808BF21F0C0610160704700BFC8
:1023200040420F0080841E000024F400C0CF6A00E9
:10233000405DC60000093D009082E00F6428C8435C
:1023400018400E4070B5C0F303214D1E092D31D841
:102350001949012301F13002A1F1B004DFE805F0D1
:1023600021052A080B150D2A111F01F1100418E090
:1023700001F1180415E00C4613E001F138021023B6
:1023800003E001F140024FF48033D1F89440E407B8
:1023900003D1D1F890401C42FBD1144601E001F179
:1023A000A0047C21012201EA90204FF0844100EB3F
:1023B0004410425070BD00BFB0400E4010B5C0F395
:1023C00044410020192900F27180DFE801F00D116D
:1023D000176F6F0D1F2A626F2F366F3F6F494B6F5C
:1023E0004D6F6F6F6F6F6F52BDE8104002F032BAE1
:1023F00002F030FA5449D1F8981004E002F02AFAB9
:102400005149D1F89C10C1F3082106E002F022FAEC
:102410004D49D1F8A410C1F304210131B0FBF1F012
:1024200010BD49480068C00733D0DDE7224803F0FB
:10243000D3FD4549D1F8C01005E0214803F0CCFD9B
:102440004149D1F8B01001F00F0107E01B4803F03B
:10245000C3FD3D49D1F8B81001F00301C84010BDDB
:10246000174802E0154800E01348BDE8104003F0AB
:10247000B3BD354C0C21D4F8EC0001EA900033498F
:102480000858042808D0082808D007281CBF0020B6
:1024900010BD0848006810BD054810BD02F0DAF90B
:1024A000D4F89010C1F304210131484310BD00BF9E
:1024B00000F049020C000020050024000300200069
:1024C00002001E0000F00F00411E0020072939D82D
:1024D000DFE801F0040F12381B2838301A48406A30
:1024E00000F0070105208A1E032A38BFC1F106004B
:1024F0007047154800690AE01348406900F007007A
:10250000013804280CD213A107E00F48806900F0BD
:1025100007000138042803D20D4951F82000704704
:102520000120704708480068C0074FF0090008BF45
:102530000720704704480C21D0F8EC0001EA900015
:1025400002490858704700BF70400E4030960000A6
:1025500020960000030000000200000006000000BA
:102560000A0000002DE9F04700F00F000C46411E64
:10257000072935D8464D002605F11400DFE801F0A3
:102580000410133012303022424A4FF00108032C5D
:1025900028D0042C29D0052C22D10124032026E0A8
:1025A00005F10C000646032C1AD10120012101225D
:1025B000012400F07BF8002E08BF05F110063460FE
:1025C000BDE8F087042C0BD1022001210122022456
:1025D00000F06CF8D5F8E80064F30510C5F8E800E1
:1025E000BDE8F087924601200AE002200224012182
:1025F00092461160D5F88C1041F08071C5F88C10AE
:102600000121012200F052F8234F41F67139F86B95
:10261000C7F83C903968396868F31961396008B1C6
:102620000020F8632C6002F015F9D5F89460044698
:1026300002F010F9194A0021194B90424FF00002A4
:1026400088BF0122CAF800209842164BD5F88C208A
:1026500022F0807228BF02F18072C5F88C20F86BDE
:10266000C7F83C903A68C6F308220132B4FBF2F294
:102670000D4C1A443B68A24223F0407338BF03F16B
:10268000807300283B60ABD0F963BDE8F08700BFE2
:1026900074400E404000C84304000E400048E8016A
:1026A0000148E801BF8782FEC0E1E4002DE9F8435C
:1026B000032809D0022812D0012876D180264FF0B5
:1026C00040080724062304E00226012400234FF0DB
:1026D000010891B1022807D00120012126E003243E
:1026E000022349B14FF004084048016811F0300F4F
:1026F00012D00121002019E0082601213B48994011
:10270000C663C36E0B42FCD1002A4ED00121A1400A
:10271000C26E0A42FCD148E00168C90704D00168D2
:10272000012666F305110160002000212F4F204E85
:10273000C7F83C8056F82350002DFBD0AAB356F8BA
:102740002420002AFBD008432FD13868C00701D1CC
:10275000002005E04FF48060C7F884002020386432
:1027600000F02AF8BD6F0220002101224FF001097C
:10277000FFF79CFFF86E0F4A386869F30510386060
:10278000C5F3C3106FF3DF250C2828BF0C20F968B0
:10279000114041EA0070284400F14050F860C7F849
:1027A0003C8056F824000028FBD0BDE8F88300BF29
:1027B0000012C84300F8FF0F0B49002808BF4FF470
:1027C00040012028094808BF4FF40001026812F0B8
:1027D000300F08BF4FF44001C26E0A408A42FBD15D
:1027E000490248BFC06F7047FF03C10724400E4035
:1027F0000549096805490A6822F007021043086084
:102800003348408A00F004B88009C64370300E4057
:10281000B0B52E494A6A02F007030A68D20704D00D
:10282000022B02D3142807D30FE00A68D20705D180
:10283000012B03D80A280BD203220DE00A68D20725
:102840004FF0FF3208D0012B06D80F22282801E0D4
:102850000F22142838BF07221002F14B40EA023041
:102860000A6822F47F4210430860988A0A68C2F31B
:1028700003222830013200EB500002EB8204B0FB4F
:10288000F4F0441E0720072C28BF04460D6825F0ED
:10289000EE6545EA046404F580140C60DB8A1CB222
:1028A000002C11D42833540003EB530304EB5202E1
:1028B0009BB2B3FBF2F2072A38BF10464A6822F0F7
:1028C000700242EA00104860B0BD00BF4C300E40BC
:1028D000B402002070B50A784B788C78CD789603D6
:1028E00006F58056002B08BF9603002C18BF06F58E
:1028F0000066002D18BF06F580664A7909793243D3
:10290000032928BF032142EA0121024A42F820108C
:1029100070BD00BFA00008401CB500206C468DF8BB
:1029200001008DF804001F48B0F88010ADF80210C7
:1029300090F87C1090F8820080F001008DF8000083
:10294000481E21468DF805000020FFF7C3FF012037
:1029500021468DF804000220FFF7BCFF1CBD00BF1C
:10296000BCB500206C4601258DF801004FF47F4076
:10297000ADF804000B4890F8781090F879008DF8C5
:1029800003008DF8020081F0010021468DF800005F
:102990000120FFF79FFF032021468DF80450FFF729
:1029A00099FFBCBD6C0600205D490868CA681040EC
:1029B0008860C10704D0C9498A6A42F008028A6265
:1029C000810704D5C5498A6A42F010028A6241072C
:1029D00004D5C2498A6A42F020028A62010704D5FE
:1029E000BE498A6A42F040028A62C10604D5BB49E8
:1029F000CA6A42F48072CA62810604D5B749CA6ABB
:102A000042F40072CA62410604D5B449CA6A42F46B
:102A10008062CA62010604D5B049CA6A42F4006203
:102A2000CA62C10504D5AD49CA6A42F48052CA627D
:102A3000810504D5A9494A6942F001024A6141056C
:102A400004D5A6494A6942F002024A61010504D54B
:102A5000A2494A6942F004024A61C10404D59F496F
:102A60004A6942F008024A61810404D59B494A69D7
:102A700042F010024A61410404D59849CA6A42F4FE
:102A80000052CA62010404D594498A6A42F0800265
:102A90008A62C10304D591494A6942F020024A6121
:102AA000810304D58D494A6942F040024A614103DD
:102AB00004D58A494A6942F080024A61C10104D5BD
:102AC0008649CA6A42F48042CA62810104D58349B8
:102AD0004A6942F480724A61410104D57F494A69DA
:102AE00042F400724A61010104D57C498A6A42F4C9
:102AF00080728A62C10004D578494A6942F48062D2
:102B00004A61810004D57549CA6A42F40042CA622A
:102B1000400004D57148816A41F4007181627047B8
:102B200060000840FFF740BF012138B190FAA0F2E1
:102B3000B2FA82F201FA02F29043F6E7704700001F
:102B40000949C8680A68104045F25552104088602B
:102B5000FFF7EABF0449C8680A6810404AF6AA228B
:102B600010408860FFF7E0BF1CA400405B48C169CB
:102B700011B10139C16100D0704762B6704700BF22
:102B800070B525480121F94C016024480160607945
:102B900098B9606C01306064606CB0F57A7F0CD1DC
:102BA00000206064A07930B91E48006800F07060B1
:102BB000B0F1007F01D101F0ABFB1B4E6421356801
:102BC000706D40B290FBF1F040B205F04AFE9FED0F
:102BD000100B53EC102B05F0C3FB05F08FFB134AD1
:102BE000716D01EE100A45F3074002EE100A1268FB
:102BF00049B2B8EEC22A52B2891A00EE101AB8EEE3
:102C0000C00A01EE002A84ED122A70BD00BF00BF89
:102C1000986E1283C0CAD13F28600440082000404B
:102C2000B402002004400840B081E00F20300E4084
:102C300029490868CA6810408860C10704D0DF4984
:102C40008A6A42F004028A62810704D5DB498A6AF3
:102C500042F002028A62410704D5D8498A6A42F0EA
:102C600001028A62C10504D5D449CA6A42F0010250
:102C7000CA62810504D5D149CA6A42F00402CA6217
:102C8000410504D5CD49CA6A42F01002CA62010565
:102C900004D5CA49CA6A42F02002CA62C10404D5F6
:102CA000C649CA6A42F00202CA62810404D5C34915
:102CB000CA6A42F00802CA62410404D5BF49CA6A1E
:102CC00042F04002CA62000404D5BC48C16A41F027
:102CD0008001C162704700BF80600840300300205F
:102CE000124841F67132816B8263026889B242F008
:102CF000010202604FF07E628260012242604269FE
:102D000052070AD402224260094A4369DB0703D012
:102D1000531C002A1A46F8D14269026822F00102C7
:102D2000026009B100218163704700BF08000E40B6
:102D3000806967FF1B4A1A490B690132DB0718BF1C
:102D4000002AF9D132B1486001200860086940F3D7
:102D5000800070476FF00200704700BFF0B5C9B146
:102D60000F4B104D002208248A4213D00668DE6003
:102D70002E461C601F690136FF0718BF002EF9D1CF
:102D800056B11E6904300132B60744BF6FF001002E
:102D9000F0BDE9E70020F0BD6FF00200F0BD00BF1C
:102DA0000C000E407F6967FFC5F88060BFF34F8F4E
:102DB000BFF36F8FC0E90E21032101632830FFF7B5
:102DC00097B890F867010028704722462B4605F017
:102DD000EBBDB8EEC00A20EE010A70479BF8780000
:102DE0009BF8791080F001007047642001F07EBDEF
:102DF000C90441EA5031C004FEF786BE10EE100A45
:102E000006F05AB8BFF34F8FBFF36F8F704753EC84
:102E1000102B05F0C9BD4FF080510160BFF34F8FFB
:102E2000BFF36F8FC0F800117047486801F050BEC3
:102E300042624FF4807282624FF49C72C2627047A9
:102E40000A2001F053BD000001F0070261F30812EF
:102E500003490A6000F0070260F308124A607047F5
:102E6000C40F00214148807A18B1962803D9142054
:102E700016E0EC2014E0134A0021282909D0535C05
:102E8000984208D003D953185B78984206D3013191
:102E9000F3E7812004E0A1F1140001E0A1F11300A7
:102EA00040B2704710F1140FD8BF6FF013000549FE
:102EB0001428A8BF14201430C0B2085C2B498872B3
:102EC00000F002B88092000010B5F828014628BF33
:102ED000F8210028254808BF01210022C92988BF00
:102EE00001220266224A1F2901D8012325E03E293A
:102EF00002D803231F3920E05D2902D807233E3979
:102F00001BE07C2902D80F235D3916E09B2902D8EB
:102F10001F237C3911E0BA2902D83F239B390CE0EA
:102F2000D92908D87F231361FF22CA2938BF7F22FD
:102F30004266BA3903E0FF23D939136143660C4A6C
:102F40000C4C516163490B6823400B60D0E9183089
:102F5000800140EAC300D2E9043240EA02600A6814
:102F600040EA83301043086010BD00BFB402002067
:102F70000C000020FF3FC0E080B500F04BF80E4889
:102F800001684907FCD5816841F00401816034483B
:102F9000042101601E48FFF73EFF80BD064801681E
:102FA000C26811408160480704D50448416941F472
:102FB00000514161704700BF5C5008403003002061
:102FC00010B51048FFF7BEF90F4C1048206001F013
:102FD00041FC4FF47A71B0FBF1F0400200F5F8705B
:102FE000B0FBF1F00421A0F58070A0620020206306
:102FF000A06E40F00400A066194801600448FFF785
:103000000AFF10BD00040600005008400011010036
:1030100080E100E010B5114A114B1168C907114950
:1030200009D004241C604FF08054C1F88040FFF7A1
:10303000E9FEC1F88041002454609460D46000F03F
:10304000010404EB500001385062012018604FF079
:1030500080500860C1F8800110BD00BF0C500840CE
:103060000450084600E100E0AFF3008010B51748B7
:103070000168C26811408A018160154A0FD5154B5D
:103080004FF6C0741B68C2F8F8404FF4FE1404EA0F
:103090005303114CC4F8FC304FF0007323604B0114
:1030A00006D5C36823F08063C3604FF0806313606C
:1030B000090109D5D0F80411084A1140C0F80411DB
:1030C000C16821F00061C16010BD00BF144008401C
:1030D00020400844C00F00211C400846FFFFDF7F4E
:1030E0002DE9F84F2DED0E4BEF4DF04C05F540500E
:1030F000A0472846A04705F58040A04705F5E040D9
:10310000A04705F5C040A04705F5A040A04705F53C
:103110000050A04705F50040A04703A801F080FB40
:10312000E3480124E34E10210460E348C6F840015F
:10313000E248C0F82C1148F2E671C6F83411D6F80E
:10314000301141F40861C6F83011DD49C6F89C1011
:103150009DF80D10012906D19DF80C10012902D807
:10316000D84A28219164D8494FF000084FF00455FF
:10317000C6F8F880C6F898104FF46071C6F89080D1
:1031800001604FF004504FF48051F463FEF7BDF935
:10319000DFF838A33068B567F467EFF3108072B6D4
:1031A000CB4940F6EC624FF00450DAF81C40FEF7D1
:1031B0009BFB601C08BF6FF00104B146CAF81C40BD
:1031C00004B962B6C34D942105F1D000D5F8CC40C6
:1031D000D5F8C870D5F8C460C9F85C00BE48FEF7E1
:1031E00094F9C5F8C460C5F8C870C5F8CC40BB4CAC
:1031F0003C20A04740427021C5F8C0002846FEF799
:1032000084F90420C9F83C00C9F88480C9F8888092
:10321000C9F88C8001F01EFBC5F8A48001F01AFBF0
:103220006020C5F8B880A047C5F8A0006020A0477E
:10323000C5F8B4006420A047C5F8BC005020A047E2
:10324000D5F8BC1001EB0040C5F8BC006420A047D5
:10325000C5F8A8005020A047D5F8A81001EB004001
:10326000C5F8A8006420A047C5F8AC005020A047CE
:10327000D5F8AC1001EB0040C5F8AC006420A047C5
:10328000C5F8B0005020A047D5F8B01001EB0040C1
:10329000C5F8B000D9F80800C00705D0D9F8080073
:1032A00020F00100C9F80800286840F008002860F4
:1032B000FFF786FEDFF8F81D0020894ADFF8F4BD2D
:1032C000884B6867C5F8F4108749C5F8F800C5F859
:1032D000FC10C5F800118549C9F83C11D2F88410DA
:1032E00041F00301C2F88410D9F8901041F00101B7
:1032F000C9F890104FF40051D1604FF04071516106
:103300007B4990614FF4E0700860DBF84C000138B5
:10331000062805D80FF6A05151F82000744918600E
:10332000DBF86400082824BF0720CBF864000E20D7
:103330000860DBF86400400018604FF0C06008606F
:10334000DBF85C00400618606A4890646A48D06404
:1033500000201065DBF8500005F09AFA9FED680B2D
:10336000FFF755FD9BED040A05460E46B8EE400AF0
:10337000FFF744FD2A46334605F0AEF804F0BEFFE1
:103380009FED610B09EE100A9FED61AAFF2651EC3B
:10339000100B9FED610BCDE90010C80F59EC108B9D
:1033A0000290300625D0F5B200EE105AB8EE400A71
:1033B00029EE008A18EE100A05F07EFD41EC100B94
:1033C00007460C4604F06CFD51EC100B3A462346C0
:1033D00005F084FC029A4B4662F3DF71424605F029
:1033E000ABFD20B9B4EE4A8AF1EE10FA08DB013EDB
:1033F000D7E70FF6CC60FDF72BF9DAE908050BE00B
:10340000B0EE480ACAF8245004F0BAFDBDEEC00A76
:1034100010EE100ACAF8200040EA0540304D404A3C
:10342000E8612020DBF84411914217D03D4A9142D7
:1034300000F089803C48814200F0A9803B48294B3C
:1034400081422DD03A4881422CD03A48814279D0ED
:103450003948814240F0A18020209AE0DBF810201A
:10346000DBF850309FED351A0821CAE90C10042012
:1034700000EE102A1B029400B8EE400AB4FBF3F3EE
:1034800020EE010A9BED501A013BB8EE411ACAF832
:103490003830B4EE410AF1EE10FAB8BF032074E000
:1034A000102050E0102074E00004060045230000C6
:1034B0004441084404400840C0E653110C4008460B
:1034C0007A27000F08300840806D63033003002026
:1034D00064960000FC0E00216C0F00217545000071
:1034E000146008401860084602C00300E00088002D
:1034F00018600844040A142233414B5000BF00BF37
:10350000000000000000204000000000000000005B
:103510000000004700BF00BFFA7E6ABC7493683F9A
:10352000F0490200E0930400006A1800C027090077
:1035300000350C00804F1200801A06000AD7A33B0A
:10354000508D173D0820DBF81020DBF850301FEDC0
:10355000041A0421CAE90C1000EE102A4343940017
:103560000220B8EE400A9B0020EE010A9BED501AA3
:10357000B4FBF3F3B8EE411A013BB4EE410ACAF8CA
:103580003830F1EE10FAB8BF0120CD4B1CE0CC4B27
:1035900008200321CAE90C1008E020200321CAE911
:1035A0000C10C84901F5B451CBF84411DBF8502098
:1035B000DBF810105043890000EB4000B1FBF0F045
:1035C0000138CAF838000020BF49C04A1162DAF851
:1035D000381040EAC10040F4003018624FF06070CB
:1035E0001062DAF8340008384FEAB00006280AD82A
:1035F000C1B2472222FA01F1C90704D00FF6D8411F
:1036000051F8200018624FF402602862B048E86365
:103610009BED151A9BED140AB8EE411AB8EE400A5C
:1036200031EE011A81EE008A18EE100A05F044FC12
:10363000B5EE408AF1EE10FA4ADD9FEDA79B9FEDB3
:10364000A88B82468B461F25002D4CD4284605F0BA
:1036500008F904460F465046594622463B4604F0B8
:103660003BFF41EC100B04F09BFB51EC100B05F001
:10367000C9F8B0EE480A0646F0EE680A04F044F9CC
:1036800053EC102B2046394605F08EF902460B46C6
:103690005046594605F022FB074602980C4653EC6B
:1036A000192B60F3DF71384641EC1A7B05F044FCBE
:1036B00060B9DDE900323846214605F028FCB0EE5D
:1036C0004A9AA846B146F0EE6A9A50B9013DBBE766
:1036D000DFF8D8ABDFF8E0BB4FF000084FF000098F
:1036E0000BE0A846B146DFF8C4ABDFF8CCBB7E4D9B
:1036F000B9F1000F48BF09F12009744940F2FF30C9
:103700006F4A88631F20B9F11F0FA8BF8146B8F127
:103710001F0FB8BF40460128D8BF012040EA49101A
:103720009063DBF81001032824BF0020CBF81001C0
:1037300030200860DBF8100100011060DBE93F0178
:103740002129A86324BF2020CBF800015F494FF452
:1037500078400860DBF8000120B1644901EBC0202B
:103760005A4910604FF4E0200860DBF80801052892
:1037700024BF0020CBF808014FF0E0700860DBF8B0
:103780000801800510604FF0087068639BF86800BE
:1037900018B1FF218BF81C1101E09BF81C114B4D57
:1037A0004FF6FF72DBE93A342A639BF81A51B3FBF8
:1037B000F5F3B5FBF4F4023B23EAE376002BC8BF34
:1037C000013E0F230F2EA8BF1E460F2C38BF2346E5
:1037D00041EA03213A4B41EA063119630021424B89
:1037E000196118B10121CBF8202104E0DBF8200198
:1037F000642888BF0121324A29B19BF8680010B9BA
:103800006420CBF820013A4C304904F57020C860A0
:10381000DBF820010004D0604FF44040C860DBF8C2
:10382000200150B1DBF84C0020F00100042804D046
:10383000DBF81001022840F056814FF44050C86078
:103840000020CBF824019BF81B01204B4FF4702182
:10385000102824BF0F208BF81B0159601946000463
:1038600000F580405060DBF8EC00052824BF042000
:10387000CBF8EC009BF81851102D24BF0F258BF8C6
:103880001851DBF8E800B0F5803F24BF4FF6FF7019
:10389000CBF8E80017484862DBF8100101282BD16B
:1038A000DBF80C0140B3DBF8E8004FF0FF31A04635
:1038B00001FA00F09BF8E4104840C0431FE000BF4D
:1038C0001860084600040600FFFF7F0018600844E7
:1038D0009003230000BF00BF0000001EDC0C374235
:1038E000000000000000F03F1460084000F8FFFFF7
:1038F0000000F0FFBF07FFFF9BF8E400A046DBF8E5
:10390000EC40214601F048F8E94A24B16FF00F017C
:1039100001EB041151625062E8015062DBE93A01A7
:10392000B0FBF1F0000450629BF8F840212C24BF5A
:1039300020248BF8F8402146DBF8F00001F02CF849
:103940000546DBF8F400214601F026F8D94F1F2286
:10395000D74E394641F8042F621E72604FF0FF3295
:10396000A240DBE94334002B18BFD343012CD24CD7
:1039700018BF002383EA05025840E2622063206BEF
:1039800028B1606B311D10F4706F08BF391D4FF402
:103990000070324608604FF400619BF8F90000287F
:1039A000304608BF38464160C44FDBF87400022837
:1039B0001BD001284BD0C24E002840F0C880002503
:1039C0007D61BD613D607D609BF87B00002800F05B
:1039D0009280DBF87C00BBF88410084401387861E1
:1039E000FEF79AFFFEF7BCFF75E00025DFF80469DB
:1039F0007D61BD613D607D608DF81950FFF7EEF986
:103A00008DF81B108DF81A108DF818004FF47F40B8
:103A1000ADF81C0006AC00202146B047F86B2146EB
:103A200020F03000F86301208DF81C000220B04720
:103A3000F86B214620F0C000F86301200695ADF830
:103A40001C50B04703202146B0479D4E7FE09BF8B5
:103A50007B009B4E00287AD0FEF75EFFFEF780FFCA
:103A600000206FF0FF027861B861DBF87C00BBF8E2
:103A70009810014401397960BBF89C10014402EBB5
:103A80000121BBF8962010448E4A02EB0040BBF89F
:103A9000862040EA02309BF8942040EA0210084356
:103AA00038609BF89A0018B1386840F4801038608C
:103AB000DBF86C00DBF89010814203D0386840F0EE
:103AC00008003860DBF888000421002808BF0321C3
:103AD000386808433860F86B20F0F000F863F86B42
:103AE00040F0A00032E04FF48050D060DBF82401B9
:103AF0008003D060A7E6BBF88400DFF8F8670138E0
:103B000078614FF47F408DF81150ADF81400FFF745
:103B100065F98DF813108DF812108DF8100004ACB3
:103B200000202146B047012021468DF814000220D4
:103B3000B04701202146ADF814500495B04703204A
:103B40002146B047F86B5E4E20F0F000F8631B2072
:103B50005D4D40F67F71B864012038635120B8662E
:103B60000820C5F880012860786A88437862DBF80D
:103B7000D000013805280CD8DFE800F00D03101341
:103B800015034FF48070B862786A40F025007862BF
:103B90000BE0002008E04FF4847005E048F21600C6
:103BA00002E0442000E08020B862DBE935100BF130
:103BB0001C04F962102824BF0F20CBF8D800DBF8D2
:103BC000DC10042924BF0321CBF8DC10DBF8E02053
:103BD000202A24BF1F22CBF8E020490141EA00201F
:103BE000796A10430843786238481ECC0160DFF8D8
:103BF0000817416042EA43314162DFF8001704636D
:103C0000334C4163DBE90B2142EA41314165DBF88A
:103C100034100166DFF8E8164166DBE90E2142EA5E
:103C200041310122C0F884102A49C1F8002CC1F8A2
:103C300000260A602849294AC0F8EC10D0F8EC1098
:103C400021F48061C0F8EC10802040F2FF11C5F82B
:103C5000800128604AF63F4020600020A063D6F82B
:103C6000900040F00400C6F89000DBF804005160BA
:103C70001B491C4A0144914202D2022102208FE0DA
:103C800019491A4A0144914202D20321032087E0D4
:103C90001749184A0144914202D2042104207FE0CE
:103CA0001549164A014491422AD20521052077E0A0
:103CB0001860084618600844146008400400084072
:103CC000044008400000FFFF00E100E00010084051
:103CD00008300840000502430B0A0B00303008444E
:103CE000806474BB00A3E111C03398D3C09A930CD5
:103CF0004032BADD80FE210A40252AE400F36F0637
:103D0000C949CA4A0144914202D21320062147E020
:103D1000C749C84A0144914202D2142008213FE019
:103D2000C549C64A0144914202D21B20092137E00D
:103D3000C349C44A0144914202D215200A212FE00E
:103D4000C149C24A0144914202D21C200C2127E001
:103D5000BF49C04A0144914202D21D200F211FE0F9
:103D6000BD49BE4A0144914202D22420102117E0ED
:103D7000BB49BC4A0144914202D29B2012210FE070
:103D8000B949BA4A0144914202D22520142107E0E0
:103D9000B7490844B749884200F285829C2018211F
:103DA000A946CAF80C10E062B34FE06A3A46C0F385
:103DB0008210002808BF0120E16AC1F3C201002976
:103DC00008BF01214843E16A11F0070108BF012142
:103DD0004843CAF80C000128D6F8341121F010012C
:103DE00008BF1031C6F834110023DBE90150DAF8BE
:103DF0000C10DBF84461A0FB0101FEF7F9FF6063E2
:103E00003A460023DAF80C00A5FB0001FEF7F0FFAC
:103E100060623A460023DAF80C00A16A01EA080160
:103E2000B846A162A6FB0001FEF7E2FFA16A0843C3
:103E3000A0629BF80C0010F00100CAF810000AD133
:103E40008E484FF480118E4A01608E481168043804
:103E500021F00F010DE08C494FF48010884A086072
:103E6000106820F00F00106088481168043841F095
:103E70000201116010210160DFF8CC1FC87B18B966
:103E8000A06C00F03F00C873DAF81050616A266B2E
:103E9000676BA36BA26AA4467D4CD4F89040E406FD
:103EA00022D506F03F046FF39F476FF3DF33002DF9
:103EB00008BF524207FB0411194440F25353114406
:103EC000A1FB0812C90C41EA4231724AB1FBF2F17E
:103ED000714A11FB0322714B02FB01315F4A5043CF
:103EE000B0FBF1F0CCF8480000F0DEFB4FF0804072
:103EF00043F63E016A4AC9F88001C9F88000694862
:103F0000FEF780FF416342F2BC518163664941661E
:103F100041691140654A41610168114001600168D1
:103F200041F41C31016041686FF3DF314160816809
:103F300021F47C418160816841F000418160016928
:103F400021F0FF010161016941F082010161016815
:103F500021F0FF0101609BF82C11026811430F2230
:103F60000160416821F4706141609BF848110F299C
:103F700028BF1146436843EA01214160416821F4AA
:103F8000E04141609BF82911072928BF07214368B8
:103F900043EA01314160816821F4F07181609BF84E
:103FA0002B110F2938BF0A46816841EA421181600E
:103FB000816821F07C7181609BF82A113F2928BF1C
:103FC0003F21826842EA01518160C16D21F4FC51B8
:103FD000C1659BF82811C36DDBF84C20042A04D17D
:103FE00023F47C23B24DC3650BE043F48073B04DE2
:103FF000012AC365C36D23F47C23C36511D0042A51
:1040000068D1DBF85030DBF8404103EB83039C427E
:1040100004D2026822F4E062026066E04FF4A0334A
:104020005AE04FF4804357E0805AA9EA40357F06B2
:10403000006F98EE8014EF0300B780F00048E801AD
:1040400080710DF280BA8C0100508EF480DE800207
:1040500000A1B3F60051250280374CF780969800F6
:10406000805B40F80024F400C0B806F9405DC6004B
:10407000001F0AFA3F66030100F04902303008468B
:10408000146008401860084630300844186008443E
:104090000440084000366E01F439FFFF502D19002E
:1040A00040FF10C01470084080846D00FF0778FE48
:1040B0005C9600006C0600204000000080000000BC
:1040C000C0000000800100008001000040010000ED
:1040D000000100004FF40033C46D2343C365042A7C
:1040E000036823F4E063036003D1026842F4807242
:1040F0000260C26D22F03F02C2650422022908BF9D
:104100000322012908BF0522C36D1A43C2656FF05F
:104110000F020229026618BF0321026E11430166D5
:10412000816821F470218160816841F4803181606F
:10413000016E21F470610166016E41F480710166C7
:10414000016E21F0F0010166016E41F0100101667F
:104150006FF003019BF8CC0001EB800040F4E061BC
:10416000694801600021DBF8C420CAE90111022A74
:1041700012D3DBF8C8400023002104F001056408D5
:1041800045EA430302F00105520845EA4101012ACC
:10419000F3D1474DCAE901138161DAF808100161D2
:1041A0009BF8CD104A0705D4016841F04001016039
:1041B0009BF8CD10CA0605D5016841F08001016069
:1041C0009BF8CD10CA0705D1016841F020010160BC
:1041D0009BF8CD108A0705D5016841F48051016034
:1041E0009BF8CD10890603D5016841F002010160FA
:1041F0009BF95C01FEF756FEBBF860116868C0F3DE
:104200008210FE30C0B2042807D8012202FA00F062
:1042100010F0130F01D0002000E096204FF416425A
:10422000264B51434FF47A72B1FBF0F14901B1FBD7
:10423000F2F2FF2112B152080131FBE700041D4ADE
:10424000A86540F6FF701065C8B20F2828BF0F2080
:1042500000021865A86DA86D686DA86DA86D686DE1
:10426000A86D686D9BF865119BF86401FEF7ECFD85
:104270000020CAF82C00CAF82800CAF81400234805
:10428000016840689BF80F00CAF818101D4948746F
:1042900000F0B0FA02F002FEBDEC0E4B01B0BDE83A
:1042A000F04F00F035B8A94603207CE5300300202C
:1042B00014600840186008446C0600201860084626
:1042C00043616E6E6F742063616C63756C617465BD
:1042D0002054584252210D000000800000000001CF
:1042E0000000800100000002000000020000000247
:1042F00000000002D52800006C0500206C0300209F
:104300006C040020B402002000200840F081E00F7F
:104310002DE9F8433048BBEE091A90ED030A30EE60
:10432000010AFEF76BFD9FED240B04460D46FEF7D8
:104330006EFDFEF74AFD9FED220B80468946204622
:104340002946FEF764FDFEF740FD06460F4640464F
:104350004946FEF73AFD32463B4604F001F89FED30
:104360001A0B06460F4620462946FEF750FD3246F8
:104370003B4603F0F5FF9FED160B53EC102B03F0BB
:10438000EFFF03F0BBFF154900EE100ABDEEC00AB7
:10439000098810EE100A084484B2B4F5FF7F88BF84
:1043A00040F2FF1402F090FB204602F0FBFBBDE858
:1043B000F84302F009BE00BF61D2CE1F894D3A3FDB
:1043C0007BA35698BED760BFE3C798BB9610F2BFD9
:1043D000423EE8D9ACFA05400C0000200001E00F95
:1043E0002DE9F041F54C40F20110072101224CF279
:1043F000503546F2A81302264FF05737A4F878003C
:104400000020C4E91B014FF07C51C4E9130542F2BE
:104410002005C4E91530AF23606784F86800606642
:10442000C4E90C00C4E9060684F88200C4F87E00E2
:10443000C4F87A00C4F8900084F89400C4F88600A8
:10444000C4F88A00C4F8960084F89A00C4F89C0066
:10445000C4E917213E21C4E908523F4DC4E90A636B
:104460003C4A3E4BC4E90E10D649A846C4E9007345
:10447000C4E90252C4E904102021A4F884100321E5
:10448000A4F8A0100021082904D06218013182F894
:10449000BA00F8E700202021082805D004EB4002EC
:1044A0000130A2F8A210F7E700200021082904D06B
:1044B0006218013182F8B200F8E729480027012587
:1044C00002262821C4E93A161D2184F8CC6084F81C
:1044D000E450C4E93677C4F8E070C4E9310710202D
:1044E000A4F8F80043F29360C4E93C074FF6FF706C
:1044F000C4E9345094F8CD0000F0C000093084F8CD
:10450000CD0004F1FC00FDF700F816480A216FF019
:10451000130284F84851C4E94877C4E94C77C4F8D9
:104520003871A4F83C71C4E95366C4E95627C4F84D
:104530001901FE2084F82C010B48C4F828010B480F
:10454000C4E95810032084F854010948C4E9508094
:10455000BDE8F08101003F06A086010000A1BC3348
:10456000058001000110011F00031D03070D01015B
:10457000801A060010B5044600F06CF9034AA0FB4F
:1045800004010023FDF7C0FA10BD00BF00127A003D
:104590002DE9F041364C374D2046A8473648A8470C
:1045A00036484FF0010836490426C0F800800A68F2
:1045B00066F303020A6002220260086862F30710D1
:1045C00008603048A847304F40F6AA602F490025C0
:1045D000F86041F205003D607860BD607D61FD647A
:1045E000B9643D667D67BD67FD673D65BD65786003
:1045F0002046FDF7E3FE3968002321F060013960B1
:10460000396839604FF4612101EB40104FF4E1113A
:10461000B0FBF1F01E4901EBC000F831084041F653
:104620001F7178613D66786F20F030007867786F91
:1046300078670320FD607867B86F88434FF40061A6
:10464000B867C148BE64C0F88011FA6C42F0040239
:10465000FA644FF48062016005200021FD60F8607B
:104660000C48FCF70BF8CA4880F80080BDE8F081E0
:10467000404105004523000000250A000CA000462B
:1046800004A000400022040000000140F9FF0100E6
:1046900000FF7F00AC0100200248C16802681140A1
:1046A00081607047703008402DE9F843424A434921
:1046B000444B1069D1F8447141499946002818BF0C
:1046C0007F420869D2688846D404A0FB0301002316
:1046D0002246FDF719FA0546D8F80C60D8F8000014
:1046E00022460023C846A0FB0901FDF70DFA06FB90
:1046F0000500364D3649C4193348B4F1804F9CBF8C
:1047000046F2E070C0F2350028600968C90709D098
:10471000304908443049B0FBF1F0FD30C0B2FEF73B
:1047200067F828682D4943F6FF5204EB5003B3FBAA
:10473000F0F02D4B0A602A492A4AB4FBF3F3013802
:10474000B4FBF1F111441A444978527840EA01303F
:1047500024FA01F140EA82222448436F1A43244B91
:104760004267B1FBF8F202FB0311642359434FF097
:10477000FF33414538BF013A03EB5201013203EBED
:104780005202072998BF072A0FD9436E23F004036A
:1047900043661202036842EA011123F4EE630360E8
:1047A000026811430160BDE8F88351EA0203ECD0CE
:1047B000436E43F00403EBE7300300206C06002057
:1047C0002C30084000F04902C0CF6A00540000209D
:1047D0004C300E4020A1070040420F00A440084486
:1047E00040BE402550960000401B5F1330400840FB
:1047F0000010B6FD08490A6802F07062B2F1806FDD
:10480000F9D00A6802F07062B2F1206FF3D0034968
:104810000860FFF749BF00BF044008403830084037
:104820000B494A680B6802F00F02C3F3811343EA95
:10483000820282700A6802F03F0242708A68C96888
:1048400002F0F002C1F3031111440170704700BF80
:10485000E0FF0FE00848016801F007010239022972
:104860009ABF07A252F821100449C06EC0F3042079
:104870000130B1FBF0F0704794400E40C0EA2101D6
:1048800000F0490200800000008000000D480E4941
:104890000160D0F8801041F47001C0F880100B481E
:1048A000416941F400514161016821F00301016057
:1048B000416B21F001014163016A21F080510162E5
:1048C000704700BF08ED00E00000000040300E40DF
:1048D000044801688160D348407A10B10248012140
:1048E000016070470C840140082000402DE9F04130
:1048F000134D04462868C0071DD1FEF761FB11491E
:104900000120114F4FF080560860204688463E60D7
:10491000C7F88061FEF730FB0420C8F80000C7F834
:1049200080600020FEF76EFAC7F880616860A860BA
:10493000E860BDE8F0812046BDE8F041FEF71CBB11
:104940000C5008400450084600E100E05D48016852
:1049500009061BD501680906FCD5C168B1480D4B95
:10496000026A9954016A01310162416A013141626E
:10497000016AB1F5807F04BF00210162416AB1F58F
:10498000807F03DD0021016241628162704700BFC8
:10499000B4020020341A002070B54A1E0021012301
:1049A0000024551C04BF084670BD20FA04F603FA23
:1049B00002F5F60718BF2943013A0134F1E7000078
:1049C0000D48BFF34F8F0D4A016801F4E0611143B8
:1049D0000160BFF34F8F00BFFDE700BF0648BFF384
:1049E0004F8F064A016801F4E06111430160BFF393
:1049F0004F8F00BFFDE700BF0CED00E00400FA059B
:104A000048F20401411A002011F1030F38BF4FF0A2
:104A1000FF30704748F20101411A0020032938BFD6
:104A20000120704710B5C8B1044600783A2815D166
:104A30000F492046FBF7A4FE98B10E492046FBF72C
:104A40009FFE88B10C492046FBF79AFE01464FF0C5
:104A5000FF30002908BF48F2030010BD4FF0FF30BF
:104A600010BD48F2010010BD48F2020010BD00BFA9
:104A7000B1920000B8920000A99200002DE9F04127
:104A80000D4648F20301884215D048F202018842DF
:104A900014D10C4EDFF8C88F144664B198F80000AA
:104AA00015F8017B08B9FFF773FD30684006FCD5A7
:104AB0007762013CF1E70020BDE8F0814FF0FF3064
:104AC000BDE8F0811000014000210022FBF748BD45
:104AD00000210022FBF77CBD80B54868FFF7F8FF96
:104AE000C1B2084A0846002918BF012082F86601B1
:104AF00005A200290AA018BF1046BDE88040FBF7B8
:104B0000A7BD00BF6C060020414E535745525F4D74
:104B10004F44453A2042524F4144434153540D00C3
:104B2000414E535745525F4D4F44453A204144440E
:104B3000524553530D0000000248016D02A0FBF7DF
:104B400075BB00BF6C0600204745545F42523A20B7
:104B500025640D0A00000000F8B51B4800F1680646
:104B600090F90C7070CE95B100EE105A01EE106AFB
:104B7000B8EE400AB8EE411A81EE000A9FED131A12
:104B800020EE010AFEF73AF941EC100B01E09FED2F
:104B90000C0B53EC102B0EA00097FBF747FB1448AF
:104BA000FEF70FF908D013A021462A46334601B07C
:104BB000BDE8F040FBF73ABBF8BD00BF00BF00BF47
:104BC0000000000000005940B40200200000C8426C
:104BD0004745545F4245523A20252E336625252C01
:104BE00020525353493A2025642064426D0D0A0037
:104BF0006C060020546F74616C3A2025642C20549C
:104C000065737465643A2025642C204572726F7256
:104C1000733A2025640D0A000248417C02A0FBF78C
:104C200005BB00BFB40200204745545F4348414ED6
:104C30004E454C3A2025640D0A00000004480288C5
:104C400004480068C0F3C82103A0FBF7EFBA00BF17
:104C50000001E00F30400E404745545F4354554E2D
:104C6000453A2025642C25640D0A00000248416D58
:104C700002A0FBF7DBBA00BF6C0600204745545F7B
:104C80004445563A2025640D0A00000004480549B1
:104C90000068098841EA004103A0FBF7C7BA00BFDA
:104CA0000400E00F0200E00F4745545F44455649B9
:104CB000443A20307825580D0A0000000248D0E917
:104CC000011202A0FBF7B2BA6C0600204745545F00
:104CD000465245513A2025642C25640D0A000000F7
:104CE0000248006841B202A0FBF7A0BA0860084081
:104CF0004745545F465245514F46465345543A2026
:104D000025640D0A000000000248D0F8441102A0FA
:104D1000FBF78CBA6C0600204745545F4946465263
:104D200045513A2025640D0A00000000034890F820
:104D3000641190F8652102A0FBF778BA6C06002098
:104D40004745545F50414354554E453A2025642C05
:104D500025640D0A0000000080B5FEF783F80146C7
:104D600002A0BDE88040FBF761BA00BF4745545F31
:104D7000504F5745523A2025642064426D0D0A0079
:104D80000248817A02A0FBF751BA00BFB4020020AA
:104D90004745545F504F5745524C4556454C3A2075
:104DA00025640D0A0000000080B5FDF79DF900EEB6
:104DB000100AB5EE001AFEF70CF8FEF71FF80246CF
:104DC00002A00B46BDE88040FBF730BA4745545F70
:104DD000525353493A20252E32662064426D0D0A03
:104DE00000000000704700000248D0F8401102A007
:104DF000FBF71CBA6C0600204745545F52584257D7
:104E00003A2025640D0A000010B50F4C0FA0E16B8D
:104E1000FBF70CFAE06B90B194ED101A00EE100A5B
:104E2000B8EE400AB8EEC11A81EE000AFDF7E6FFBF
:104E300002460AA00B46BDE81040FBF7F7B90C4844
:104E4000BDE81040FBF704BCB40200204745545FA6
:104E50005258434F554E543A202564002C2052534B
:104E600053493A20252E31662064426D0D0A000018
:104E70005FA60000E0B5064890F8F830D0E93C1293
:104E800090F8F900009003A0FBF7D0F98CBD00BFAB
:104E90006C0600204745545F53594E433A20307802
:104EA00025582C307825582C25642C25640D0A00B3
:104EB0000248012104220123FBF7B8B99AA500009A
:104EC0002DE9FF410E48C06803F0F6FF0D4C804607
:104ED0000D46A06D03F0F0FF0646E06D0F4603F0AF
:104EE000EBFF41EC100B47EC116B07A042462B4641
:104EF0008DED001B8DED020BFBF798F9BDE8FF81EE
:104F00000C000020B40200204745545F56543A205C
:104F1000252E31662C20252E31662C20252E31663B
:104F20000D0A000080B505A0FBF792FB0648026859
:104F3000436806A0BDE88040FBF778B9494E464F6C
:104F40003A204F4B0D000000F081E00F4D435549D2
:104F5000443A203078256C6C580D0A0080B5FFF774
:104F60003FFA02F043F8FEF7BBF802A0BDE880402C
:104F7000FBF76EBB494E49545F434F4E4649473A93
:104F8000204F4B0D0000000080B54868FFF7A0FDE2
:104F9000C1B2084A0846002918BF012082F86701FB
:104FA00005A2002909A018BF1046BDE88040FBF704
:104FB0004FBB00BF6C0600205052494E545F4D4F0E
:104FC00044453A2046554C4C0D0000005052494E85
:104FD000545F4D4F44453A2053484F52540D000002
:104FE00000F052FFF8B54868204F0E46B847054616
:104FF000B068B8470446F068B8471D4EB17859B15B
:1050000036A0FBF725FB1C48FDF7DBFE2CD038A0B3
:10501000BDE8F840FBF71CBB164F312CB0637D6038
:1050200007D81548FDF7CDFE02D014A0FBF710FB02
:1050300032244FF47A706043B8601EA0FBF708FB7F
:105040000D48FDF7BEFE08D07868B96848431E4990
:10505000B0FBF1F11DA0FBF7E9F80120F0627073DD
:1050600040F20110A6F80100F8BD00BFD14A0000CF
:10507000B40200200C0000206C0600205761726E04
:10508000696E673A2074696D6520696E7465727621
:10509000616C20746F6F2073686F72742C203530D0
:1050A000206D732077696C6C206265207365742EA7
:1050B0000D00000053454E445F5041434B45543A68
:1050C000204F4B0D0000000040420F0057616974F3
:1050D00020256420732E0D0A0000000053454E4425
:1050E0005F5041434B45543A204552524F520D00B8
:1050F00044657669636520696E206D6173746572BD
:10510000206D6F64652E0D00B0B54868FFF7E0FCB8
:1051100004466428084898BF6424844228BF044693
:1051200001F0D2FC054D2C65FDF7DAFF296D04A0D6
:10513000BDE8B040FBF77AB840420F006C06002093
:105140005345545F42523A2025640D0A0000000086
:10515000B0B5FDF76AFE124C85B23F2D28BF3F2542
:10516000A079657418B101F0FBFEFDF73EFEE8B2D0
:10517000FFF740FBA079032806D0022807D00128BA
:1051800007D101F029FE04E001F00EFE01E001F07C
:105190004FFE617C03A0BDE8B040FBF747B800BFFD
:1051A000B40200205345545F4348414E4E454C3AAB
:1051B0002025640D0A00000010B54868FFF788FC40
:1051C00004460D4801214171807918B101F0C8FEF3
:1051D000FDF70BFEB4F5FF7F88BF40F2FF1401F02E
:1051E00073FC204601F0DEFC01F0EEFE03A0214638
:1051F000BDE81040FBF71AB8B40200205345545FD5
:105200004354554E453A2025640D0A00B0B5486810
:10521000FFF75EFC04466428084898BF6424844273
:1052200028BF044601F050FC054D6C65FDF758FFA2
:10523000696D04A0BDE8B040FAF7F8BF20A10700EF
:105240006C0600205345545F4445563A2025640DB2
:105250000A00000010B5FDF7E8FD60B1044601F05A
:105260009FFEFDF73DFD0A49200C88804C8001F02F
:1052700015FF08A007E00BA0FBF7EAF90E48FDF7C1
:10528000A0FD04D00DA0BDE81040FBF7E1B910BDB2
:10529000341C00205345545F44455649443A204F3E
:1052A0004B0D00005345545F44455649443A204550
:1052B00052524F520D0000006C06002057726F6E64
:1052C0006720706172616D657465722E0D0000005B
:1052D000B0B548680D46FFF7FBFB0446A868FFF72A
:1052E000F7FB17498C4202D316498C420BD31D4859
:1052F000FBF7AEF91548FDF764FD11D020A0BDE81D
:10530000B040FBF7A5B910B10F49884209D3154841
:10531000FBF79EF90D48FDF754FD01D012A0EEE712
:10532000B0BD0A4DC5E9014001F0CEFBFDF7D8FE46
:10533000D5E9011206A0BDE8B040FAF777BF00BF7B
:1053400000D8B805813E6D5641420F006C06002022
:105350005345545F465245513A2025642C25640D2F
:105360000A000000DDA5000057726F6E67206368B9
:10537000616E6E656C2073706163696E672E0D00DF
:1053800057726F6E67206672657175656E63792EF0
:105390000D000000B0B54868FFF796FB254A264B84
:1053A000264C27499042D8BF1046054698423CBF3C
:1053B00044F6F015C0F20205A5420C4688BF2C4603
:1053C0009842204838BF2C46204490421E481F4A2D
:1053D0003CBF41F68024C0F20604204490421C48A1
:1053E0003CBF42F2C074C0F209042044884219480C
:1053F00019493CBF43F20054C0F20C0420448842D7
:1054000016483CBF44F68074C0F21204844284BF44
:1054100046F60024C0F2180401F056FB104DC5F802
:105420004441FDF75DFED5F844110EA0BDE8B04043
:10543000FAF7FCBEF0490200E96E030030570500A0
:10544000E0930400CFA8FAFFDF5EF8FF400D0300F1
:105450009F51F5FFBFBDF0FF801A0600C05C15002C
:105460006C0600205345545F4946465245513A2048
:1054700025640D0A00000000B0B548680C46FFF72F
:1054800027FBA168C4B20846FFF722FB1F210C4D81
:10549000C0B21F2C28BF0C4685F864411F2838BFB6
:1054A0000146204685F86511FDF7CEFC95F864119C
:1054B00095F8652103A0BDE8B040FAF7B7BE00BF7C
:1054C0006C0600205345545F50414354554E453AB5
:1054D0002025642C25640D0A00000000B0B5486842
:1054E000FFF7F2FA0446164D10F1140FD8BF6FF013
:1054F0001304142CA8BF1424A87918B101F030FDAE
:10550000FDF773FC0F48C0F85C4160B2FDF7CAFCC0
:10551000A879032806D0022807D0012807D101F076
:105520005BFC04E001F040FC01E001F081FCFDF7D0
:1055300099FC014604A0BDE8B040FAF777BE00BF71
:10554000B40200206C0600205345545F504F57456D
:10555000523A2025642064426D0D0A0070B5FDF7B3
:1055600064FC144D0646F828044628BFF826A8799E
:1055700018B101F0F5FCFDF738FC002C08BF01263E
:10558000F0B2AE72FDF7A0FCA879032806D002287D
:1055900007D0012807D101F01FFC04E001F004FC52
:1055A00001E001F045FCA97A03A0BDE87040FAF7DC
:1055B0003DBE00BFB40200205345545F504F5745D5
:1055C000524C4556454C3A2025640D0A0000000017
:1055D000B0B5FDF72AFC41F28834A04288BF0446EA
:1055E0000848844228BF044601F06EFA064DC5F80B
:1055F0004041FDF775FDD5F8401104A0BDE8B0406D
:10560000FAF714BE40420F006C0600205345545F69
:10561000525842573A2025640D0A00002DE9FC41FA
:105620004868104D0C46A8478046A068A847064623
:10563000E068A84707462069A84701F045FA0A4CE8
:1056400084F8F870C4E93C86FDF74AFD94F8F90047
:1056500094F8F830D4E93C12009004A0FAF7E6FD83
:10566000BDE8FC81D14A00006C0600205345545F20
:1056700053594E433A20307825582C307825582CF1
:1056800025642C25640D0A00F8B5FDF7CEFB2A4FE2
:10569000012504463D7401F017FA002604F160402C
:1056A000B0F1604F98BF6FF06044C7E91A46BE671B
:1056B0003E73E008C7E91C602048066001F0E0FA8C
:1056C0001F480521204A1F23254C01601D494A62BD
:1056D0002422FDF7ADFB1D4ACA621D4A13601D4A14
:1056E0004FF4E05313601C4A0A601C49122286647E
:1056F0000A60FF22016C41F01201016440F2047162
:10570000C16386664FF480603F2120601548C0F871
:10571000005605601448FCF7B1FA2068802140F477
:10572000806020601148016011480221016011A0D1
:10573000BDE8F840FAF78CBFB40200203003002027
:10574000040008401C600840A0D4D31D3F002C0278
:105750001C600846546008441F00010044000846CD
:10576000EC100840000B02436C03002000E100E055
:105770000040084653544152545F4245523A204F2C
:105780004B0D00002DE9F0418CB0384D4FF080609A
:105790004FF48048C5F88001C5F880003448FDF713
:1057A00031FBC5F88080FDF72DFBFCF7CBFD314CBC
:1057B0002046FCF787FD304810210160FCF762FCB1
:1057C0002E48324E0127099708902CA03168806836
:1057D0000A9080200B902046FCF734FC8DF82900BD
:1057E00030682B4908442B49B0FBF1F001388DF8A3
:1057F000280008A8FCF736FB6C4627A1202220468B
:10580000FCF70CF9002002978DF81D700390FF2023
:10581000059066200490032001904FF48070ADF84D
:1058200018002046FCF764FB2348016841F00101A1
:105830000160C5F880814FF480204FF40051C5F815
:105840000080C5F8800128601C4807601C4847722A
:105850001C4801602020FEF7CDFF01F0BDFA1AA020
:105860000CB0BDE8F041FAF7F3BE00BF00E100E084
:10587000008204000024F4005C410E40000000009F
:10588000000000001F000000000000000C000020CD
:105890003F420F0040420F000000000000000000E7
:1058A000000000000000000000000000FF000000F9
:1058B000000000000000000044200040048401407B
:1058C000B40200209CA0004653544152545F464D00
:1058D0003A204F4B0D000000B0B51748174C016837
:1058E0002160C16A6160016CA16015490A68E260CB
:1058F000144A13682361144B1D686561856AA561AC
:10590000002404600424C462046440F6FF740C6044
:10591000116841F002611160196841F0805119600D
:105920004FF48041816209480121C17208A0BDE89D
:10593000B040FAF78DBE00BF44000840D4190020E3
:10594000541008401860084094400840B4020020F9
:1059500053544152545F49513A204F4B0D000000BF
:1059600004480021C0E90F110121C17002A0FAF71B
:105970006FBE00BFB402002053544152545F5258CE
:10598000434F554E543A204F4B0D000010B50F4C6D
:10599000207C01280CD101F0AFFA0020207419A05E
:1059A000FAF756FE0F48FDF70CFA0DD019A007E0E4
:1059B00007A0FAF74DFE0B48FDF703FA04D00AA042
:1059C000BDE81040FAF744BE10BD00BFB40200208D
:1059D00053544F505F4245523A204552524F520D58
:1059E000000000006C06002042455220746573746C
:1059F000206D6F646520616C7265616479206F66EB
:105A0000662E0D0053544F505F4245523A204F4B83
:105A10000D00000042455220746573742073746F4A
:105A2000707065642E0D000080B50D48817851B10D
:105A30000021817016A0FAF70BFE0E48FDF7C1F9A0
:105A40000DD017A007E007A0FAF702FE0948FDF7FE
:105A5000B8F904D008A0BDE88040FAF7F9BD80BDD0
:105A6000B402002053544F505F54583A20455252CC
:105A70004F520D006C06002044657669636520690D
:105A80006E20736C617665206D6F64652E0D00006D
:105A900053544F505F54583A204F4B0D00000000B4
:105AA0004D6173746572206D6F6465206F66662E3C
:105AB0000D00000080B501F053FA08484FF4005182
:105AC000016007480021417200F052FA00F0F6F937
:105AD00004A0BDE88040FAF7BBBD00BF9CA0004415
