:020000040000FA
:10000000182A002001020000090200000B02000073
:100010000D0200000F0200001102000000000000AD
:1000200000000000000000000000000013020000BB
:10003000150200000902000017020000190200006A
:10004000D92F0000AD3000001B020000A9300000D5
:1000500029370000393F0000353F0000E121000052
:100060001B0200001B0200001B0200009D4B000051
:100070001B0200001B020000AD1C00001B02000060
:100080001B0200001B0200001B0200001B020000FC
:100090001B0200001B0200001B0200001B020000EC
:1000A0001B0200001B02000049360000DD21000099
:1000B000713E00001B0200001B0200001B0200003A
:1000C000F94400001B02000000F002F800F088F87C
:1000D0000AA090E8000C82448344AAF10107DA45A3
:1000E00001D100F07DF8AFF2090EBAE80F0013F06D
:1000F000010F18BFFB1A43F00103184704880000E2
:10010000248800000A444FF0000C10F8013B13F063
:10011000070408BF10F8014B1D1108BF10F8015B60
:10012000641E05D010F8016B641E01F8016BF9D153
:1001300013F0080F1EBF10F8014BAD1C0C1B09D1AA
:100140006D1E58BF01F801CBFAD505E014F8016B1C
:1001500001F8016B6D1EF9D59142D6D370470000AE
:100160000023002400250026103A28BF78C1FBD8C0
:10017000520728BF30C148BF0B607047662907F09F
:10018000DB8703681B0A28BF41F08001642900F067
:100190002F81782900F09081F82900F09B81732944
:1001A00000F0E286002070471FB507F0B8FF9DE819
:1001B000030001F069FB01F049F804000020002170
:1001C00007F00AFF401C60600020002107F01AFFC2
:1001D000E06000F02FFF1FBD10B500F094FF10BDD0
:1001E00001F011FB1146FFF7DFFF06F0A7FE01F05B
:1001F0009DFC03B4FFF7F0FF03BC01F0BFFC00005F
:100200000948804709480047FEE7FEE7FEE7FEE7AA
:10021000FEE7FEE7FEE7FEE7FEE7FEE704480549E6
:10022000054A064B70470000554A0000C90000000F
:10023000181A0020182A002018260020182600204E
:10024000004870476411002053EA020C00F06980F6
:100250002DE9F04B4FF00006002B1FBFB3FA83F5DA
:1002600003FA05F424FA05F65E4012BF1643B2FA0B
:1002700082F502FA05F4C5F120051EBF22FA05FC3D
:1002800044EA0C04203556EA044C4FEA144418BFE3
:10029000641C4FF000084FF00009904271EB030C12
:1002A00039D3002919BFB1FA81F701FA07F6B0FA7C
:1002B00080F700FA07F6C7F120071EBF20FA07FCF7
:1002C00046EA0C062037B6FBF4FCA7EB0507103F07
:1002D00007F01F0BCBF120062CFA06F60CFA0BFBED
:1002E00044BFB3460026202FA4BF5E464FF0000B4C
:1002F0005BEA060C08BF4FF0010B19EB0B0948EB4A
:100300000608ABFB027C06FB02CC0BFB03CCC01B3C
:1003100071EB0C01C1E70B46024641464846BDE879
:10032000F08B13B5084318BF4FF0FF300146AFF311
:100330000080BDE81C4070470FB4044910B503AA03
:10034000029800F015FE10BC5DF814FBBC100020F4
:1003500070B5044685690068C10601D5302600E005
:100360002026C00707D070BDD4E901213046904750
:10037000206A401C20626D1EF6D570BD70B5044623
:1003800085690078C00707D170BDD4E9012120201C
:100390009047206A401C20626D1EF6D570BD70B576
:1003A0000C460546012A05D02878800600D5EA6962
:1003B000002302E0012305E05B1C934202D2E05CD3
:1003C0000028F9D1A869E618C01AA861286A18445B
:1003D00028622846FFF7BCFF04E0D5E9012114F8A4
:1003E000010B9047B442F8D32846FFF7C7FF70BD12
:1003F0002DE9F0410646002410687529314616A5FE
:1004000010D0AFF30080002802DA404213A507E0C5
:1004100031688A0701D512A502E0490704D511A564
:10042000012401E0AFF3008000210A2206F1240735
:1004300009E0B0FBF2FCB0FBF2F302FB1C00303031
:1004400078541846491C0028F3D123462A463046E2
:10045000BDE8F04100F00FBB000000002D000000DF
:100460002B00000020000000F0B40D4601880905B3
:1004700002D51B4C7C4402E0194C7C440E34002114
:1004800000F1240608E002F00F071209E75D42EAD6
:1004900003721B097754491C52EA0307F3D1224621
:1004A00004780023240704D5702D02D009B102235B
:1004B0001132F0BC00F0DFBA70B504460D4621469B
:1004C0001068AFF30080024629462046BDE8704020
:1004D0000023C9E7D21D22F00703D3E90023C3E7B5
:1004E000C47C00002DE9F0474FF0000A894604461D
:1004F000C0F820A02046E1688847002876D025284B
:1005000006D0D4E901219047206A401C2062F1E71F
:10051000E168204600268847C4F81CA0054600274D
:10052000C4F818A02A2D09D0284607F041FD38B399
:1005300004EB8708303DC8F8185019E059F8041B3F
:10054000204604EB87029161E1688847012F054648
:1005500018D1E069002820DA26F020061DE0D8F83E
:10056000180000EB800005EB40003038C8F8180098
:100570002046E1688847054607F01AFD0028EED1BD
:10058000012F0AD02E2D08D12046E16888477F1C14
:100590000546022F46F02006C4DBA069002803DAD6
:1005A000404246F00106A061F00701D026F0100697
:1005B0006C2D0AD0682D08D04C2D39D06A2D35D03D
:1005C000742D35D07A2D33D016E0E1682F462046C1
:1005D0008847B84205460AD16C2F27D04FF4806077
:1005E000E168064320468847054605E027E06C2F72
:1005F0001AD04FF4807006430DB3A5F141001928BD
:1006000002D8203546F400664A4629462046266030
:100610004E46FFF7B3FD80B101280BD0F61D26F042
:10062000070000F1080965E74020E4E78020D7E7EC
:100630000020D5E706F104095CE7284661E7206A57
:10064000BDE8F0872DE9F04791460F468046044605
:10065000002614F8015B2DB100F0F8F90068405D48
:10066000C007F6D12B2D02D02D2D18D0641E4A467E
:100670003946204600F08EFC27B13968A14201D1ED
:10068000C7F800804FF0020471050BD540420028E6
:1006900003DDFFF7D5FD0460A007BDE8F08746F451
:1006A0008066E4E70028F8DAFFF7CAFD04606FF01F
:1006B0000040F2E72DE9F05F93460F46804604467E
:1006C0000026FFF7BDFDD0F80090824614F8015BCC
:1006D0002DB100F0BBF90068405DC007F6D12B2DAD
:1006E00002D02D2D1AD0641E0021CAF800105A46DF
:1006F0003946204600F04EFC014627B13868A0423A
:1007000001D1C7F80080DAF80000022809D0CAF841
:100710000090700505D54842BDE8F09F46F480661C
:10072000E2E70846F8E70000014907F048BC00008E
:10073000BC10002010B5044603E007F040FC401C4C
:1007400009D014F8010B05490028F6D1BDE8104086
:100750000A2007F034BC4FF0FF3010BDBC10002061
:1007600070B5C468A50713D0650211D4B2F5807FB7
:1007700009D0B2F5007F06D0B2F5806F08D1012311
:1007800000F1240106E05D1E6FF07F46B54201D303
:10079000012070BD0161C361416024F470611143A7
:1007A000C160002070BD401ECAB210F8011F8A420D
:1007B00002D00029F9D10020704730B503461D78DA
:1007C0001DB10A4603E0AC4201D1181A30BD12F83F
:1007D000014B002CF7D15B1CF1E730B503461D78C7
:1007E0003DB10A4612F8014B1CB1AC42FAD15B1C78
:1007F000F5E7181A30BD2DE9F0410E4605460024F4
:1008000000E0641C285D00F029F90746305D00F027
:1008100025F9381A02D1295D0029F2D1BDE8F0810D
:1008200010B5431C02E010F8011B71B18107FAD129
:100830004FF0013202C88C1A8C4314EAC211F9D06D
:10084000C01A0A0603D0C01E10BDC01A10BD0A048B
:1008500001D0801E10BD0902FCD0401E10BD032A2D
:1008600040F2308010F0030C00F0158011F8013BCD
:10087000BCF1020F624498BF11F801CB00F8013BB4
:1008800038BF11F8013BA2F1040298BF00F801CB78
:1008900038BF00F8013B11F0030300F06784083A09
:1008A000C0F0088051F8043B083A51F804CBA0E8A6
:1008B0000810F5E7121D5CBF51F8043B40F8043BFB
:1008C000AFF30080D20724BF11F8013B11F801CB30
:1008D00048BF11F8012B24BF00F8013B00F801CB01
:1008E00048BF00F8012B7047431A28BF9A427FF691
:1008F000B6AF10441144032A40F2268010F0030FD3
:100900001EBF11F8013D521E00F8013D10F0030F0B
:100910007FF4F6AF11F0030300F06D84083AC0F0E5
:100920000B8051F8043D083A51F804CD40F8043DDD
:1009300040F804CDFFF7F3BF121D5CBF51F8043D32
:1009400040F8043DAFF30080D20724BF11F8013D09
:1009500011F801CD48BF11F8012C24BF00F8013D6A
:1009600000F801CD48BF00F8012C70474FF000029D
:1009700000B5134694469646203922BFA0E80C5095
:10098000A0E80C50B1F12001BFF4F7AF090728BF70
:10099000A0E80C5048BF0CC05DF804EB890028BFEC
:1009A00040F8042B08BF704748BF20F8022B11F015
:1009B000804F18BF00F8012B7047000000000000B6
:1009C00030B44FF0013C50F8042B51F8043BCCFA02
:1009D00052F4D51A20D1FCB950F8042B51F8043B3D
:1009E000CCFA52F4D51A17D1B4B950F8042B51F8F7
:1009F000043BCCFA52F4D51A0ED16CB950F8042B42
:100A000051F8043BCCFA52F4D51A05D1002CDAD0B7
:100A100030BC4FF00000704729BAB1FA81F111F0F3
:100A20001801D1F120008440F2D1CA40CB4012F02D
:100A3000FF0213F0FF0330BCD01A704770477047B5
:100A400070470000004870476411002010B500F0A6
:100A5000FDFB001D10BD00BF8175000010B50446F0
:100A6000FFF7F4FF0068005DC00602D504F1200026
:100A700010BD204610BD2DE9F0470D46994692461F
:100A8000044600F124080168880604D5E06921F0D5
:100A90001001216000E00120A84201DD471B00E0B9
:100AA0000027A1697A1902EB0900081AA0612078D1
:100AB000C00602D42046FFF74BFC002608E0D4E92C
:100AC00001211AF806009047206A401C761C20621B
:100AD0004E45F4DB2078C0060AD52046FFF738FCE7
:100AE00006E0D4E9012130209047206A401C2062B2
:100AF000381EA7F10107F4DC07E0D4E9012118F85A
:100B000005009047206A401C2062281EA5F10105BF
:100B1000F3DC2046FFF732FC2078000602D50220E5
:100B2000BDE8F0870120FBE72DE9FF4F0C461E468C
:100B30004FF0FF378BB0D2E90001DDF860800A90FA
:100B40008A46C1F30A5505B93D46002108464FF0D3
:100B50000000BAF1000F00F4400005DA00EB80005D
:100B60004FF4400101EA50004FEA9059B9F1010FEA
:100B700000DDB9460A9850EA4A000ED044F61050FB
:100B8000A5F2FF3545432F14B8F1000F1ED0754272
:100B9000291E1EDDC9F100021CE0B8F1010F4FF063
:100BA000000001D0302103E0F24305E02154401C55
:100BB000B042FBDB30460022002121540B99C1F8E2
:100BC0000880C1E900200FB0BDE8F08FBD1B6D1C8F
:100BD000DEE74A4600DA694206A800F00DFC06ABE3
:100BE00093E8070003AB83E8070050460A9906F034
:100BF000FFFD8DE80700A0F500501F380090039816
:100C0000002D0ADD42F21F014A460844002303A9D1
:100C10000390684607F068F809E0A0F500504A46DE
:100C20001F38002303A90390684607F072F88DE887
:100C300007000004000C03D04FF0FF30410800E033
:100C40001046B8F1000F03D00022009215461EE0B6
:100C5000751E05D400F025FB303262556D1EF9D5A6
:100C6000B3460122084302D000227F1C04E0207812
:100C7000302801D100227F1E002A099784D01DE070
:100C8000112D07DA00F00DFB303262556D1C50EA71
:100C90000102F5D1084302D00098C8B10EE000214E
:100CA000681E05E0235C625C63542254401E491CAC
:100CB0008142F7DBAB46A81B401E0990002004F8D8
:100CC0000B000B98099AC0F80880C0E9002B7AE75E
:100CD00011264FF0000857E72DE9F04F88460446EB
:100CE000D21D22F0070191B0D1E90001CDE90A013E
:100CF00007F046F902460B98C00F01D02D2007E0FF
:100D00002068810701D52B2002E0202101EAC000E4
:100D1000032A099001D0072A05DB034641462046F5
:100D200000F01CFB0BE12078800601D5E06900E0B3
:100D30000620B8F1650F814606D0B8F1660F18D0CD
:100D4000B8F1670F70D131E00020B9F1110F0090B8
:100D500001DB112301E009F101030AAA01A90CA892
:100D6000FFF7E2FEDDE90C70002609F1010583467C
:100D700047E001204B4600904FF000470AAA01A926
:100D80000CA8FFF7D1FEDDE90DB00C995D460026F9
:100D900010B909F101000D18B9EB050003D4C0F139
:100DA000FF3609F10105A5EB09002BE0B9F1010FB0
:100DB00001DA4FF001090020B9F1110F0090484607
:100DC00001DD112300E003460AAA01A90CA8FFF7E0
:100DD000ABFEDDE90C704D46002683462078000707
:100DE0000AD4AB4500DA5D4601A8012D04DD4119A6
:100DF00011F8011C302907D04F4502DA17F1040F12
:100E000004DA012082460FE06D1EEEE7002F02DCBF
:100E1000ED1B3E4403E0781CA84200DD7D1CB81B9E
:100E200000F1010A4FF000472078000703D4AA45DB
:100E300001DB4FF0FF3A0021B7F1004F0DF14308FD
:100E40008DF8431024D002202B23002F01DA7F429B
:100E50002D230A21021EA0F1010000DC5FB197FBE7
:100E6000F1FC97FBF1F201FB1C7C17460CF1300CF6
:100E700008F801CDEEE7A8F101000370218809050B
:100E800001D5452100E06521A0F1010800F8011C11
:100E900009980FA9A1EB0807FF1D00B10120411916
:100EA00001EBEA70A1693844081A401EA06120785D
:100EB000C00602D42046FFF74BFA099828B1D4E9BE
:100EC00001219047206A401C20622078C00622D56C
:100ED0002046FFF73DFA1EE0002E04DBB34502DD9D
:100EE00001A8805D00E03020D4E901219047206A0C
:100EF000401C2062761CAAF101005FEA000A0AD1B8
:100F000000F0A4F9C0680168405CD4E90121904771
:100F1000206A401C2062281EA5F10105DCDC07E0E8
:100F2000D4E9012118F8010B9047206A401C206287
:100F3000381EA7F10107F3DC2046FFF71FFA032054
:100F400011B041E610B5436913B1AFF3008001E081
:100F5000FFF725FA012010BD127800F124010A7074
:100F600000224A700122EDE711684FF0FF32E9E7F5
:100F7000074B70B50D467B4400F0DDF9044628466A
:100F800000F0ACFA10B14FF0FF3070BD204670BDDC
:100F9000457000002DE9F05F824615468B4600271C
:100FA0000AF10104B9460078302801D09DB113E060
:100FB00014F8010B0127782803D0582801D045B137
:100FC0000AE00DB1102D07D1002714F8010B1025F0
:100FD00002E0082500E00A250026B0460EE005FBE9
:100FE000080005FB06F101271FFA80F801EB104607
:100FF000B6F5803F00D3B94614F8010B294600F03E
:10100000EDF90028EBDABBF1000F05D00FB1641E3B
:1010100000E05446CBF80040B9F1000F06D0FFF7CE
:101020000FF902210160C81EBDE8F09F48EA0640A2
:10103000FAE7000010B542485421FFF797FC4148F9
:101040005421FFF793FC40485421FFF78FFC3F49A0
:101050003B483C4A3F4B08603D490A603A491960A9
:10106000531C0365481C1065012008653B48344A41
:1010700039A1784400F022FB20B9384878440A3876
:1010800000F0BAFB37482F4A35A1784400F016FB30
:1010900020B9344878440A3800F0AEFB32482A4A76
:1010A0002FA1784400F00AFB20B92F4878440A3871
:1010B00000F0A2FB40232248DC0000212246FFF77B
:1010C0004FFB20B125487844543800F095FB1D486B
:1010D000224640230021FFF743FB20B121487844FA
:1010E000543800F089FB1848224610230021FFF7EE
:1010F00037FB002806D01C487844BDE8104056381D
:1011000000F07ABB10BD104870B5006D20F00104EE
:101110000B4800F04BFB0B4800F048FB0A4800F07E
:1011200045FB09E0206D20F00105204600F03EFB64
:10113000204600F08FF82C46002CF3D170BD000043
:1011400068100020BC1000201011002000000020BA
:10115000040000200800002072000000A6710000BA
:1011600077000000957100006E71000010B5203A04
:10117000C0F00B80B1E81850A0E81850B1E8185042
:10118000A0E81850203ABFF4F5AF5FEA027C24BF14
:10119000B1E81850A0E8185044BF18C918C0BDE8FD
:1011A00010405FEA827C24BF51F8043B40F8043BC6
:1011B00008BF7047D20728BF31F8023B48BF11F87B
:1011C000012B28BF20F8023B48BF00F8012B7047D5
:1011D000431A28BF9A427FF6C9AF1044114410F059
:1011E000030F1EBF11F8013D521E00F8013D10F023
:1011F000030F7FF4F6AF103AC0F00A8010B531E962
:10120000185020E91850103ABFF4F9AFBDE810406B
:10121000530724BF31E9081020E9081044BF51F8F2
:10122000043D40F8043D12F0030F08BF7047D20799
:1012300028BF31F8023D48BF11F8012C28BF20F823
:10124000023D48BF00F8012C70470000004870477D
:101250008411002070B50446051F00F0F9FA0068FB
:10126000002C14BF446870BD002C18BFAC423CBFBA
:1012700020466468F8D301680A18AA4218BF45607E
:1012800003D12A6805461144016028684119A1422A
:101290001CBF6C6070BD616869602168084428608B
:1012A00070BD30B5B0F10A0271F100034FEA900E43
:1012B0004EEA817EB0EB0E0061EB91014FEA101E09
:1012C0004EEA017E10EB0E0041EB11114FEA102E99
:1012D0004EEA016E10EB0E0041EB11214FEA104E69
:1012E0004EEA014E10EB0E0041EB1141401841F166
:1012F00000014FEAD00040EA41704FEAD1014FEAC5
:10130000810444EA907410EB800544EB01046D19EC
:1013100044EB0404521BA3414FF0000348BF0A32C0
:1013200000D530BD401C41F1000130BD01694A1CAF
:1013300002610878704700B58FB0CDE90131002116
:10134000059105497944CDE9031011466846FFF738
:10135000C9F80FB000BD0000E5FFFFFF2DE9F04127
:101360001F46044603260168072A01F4006004DBD7
:1013700008B116A505E016A503E008B115A500E023
:1013800015A521F010002060A069C01EA0610FB15A
:10139000401EA0612046FEF7DBFF4FB1D4E90121DA
:1013A00038469047206A401C2062C01C206206E03C
:1013B000206AFAE7D4E9012115F8010B9047761E5F
:1013C000F8D22046FEF7DAFFBDE8F0814E414E002C
:1013D0006E616E00494E4600696E66003A2800D282
:1013E000303820F02002412A01D3A2F13700884290
:1013F00001D34FF0FF3070472DE9F0478146164684
:101400008AB0354878440DC88DE80D0032487844DC
:10141000801C03AC0DC884E80D0041F69B300844E5
:10142000372190FBF1F290FBF1F5A5F1800501FB6E
:1014300012041B3C02D56442012000E00020DFF8CA
:1014400098A080460027FA44AAF1BE0A0EE0E00701
:101450000AD03246684607EB470101230AEB8101B7
:1014600006F057FC8DE8070064107F1C002CEED1BD
:10147000194F7F44AE3F19E0E80715D007EB041081
:101480000DF1180A90E80E008AE80E00C068F042DC
:1014900001D1981908903246012306A903A806F045
:1014A00038FC03AB83E807006D10641C002DE3D10A
:1014B0004FF0010332466946B8F1000F03A802D08D
:1014C00006F012FC01E006F024FCC9E90001C9F8AD
:1014D00008200AB0BDE8F087D86D0000007B00F05E
:1014E000800070472DE9F04705460C46C86820F497
:1014F000201040F48000C860800602D5084600F045
:10150000F4FAE06841F282014FF0FF39014002290C
:1015100003D0204600F092FAB5E000F42041B1F586
:10152000004F0FD1C00306D56168E06A884200D839
:101530000846606006E02069E0626060606903F070
:10154000ABFCA061A0680022EEB200280DDAE168D1
:101550008B050AD4C043A06041F490302260E06063
:101560006068411C61600670A5E0E06890462260FA
:1015700040F40050E060206968BB606903F08EFCB5
:10158000012704F12405A0B1A08910F4407F08D000
:10159000E06900F0A8F9206118B1E06840F400604B
:1015A00016E0E7612561E06820F4407040F4806057
:1015B0000EE0E06900F097F900282061F1D0E068C2
:1015C00040F4006010F4407FE06002D140F480708D
:1015D000E06020696060E06825696FF0010AC1057C
:1015E0001FD56168E06A884200D80846411B04D0D4
:1015F0002246284600F02CFAF0BBE068010203D531
:10160000E562C4E9015854E0691CE1626160E16986
:1016100040F48030491EC4E9021030462E70BDE807
:10162000F087010202D500F480320AE06068411CB4
:1016300061600670E0680A2E40F48030E06006D0F9
:101640000022E16A6068814203D90B4602E0012270
:10165000F7E70346A7895B1B7F0503D4E7699F4231
:1016600000DDE2B1814200D80146E5620F1AC4E90B
:101670000158002B09DD00E005E022461946284606
:1016800000F0E6F908B14846C9E747B1A069E5624C
:101690006560C01BA061E06840F01000E060E06899
:1016A000000208D56168A069E562491B08446560CD
:1016B000A0615046B3E73046B1E700002DE9F041A4
:1016C0000C461646070047D0104600F06FF8207809
:1016D000611C61280AD0722802D077283CD102E030
:1016E0000125002405E00225042402E0082448F234
:1016F000020511F8010B2B2806D0622809D011F839
:10170000010C74280AD00BE045F0030544F00204F4
:10171000EFE745F0040544F00104EAE744F0100463
:101720003846214603F0C2FB411C15D0002131612F
:1017300071604FF40071F560F1617061200704D5AC
:1017400030460222002100F0FDF8306D40F001002B
:1017500030653046BDE8F0810020FBE72DE9F0411F
:101760000D460646104C206DC10704D0410804D038
:1017700020F00104F7E722460EE0542000F0B3F811
:1017800007000ED0206D47F0010108435421206569
:101790003846FFF7EBF83A4629463046BDE8F041B7
:1017A0008CE70020D6E70000681000202DE9F04704
:1017B00004464FF000094FF0FF37C568D4E90486AE
:1017C000A80707D0204600F06DF9304603F05AFB19
:1017D000002802DA3846BDE8F087280502D54046E1
:1017E000FFF738FD4C212046FFF7C0F8206D20F0B0
:1017F000010020654846EEE710B500F0A5F9BDE808
:10180000104000F09CB97546FFF71CF9AE46050084
:101810006946534620F00700854618B020B5FEF70C
:10182000FDFCBDE820404FF000064FF000074FF0F0
:1018300000084FF0000BAC46ACE8C009ACE8C009AA
:10184000ACE8C009ACE8C00921F007018D4670473B
:10185000004870476C110020704770477047704710
:1018600038B504460A4600206946AFF300800028D8
:1018700008BF38BD02460099204600F08CF90120CF
:1018800038BD012000F0DBB9F8B5AFF300800546A4
:1018900000200C46102000BF0646A819A0420DD912
:1018A000324669460020AFF30080070008BF00F011
:1018B000C6F90098A04218BF0546C419FFF7C8FF33
:1018C00005600746F01D20F007004619284600F085
:1018D0005BF9B44208BFF8BDA21B31463868BDE8C9
:1018E000F84000F058B970B50646FFF7B1FF05683B
:1018F00006F10B0020F00704B4429CBF002070BD2D
:101900002B466A68BAB11068A04210D304F10801EE
:1019100088423CBF5068586007D351681019416035
:101920001168091B016058601460101D70BD1346DA
:101930005268002AE7D121462846FFF791FF002888
:10194000DED170BD2DE9F041044616460D464769CB
:10195000007B80072ED0384603F0A0FA50BB3EB380
:10196000012E02D0022E25D104E0204600F02DF9F0
:1019700005441DE0384603F08FFAE168002841F085
:101980001001E16005DA204600F058F80120BDE8BA
:10199000F081C9030BD56268E16A914200D8114613
:1019A000A26911442269891A814200DD0846054472
:1019B000002D01DA0220EAE7E16A6068E26881420C
:1019C00006D29103E06203D522F4003141F0100207
:1019D000A6690027AE4213DCE16A814201D90B46B9
:1019E00000E0034603EB060C2369ACEB030CAC45AB
:1019F00006DD814201D98C4600E084469C4505D134
:101A0000A760276042F02000A5620DE0AD1BE669EB
:101A1000AE1B8142A66000D90846C01A281A206071
:101A20005819606022F0200003490840E06000205F
:101A300084F84870ABE70000BFCFD7FFC16821F43E
:101A4000001141F08001C160002181600160704798
:101A50002DE9F047814614460E464FF0FF383248D4
:101A6000D5685769054209D03846A16903F050FA94
:101A7000002811DB2C48C0430540E5602B46324668
:101A80004946384603F048FAA16920F00042B21AEC
:101A900011440028A16103D02046FFF7CFFF404644
:101AA000BDE8F08770B504460569C06A6168884280
:101AB00000D80846E16821F42011E160C90312D57D
:101AC000A84208D02246411B2846FFF7C1FF10B1AB
:101AD0004FF0FF3070BD0020E562C4E90150E068BE
:101AE00020F48030E060002070BD10B50446C0686E
:101AF00020F02000E060A16AA06988420DD0204655
:101B0000FFF7D0FFE06820F4405040F01000E060A4
:101B1000A06AA0612069E062606044F24001E06870
:101B20008843E06010BD00001000020010B50446BC
:101B3000AFF300802046BDE81040FEF75ABB0028F6
:101B400001D000F01BB8704710B5014602A000F0AC
:101B50005DF8012010BD00005349475254524544DE
:101B60003A2052656469726563743A2063616E2736
:101B700074206F70656E3A20000000000149182043
:101B8000ABBEFEE72600020000210160C0E90110A3
:101B9000704710207047034640688C46002818BFE5
:101BA00088423CBF03464068F8D31868184488420E
:101BB00007D00CF1030020F00700001D411A521A53
:101BC0000146081D0A60FFF745BB10B50146C26813
:101BD000900703D0900607D5886A0AE0FEF730FB2D
:101BE00001210160881E10BD8B69486818440B698B
:101BF000C01A91F848301BB191F84910401A10BD35
:101C00001103FCD50028FADD401E10BD70B5054655
:101C10000C460A2000E06D1C00F018F835B1287859
:101C20000028F8D102E0641C00F010F814B120780C
:101C30000028F8D1BDE870400A2000F007B810B5C0
:101C400000F00CF8BDE81040FFF779BF08B5694611
:101C50008DF800000320ABBE08BD704710B5012809
:101C600005D0002103A0FFF7D1FF012010BD09A17D
:101C7000F8E7000053494752544D454D3A204F75FF
:101C800074206F662068656170206D656D6F727974
:101C9000000000003A2048656170206D656D6F722C
:101CA0007920636F727275707465640080B500F09E
:101CB000CDF841F69411C2F20001086040F20C0028
:101CC000C2F20000007804282FD8DFE800F00331CA
:101CD0006C81960041F2D11CC2F2000C9CF80020ED
:101CE0001AB3096841F2A020A1F5006241F2C411C3
:101CF000C2F200010B68C2F2000040F82320581C19
:101D000041F2D2120860C2F20002128890420CD155
:101D1000002008608CF8000041F63000C2F200009C
:101D2000007810B144A0FEF705FD05F015FC80BD5C
:101D300048F2B010C0F6E0700268C36EC2F307420A
:101D40009FED3A0A40F2200CFF2AC2F2000C25D087
:101D5000C3F30B1340F6FF7083421FD091ED001ABE
:101D600000EE103AB8EE400AB8EEC11A9FED302AE4
:101D700030EE410A20EE020A8CED000A9CED000ACA
:101D80009FED2C1A80EE010A8CED000A00EE102A5D
:101D90009CED001AB8EE400A30EE410A8CED000AC4
:101DA00005F0A2FB80BD91ED000A9FED1E1AB8EE72
:101DB000C00A9FED1D2A20EE010A41F2982020EE74
:101DC000020AC2F2000080ED000A05F055FB80BD5A
:101DD00091ED000A9FED131AB8EEC00A9FED122A8A
:101DE00020EE010A41F2C81020EE020AC2F2000001
:101DF00080ED000A05F094FB80BD91ED000A9FED97
:101E0000091AB8EEC00A9FED082A20EE010A41F235
:101E10009C2020EE020AC2F2000080ED000A05F0CC
:101E200047FB80BD00409C4500008039339388C348
:101E300000409C4448E1EAC55049522073616D70EE
:101E40006C696E6720646F6E652E0D0042F248006B
:101E5000C4F2000000687047F0B581B0CF780D463D
:101E600004467FB12068000614D442F20040C0F25C
:101E7000F400002100F034F94FF4FA40002100F0A2
:101E80002FF907E042F20040C0F2F400002100F018
:101E900027F907460A20A06028784FF4FE466978A3
:101EA000AA7806EA072747EA00602B7902F07F024A
:101EB000084440EA0240002B18BF40F010002060A8
:101EC0006979204600F028FA2068000610D5B8206D
:101ED000C0F2320000F070FB42F20000C4F20000D9
:101EE000844205D148F20020C0F2040000F064FBF7
:101EF000204600F069F801B0F0BD0000F0B581B0F7
:101F000004460220A0600D4689782046002200F099
:101F100069F82A7995F801C06B791102E87841EAED
:101F20000C6141EA0341EB7941EAC000297A002BB8
:101F300018BF40F000500029A97918BF04300029CB
:101F400018BF40F00200697AF32A40EA010E08D176
:101F5000BCF1030F05D8A978002904BF042161F35F
:101F60001B6EAB78E02695F800C0AA7AEF7A13F0E2
:101F7000800108BF5E0146EA0E06266166694BF6DF
:101F8000F870CFF6E170304003F07F03002918BFEE
:101F9000184340EA4C40002F18BF00F580406061B4
:101FA0002046022100F04EF928791021F338B0FACA
:101FB00080F0420904F1300000F044F9E06FD4F8F9
:101FC0008000E06801B0F0BD4FF40061016470472B
:101FD00042F24400C4F20000016841F001010160D6
:101FE0007047000010B548F2000E42F20003CFF631
:101FF000FF7E002AC4F200031EBF4FF6FF7EC8F228
:10200000000E1022D0F834C0984218BF10BD0CEA60
:102010000E0C06294FF0000E17D8DFE801F0042956
:10202000183A5A5A4E0048F2142EC0F6E07E5EF876
:10203000043C5EF8041C03F4FE445EF8043C01F02A
:102040000F01214403F0F00341E0812941D148F21E
:102050001421C0F6E0710B680C68096803F4FE43B4
:1020600004F00F04234401F0F00103EB010E30E013
:1020700048F21421C0F6E07151F8043C51F8044CC8
:102080004FF4FE4E0EEA1343C4F3034451F8041C0C
:102090000CE048F21421C0F6E0710B680C684FF4B4
:1020A000FE4E0EEA1343C4F3034409682344F024AC
:1020B00004EA114103EB010E0BE048F21421C0F6D3
:1020C000E0714B68496803F00F0301F0F00101EB88
:1020D000030E0EFA02F141EA0C01416310BD00004B
:1020E00010B50446B0F5FA4F42F20040C0F2F400D9
:1020F00098BF4FF4FA44844228BF044631B944F2F1
:102100004010C0F2050000F057FA0146601801388F
:1021100084429ABFB0FBF4F0013800207F2828BF2A
:102120007F20C0B210BD000010B504460A20A06098
:102130004FF60070C0F2FF00206100204FF4F8114C
:102140006061A061E061216040F60071C0F203317E
:102150006064216420632062606243F6E410A06240
:10216000D4F88C00002140F00100C4F88C00D4F8B1
:102170009000002240F00100C4F890002046FFF7D4
:1021800031FF204600210122FFF72CFF10BD000087
:1021900042F20800C4F20000012101607047000013
:1021A00058B980B544F24010C0F2050000F004FABE
:1021B000002808BF0120BDE8804044F23F21C0F262
:1021C0000F0108444DF68361C4F21B31A0FB0101ED
:1021D0004FF0FF3000EB9140C0B2704770470000F5
:1021E00070470000400100EB81004FF084414058EF
:1021F00070470000400100EB81004FF084414058DF
:102200007047000040F6B420C4F2C63000210160DF
:1022100070470000400100EB81004FF084414250C4
:1022200070470000400100EB81004FF084414250B4
:1022300070470000400100EB81004FF084414250A4
:1022400070470000400100EB81004FF08441425094
:10225000704700004AF2FC00C4F20040082101600F
:10226000704700004AF23C00C4F200404FF40041C5
:10227000016070474FF08062815070474FF080617D
:102280004FF44072425070474FF08061C02242507C
:10229000704700004FF08062815070474FF08062BD
:1022A000815070474FF08062815070474FF08062DC
:1022B000815070474AF2FC00C4F2006008210160BE
:1022C000704700004AF23C00C4F200604FF4004145
:1022D000016070474FF0C062815070474FF0C0629C
:1022E000815070474FF0C062815070474FF0C0621C
:1022F000815070474FF0C062815070474FF0C0620C
:1023000081507047B0B50C460546FFF7B7FF284629
:102310002146FFF7E3FFB0BDB0B50C460546FFF719
:10232000B3FF28462146FFF7DDFFB0BDB0B582B050
:10233000442044F2B005C4F20E000121C4F20E059F
:10234000016002F037FB044601A802F011FB8E2C5D
:102350000FD8286849F6D07240F0040129600621A0
:10236000C4F200024FF05013013942F8303FFBD164
:1023700028608F2C06D855F8840C202161F30600C4
:1023800045F8840C9DF80500012807D143F264103C
:10239000C4F20E00016841F004010160FFF732FF52
:1023A00002B0B0BD40F22400C2F2000000687047E5
:1023B000F0B581B044F218070546C4F20E0700F0EC
:1023C0002FF8044640F22400C2F2000007F594768C
:1023D000056000BF30461921FFF704FF0028F9D13E
:1023E00040F60010C0F23D0085420FD048F2804018
:1023F000C0F21E0085420CD044F24020C0F20F0013
:10240000854204BF022060F35A6405E024F0C064F2
:1024100002E0012060F35A643C6001B0F0BD0000AE
:10242000014642F2FF30C0F2F40081424FF000005A
:102430001EDC40F6FF02C0F23D02914237DD40F65D
:102440000012C0F23D0291423ED04CF6C072C0F282
:102450006A0291425DD045F64052C0F2C6029142F6
:1024600001BF48F29020C0F6E070806970475BE0E1
:102470004BF67F22C0F28C1291422BDD4BF680226C
:10248000C0F28C12914238D044F60002C0F2E81239
:10249000914244D04DF28052C0F24322914201BF9A
:1024A00048F29020C0F6E070006B70473CE044F2C8
:1024B0004022C0F20F02914206D048F28042C0F2A0
:1024C0001E02914218BF704748F29020C0F6E0709B
:1024D0000068704742F20042C0F2F402914212D00A
:1024E0004EF6C022C0F22112914201BF48F2902064
:1024F000C0F6E070006A704716E048F29020C0F61F
:10250000E070806A704748F29020C0F6E070C069C1
:10251000704748F29020C0F6E070C068704748F2FB
:102520009020C0F6E070C06A7047000080B540F6A9
:102530000010C0F23D00FFF73BFF80BD80B500F00A
:10254000CBF8013080BD000070B5C0F30322531EEC
:10255000092B88BF70BD0C4644F20005C4F20E057D
:1025600000220021DFE803F01C052707090B0F27D5
:102570001318C03512E0C83510E0B0350EE0E03574
:10258000012201210CE0E8351021012208E0F0359C
:102590004FF48031012203E005F5A87500220021E7
:1025A000C0F3043612B1084604F0F2FF2846314663
:1025B0002246FFF72FFE70BDB0B5C0F3444104467C
:1025C0001F294FF0000088BFB0BDDFE801F01013F5
:1025D0001B838310253235833846835483666C838E
:1025E000728383838383837883838383837B02F0F3
:1025F00005FAB0BD02F002FA44F20811C4F20E016D
:10260000096806E002F0FAF944F20811C4F20E017A
:102610004968C1F3082108E002F0F0F944F208111A
:10262000C4F20E01C968C1F304210131B0FBF1F01D
:10263000B0BD03F011FFB0BD02F0CAFCB0BD052073
:10264000C0F2240004F084FB44F20811C4F20E012D
:10265000896A01F00F01C840B0BD0220C0F21E001F
:1026600004F076FB44F20811C4F20E0189690446B5
:1026700001F00F000CE00320C0F2200004F068FB22
:1026800044F20811C4F20E01096A044601F0030085
:1026900002F01CF8B4FBF0F0B0BD0220C0F21E0046
:1026A00004F056FBB0BD0320C0F2200004F050FB44
:1026B000B0BD0520C0F2240004F04AFBB0BD02F01A
:1026C00043FCB0BD02F09AF905462046FFF736FFFD
:1026D000B5FBF0F0B0BD000080B50146C0F30310BB
:1026E000421E092A4FF0000088BF80BDDFE802F0DB
:1026F00005450D4D42425516243544F20010C4F2F2
:102700000E000068C0F3042080BD44F20010C4F243
:102710000E000068C0F3006001301AE040F28060F3
:10272000C0F21600814226D144F20010C4F20E001D
:10273000006A00F00F000CE040F29070C0F21A0046
:10274000814218D144F20010C4F20E00806A00F0F9
:10275000030001F0BBFF013880BD40F6A010C0F2BD
:102760001400814207D144F20010C4F20E00006B45
:1027700000F00F0080BD002080BD44F20010C4F2C4
:102780000E004069C0F3042080BD44F20010C4F282
:102790000E00C068C0F3082080BD44F20010C4F2EF
:1027A0000E008068C0F3082080BD000000F00F001C
:1027B000411E07294FF0000088BF7047DFE801F095
:1027C000041421133547135244F27000C4F20E0072
:1027D000406A00F00700023803283EBFC0F1040041
:1027E000C0B270470520704744F27000C4F20E007A
:1027F000006900F007000138042824BF0120704759
:102800001FE044F27000C4F20E00406900F00700BF
:102810000138042824BF0120704740F20321C0F68C
:102820000121C00001F5A02129E044F27000C4F2AA
:102830000E00806900F007000138042824BF012041
:10284000704740F20321C000C0F6012117E044F2B6
:102850007000C4F20E000068C0074FF0090008BF06
:102860000720704744F27000C4F20E00D0F8EC006C
:10287000182101EA500040F20171C0F6040121FA6A
:1028800000F0C0B27047000070B500F00F000138D2
:10289000072800F29B8044F27004C4F20E0404F195
:1028A00018020025DFE800F004232692253E92114D
:1028B0000239032900F28A8004250020DFE801F0B4
:1028C0006502545D032501205FE00139072988BFB7
:1028D00070BD0020DFE801F0737A7A047A7A6B72B7
:1028E00002200121012200F073F8202067E004F1AA
:1028F00010021546002DA1F1010008BF04F11405D6
:10290000092863D80026DFE800F02A051461611C5D
:102910006161612900200121012200F059F802269D
:102920002E6070BD09291CD007294FD100202060DE
:1029300070BD012001210122012600F049F82E601E
:1029400070BD02F05BF804F073FC04F1400000215C
:102950000122FFF75FFC03262E6070BD04262E6067
:1029600070BD0120206070BD44F60100C0F2E81087
:1029700004F05EFC0220022507E044F60100C0F2EC
:10298000E81004F055FC012503200121012200F08C
:102990001FF803F063FE656002F01CF8044602F0C5
:1029A0002DF804F045FC204600F074F970BD0420B9
:1029B0000121012200F00CF8102000E03020D4F8B2
:1029C000EC1021F030010843C4F8EC0070BD0000A9
:1029D0002DE9F04704284CD89046064640B238A26C
:1029E00052F820703BA252F8205044F29004C4F2F6
:1029F0000E0451B33CA151F82090022E02D103F0F5
:102A000049FEC0B34FF0010A44F8309C20463946D5
:102A1000FFF7E8FB0028F9D0B8F1000F29D000BF7C
:102A200020462946FFF7DEFB0028F9D0B01E18BF6C
:102A3000012050EA0A001CD154F86C0CC00723D1C5
:102A40000220002100F002F923E02CA151F820001F
:102A500044F8300C0120B84021680142FCD1B8F1A3
:102A6000000F08BFBDE8F0870120A840216801429F
:102A7000FCD1BDE8F08754F86C0CC00718BF04F017
:102A800003FC4FF0000ABFE702202021012200F0E2
:102A900069F8022000F03CF80646022000210122DD
:102AA000FFF796FF0220314600F070F844F8309CA2
:102AB00020462946FFF796FB0028F9D0D9E700BF4A
:102AC00008000000060000000200000000000000F6
:102AD00004000000090000000700000003000000DF
:102AE000010000000500000000010000400000009F
:102AF00004000000010000001000000000020000BF
:102B0000800000000800000002000000200000001B
:102B10000138032884BF00207047DFE800F0021A64
:102B20000A1244F21000C4F20E0000696FF35F2035
:102B3000704744F21000C4F20E00006800F07F00FD
:102B4000704744F21000C4F20E00806800F07F006D
:102B5000704744F21000C4F20E00D0F88C006FF3FE
:102B6000DF20704780B502280ED149B144F2640CD1
:102B7000C4F20E0C4FF48063CCF84430CCF8001053
:102B800012B100F063F880BD012080BDB0B50138FE
:102B9000032888BFB0BD0C46DFE800F002371523DC
:102BA00044F24015C4F20E0528461A21FFF71AFB1D
:102BB0000028F9D14FF6E060CFF6FF70295864F392
:102BC00008012950B0BD44F24015C4F20E0500BF03
:102BD00028461821FFF706FB0028F9D14FF6D060F0
:102BE0000CE044F24015C4F20E0500BF284619213E
:102BF000FFF7F8FA0028F9D14FF6D860CFF6FF704A
:102C0000295864F306012950B0BD44F24015C4F2BE
:102C10000E0555F8B00C4FF6E460CFF6FF7029585A
:102C2000012262F305112950C4F3C31003F03AFDE9
:102C30004FF6F061CFF6FF716A584FF60003C0F609
:102C4000FF731A40204310436850B0BD10B50C46C6
:102C500003F020FD20B1302C02D0202C11D09CB9E3
:102C60004FF4400044F29001C4F20E010A680240A1
:102C70008242FBD1400252BF01200869C0F380208C
:102C800010BD4FF40000EDE740F2FF30C0F2C1701C
:102C9000E8E70000B0B54024C4F20E04256841F610
:102CA0007131216003F0C4FC002D1CBF00202060A6
:102CB000B0BD0000B0B543F23805C4F20E050221E4
:102CC0002960296801F00F01022949D1044603F067
:102CD000D5FBE1884B2901D200200DE0B1F5FA7F48
:102CE00002D24FF0805007E040F6C4124FF040503F
:102CF000914238BF4FF0005069694FF6FE72CCF632
:102D0000FF721140A2894FF6FF735A40084340EA10
:102D1000D2306861A08841F2B871C2F20001088027
:102D200003F0C8FB2089B4F90C1004F0A7FCA088BC
:102D300000F07AF8A07B03F019FB608801210122E2
:102D400000F0B0F860B1A27A281D0521002A18BF52
:102D50000122FFF767FA607800F01CF80120B0BD8F
:102D60000020B0BDB0B543F27005C4F20E050446B4
:102D7000A5F124000021FFF73DFA286820F00700A4
:102D80002043286041F2B870C2F20000008800F0D1
:102D90004BF8B0BDF0B581B043F24006C4F20E0668
:102DA00056F80C5C044600F043F900BFB06BC00756
:102DB000FCD1306810F0030705D006F114000D2196
:102DC0000122FFF72FFAA74202D12CB301B0F0BDC8
:102DD000012C08BF002F05D141F2C270C2F20000E1
:102DE00002210170B06BC007FCD1306820F00300F5
:102DF00020433060B06BC007FCD1002C18BF012409
:102E000006F114000D212246FFF70CFA012D08BF30
:102E100000F006F901B0F0BD06F114000D2100220A
:102E2000FFF700FA01B0F0BD80B543F24C01C4F2E7
:102E30000E014A6A0B6802F00702022A06D313F059
:102E4000010303D0142818D203221FE00B68012AC3
:102E500006D813F0010303D10A2813D2032215E088
:102E60000B68012A4FF0FF3210D813F001030DD088
:102E70000F22282838BF072208E00F22282838BF51
:102E8000072203E00F22142838BF07220B68100224
:102E900040EA023023F47F421043086003F09AFABC
:102EA00080BD00002DE9F04F85B08146A0F5E160BE
:102EB0000027B0F5966F0397CDE90177009700F2F0
:102EC00087804FF6F800CFF6FF7000F5167548F2D0
:102ED00018304FF41676C0F6E070B9F5E16F88BF90
:102EE0004FF4966684BF4FF6F805CFF6FF7500687D
:102EF00092468846B9F5E16F039003D9010E01911E
:102F0000000C02E0C0F30721019143F25C01C0B262
:102F1000C4F20E01039051F8100C0022C0F3017BA3
:102F200002A869465B460027B9F5E16F88BF012218
:102F300003F08AFF0398DDE9001205EB0903151A77
:102F40005D43B5FBF6F5029C4019A1EB040505FBBA
:102F500003F3B3FBF6F647F10003361938D290427B
:102F600036D8ABBB8E4233D8BAF1000F0ED043F245
:102F70005C03C4F20E03196847F602720002914323
:102F8000B9F5E16F88BF023008431860B8F1000F4F
:102F90001DD0002059460027B9F5E16F88BF0120F8
:102FA00003F020FFA0B143F25C02C4F20E02E72E50
:102FB00028BFE726906840F2FF1188437100B9F5F9
:102FC000E16F88BF013108430127906000E00127CD
:102FD000384605B0BDE8F08F80B501F07FFD80BDBB
:102FE00043F22C01C4F20E010860704743F2300135
:102FF000C4F20E010A6822EA00000860704700006F
:1030000043F23001C4F20E010A68104308607047B1
:1030100043F22400C4F20E00C16800680840704703
:1030200043F23400C4F20E0000210160704700003A
:1030300043F23400C4F20E004AF6E85101607047D2
:1030400043F29C11C4F20E01034651F80C2C0028E7
:1030500018BF0123012A4FEAC32C04BF4AF6E853E4
:1030600041F80C3C51F8383C022823F0740318BF97
:10307000743341F8383C0868012A40F008000860C1
:1030800044F23C00C4F20E00036823F4406343EAB8
:103090000C030360086820F00800086004BF0020EB
:1030A00041F80C0C704700007047000070470000AA
:1030B00010B544F20C04C4F2080440B12068C00703
:1030C00008BF10BD20460121FFF7E4F810BD00F055
:1030D0001DF840F6FC60C2F20010016841F02001CA
:1030E0000160A4F10C00FF21FFF7D4F82420C4F202
:1030F0000800012101602068022140F0200044F80E
:103100007C0B2046FFF7C6F810BD000010B544F256
:103110008804C4F2080420682068C0070AD000BFF1
:1031200020460221FFF7B6F8022000F069FE206871
:10313000C007F5D120460221FFF7D8F810BD0000E6
:10314000F0B581B01E4617460C4605463AB12846F2
:10315000214616B100F052F801E000F037F84AF2CB
:103160000000C4F2000005EB4501072C00EB011044
:103170000BD84168A2000F239340994307FA02F24B
:10318000114341607FB101B0F0BD6FF01F02816853
:1031900002EB84020F239340994307FA02F2114392
:1031A0008160002FEFD1284621461EB100F026F89D
:1031B00001B0F0BD00F00AF801B0F0BD80B5FFF736
:1031C00049F880BD80B5FFF74DF880BD80B54AF263
:1031D0000C0200EB4000C4F2000202EB00100122DE
:1031E00002FA01F1FFF746F880BD000080B5FFF755
:1031F00061F880BD80B5FFF765F880BD80B54AF203
:103200000C0200EB4000C4F2000202EB00100122AD
:1032100002FA01F1FFF75EF880BD0000B0B5044688
:1032200000F098F901280DD146F62145CFF6FB753F
:10323000204600F069F8012818BFB0BD002D05F147
:103240000105F5D1B0BD0000F0B581B09AB30446D8
:10325000006803F0030720F440700E462060390236
:1032600020461546FFF74EF84CF20000C4F200006D
:10327000844208BF002E06D147F20020C0F20400AD
:10328000FFF79AF9064648F24C20C0F20000C05DF4
:103290002168684378B1A6EBC50101440139B1FB4F
:1032A000F0F0216801388907014648BF0121002854
:1032B00018BF0146216101B0F0BD000080B50A468B
:1032C0000021FEF7B7FF80BDB0B50C4605460020D3
:1032D0004FF6FF712864C0F20701284600F012F88B
:1032E0006078012180F001022846FEF7A3FFD4E9AF
:1032F0000112237B2846FFF7A7FF21782846FFF716
:10330000DDFFB0BDC16370472DE9F04F81B04CF2D5
:103310000405C4F200052C1FA04201D0FC2096E059
:1033200041F61800C2F200000668286B41F6080753
:1033300041F60C0810F4C06FC2F20007C2F2000898
:1033400007D0810500F16F80400540F16F80FE20BD
:103350006AE041F6100A41F61409C2F2000AC2F20C
:1033600000094FF0000B00BF3978082900F2AE8049
:10337000DFE801F07D051487232F48AEA400010685
:1033800069D4400654D520464021FFF7BBFF708822
:10339000C10600F1C28080073CD5C5E001065AD4C1
:1033A000400645D520464021FFF7ACFF70888007D6
:1033B0004FF0030058BF05202DE001064BD4400616
:1033C00036D520464021FFF79DFF7088400721D564
:1033D000A8E099F80010BAF8000006EBC1021389C2
:1033E0009842C0F09280708801314207AAF800B07C
:1033F00089F8001015D4C9B2012933D810F00100A2
:103400000AD02FE0010626D4400611D520464021DF
:10341000FFF778FF05203870286B10F4C06FA3D039
:103420008FE70320F7E7FD2088F8000009203870B7
:10343000387809280AD10020E86398F8001001299B
:1034400008BF88F8000098F8000000E0012040B2B2
:1034500001B0BDE8F08F20468021FFF753FFFF2029
:1034600088F800000820387002202860E0E77188A2
:103470003088CA0665D400F0FE00C1F3400108445C
:1034800063E032887188062000EA1220F030CB0613
:1034900058BF02F0FE0049070AD599F8001040F025
:1034A000010006EBC1010989012904BF0821296037
:1034B0000421397001212960A862B9E7C005B7D598
:1034C00020464FF48071FFF71DFFAFE7FB20ABE70D
:1034D0008006ADD599F8000006EBC0031889A969EC
:1034E000BAF80020824204D25B68561CAAF8006039
:1034F0009954BAF800108142B4D2042202282A60FA
:1035000096D30138884293D118E05168421CAAF83A
:103510000020085CA862062089E731780220387014
:10352000A96285E7072082E799F80000072106EBEA
:10353000C0000089397001287FF47AAF0820286024
:1035400076E7062101EA1020F03001213970A862E7
:1035500029606DE710B54CF20004C4F20004A042EB
:1035600002D0FC2040B210BDA068C0071CBF2020C4
:1035700060604888820702D50A89002AF1D0400796
:1035800002D5088A0028ECD041F60800C2F20000FB
:103590000022027041F60C00C2F200000123037009
:1035A00041F61000C2F20000028041F61400C2F29F
:1035B0000000027041F61800C2F200000160C02055
:1035C0006060204603F05CF84FF6FF71C0F207011F
:1035D0002046FFF797FE206C40F4FC6020642046F4
:1035E000FFF792FE40B210BDEFF3108072B641F2C9
:1035F000CC10C2F200000168013118BF01607047B1
:10360000EFF3108072B641F2CC10C2F200000168F4
:10361000013118BF0160704741F2CC10C2F20000C6
:10362000016821B10139016018BF704762B6704767
:1036300041F2CC10C2F20000016821B101390160F1
:1036400018BF704762B6704780B500F04FF8FEF7BC
:103650009FFD80BD012905D0002918BF704710309B
:1036600002607047143002607047000070B50D466C
:103670000978064639B9B068C00704D0304603F06F
:10368000D3FD02207060A878697800284FEA0130E5
:1036900001D1E96829B1E96840F40070002918BF38
:1036A0003161EA782B7929786C79002A18BF40F4C7
:1036B0008070002B18BF40F04000AA79002C18BF82
:1036C00040F0800040EA8200EA792B7A40EA02105A
:1036D0001843306041B1B068C00718BF70BD3046B4
:1036E00003F0A2FD0120706070BD000046F22800CA
:1036F000C4F20400012101607047000046F22C0072
:10370000C4F20400016841F001010160704700004B
:10371000012905D0002918BF704718300260704792
:103720001C3002607047000070470000B0B544F2E2
:103730000014C4F2080420460621FEF7AFFD20461F
:103740000221FEF7D7FD04F10C0528460721FEF7FC
:10375000A5FD28460621FEF7CDFDC12104F1080094
:10376000C0F24001FEF79AFD201D4FF44041FEF7E4
:1037700095FDB0BDB0B544F20014C4F20804204673
:103780000621FEF78BFD20460421FEF7B3FD04F170
:103790000C0528460721FEF781FD28460521FEF786
:1037A000A9FD08342046C021FEF778FD204681217E
:1037B000FEF7A0FDB0BD000010B540F6C474C2F223
:1037C000001401F049F8C11E022906D3411F022945
:1037D00007D233202060606011E00020206060602C
:1037E00010BD01280BD141F2F470C2F20000007844
:1037F000012814BF002044206060206010BDF72025
:103800006060A220206010BD01F0070261F3081281
:1038100040F6C471C2F200110A6000F0070260F3C2
:1038200008124A607047000080B500F0A1F941F22B
:10383000F470C2F20000406880BD0000012200BFA9
:1038400031F83230834203D30132082AF8D10822FA
:1038500001EBC20120F400404FF47A7251F8043CAD
:103860005043C01A31F9061CB0F1FF3FC8BF00F544
:10387000FA70B0FBF1F0704770B5044640F6C070C6
:10388000C2F20010016844F22015822CC4F208052F
:1038900043F6C87221DC914302684FF47F5303EA78
:1038A000122211441E2C016019DC28460121FEF76A
:1038B000F5FC41F2F470C2F20000067800F0CCFF93
:1038C0002B68024648F67D00C0F200003146FCF746
:1038D00033FD204601F04EFB70BD114301602846C8
:1038E0000121FEF707FD204601F044FB41F2F47090
:1038F000C2F20000047800F0AFFF2B68024648F6E1
:103900007D00C0F200002146FCF716FD70BD0000EE
:1039100070B541F2F475C2F200052978012918D179
:103920000028014608BF0121072840F6C070C2F2F6
:103930000010026840F23F03CEF2C00302EA030225
:103940000260026888BF072142EA0162026088B211
:1039500070BDF82802D810B9002102E0F820013823
:10396000C1B241F28500C0F64200A1FB0002881AF4
:1039700002EB500002095201A2EB10128A1A012335
:10398000013203EB101042EA4010002918BF40F446
:10399000004000F083F904464FF4807000EAD4162A
:1039A000C82001F0E7FA47F6E0714FF6FF322140F8
:1039B00002EA5412891A4FF6E172114404F01F0012
:1039C0003143084484B207A02146FCF7B5FC2D78AA
:1039D00000F042FF024609A02946FCF7ADFC204654
:1039E00070BD00BF50415F506F7765724C65766562
:1039F0006C5365743A25580D0A00000050415F5021
:103A00006F7765724C6576656C5365743A205041EA
:103A10003A25582C2053594E54483A25580D0A003F
:103A200080B541F2F470C2F20000007820B10128A4
:103A300005D1FFF77BFE80BDFFF79CFE80BD00F047
:103A4000ABF980BDB0B546F26805C4F208050C4676
:103A50006860284640F6FF71FEF720FC28462146A4
:103A6000FEF748FCB0BD000046F26C00C4F208004E
:103A70000168016850F8041C0168026850F8043CB1
:103A8000D2B201F47F41C2F10802D14003F0F0024A
:103A90009140026850F8040CD2B200F00F00490ABD
:103AA00002FA00F001EB50107047000041F2F47090
:103AB000C2F200008089704770B546F21801C4F266
:103AC000080109680446C1F38210FE30C0B241F219
:103AD000F4750428C2F2000507D8012101FA00F0AC
:103AE00010F0130F01D0002607E02878B426012833
:103AF00008BF3226022808BF962600F0A5FF44F62C
:103B0000D351C1F26201A0FB010290096043B0FBF6
:103B1000F6F04001B0F57A7F01D2FF200AE0A0FB69
:103B200001018909FF2000220130B2EB510F4FEA59
:103B30005101F9D1C1B24FF47062102938BF0202AD
:103B4000300491B2FFF77EFFFFF78EFF42F2107153
:103B500000FB01F400F078FF48F21F51C5F2EB11B1
:103B6000A0FB01014809B4FBF0F188B2A98170BD46
:103B7000F0B581B041F2F475C2F20005297840F643
:103B8000C0760129C2F2001621D1A9680A1841F2B3
:103B90005D01C2F2000101F178030620B3F9007063
:103BA000BA4204DA0138A3F11403F7D1002000EB84
:103BB000800231F9224031683F22CEF2C00211402A
:103BC00031603168013041EA006030601DE06A78A0
:103BD000002918BF023202EB0211AA6840F64B77A7
:103BE000C2F200078C00104407EB810100F01CF8C2
:103BF00000F054F8212803D13819B0F9024004E04C
:103C00003819011DFFF71AFE04462046FFF734FE5F
:103C1000306841F62C01C2F200010860A86821B2A8
:103C2000081A686001B0F0BDB0B50A784CF6CD4313
:103C30008242C8BF0246A2F1C800CCF6CC43A0FB2A
:103C400003036FF0030000EAD300081AC17840684C
:103C5000002A02FB010044F6D351C8BF00F5FA70F8
:103C6000C1F26201A0FB010141F2F470C2F2000056
:103C700004784FF4004040EA9115022C08BF8D09EA
:103C800000F0EAFD024648F63A00C0F20000214684
:103C90002B46FCF751FB2846B0BD0000B0B50446EA
:103CA00034A02146FCF748FBC4F34310052802D991
:103CB0001F21052007E020B114F01F0108BF0121DA
:103CC00001E00120012140F6C075C2F200152A680A
:103CD00043F6FF73CEF2C0031A402A604CF2000292
:103CE000CFF6FF72824002F47E124FF6C87C42EAA1
:103CF0000162C0F23F0C2B6882EA0C021A432A6070
:103D0000220441EA401444F20810C4F208004FF4BF
:103D1000800116D4FEF7C2FA48F6E300C0F20000B4
:103D20002146FCF709FB41F2F470C2F20000017871
:103D30002A6848F6B800C0F20000FCF7FDFA2046F9
:103D4000B0BDFEF7D7FA48F6E300C0F20000214606
:103D5000FCF7F2FA41F2F470C2F2000001782A682E
:103D600048F6B800C0F20000FCF7E6FA04F500409F
:103D7000B0BD00BF50415F53747269706573416E8E
:103D800064536C696365735365743A696E707574D6
:103D90003A2025580D0A000010B544F22414C4F24C
:103DA000080420464FF4EE41FEF778FA20464FF41F
:103DB0008A41FEF79FFA201F0121FEF79BFA10BDF2
:103DC00010B5044600F080F818B900F059F800F07A
:103DD0008DF8204600F014F800F076F8002818BF9F
:103DE00010BD00F091F800F077F810BD01F460010B
:103DF00045F2740203310001C4F208021150704709
:103E0000F0B581B045F21806C4F20806356800F036
:103E100089F8B169044600F057F8D0B1B069274677
:103E2000B4EB500F24BFB069470800BF3168284683
:103E300000F012F8B842F9D33168284600F00CF8C7
:103E4000844206D93168284600F006F83568241AFD
:103E5000E4E701B0F0BD0000081A28BF704745F242
:103E60003001C4F2080109680844013070470000BD
:103E700045F26400C4F208004FF0FF310160704762
:103E8000B0B540F20044C0F2060420460121FEF71E
:103E90005BFB45F2000541F20010C4F20805C0F2D8
:103EA00001002860204600F04DF84DF68361C4F211
:103EB0001B31A0FB0101880CA8624FF0FF3000F01D
:103EC00031F801382863B0BD45F20C00C4F2080097
:103ED000006800F00100704745F21000C4F20800CD
:103EE00000210160416081607047000080B545F2AB
:103EF0000400C4F20800016841F00101016000F013
:103F0000A7FF00F055FF80BD80B545F20400C4F264
:103F10000800016841F00401016000F069FF00F051
:103F200047FF80BD45F22801C4F2080109684843F3
:103F300070470000704700007047000080B5FEF732
:103F400003FB80BD10B500F4781044F20014B0F506
:103F5000802FC4F20E0409D10C3400F04FFD21680B
:103F6000C1F308210131B0FBF1F010BD05D8B0F567
:103F7000003F11D00028F0D00BE0B0F5C02F0DD0DD
:103F8000B0F5202F0CD0B0F5002F02D100F036FD97
:103F900010BDFEF711FB10BD0834DEE71034DCE77E
:103FA00000F02CFD6169DBE700EB400040F20051BE
:103FB0004002C4F2023101220A50704710B540F2AB
:103FC0000044C0F2060404F540500121FFF7B6FF9B
:103FD00020460121FFF7B2FF04F580400121FFF7E1
:103FE000ADFF04F5E0400121FFF7A8FF04F5C04054
:103FF0000121FFF7A3FF04F5A0400121FFF79EFF79
:1040000004F500500121FFF799FF04F5004001215C
:10401000FFF794FF10BD000044F29400C4F20800C2
:10402000016841F00101016070470000A022C4F264
:10403000080252F8203023F4407342F8203052F83E
:10404000203043EA012142F82010704770B5002863
:104050004FF000054BD044F288160446C4F20E0619
:10406000FFF7ACFF40F6C070C2F200100068856038
:10407000456005602078012808D002280AD1B1786F
:10408000012201F0200182EA511112E0B17801F021
:10409000C0010BE048F2D411C0F6E0710968326843
:1040A00001F0010102F4800211440139B1FA81F1F9
:1040B0004909002904BF002070BD41F2F471627803
:1040C000C2F2000108704A70E088B4F902208881C9
:1040D0004A60FFF7F1FCFFF7A3FC44F25810C4F26A
:1040E00008000721FEF7DAF8FFF766FB01252846EE
:1040F00070BD000041F2EC00C4F20800016821F438
:10410000806101607047000080B500F0E7F840F67C
:10411000A071C2F20011086080BD0000B0B5044675
:10412000FFF7C4FC201A00F0D9F840F6A475C2F2DB
:1041300000152860FFF7BAFC201A143800F0CEF8FA
:10414000296801EB00402860B0BD000080B541F651
:104150008C11C2F200010860043800F0BFF840F68C
:104160009C71C2F20011086080BD00002DE9F04191
:1041700044F20406C4F20806054630684FF00450C5
:10418000B06701200C46F067FFF73AFA4FF0045091
:1041900029462246FCF763FBFFF74AFA40F6C07453
:1041A000C2F2001404F10C00D4F808806768256896
:1041B000F06540F66C70C2F200109421FCF7D6FB5B
:1041C0003C2025606760C4F8088000F087F8404212
:1041D00044F8040CBDE8F081B0B582B044F29C0410
:1041E00043F2080501A8C4F20804C4F2080500F06F
:1041F000BFFB4EF2C060C1F25310C4F8A80048F2F1
:10420000E670C4F89C004FF40860C4F8980042F2CD
:104210007A70C0F6007060609DF80500C00705D098
:104220009DF8040001289CBF2820A8644AF63F405E
:10423000286047F22800C4F208004FF0C071016006
:104240000020206646F68050C0F26330206002B045
:10425000B0BD000080B500F041F840F6B471C2F284
:104260000011086080BD000080B5043800F036F809
:1042700040F6B071C2F20011086080BDB0B50446CE
:10428000FFF714FC201A00F029F840F6B875C2F2C6
:1042900000152860FFF70AFC201A143800F01EF8F9
:1042A000296801EB00402860B0BD0000B0B50446AD
:1042B000FFF7FCFB201A00F011F840F6AC75C2F2D3
:1042C00000152860FFF7F2FB201A143800F006F8FA
:1042D000296801EB00402860B0BD0000B0B545F290
:1042E0006014C0F2070420EAE0752046FFF72AFEBA
:1042F0002046FFF727FE41F20022A0FB0501C0F295
:104300007A020023FBF7A0FFB0BD000044F23000AA
:10431000C4F20E000068C0F3C820704780B50020CA
:10432000FEF7C6FE80BD000080B5FFF7F7FF80BD39
:1043300010B5044611200521FEF7A6FA022000213F
:104340000022FEF745FB44F23000C4F20E00016883
:104350006FF3D32101604FF60001C0F20F01026834
:1043600001EAC42111430160022001210122FEF76C
:104370002FFB11200421FEF787FA10BD10B541F67E
:104380001C00C2F200000078002808BF00F026F8E8
:10439000FFF72AF941F68410C2F2000001680129F2
:1043A00016DB41F68811C2F200010A6841F6840367
:1043B000C2F200039C5C0A6801320A600A68B2F526
:1043C000807F04BF00220A6001680139016001E0BA
:1043D0004FF0FF34FFF720F9204610BD2DE9F041E2
:1043E00088B044F24010C0F2050001214FF00108EE
:1043F000FEF7AAF842F20050C0F20A000121FEF7CF
:10440000A3F803200E21042201230326FEF798FEC1
:1044100003200D2102220123FEF792FE48F2F8103C
:10442000C0F2000090E8BE0080690DF1040C079016
:1044300042F200208CE8BE00C0F204000121FEF729
:1044400083F800240020C4F201048DF8040001A9BF
:10445000204600F00FFC6667A06F41F61F7188438D
:1044600041F214610843A06700F03CFC00F078FCC6
:1044700000F03EFC00F0C8FC2046052100F0F4FBF3
:1044800041F2BC00C2F2000000214FF48062002320
:10449000FCF766F941F61C00C2F2000080F80080CB
:1044A00008B0BDE8F081000070B541F61C01C2F211
:1044B000000109780446002908BFFFF78FFF002597
:1044C00041F2D016C4F201050A2CC2F2000605D151
:1044D000307818B128460D2100F03CFC28462146D2
:1044E00000F038FC0D2C05D1307818B128460A218F
:1044F00000F030FC204670BD7047000041F6102CE3
:10450000C2F2000C9CF80010002908BF704741F669
:104510003401C2F200010A6846F21803C4F208032B
:10452000DA634A6840F6FC701A608A68C2F20010CA
:104530005A60CA689A630A695A624A691A638A6940
:104540000423C4F208031A60CA69DA630A6A1A63A8
:104550004A6AC3F89C208A6AC3F8A020CA6AC3F8D2
:10456000A4200A6BC3F8A8204A6B5A628A6B9A622D
:10457000CA6BDA620A6C0260486C98674FF6FF708B
:10458000C0F207005866886C986600208CF800001E
:104590007047000041F61020C2F2000001780029A7
:1045A00018BF704746F21802C4F20802D36B41F6F6
:1045B0003401C2F200010B6013684B6053688B60DA
:1045C000936BCB60536A0B61126B4A616C22C4F22D
:1045D000080252F8683C8B6152F82C3CCB6152F8CF
:1045E000383C0B62536B4B62936B8B62D36BCB6229
:1045F000136C0B6352F8443C4B6352F8403C8B63A2
:1046000052F83C3CCB6340F6FC73C2F200131B68CB
:104610000B6413694B6413688B64002111600121E2
:104620000170704710B540F6FC70C2F200100168CE
:1046300046F2180421F00F010160C4F208040020C2
:10464000A06320464FF4E071FDF72CFE20464FF4A6
:104650008071FDF753FE0021CFF6FF712046FDF774
:104660004DFE0420C4F20800052140F83C1B012146
:104670000124FDF743FE44F20800C4F20800046080
:1046800010BD000010B502F009FE0420C4F20800BD
:1046900000218167052140F83C1B01210124FDF721
:1046A0002DFE44F20800C4F20800046010BD0000B2
:1046B00080B56820C4F208000421FDF71FFE44F213
:1046C0000800C4F208002021016080BD012101FA28
:1046D00000F070472DE9F04381B044F2381943F2FD
:1046E00030080C460746C4F20809C4F2080800F076
:1046F000B3F80546384600F027F9D9F80000012D37
:1047000020F0100008BF1030C9F8000000F09CF93C
:10471000064641F2B470C2F2000007606F43F8042D
:10472000790B32460023FBF78FFD48F8040C00F0AC
:104730006BF841F2B073A5FB0021C2F200031860D0
:10474000C80440EA5231D00432460023FBF77CFD16
:10475000D8F800306FF31F5003F48013C8F800300E
:10476000D8F80030A4FB05211843C8F8000041F236
:10477000AC70C2F200000460C80440EA5231D004B8
:1047800032460023FBF760FDC8F80C0041F611200B
:10479000C2F20000017821B9D8F8201001F03F01E1
:1047A000017059F8A41CC9061ED549F68171C1F2E1
:1047B0005E61A7FB0112510D43F6F412CFF6FF72B2
:1047C00040F2535311FB032242F65053C0F2190337
:1047D000007802FB013149F28062C0F29802504336
:1047E000B0FBF1F0C8F8200000F04CF801B0BDE8D3
:1047F000F083000044F29400C4F20800016841F024
:10480000040101607047000010B546F23801C4F29F
:1048100008010868C0F3C2535A1E032A06D803F1E0
:10482000180048F25823C0F20003185C032A88BF1E
:104830000720096801F00701CA1E022A01D2C4003C
:1048400004E0002914BF840000EB400400F0FCF8F1
:10485000B0FBF4F010BD000043F23400C4F20800D5
:104860000168026801F00701C2F3C202002A08BF12
:10487000012200685143C0F38210002808BF0120C4
:104880004843704770B541F2AC7043F2380141F2D1
:10489000B072C2F20000C4F20801C2F20002006865
:1048A0000968126844F2A40501FB002041F2B471CA
:1048B000C2F200010968C4F2080508444FF6CF614E
:1048C000CDF6E631A0FB01121D2101EB527620FA54
:1048D00006F4284643F6FF51FDF7E8FC41F2BC70B0
:1048E000C2F20000006804EB5001B1FBF0F029684F
:1048F000013840EA0630084340F4E840286020468A
:1049000000F002F870BD0000B0B544F23005C4F20A
:104910000805044628464FF4EE61FDF7C7FC00F099
:1049200093F84000B4FBF0F00722411E072828BF8F
:1049300010462B68072943EA002038BF0A4640EAA0
:1049400002102860B0BD000010B50446FFF784FFD8
:104950004EF2A071CFF6DC7100FB041142F2C1727D
:10496000C0F209020020914238BF012010BD0000B2
:104970004FF6E071CEF20F014A680B6802F00F02A9
:10498000C3F3811343EA820282700A6802F03F0295
:1049900042708A68C96802F0F002C1F30311114441
:1049A0000170704748F20020C0F6E0700068C0B2A5
:1049B0007047000048F2FC10C0F6E0700068000E7E
:1049C0007047000048F2F011C0F6E07108684968CD
:1049D0007047000080B500F011F844F20811C4F2ED
:1049E0000E010968C1F308210131B0FBF1F040F27A
:1049F0001001C2F20001086080BD000044F2940082
:104A0000C4F20E00016801F0070102290DD003294C
:104A100011D0042919BF40F21801C2F2000140F27E
:104A20001C01C2F20001096807E040F21401C2F261
:104A30000001096801E04FF40041C06EC0F304209A
:104A40000130B1FBF0F0704740F21400C2F20000F8
:104A50000068704740F200004EF68851C0F2000036
:104A6000CEF2000141F8800C086840F47000086044
:104A700043F24000C4F20E00416941F4005141612B
:104A8000016821F003010160416B21F001014163E4
:104A9000016A21F080510162704700004FF400402C
:104AA0007047000040F21C00C2F20000006870472E
:104AB0004FF20000C0F24920704700004FF47A70B6
:104AC0007047000080B543F22000C4F20E00006879
:104AD000C0B201F06DFC40B280BD000010B5FEF721
:104AE00097FAB0F1FF3F12DD400022D541F60400F5
:104AF000C2F200000068046834B10021C0E900116E
:104B0000FFF7E0FF0121A0474FF080400FE041F6A2
:104B10002000C2F200000068046834B10021C0E93E
:104B20000011FFF7CFFF0021A0474FF00040FEF734
:104B300057FA02F039FD10BD80B541F29420C2F25F
:104B400000000121017041F6B010C2F200003021D6
:104B5000FBF70CFF41F6E010C2F200003021FBF73A
:104B600005FF41F6040041F62401C2F20000C2F242
:104B70000001016041F62000C2F20000016000F077
:104B80002DFA01F0EBFC01F0DBFC00F009F900F07C
:104B900057F902F009FD002080BD000080B500201B
:104BA000C4F201000169090628D500F0CDF841F6EC
:104BB0009011C2F200010A6841F68403C2F20003B8
:104BC000985408680130086041F68410C2F2000071
:104BD0000268013202600A68B2F5807F04BF0022D9
:104BE0000A600268B2F5807FD8BF80BD00220A60EB
:104BF000026041F68810C2F20000026080BD000031
:104C000070B51C461646054631B944F24010C0F254
:104C10000500FDF7D1FC01464FEA7410032888BF58
:104C200070BD0DA252F820007043420802EB411102
:104C30002A68B1FBF0F022F060024FF600712A60A2
:104C4000C0F27F012A6801EBC000F831084042EA57
:104C500004012960686170BD1000000008000000B8
:104C600006000000040000000A2222EA4102C2609D
:104C7000C1607047B0B50D46044600F041F8A87C0D
:104C800018B1206840F080402060E87C18B1297D90
:104C9000204602F0C5FA687B298AEA890843104356
:104CA0006060D5E901122B7B2046FFF7A9FF687DE4
:104CB00018B1206840F480302060EA7DA97D12059B
:104CC00042EA01710022C7F27002114028782B7E5F
:104CD0002166616F21F030016167616F194361677F
:104CE000E060B0BD4820C4F20100042101607047BB
:104CF0004C20C4F20100016841F0040101607047DA
:104D000040F6AA62C260002241F2050302604360DD
:104D10004FF6F97340F20041C0F20103C4F2010101
:104D200082604261C264836440F480638B420266A5
:104D300042678267C26708BF02658842826504BF16
:104D40000020C8657047000001690906FCD5C069EC
:104D5000C0B2704702695206FCD54163704700003B
:104D60004EF28020CEF200004FF4006101607047E7
:104D700000F01F00012101FA00F04EF28021CEF276
:104D8000000108607047000000F01F00012101FAD7
:104D900000F04EF28021CEF2000108607047000062
:104DA0004EF28020CEF20000012101607047000029
:104DB0004EF28020CEF200004FF08051016070472B
:104DC0004EF28010CEF200004FF480410160BFF33C
:104DD0004F8FBFF36F8F70474EF28010CEF20000FE
:104DE0004FF080410160BFF34F8FBFF36F8F70476B
:104DF0004EF28010CEF200004FF080510160BFF300
:104E00004F8FBFF36F8F70474EF20010CEF200004D
:104E10004FF400610160704700F01F00012101FAAA
:104E200000F04EF20011CEF2000108607047000061
:104E30004EF20010CEF20000082101607047000021
:104E40004EF20010CEF20000012101607047000018
:104E50004EF20010CEF200004FF08051016070471A
:104E60004EF60C50BFF34F8FCEF2000001680422C3
:104E700001F4E061C0F2FA5211430160BFF34F8FB9
:104E800000BFFDE748F20101411A0020022988BF56
:104E90004FF0FF30704700000020704748F20101DA
:104EA000411A0020032938BF0120704710B5C8B14E
:104EB000044600783A2815D10FA12046FBF780FD63
:104EC00098B10FA12046FBF77BFD88B10EA12046CB
:104ED000FBF776FD4FF0FF31002808BF48F20301D1
:104EE000084610BD4FF0FF3010BD48F2010010BD64
:104EF00048F2020010BD00BF3A535444494E00002E
:104F00003A5354444F5554003A5354444552520076
:104F10004FF0FF3070470000B0B5144648F203026E
:104F200090420BD048F20202904209D134B14D1E9A
:104F300015F8010F02F07AFA013CF9D10020B0BD5A
:104F40004FF0FF30B0BD000080B5B820C0F2320095
:104F5000FDF72CFC042807D0082808D0072814BF28
:104F6000002000F035F880BDFFF76EFD80BD01F038
:104F70009FFB80BD10B544F294047928C4F2080464
:104F800020DB41F2A060C2F200000078D0B104F151
:104F900070004DF60171FDF781F904F188004DF6BE
:104FA0000171FDF77BF9206F40F457402067D4F87A
:104FB000880040F45740C4F88800206840F008009A
:104FC000206010BD206820F00800206010BD0000A7
:104FD00040F22400C2F200000068704748F2B010AE
:104FE000C0F6E0700168406D6FF0FE0CC2B25CFA72
:104FF000A1F35CFA80F0B3FA83F3B0FA80F05B09B6
:10500000400918434CF6CD4318BF90224FEAC20026
:10501000CCF6CC43A0FB0303C1F3074018BF192013
:1050200000EB800102EBD10141F2A462C2F2000266
:10503000116041F2A86100EB9300C2F20001086028
:105040007047000080B502290AD001290CD0002940
:1050500018BF80BD024614A01146FBF76DF980BD54
:1050600004A0FBF767FB80BD07A00821FBF764F9EC
:1050700080BD00BF496E76616C696420617267759E
:105080006D656E740D000000546F6F206D616E7958
:1050900020617267756D656E74732C206D61782068
:1050A00069732025640D0A00436F6D6D616E642085
:1050B0006E6F7420666F756E643A20272573270D16
:1050C0000A00000080B500210022FBF7BBFA80BD7A
:1050D00080B500210022FBF7EDFA80BD8446002850
:1050E0004FF0010018BF002900D17047CCF8001024
:1050F00000200CF108010DC18CF80400704700007D
:105100002DE9F04F81B0804640B3D8F8000028B3B5
:1051100008F108040026002717E000BF0846FBF747
:105120007FFB014622680B46002AA06808BF334671
:105130008E42D8BF1E46002A294608BF3946AF42D4
:10514000D8BF0F4604F1100450B1FBF769FB54F8C7
:10515000041C05460029E1D10021E3E700260027D1
:1051600026A0FBF7E7FA48F27920C0F20000FBF72F
:10517000E1FAB8F1000F3AD0D8F80020BAB348F6F7
:10518000390A7D42764208F108040FF2A0082AA7E6
:105190000FF28809C0F2000A0FF2840B0AE000BF88
:1051A00040461146FBF7C8F83846FBF7C3FAA26839
:1051B0001034E2B120680028F2D048462946FBF7B7
:1051C000BBF854F8042C2AB11078002808BF5246C6
:1051D00001E000BF524658463146FBF7ADF8616822
:1051E0000029E1D008780028DED00FA0DAE712A06D
:1051F000FBF7A0FA012001B0BDE8F08F3C636F6DB2
:105200006D616E643E203C617267733E203C686550
:105210006C7020746578743E0D000000252A7300C0
:1052200020252A730000000020257300202D2D2D3D
:10523000202573202D2D2D000D0000002DE9F043B9
:1052400081B000284FF0FF0918BF002904D14FFAA0
:1052500089F001B0BDE8F0830446D0E9027015463C
:105260003A44824230D220682A463844FBF7F7FAA3
:10527000A0684FF0000828448742A06027D24FF072
:10528000000900250AE020790D2818BF09F101095D
:105290007D1C2671A068013787421BD22068C65D3D
:1052A0000D2E01D00A2EF5D1AF4200F8078004D0B0
:1052B00021682069294401F0F7FE0A2E08BFAF4299
:1052C000E1D009F10109E3E74FF0FE09BFE700254E
:1052D0004FF00009002DBAD0421B2068A26041198E
:1052E000FBF702FBB3E7000080B507A0FBF722FA4B
:1052F00041F63000C2F200000078002808BF80BDEF
:1053000005A0FBF717FA80BD424545503A204552AB
:10531000524F520D00000000436F6D6D616E6420AE
:105320006E6F7420616C6C6F7765642E0D000000E9
:1053300080B502A0FBF7FEF980BD00BF43414C5F82
:105340004354554E453A204E6F7420696D706C651C
:105350006D656E7465640D0080B507A0FBF7EAF912
:1053600041F63000C2F200000078002808BF80BD7E
:1053700005A0FBF7DFF980BD4745545F4154543A1F
:10538000204552524F520D00436F6D6D616E642087
:105390006E6F7420616C6C6F7765642E0D00000079
:1053A00080B502A0FBF7C6F980BD00BF4745545F3A
:1053B0004245523A204E6F7420696D706C656D6580
:1053C0006E7465640D00000080B503A0FBF7B2F9B0
:1053D00009A0FBF7AFF980BD4745545F4348414EF4
:1053E0004E454C3A20556E64657220646576656C56
:1053F0006F706D656E740D004745545F4348414EB4
:105400004E454C3A20300D0080B5FEF77FFF014637
:1054100001A0FAF791FF80BD4745545F4354554EB4
:10542000453A2025640D0A0080B502200421C0F60B
:10543000E070C0F6E0710088096840EA014102A00E
:10544000FAF77AFF80BD00BF4745545F444556498F
:10545000443A20307825580D0A00000080B507A096
:10546000FBF768F941F63000C2F20000007800282E
:1054700008BF80BD06A0FBF75DF980BD4745545FBE
:105480004558544154543A204552524F520D000051
:10549000436F6D6D616E64206E6F7420616C6C6F14
:1054A0007765642E0D00000080B503A0FBF742F97C
:1054B0000AA0FBF73FF980BD4745545F465245516E
:1054C0004F46465345543A20556E646572206465D4
:1054D00076656C6F706D656E740D00004745545FA6
:1054E000465245514F46465345543A20300D000030
:1054F00080B507A0FBF71EF941F63000C2F20000AC
:105500000078002808BF80BD05A0FBF713F980BD17
:105510004745545F4B45593A204552524F520D0072
:10552000436F6D6D616E64206E6F7420616C6C6F83
:105530007765642E0D00000080B541F25C00C2F278
:105540000000007820B101F05BFD01F005FF80BD97
:1055500007A0FBF7EFF841F63000C2F20000007838
:10556000002808BF80BD07A0FBF7E4F880BD00BF9E
:105570004745545F4C494748543A204552524F5290
:105580000D00000053656E736F72206973206F66A3
:10559000662E0D0080B503A0FBF7CCF809A0FBF741
:1055A000C9F880BD4745545F50414354554E453A74
:1055B00020556E64657220646576656C6F706D65EC
:1055C0006E740D004745545F50414354554E453A63
:1055D00020302C300D0000002DE9F04381B041F265
:1055E000D215C2F20005288841F2A029C2F20009B2
:1055F000B0B10020002100240022002308E000BFF9
:10560000652FA4BF394401322F880130B8420BD234
:1056100059F8207017F1650FF2DC3B440134F3E7D1
:10562000002300220024002120A00094FAF784FE29
:1056300041F63000C2F200000078A0B322A0FBF7D0
:1056400079F8288858B1002723A400BF59F82710FB
:105650002046FAF771FE288801378742F6D320A04A
:10566000FBF768F82888F0B100270FF27C0806E005
:105670004046FBF75FF828880137874213D259F874
:10568000270000F63F017F29F2D300F50060C11723
:1056900000EB9160841100264020FBF745F80136AD
:1056A000A642F9D3E4E701B0BDE8F0834745545F73
:1056B0005049523A2025642C2025642C2025642C46
:1056C0002025640D0A000000524157205049522005
:1056D000444154413A0D000025640D0A00000000C9
:1056E00047726170682E0D000D00000080B503A0A8
:1056F000FBF720F809A0FBF71DF880BD4745545F74
:10570000504F5745523A20556E6465722064657655
:10571000656C6F706D656E740D0000004745545FD9
:10572000504F5745523A20302064426D0D00000022
:1057300080B503A0FAF7FEFF0AA0FAF7FBFF80BDD1
:105740004745545F504F5745524C4556454C3A20BB
:10575000556E64657220646576656C6F706D656EFC
:10576000740D00004745545F504F5745524C455605
:10577000454C3A20300D000080B503A0FAF7DAFF5F
:1057800009A0FAF7D7FF80BD4745545F52535349EC
:105790003A20556E64657220646576656C6F706D35
:1057A000656E740D000000004745545F5253534925
:1057B0003A202D3230302064426D0D0080B503A0B8
:1057C000FAF7B8FF0AA0FAF7B5FF80BD4745545F66
:1057D000525353494F46465345543A20556E6465DB
:1057E0007220646576656C6F706D656E740D000077
:1057F0004745545F525353494F46465345543A2008
:10580000302064420D00000080B502A0FAF792FF3C
:1058100080BD00BF4745545F5258434F554E543AE0
:10582000204E6F7420696D706C656D656E74656473
:105830000D00000080B503A0022103220023FAF727
:105840007BFD80BD48573A2025642053573A2025D8
:10585000642E25640D0A000070B52DED048B86B012
:10586000FFF730F9044640F22000C2F20000006861
:1058700002F0E4FB054641F29820C2F20000006805
:105880000E4602F0DBFB41EC180B41F2C810C2F2ED
:105890000000006802F0D2FB41EC190B41F29C20A1
:1058A000C2F20000006802F0C9FB41EC100B07A037
:1058B00021462A4633468DEC048B8DED040BFAF716
:1058C0003BFD06B0BDEC048B70BD00BF4745545F87
:1058D00056543A2025642C20252E31662C20252E66
:1058E00031662C20252E31662C20252E31660D0A9E
:1058F0000000000080B505A0FAF71CFFFFF762F872
:10590000024605A00B46FAF717FD80BD494E464FEB
:105910003A204F4B0D0000004D435549443A20308A
:1059200078256C6C580D0A0080B541F6981041F24C
:10593000AC6140F22803C2F20000C2F20001C2F2E0
:1059400000034FF48072FFF7C9FB80BD10B54868B3
:105950000C46FFF7BDFBA16804460846FFF7B8FBFD
:1059600021060ED00EA0FAF7E5FE41F63000C2F295
:1059700000000078002808BF10BD0EA0FAF7DAFE7C
:1059800010BD000605D001F0D7F90FA0FAF7D2FE3E
:1059900010BD01F0CDF910A0FAF7CCFE10BD00BF8C
:1059A0004C45445F544553543A204552524F520D92
:1059B0000000000057726F6E67204C4544206E75E2
:1059C0006D6265722E0D00004C45445F5445535482
:1059D0003A20302C20310D004C45445F544553543F
:1059E0003A20302C20300D0010B54868FFF770FBCE
:1059F00000062FD047F20020C0F20400012101244C
:105A0000FCF7A2FD052003210C220123FDF798FBE2
:105A100003200F210C220123FDF792FB01200E2110
:105A200004220023FDF78CFB00F0FCFE01F094FC47
:105A300041F25C00C2F2000004701DA0FAF77AFE89
:105A400041F63000C2F20000007880B31BA0FAF7E4
:105A500071FE10BD01200E2104220123FDF770FB11
:105A600047F20020C0F2040000210024FCF76CFD86
:105A70000520032100220023FDF762FB03200F21F4
:105A800000220023FDF75CFB41F25C00C2F2000043
:105A900004700DA0FAF74EFE41F63000C2F200008D
:105AA0000078002808BF10BD0BA0FAF743FE10BD18
:105AB0005049525F454E3A204F4E0D0041564444E6
:105AC000206F6E2E0D0000005049525F454E3A2067
:105AD0004F46460D0000000041564444206F666664
